{
  "contractName": "MVPManager",
  "abi": [
    {
      "inputs": [],
      "stateMutability": "nonpayable",
      "type": "constructor"
    },
    {
      "inputs": [
        {
          "internalType": "uint256",
          "name": "",
          "type": "uint256"
        }
      ],
      "name": "_totalMinted",
      "outputs": [
        {
          "internalType": "uint256",
          "name": "",
          "type": "uint256"
        }
      ],
      "stateMutability": "view",
      "type": "function"
    },
    {
      "inputs": [
        {
          "internalType": "uint256",
          "name": "id",
          "type": "uint256"
        }
      ],
      "name": "totalMinted",
      "outputs": [
        {
          "internalType": "uint256",
          "name": "",
          "type": "uint256"
        }
      ],
      "stateMutability": "view",
      "type": "function"
    }
  ],
  "bytecode": "0x608060405234801561001057600080fd5b5061018e806100206000396000f3fe608060405234801561001057600080fd5b50600436106100365760003560e01c80639c544f3c1461003b5780639d7f4ebf1461006b575b600080fd5b610055600480360381019061005091906100e4565b61009b565b604051610062919061011c565b60405180910390f35b610085600480360381019061008091906100e4565b6100b3565b604051610092919061011c565b60405180910390f35b60006020528060005260406000206000915090505481565b6000806000838152602001908152602001600020549050919050565b6000813590506100de81610141565b92915050565b6000602082840312156100f657600080fd5b6000610104848285016100cf565b91505092915050565b61011681610137565b82525050565b6000602082019050610131600083018461010d565b92915050565b6000819050919050565b61014a81610137565b811461015557600080fd5b5056fea264697066735822122013d3845be13512ef188dcbe984788b95207cf1ab1f836d09351606e9605357b364736f6c63430008000033",
  "immutableReferences": {},
  "source": "//SPDX-License-Identifier:  MIT\r\npragma solidity ^0.8.0;\r\n\r\ncontract MVPManager{\r\n\r\n  mapping(uint256 => uint256) public _totalMinted;\r\n\r\n  constructor (){\r\n      }\r\n\r\n      function totalMinted(uint256 id) public view virtual returns (uint256) {\r\n          return _totalMinted[id];\r\n      }\r\n}\r\n",
  "sourcePath": "C:\\Users\\jjrab\\OneDrive\\Desktop\\Tokndev\\MVP\\contracts\\mvpManager.sol",
  "compiler": {
    "name": "solc",
    "version": "0.8.0+commit.c7dfd78e.Emscripten.clang"
  },
  "schemaVersion": "3.4.3",
  "updatedAt": "2021-12-11T03:43:49.547Z",
  "devdoc": {
    "kind": "dev",
    "methods": {},
    "version": 1
  },
  "userdoc": {
    "kind": "user",
    "methods": {},
    "version": 1
  }
}