{
  "contractName": "NFTSContract",
  "abi": [
    {
      "inputs": [
        {
          "internalType": "uint256",
          "name": "_maxMint",
          "type": "uint256"
        },
        {
          "internalType": "string",
          "name": "_baseURI",
          "type": "string"
        },
        {
          "internalType": "uint256",
          "name": "_initialCount",
          "type": "uint256"
        }
      ],
      "stateMutability": "nonpayable",
      "type": "constructor"
    },
    {
      "anonymous": false,
      "inputs": [
        {
          "indexed": true,
          "internalType": "address",
          "name": "account",
          "type": "address"
        },
        {
          "indexed": true,
          "internalType": "address",
          "name": "operator",
          "type": "address"
        },
        {
          "indexed": false,
          "internalType": "bool",
          "name": "approved",
          "type": "bool"
        }
      ],
      "name": "ApprovalForAll",
      "type": "event"
    },
    {
      "anonymous": false,
      "inputs": [
        {
          "indexed": false,
          "internalType": "address",
          "name": "_to",
          "type": "address"
        },
        {
          "indexed": false,
          "internalType": "uint256",
          "name": "_count",
          "type": "uint256"
        },
        {
          "indexed": false,
          "internalType": "uint256",
          "name": "_cost",
          "type": "uint256"
        }
      ],
      "name": "NFTPurchased",
      "type": "event"
    },
    {
      "anonymous": false,
      "inputs": [
        {
          "indexed": true,
          "internalType": "address",
          "name": "previousOwner",
          "type": "address"
        },
        {
          "indexed": true,
          "internalType": "address",
          "name": "newOwner",
          "type": "address"
        }
      ],
      "name": "OwnershipTransferred",
      "type": "event"
    },
    {
      "anonymous": false,
      "inputs": [
        {
          "indexed": true,
          "internalType": "address",
          "name": "operator",
          "type": "address"
        },
        {
          "indexed": true,
          "internalType": "address",
          "name": "from",
          "type": "address"
        },
        {
          "indexed": true,
          "internalType": "address",
          "name": "to",
          "type": "address"
        },
        {
          "indexed": false,
          "internalType": "uint256[]",
          "name": "ids",
          "type": "uint256[]"
        },
        {
          "indexed": false,
          "internalType": "uint256[]",
          "name": "values",
          "type": "uint256[]"
        }
      ],
      "name": "TransferBatch",
      "type": "event"
    },
    {
      "anonymous": false,
      "inputs": [
        {
          "indexed": true,
          "internalType": "address",
          "name": "operator",
          "type": "address"
        },
        {
          "indexed": true,
          "internalType": "address",
          "name": "from",
          "type": "address"
        },
        {
          "indexed": true,
          "internalType": "address",
          "name": "to",
          "type": "address"
        },
        {
          "indexed": false,
          "internalType": "uint256",
          "name": "id",
          "type": "uint256"
        },
        {
          "indexed": false,
          "internalType": "uint256",
          "name": "value",
          "type": "uint256"
        }
      ],
      "name": "TransferSingle",
      "type": "event"
    },
    {
      "anonymous": false,
      "inputs": [
        {
          "indexed": false,
          "internalType": "string",
          "name": "value",
          "type": "string"
        },
        {
          "indexed": true,
          "internalType": "uint256",
          "name": "id",
          "type": "uint256"
        }
      ],
      "name": "URI",
      "type": "event"
    },
    {
      "inputs": [],
      "name": "MAX_mint",
      "outputs": [
        {
          "internalType": "uint256",
          "name": "",
          "type": "uint256"
        }
      ],
      "stateMutability": "view",
      "type": "function"
    },
    {
      "inputs": [],
      "name": "SONG",
      "outputs": [
        {
          "internalType": "uint256",
          "name": "",
          "type": "uint256"
        }
      ],
      "stateMutability": "view",
      "type": "function"
    },
    {
      "inputs": [
        {
          "internalType": "uint256",
          "name": "",
          "type": "uint256"
        }
      ],
      "name": "_totalMinted",
      "outputs": [
        {
          "internalType": "uint256",
          "name": "",
          "type": "uint256"
        }
      ],
      "stateMutability": "view",
      "type": "function"
    },
    {
      "inputs": [
        {
          "internalType": "address",
          "name": "account",
          "type": "address"
        },
        {
          "internalType": "uint256",
          "name": "id",
          "type": "uint256"
        }
      ],
      "name": "balanceOf",
      "outputs": [
        {
          "internalType": "uint256",
          "name": "",
          "type": "uint256"
        }
      ],
      "stateMutability": "view",
      "type": "function"
    },
    {
      "inputs": [
        {
          "internalType": "address[]",
          "name": "accounts",
          "type": "address[]"
        },
        {
          "internalType": "uint256[]",
          "name": "ids",
          "type": "uint256[]"
        }
      ],
      "name": "balanceOfBatch",
      "outputs": [
        {
          "internalType": "uint256[]",
          "name": "",
          "type": "uint256[]"
        }
      ],
      "stateMutability": "view",
      "type": "function"
    },
    {
      "inputs": [
        {
          "internalType": "address",
          "name": "account",
          "type": "address"
        },
        {
          "internalType": "address",
          "name": "operator",
          "type": "address"
        }
      ],
      "name": "isApprovedForAll",
      "outputs": [
        {
          "internalType": "bool",
          "name": "",
          "type": "bool"
        }
      ],
      "stateMutability": "view",
      "type": "function"
    },
    {
      "inputs": [],
      "name": "owner",
      "outputs": [
        {
          "internalType": "address",
          "name": "",
          "type": "address"
        }
      ],
      "stateMutability": "view",
      "type": "function"
    },
    {
      "inputs": [],
      "name": "rate",
      "outputs": [
        {
          "internalType": "uint256",
          "name": "",
          "type": "uint256"
        }
      ],
      "stateMutability": "view",
      "type": "function"
    },
    {
      "inputs": [],
      "name": "renounceOwnership",
      "outputs": [],
      "stateMutability": "nonpayable",
      "type": "function"
    },
    {
      "inputs": [
        {
          "internalType": "address",
          "name": "from",
          "type": "address"
        },
        {
          "internalType": "address",
          "name": "to",
          "type": "address"
        },
        {
          "internalType": "uint256[]",
          "name": "ids",
          "type": "uint256[]"
        },
        {
          "internalType": "uint256[]",
          "name": "amounts",
          "type": "uint256[]"
        },
        {
          "internalType": "bytes",
          "name": "data",
          "type": "bytes"
        }
      ],
      "name": "safeBatchTransferFrom",
      "outputs": [],
      "stateMutability": "nonpayable",
      "type": "function"
    },
    {
      "inputs": [
        {
          "internalType": "address",
          "name": "from",
          "type": "address"
        },
        {
          "internalType": "address",
          "name": "to",
          "type": "address"
        },
        {
          "internalType": "uint256",
          "name": "id",
          "type": "uint256"
        },
        {
          "internalType": "uint256",
          "name": "amount",
          "type": "uint256"
        },
        {
          "internalType": "bytes",
          "name": "data",
          "type": "bytes"
        }
      ],
      "name": "safeTransferFrom",
      "outputs": [],
      "stateMutability": "nonpayable",
      "type": "function"
    },
    {
      "inputs": [
        {
          "internalType": "address",
          "name": "operator",
          "type": "address"
        },
        {
          "internalType": "bool",
          "name": "approved",
          "type": "bool"
        }
      ],
      "name": "setApprovalForAll",
      "outputs": [],
      "stateMutability": "nonpayable",
      "type": "function"
    },
    {
      "inputs": [
        {
          "internalType": "bytes4",
          "name": "interfaceId",
          "type": "bytes4"
        }
      ],
      "name": "supportsInterface",
      "outputs": [
        {
          "internalType": "bool",
          "name": "",
          "type": "bool"
        }
      ],
      "stateMutability": "view",
      "type": "function"
    },
    {
      "inputs": [
        {
          "internalType": "uint256",
          "name": "id",
          "type": "uint256"
        }
      ],
      "name": "totalMinted",
      "outputs": [
        {
          "internalType": "uint256",
          "name": "",
          "type": "uint256"
        }
      ],
      "stateMutability": "view",
      "type": "function"
    },
    {
      "inputs": [
        {
          "internalType": "address",
          "name": "newOwner",
          "type": "address"
        }
      ],
      "name": "transferOwnership",
      "outputs": [],
      "stateMutability": "nonpayable",
      "type": "function"
    },
    {
      "inputs": [
        {
          "internalType": "uint256",
          "name": "",
          "type": "uint256"
        }
      ],
      "name": "uri",
      "outputs": [
        {
          "internalType": "string",
          "name": "",
          "type": "string"
        }
      ],
      "stateMutability": "view",
      "type": "function"
    },
    {
      "inputs": [
        {
          "internalType": "address",
          "name": "_account",
          "type": "address"
        },
        {
          "internalType": "uint256",
          "name": "_id",
          "type": "uint256"
        },
        {
          "internalType": "uint256",
          "name": "_quantity",
          "type": "uint256"
        }
      ],
      "name": "mintMyNFT",
      "outputs": [],
      "stateMutability": "payable",
      "type": "function"
    },
    {
      "inputs": [
        {
          "internalType": "uint256",
          "name": "_quantity",
          "type": "uint256"
        }
      ],
      "name": "price",
      "outputs": [
        {
          "internalType": "uint256",
          "name": "",
          "type": "uint256"
        }
      ],
      "stateMutability": "view",
      "type": "function"
    }
  ],
  "bytecode": "0x608060405266110d9316ec00006005553480156200001c57600080fd5b50604051620048b2380380620048b2833981810160405281019062000042919062000b30565b816200005481620000c760201b60201c565b506200007562000069620000e360201b60201c565b620000eb60201b60201c565b82600681905550620000913360016002620001b160201b60201c565b8060046000600181526020019081526020016000206000828254620000b79190620011ca565b9250508190555050505062001501565b8060029080519060200190620000df929190620009b4565b5050565b600033905090565b6000600360009054906101000a900473ffffffffffffffffffffffffffffffffffffffff16905081600360006101000a81548173ffffffffffffffffffffffffffffffffffffffff021916908373ffffffffffffffffffffffffffffffffffffffff1602179055508173ffffffffffffffffffffffffffffffffffffffff168173ffffffffffffffffffffffffffffffffffffffff167f8be0079c531659141344cd1fd0a4f28419497f9722a3daafe3b4186f6b6457e060405160405180910390a35050565b600654620001c66001620004bb60201b60201c565b11156200020a576040517f08c379a0000000000000000000000000000000000000000000000000000000008152600401620002019062001032565b60405180910390fd5b6200021a620000e360201b60201c565b73ffffffffffffffffffffffffffffffffffffffff1662000240620004d860201b60201c565b73ffffffffffffffffffffffffffffffffffffffff161462000299576040517f08c379a0000000000000000000000000000000000000000000000000000000008152600401620002909062001054565b60405180910390fd5b600654620002ad83620004bb60201b60201c565b1115620002f1576040517f08c379a0000000000000000000000000000000000000000000000000000000008152600401620002e89062001098565b60405180910390fd5b600654816200030684620004bb60201b60201c565b620003129190620011ca565b111562000356576040517f08c379a00000000000000000000000000000000000000000000000000000000081526004016200034d9062001010565b60405180910390fd5b60028111156200039d576040517f08c379a0000000000000000000000000000000000000000000000000000000008152600401620003949062001076565b60405180910390fd5b620003ae816200050260201b60201c565b341015620003f3576040517f08c379a0000000000000000000000000000000000000000000000000000000008152600401620003ea90620010ba565b60405180910390fd5b6200043c8383836040518060400160405280600181526020017f20000000000000000000000000000000000000000000000000000000000000008152506200051b60201b60201c565b8060046000600181526020019081526020016000206000828254620004629190620011ca565b925050819055507fa6d32bfcc7cd31e4d5ee7adeef7edd500cab0e64b4a494de4f832d41fd70f56d83826200049d846200050260201b60201c565b604051620004ae9392919062000f6b565b60405180910390a1505050565b600060046000838152602001908152602001600020549050919050565b6000600360009054906101000a900473ffffffffffffffffffffffffffffffffffffffff16905090565b60008160055462000514919062001227565b9050919050565b600073ffffffffffffffffffffffffffffffffffffffff168473ffffffffffffffffffffffffffffffffffffffff1614156200058e576040517f08c379a00000000000000000000000000000000000000000000000000000000081526004016200058590620010dc565b60405180910390fd5b6000620005a0620000e360201b60201c565b9050620005d981600087620005bb88620006e060201b60201c565b620005cc88620006e060201b60201c565b87620007a960201b60201c565b8260008086815260200190815260200160002060008773ffffffffffffffffffffffffffffffffffffffff1673ffffffffffffffffffffffffffffffffffffffff16815260200190815260200160002060008282546200063a9190620011ca565b925050819055508473ffffffffffffffffffffffffffffffffffffffff16600073ffffffffffffffffffffffffffffffffffffffff168273ffffffffffffffffffffffffffffffffffffffff167fc3d58168c5ae7397731d063d5bbf3d657854427343f4c083240f7aacaa2d0f628787604051620006ba929190620010fe565b60405180910390a4620006d981600087878787620007b160201b60201c565b5050505050565b60606000600167ffffffffffffffff81111562000726577f4e487b7100000000000000000000000000000000000000000000000000000000600052604160045260246000fd5b604051908082528060200260200182016040528015620007555781602001602082028036833780820191505090505b509050828160008151811062000794577f4e487b7100000000000000000000000000000000000000000000000000000000600052603260045260246000fd5b60200260200101818152505080915050919050565b505050505050565b620007dd8473ffffffffffffffffffffffffffffffffffffffff16620009a160201b62000f0d1760201c565b1562000999578373ffffffffffffffffffffffffffffffffffffffff1663f23a6e6187878686866040518663ffffffff1660e01b81526004016200082695949392919062000f07565b602060405180830381600087803b1580156200084157600080fd5b505af19250505080156200087557506040513d601f19601f8201168201806040525081019062000872919062000b04565b60015b6200090d576200088462001409565b80620008915750620008d0565b806040517f08c379a0000000000000000000000000000000000000000000000000000000008152600401620008c7919062000fa8565b60405180910390fd5b6040517f08c379a0000000000000000000000000000000000000000000000000000000008152600401620009049062000fcc565b60405180910390fd5b63f23a6e6160e01b7bffffffffffffffffffffffffffffffffffffffffffffffffffffffff1916817bffffffffffffffffffffffffffffffffffffffffffffffffffffffff19161462000997576040517f08c379a00000000000000000000000000000000000000000000000000000000081526004016200098e9062000fee565b60405180910390fd5b505b505050505050565b600080823b905060008111915050919050565b828054620009c29062001328565b90600052602060002090601f016020900481019282620009e6576000855562000a32565b82601f1062000a0157805160ff191683800117855562000a32565b8280016001018555821562000a32579182015b8281111562000a3157825182559160200191906001019062000a14565b5b50905062000a41919062000a45565b5090565b5b8082111562000a6057600081600090555060010162000a46565b5090565b600062000a7b62000a75846200115f565b6200112b565b90508281526020810184848401111562000a9457600080fd5b62000aa1848285620012f2565b509392505050565b60008151905062000aba81620014cd565b92915050565b600082601f83011262000ad257600080fd5b815162000ae484826020860162000a64565b91505092915050565b60008151905062000afe81620014e7565b92915050565b60006020828403121562000b1757600080fd5b600062000b278482850162000aa9565b91505092915050565b60008060006060848603121562000b4657600080fd5b600062000b568682870162000aed565b935050602084015167ffffffffffffffff81111562000b7457600080fd5b62000b828682870162000ac0565b925050604062000b958682870162000aed565b9150509250925092565b62000baa8162001288565b82525050565b600062000bbd8262001192565b62000bc98185620011a8565b935062000bdb818560208601620012f2565b62000be681620013eb565b840191505092915050565b600062000bfe826200119d565b62000c0a8185620011b9565b935062000c1c818560208601620012f2565b62000c2781620013eb565b840191505092915050565b600062000c41603483620011b9565b91507f455243313135353a207472616e7366657220746f206e6f6e204552433131353560008301527f526563656976657220696d706c656d656e7465720000000000000000000000006020830152604082019050919050565b600062000ca9602883620011b9565b91507f455243313135353a204552433131353552656365697665722072656a6563746560008301527f6420746f6b656e730000000000000000000000000000000000000000000000006020830152604082019050919050565b600062000d11601183620011b9565b91507f4d6178206c696d697420726561636865640000000000000000000000000000006000830152602082019050919050565b600062000d53600883620011b9565b91507f53616c6520656e640000000000000000000000000000000000000000000000006000830152602082019050919050565b600062000d95602083620011b9565b91507f4f776e61626c653a2063616c6c6572206973206e6f7420746865206f776e65726000830152602082019050919050565b600062000dd7601f83620011b9565b91507f4f6e6c79206d696e742074776f204e4654532070657220496e766573746f72006000830152602082019050919050565b600062000e19601983620011b9565b91507f53616c6520656e643a206d6178204e465453206d696e746564000000000000006000830152602082019050919050565b600062000e5b601183620011b9565b91507f56616c75652062656c6f772070726963650000000000000000000000000000006000830152602082019050919050565b600062000e9d602183620011b9565b91507f455243313135353a206d696e7420746f20746865207a65726f2061646472657360008301527f73000000000000000000000000000000000000000000000000000000000000006020830152604082019050919050565b62000f0181620012e8565b82525050565b600060a08201905062000f1e600083018862000b9f565b62000f2d602083018762000b9f565b62000f3c604083018662000ef6565b62000f4b606083018562000ef6565b818103608083015262000f5f818462000bb0565b90509695505050505050565b600060608201905062000f82600083018662000b9f565b62000f91602083018562000ef6565b62000fa0604083018462000ef6565b949350505050565b6000602082019050818103600083015262000fc4818462000bf1565b905092915050565b6000602082019050818103600083015262000fe78162000c32565b9050919050565b60006020820190508181036000830152620010098162000c9a565b9050919050565b600060208201905081810360008301526200102b8162000d02565b9050919050565b600060208201905081810360008301526200104d8162000d44565b9050919050565b600060208201905081810360008301526200106f8162000d86565b9050919050565b60006020820190508181036000830152620010918162000dc8565b9050919050565b60006020820190508181036000830152620010b38162000e0a565b9050919050565b60006020820190508181036000830152620010d58162000e4c565b9050919050565b60006020820190508181036000830152620010f78162000e8e565b9050919050565b600060408201905062001115600083018562000ef6565b62001124602083018462000ef6565b9392505050565b6000604051905081810181811067ffffffffffffffff82111715620011555762001154620013bc565b5b8060405250919050565b600067ffffffffffffffff8211156200117d576200117c620013bc565b5b601f19601f8301169050602081019050919050565b600081519050919050565b600081519050919050565b600082825260208201905092915050565b600082825260208201905092915050565b6000620011d782620012e8565b9150620011e483620012e8565b9250827fffffffffffffffffffffffffffffffffffffffffffffffffffffffffffffffff038211156200121c576200121b6200135e565b5b828201905092915050565b60006200123482620012e8565b91506200124183620012e8565b9250817fffffffffffffffffffffffffffffffffffffffffffffffffffffffffffffffff04831182151516156200127d576200127c6200135e565b5b828202905092915050565b60006200129582620012c8565b9050919050565b60007fffffffff0000000000000000000000000000000000000000000000000000000082169050919050565b600073ffffffffffffffffffffffffffffffffffffffff82169050919050565b6000819050919050565b60005b8381101562001312578082015181840152602081019050620012f5565b8381111562001322576000848401525b50505050565b600060028204905060018216806200134157607f821691505b602082108114156200135857620013576200138d565b5b50919050565b7f4e487b7100000000000000000000000000000000000000000000000000000000600052601160045260246000fd5b7f4e487b7100000000000000000000000000000000000000000000000000000000600052602260045260246000fd5b7f4e487b7100000000000000000000000000000000000000000000000000000000600052604160045260246000fd5b6000601f19601f8301169050919050565b60008160e01c9050919050565b600060443d10156200141b57620014ca565b60046000803e6200142e600051620013fc565b6308c379a08114620014415750620014ca565b60405160043d036004823e80513d602482011167ffffffffffffffff821117156200146f57505050620014ca565b808201805167ffffffffffffffff81111562001490575050505050620014ca565b8060208301013d8501811115620014ad57505050505050620014ca565b620014b882620013eb565b60208401016040528296505050505050505b90565b620014d8816200129c565b8114620014e457600080fd5b50565b620014f281620012e8565b8114620014fe57600080fd5b50565b6133a180620015116000396000f3fe6080604052600436106101085760003560e01c80638da5cb5b11610095578063a22cb46511610064578063a22cb46514610395578063dee2bfc9146103be578063e985e9c5146103e9578063f242432a14610426578063f2fde38b1461044f57610108565b80638da5cb5b146102d457806396ce487c146102ff5780639c544f3c1461031b5780639d7f4ebf1461035857610108565b80632c4e722e116100dc5780632c4e722e146102015780632eb2c2d61461022c57806342d9f1ed146102555780634e1273f414610280578063715018a6146102bd57610108565b8062fdd58e1461010d57806301ffc9a71461014a5780630e89341c1461018757806326a49e37146101c4575b600080fd5b34801561011957600080fd5b50610134600480360381019061012f9190612197565b610478565b6040516101419190612e5f565b60405180910390f35b34801561015657600080fd5b50610171600480360381019061016c919061228e565b610541565b60405161017e9190612be2565b60405180910390f35b34801561019357600080fd5b506101ae60048036038101906101a991906122e0565b610623565b6040516101bb9190612bfd565b60405180910390f35b3480156101d057600080fd5b506101eb60048036038101906101e691906122e0565b6106b7565b6040516101f89190612e5f565b60405180910390f35b34801561020d57600080fd5b506102166106ce565b6040516102239190612e5f565b60405180910390f35b34801561023857600080fd5b50610253600480360381019061024e919061200d565b6106d4565b005b34801561026157600080fd5b5061026a610775565b6040516102779190612e5f565b60405180910390f35b34801561028c57600080fd5b506102a760048036038101906102a29190612222565b61077b565b6040516102b49190612b89565b60405180910390f35b3480156102c957600080fd5b506102d261092c565b005b3480156102e057600080fd5b506102e96109b4565b6040516102f69190612a75565b60405180910390f35b610319600480360381019061031491906121d3565b6109de565b005b34801561032757600080fd5b50610342600480360381019061033d91906122e0565b610c90565b60405161034f9190612e5f565b60405180910390f35b34801561036457600080fd5b5061037f600480360381019061037a91906122e0565b610ca8565b60405161038c9190612e5f565b60405180910390f35b3480156103a157600080fd5b506103bc60048036038101906103b7919061215b565b610cc5565b005b3480156103ca57600080fd5b506103d3610cdb565b6040516103e09190612e5f565b60405180910390f35b3480156103f557600080fd5b50610410600480360381019061040b9190611fd1565b610ce0565b60405161041d9190612be2565b60405180910390f35b34801561043257600080fd5b5061044d600480360381019061044891906120cc565b610d74565b005b34801561045b57600080fd5b5061047660048036038101906104719190611fa8565b610e15565b005b60008073ffffffffffffffffffffffffffffffffffffffff168373ffffffffffffffffffffffffffffffffffffffff1614156104e9576040517f08c379a00000000000000000000000000000000000000000000000000000000081526004016104e090612c5f565b60405180910390fd5b60008083815260200190815260200160002060008473ffffffffffffffffffffffffffffffffffffffff1673ffffffffffffffffffffffffffffffffffffffff16815260200190815260200160002054905092915050565b60007fd9b67a26000000000000000000000000000000000000000000000000000000007bffffffffffffffffffffffffffffffffffffffffffffffffffffffff1916827bffffffffffffffffffffffffffffffffffffffffffffffffffffffff1916148061060c57507f0e89341c000000000000000000000000000000000000000000000000000000007bffffffffffffffffffffffffffffffffffffffffffffffffffffffff1916827bffffffffffffffffffffffffffffffffffffffffffffffffffffffff1916145b8061061c575061061b82610f20565b5b9050919050565b60606002805461063290613133565b80601f016020809104026020016040519081016040528092919081815260200182805461065e90613133565b80156106ab5780601f10610680576101008083540402835291602001916106ab565b820191906000526020600020905b81548152906001019060200180831161068e57829003601f168201915b50505050509050919050565b6000816005546106c79190613023565b9050919050565b60055481565b6106dc610f8a565b73ffffffffffffffffffffffffffffffffffffffff168573ffffffffffffffffffffffffffffffffffffffff16148061072257506107218561071c610f8a565b610ce0565b5b610761576040517f08c379a000000000000000000000000000000000000000000000000000000000815260040161075890612cff565b60405180910390fd5b61076e8585858585610f92565b5050505050565b60065481565b606081518351146107c1576040517f08c379a00000000000000000000000000000000000000000000000000000000081526004016107b890612dff565b60405180910390fd5b6000835167ffffffffffffffff811115610804577f4e487b7100000000000000000000000000000000000000000000000000000000600052604160045260246000fd5b6040519080825280602002602001820160405280156108325781602001602082028036833780820191505090505b50905060005b8451811015610921576108cb85828151811061087d577f4e487b7100000000000000000000000000000000000000000000000000000000600052603260045260246000fd5b60200260200101518583815181106108be577f4e487b7100000000000000000000000000000000000000000000000000000000600052603260045260246000fd5b6020026020010151610478565b828281518110610904577f4e487b7100000000000000000000000000000000000000000000000000000000600052603260045260246000fd5b6020026020010181815250508061091a90613165565b9050610838565b508091505092915050565b610934610f8a565b73ffffffffffffffffffffffffffffffffffffffff166109526109b4565b73ffffffffffffffffffffffffffffffffffffffff16146109a8576040517f08c379a000000000000000000000000000000000000000000000000000000000815260040161099f90612d5f565b60405180910390fd5b6109b260006112f2565b565b6000600360009054906101000a900473ffffffffffffffffffffffffffffffffffffffff16905090565b6006546109eb6001610ca8565b1115610a2c576040517f08c379a0000000000000000000000000000000000000000000000000000000008152600401610a2390612d1f565b60405180910390fd5b610a34610f8a565b73ffffffffffffffffffffffffffffffffffffffff16610a526109b4565b73ffffffffffffffffffffffffffffffffffffffff1614610aa8576040517f08c379a0000000000000000000000000000000000000000000000000000000008152600401610a9f90612d5f565b60405180910390fd5b600654610ab483610ca8565b1115610af5576040517f08c379a0000000000000000000000000000000000000000000000000000000008152600401610aec90612d9f565b60405180910390fd5b60065481610b0284610ca8565b610b0c9190612fcd565b1115610b4d576040517f08c379a0000000000000000000000000000000000000000000000000000000008152600401610b4490612cbf565b60405180910390fd5b6002811115610b91576040517f08c379a0000000000000000000000000000000000000000000000000000000008152600401610b8890612d7f565b60405180910390fd5b610b9a816106b7565b341015610bdc576040517f08c379a0000000000000000000000000000000000000000000000000000000008152600401610bd390612dbf565b60405180910390fd5b610c1d8383836040518060400160405280600181526020017f20000000000000000000000000000000000000000000000000000000000000008152506113b8565b8060046000600181526020019081526020016000206000828254610c419190612fcd565b925050819055507fa6d32bfcc7cd31e4d5ee7adeef7edd500cab0e64b4a494de4f832d41fd70f56d8382610c74846106b7565b604051610c8393929190612b52565b60405180910390a1505050565b60046020528060005260406000206000915090505481565b600060046000838152602001908152602001600020549050919050565b610cd7610cd0610f8a565b838361154e565b5050565b600181565b6000600160008473ffffffffffffffffffffffffffffffffffffffff1673ffffffffffffffffffffffffffffffffffffffff16815260200190815260200160002060008373ffffffffffffffffffffffffffffffffffffffff1673ffffffffffffffffffffffffffffffffffffffff16815260200190815260200160002060009054906101000a900460ff16905092915050565b610d7c610f8a565b73ffffffffffffffffffffffffffffffffffffffff168573ffffffffffffffffffffffffffffffffffffffff161480610dc25750610dc185610dbc610f8a565b610ce0565b5b610e01576040517f08c379a0000000000000000000000000000000000000000000000000000000008152600401610df890612c9f565b60405180910390fd5b610e0e85858585856116bb565b5050505050565b610e1d610f8a565b73ffffffffffffffffffffffffffffffffffffffff16610e3b6109b4565b73ffffffffffffffffffffffffffffffffffffffff1614610e91576040517f08c379a0000000000000000000000000000000000000000000000000000000008152600401610e8890612d5f565b60405180910390fd5b600073ffffffffffffffffffffffffffffffffffffffff168173ffffffffffffffffffffffffffffffffffffffff161415610f01576040517f08c379a0000000000000000000000000000000000000000000000000000000008152600401610ef890612c7f565b60405180910390fd5b610f0a816112f2565b50565b600080823b905060008111915050919050565b60007f01ffc9a7000000000000000000000000000000000000000000000000000000007bffffffffffffffffffffffffffffffffffffffffffffffffffffffff1916827bffffffffffffffffffffffffffffffffffffffffffffffffffffffff1916149050919050565b600033905090565b8151835114610fd6576040517f08c379a0000000000000000000000000000000000000000000000000000000008152600401610fcd90612e1f565b60405180910390fd5b600073ffffffffffffffffffffffffffffffffffffffff168473ffffffffffffffffffffffffffffffffffffffff161415611046576040517f08c379a000000000000000000000000000000000000000000000000000000000815260040161103d90612cdf565b60405180910390fd5b6000611050610f8a565b905061106081878787878761193d565b60005b845181101561125d5760008582815181106110a7577f4e487b7100000000000000000000000000000000000000000000000000000000600052603260045260246000fd5b6020026020010151905060008583815181106110ec577f4e487b7100000000000000000000000000000000000000000000000000000000600052603260045260246000fd5b60200260200101519050600080600084815260200190815260200160002060008b73ffffffffffffffffffffffffffffffffffffffff1673ffffffffffffffffffffffffffffffffffffffff1681526020019081526020016000205490508181101561118d576040517f08c379a000000000000000000000000000000000000000000000000000000000815260040161118490612d3f565b60405180910390fd5b81810360008085815260200190815260200160002060008c73ffffffffffffffffffffffffffffffffffffffff1673ffffffffffffffffffffffffffffffffffffffff168152602001908152602001600020819055508160008085815260200190815260200160002060008b73ffffffffffffffffffffffffffffffffffffffff1673ffffffffffffffffffffffffffffffffffffffff16815260200190815260200160002060008282546112429190612fcd565b925050819055505050508061125690613165565b9050611063565b508473ffffffffffffffffffffffffffffffffffffffff168673ffffffffffffffffffffffffffffffffffffffff168273ffffffffffffffffffffffffffffffffffffffff167f4a39dc06d4c0dbc64b70af90fd698a233a518aa5d07e595d983b8c0526c8f7fb87876040516112d4929190612bab565b60405180910390a46112ea818787878787611945565b505050505050565b6000600360009054906101000a900473ffffffffffffffffffffffffffffffffffffffff16905081600360006101000a81548173ffffffffffffffffffffffffffffffffffffffff021916908373ffffffffffffffffffffffffffffffffffffffff1602179055508173ffffffffffffffffffffffffffffffffffffffff168173ffffffffffffffffffffffffffffffffffffffff167f8be0079c531659141344cd1fd0a4f28419497f9722a3daafe3b4186f6b6457e060405160405180910390a35050565b600073ffffffffffffffffffffffffffffffffffffffff168473ffffffffffffffffffffffffffffffffffffffff161415611428576040517f08c379a000000000000000000000000000000000000000000000000000000000815260040161141f90612e3f565b60405180910390fd5b6000611432610f8a565b90506114538160008761144488611b15565b61144d88611b15565b8761193d565b8260008086815260200190815260200160002060008773ffffffffffffffffffffffffffffffffffffffff1673ffffffffffffffffffffffffffffffffffffffff16815260200190815260200160002060008282546114b29190612fcd565b925050819055508473ffffffffffffffffffffffffffffffffffffffff16600073ffffffffffffffffffffffffffffffffffffffff168273ffffffffffffffffffffffffffffffffffffffff167fc3d58168c5ae7397731d063d5bbf3d657854427343f4c083240f7aacaa2d0f628787604051611530929190612e7a565b60405180910390a461154781600087878787611bdb565b5050505050565b8173ffffffffffffffffffffffffffffffffffffffff168373ffffffffffffffffffffffffffffffffffffffff1614156115bd576040517f08c379a00000000000000000000000000000000000000000000000000000000081526004016115b490612ddf565b60405180910390fd5b80600160008573ffffffffffffffffffffffffffffffffffffffff1673ffffffffffffffffffffffffffffffffffffffff16815260200190815260200160002060008473ffffffffffffffffffffffffffffffffffffffff1673ffffffffffffffffffffffffffffffffffffffff16815260200190815260200160002060006101000a81548160ff0219169083151502179055508173ffffffffffffffffffffffffffffffffffffffff168373ffffffffffffffffffffffffffffffffffffffff167f17307eab39ab6107e8899845ad3d59bd9653f200f220920489ca2b5937696c31836040516116ae9190612be2565b60405180910390a3505050565b600073ffffffffffffffffffffffffffffffffffffffff168473ffffffffffffffffffffffffffffffffffffffff16141561172b576040517f08c379a000000000000000000000000000000000000000000000000000000000815260040161172290612cdf565b60405180910390fd5b6000611735610f8a565b905061175581878761174688611b15565b61174f88611b15565b8761193d565b600080600086815260200190815260200160002060008873ffffffffffffffffffffffffffffffffffffffff1673ffffffffffffffffffffffffffffffffffffffff168152602001908152602001600020549050838110156117ec576040517f08c379a00000000000000000000000000000000000000000000000000000000081526004016117e390612d3f565b60405180910390fd5b83810360008087815260200190815260200160002060008973ffffffffffffffffffffffffffffffffffffffff1673ffffffffffffffffffffffffffffffffffffffff168152602001908152602001600020819055508360008087815260200190815260200160002060008873ffffffffffffffffffffffffffffffffffffffff1673ffffffffffffffffffffffffffffffffffffffff16815260200190815260200160002060008282546118a19190612fcd565b925050819055508573ffffffffffffffffffffffffffffffffffffffff168773ffffffffffffffffffffffffffffffffffffffff168373ffffffffffffffffffffffffffffffffffffffff167fc3d58168c5ae7397731d063d5bbf3d657854427343f4c083240f7aacaa2d0f62888860405161191e929190612e7a565b60405180910390a4611934828888888888611bdb565b50505050505050565b505050505050565b6119648473ffffffffffffffffffffffffffffffffffffffff16610f0d565b15611b0d578373ffffffffffffffffffffffffffffffffffffffff1663bc197c8187878686866040518663ffffffff1660e01b81526004016119aa959493929190612a90565b602060405180830381600087803b1580156119c457600080fd5b505af19250505080156119f557506040513d601f19601f820116820180604052508101906119f291906122b7565b60015b611a8457611a01613259565b80611a0c5750611a49565b806040517f08c379a0000000000000000000000000000000000000000000000000000000008152600401611a409190612bfd565b60405180910390fd5b6040517f08c379a0000000000000000000000000000000000000000000000000000000008152600401611a7b90612c1f565b60405180910390fd5b63bc197c8160e01b7bffffffffffffffffffffffffffffffffffffffffffffffffffffffff1916817bffffffffffffffffffffffffffffffffffffffffffffffffffffffff191614611b0b576040517f08c379a0000000000000000000000000000000000000000000000000000000008152600401611b0290612c3f565b60405180910390fd5b505b505050505050565b60606000600167ffffffffffffffff811115611b5a577f4e487b7100000000000000000000000000000000000000000000000000000000600052604160045260246000fd5b604051908082528060200260200182016040528015611b885781602001602082028036833780820191505090505b5090508281600081518110611bc6577f4e487b7100000000000000000000000000000000000000000000000000000000600052603260045260246000fd5b60200260200101818152505080915050919050565b611bfa8473ffffffffffffffffffffffffffffffffffffffff16610f0d565b15611da3578373ffffffffffffffffffffffffffffffffffffffff1663f23a6e6187878686866040518663ffffffff1660e01b8152600401611c40959493929190612af8565b602060405180830381600087803b158015611c5a57600080fd5b505af1925050508015611c8b57506040513d601f19601f82011682018060405250810190611c8891906122b7565b60015b611d1a57611c97613259565b80611ca25750611cdf565b806040517f08c379a0000000000000000000000000000000000000000000000000000000008152600401611cd69190612bfd565b60405180910390fd5b6040517f08c379a0000000000000000000000000000000000000000000000000000000008152600401611d1190612c1f565b60405180910390fd5b63f23a6e6160e01b7bffffffffffffffffffffffffffffffffffffffffffffffffffffffff1916817bffffffffffffffffffffffffffffffffffffffffffffffffffffffff191614611da1576040517f08c379a0000000000000000000000000000000000000000000000000000000008152600401611d9890612c3f565b60405180910390fd5b505b505050505050565b6000611dbe611db984612ed4565b612ea3565b90508083825260208201905082856020860282011115611ddd57600080fd5b60005b85811015611e0d5781611df38882611ec1565b845260208401935060208301925050600181019050611de0565b5050509392505050565b6000611e2a611e2584612f00565b612ea3565b90508083825260208201905082856020860282011115611e4957600080fd5b60005b85811015611e795781611e5f8882611f93565b845260208401935060208301925050600181019050611e4c565b5050509392505050565b6000611e96611e9184612f2c565b612ea3565b905082815260208101848484011115611eae57600080fd5b611eb98482856130f1565b509392505050565b600081359050611ed08161330f565b92915050565b600082601f830112611ee757600080fd5b8135611ef7848260208601611dab565b91505092915050565b600082601f830112611f1157600080fd5b8135611f21848260208601611e17565b91505092915050565b600081359050611f3981613326565b92915050565b600081359050611f4e8161333d565b92915050565b600081519050611f638161333d565b92915050565b600082601f830112611f7a57600080fd5b8135611f8a848260208601611e83565b91505092915050565b600081359050611fa281613354565b92915050565b600060208284031215611fba57600080fd5b6000611fc884828501611ec1565b91505092915050565b60008060408385031215611fe457600080fd5b6000611ff285828601611ec1565b925050602061200385828601611ec1565b9150509250929050565b600080600080600060a0868803121561202557600080fd5b600061203388828901611ec1565b955050602061204488828901611ec1565b945050604086013567ffffffffffffffff81111561206157600080fd5b61206d88828901611f00565b935050606086013567ffffffffffffffff81111561208a57600080fd5b61209688828901611f00565b925050608086013567ffffffffffffffff8111156120b357600080fd5b6120bf88828901611f69565b9150509295509295909350565b600080600080600060a086880312156120e457600080fd5b60006120f288828901611ec1565b955050602061210388828901611ec1565b945050604061211488828901611f93565b935050606061212588828901611f93565b925050608086013567ffffffffffffffff81111561214257600080fd5b61214e88828901611f69565b9150509295509295909350565b6000806040838503121561216e57600080fd5b600061217c85828601611ec1565b925050602061218d85828601611f2a565b9150509250929050565b600080604083850312156121aa57600080fd5b60006121b885828601611ec1565b92505060206121c985828601611f93565b9150509250929050565b6000806000606084860312156121e857600080fd5b60006121f686828701611ec1565b935050602061220786828701611f93565b925050604061221886828701611f93565b9150509250925092565b6000806040838503121561223557600080fd5b600083013567ffffffffffffffff81111561224f57600080fd5b61225b85828601611ed6565b925050602083013567ffffffffffffffff81111561227857600080fd5b61228485828601611f00565b9150509250929050565b6000602082840312156122a057600080fd5b60006122ae84828501611f3f565b91505092915050565b6000602082840312156122c957600080fd5b60006122d784828501611f54565b91505092915050565b6000602082840312156122f257600080fd5b600061230084828501611f93565b91505092915050565b60006123158383612a57565b60208301905092915050565b61232a8161307d565b82525050565b600061233b82612f6c565b6123458185612f9a565b935061235083612f5c565b8060005b838110156123815781516123688882612309565b975061237383612f8d565b925050600181019050612354565b5085935050505092915050565b6123978161308f565b82525050565b60006123a882612f77565b6123b28185612fab565b93506123c2818560208601613100565b6123cb8161323b565b840191505092915050565b60006123e182612f82565b6123eb8185612fbc565b93506123fb818560208601613100565b6124048161323b565b840191505092915050565b600061241c603483612fbc565b91507f455243313135353a207472616e7366657220746f206e6f6e204552433131353560008301527f526563656976657220696d706c656d656e7465720000000000000000000000006020830152604082019050919050565b6000612482602883612fbc565b91507f455243313135353a204552433131353552656365697665722072656a6563746560008301527f6420746f6b656e730000000000000000000000000000000000000000000000006020830152604082019050919050565b60006124e8602b83612fbc565b91507f455243313135353a2062616c616e636520717565727920666f7220746865207a60008301527f65726f20616464726573730000000000000000000000000000000000000000006020830152604082019050919050565b600061254e602683612fbc565b91507f4f776e61626c653a206e6577206f776e657220697320746865207a65726f206160008301527f64647265737300000000000000000000000000000000000000000000000000006020830152604082019050919050565b60006125b4602983612fbc565b91507f455243313135353a2063616c6c6572206973206e6f74206f776e6572206e6f7260008301527f20617070726f76656400000000000000000000000000000000000000000000006020830152604082019050919050565b600061261a601183612fbc565b91507f4d6178206c696d697420726561636865640000000000000000000000000000006000830152602082019050919050565b600061265a602583612fbc565b91507f455243313135353a207472616e7366657220746f20746865207a65726f20616460008301527f64726573730000000000000000000000000000000000000000000000000000006020830152604082019050919050565b60006126c0603283612fbc565b91507f455243313135353a207472616e736665722063616c6c6572206973206e6f742060008301527f6f776e6572206e6f7220617070726f76656400000000000000000000000000006020830152604082019050919050565b6000612726600883612fbc565b91507f53616c6520656e640000000000000000000000000000000000000000000000006000830152602082019050919050565b6000612766602a83612fbc565b91507f455243313135353a20696e73756666696369656e742062616c616e636520666f60008301527f72207472616e73666572000000000000000000000000000000000000000000006020830152604082019050919050565b60006127cc602083612fbc565b91507f4f776e61626c653a2063616c6c6572206973206e6f7420746865206f776e65726000830152602082019050919050565b600061280c601f83612fbc565b91507f4f6e6c79206d696e742074776f204e4654532070657220496e766573746f72006000830152602082019050919050565b600061284c601983612fbc565b91507f53616c6520656e643a206d6178204e465453206d696e746564000000000000006000830152602082019050919050565b600061288c601183612fbc565b91507f56616c75652062656c6f772070726963650000000000000000000000000000006000830152602082019050919050565b60006128cc602983612fbc565b91507f455243313135353a2073657474696e6720617070726f76616c2073746174757360008301527f20666f722073656c6600000000000000000000000000000000000000000000006020830152604082019050919050565b6000612932602983612fbc565b91507f455243313135353a206163636f756e747320616e6420696473206c656e67746860008301527f206d69736d6174636800000000000000000000000000000000000000000000006020830152604082019050919050565b6000612998602883612fbc565b91507f455243313135353a2069647320616e6420616d6f756e7473206c656e6774682060008301527f6d69736d617463680000000000000000000000000000000000000000000000006020830152604082019050919050565b60006129fe602183612fbc565b91507f455243313135353a206d696e7420746f20746865207a65726f2061646472657360008301527f73000000000000000000000000000000000000000000000000000000000000006020830152604082019050919050565b612a60816130e7565b82525050565b612a6f816130e7565b82525050565b6000602082019050612a8a6000830184612321565b92915050565b600060a082019050612aa56000830188612321565b612ab26020830187612321565b8181036040830152612ac48186612330565b90508181036060830152612ad88185612330565b90508181036080830152612aec818461239d565b90509695505050505050565b600060a082019050612b0d6000830188612321565b612b1a6020830187612321565b612b276040830186612a66565b612b346060830185612a66565b8181036080830152612b46818461239d565b90509695505050505050565b6000606082019050612b676000830186612321565b612b746020830185612a66565b612b816040830184612a66565b949350505050565b60006020820190508181036000830152612ba38184612330565b905092915050565b60006040820190508181036000830152612bc58185612330565b90508181036020830152612bd98184612330565b90509392505050565b6000602082019050612bf7600083018461238e565b92915050565b60006020820190508181036000830152612c1781846123d6565b905092915050565b60006020820190508181036000830152612c388161240f565b9050919050565b60006020820190508181036000830152612c5881612475565b9050919050565b60006020820190508181036000830152612c78816124db565b9050919050565b60006020820190508181036000830152612c9881612541565b9050919050565b60006020820190508181036000830152612cb8816125a7565b9050919050565b60006020820190508181036000830152612cd88161260d565b9050919050565b60006020820190508181036000830152612cf88161264d565b9050919050565b60006020820190508181036000830152612d18816126b3565b9050919050565b60006020820190508181036000830152612d3881612719565b9050919050565b60006020820190508181036000830152612d5881612759565b9050919050565b60006020820190508181036000830152612d78816127bf565b9050919050565b60006020820190508181036000830152612d98816127ff565b9050919050565b60006020820190508181036000830152612db88161283f565b9050919050565b60006020820190508181036000830152612dd88161287f565b9050919050565b60006020820190508181036000830152612df8816128bf565b9050919050565b60006020820190508181036000830152612e1881612925565b9050919050565b60006020820190508181036000830152612e388161298b565b9050919050565b60006020820190508181036000830152612e58816129f1565b9050919050565b6000602082019050612e746000830184612a66565b92915050565b6000604082019050612e8f6000830185612a66565b612e9c6020830184612a66565b9392505050565b6000604051905081810181811067ffffffffffffffff82111715612eca57612ec961320c565b5b8060405250919050565b600067ffffffffffffffff821115612eef57612eee61320c565b5b602082029050602081019050919050565b600067ffffffffffffffff821115612f1b57612f1a61320c565b5b602082029050602081019050919050565b600067ffffffffffffffff821115612f4757612f4661320c565b5b601f19601f8301169050602081019050919050565b6000819050602082019050919050565b600081519050919050565b600081519050919050565b600081519050919050565b6000602082019050919050565b600082825260208201905092915050565b600082825260208201905092915050565b600082825260208201905092915050565b6000612fd8826130e7565b9150612fe3836130e7565b9250827fffffffffffffffffffffffffffffffffffffffffffffffffffffffffffffffff03821115613018576130176131ae565b5b828201905092915050565b600061302e826130e7565b9150613039836130e7565b9250817fffffffffffffffffffffffffffffffffffffffffffffffffffffffffffffffff0483118215151615613072576130716131ae565b5b828202905092915050565b6000613088826130c7565b9050919050565b60008115159050919050565b60007fffffffff0000000000000000000000000000000000000000000000000000000082169050919050565b600073ffffffffffffffffffffffffffffffffffffffff82169050919050565b6000819050919050565b82818337600083830152505050565b60005b8381101561311e578082015181840152602081019050613103565b8381111561312d576000848401525b50505050565b6000600282049050600182168061314b57607f821691505b6020821081141561315f5761315e6131dd565b5b50919050565b6000613170826130e7565b91507fffffffffffffffffffffffffffffffffffffffffffffffffffffffffffffffff8214156131a3576131a26131ae565b5b600182019050919050565b7f4e487b7100000000000000000000000000000000000000000000000000000000600052601160045260246000fd5b7f4e487b7100000000000000000000000000000000000000000000000000000000600052602260045260246000fd5b7f4e487b7100000000000000000000000000000000000000000000000000000000600052604160045260246000fd5b6000601f19601f8301169050919050565b60008160e01c9050919050565b600060443d10156132695761330c565b60046000803e61327a60005161324c565b6308c379a0811461328b575061330c565b60405160043d036004823e80513d602482011167ffffffffffffffff821117156132b75750505061330c565b808201805167ffffffffffffffff8111156132d657505050505061330c565b8060208301013d85018111156132f15750505050505061330c565b6132fa8261323b565b60208401016040528296505050505050505b90565b6133188161307d565b811461332357600080fd5b50565b61332f8161308f565b811461333a57600080fd5b50565b6133468161309b565b811461335157600080fd5b50565b61335d816130e7565b811461336857600080fd5b5056fea2646970667358221220525be595a2f4d2a37e4fb0aa59fb7e1e4f1a6a55fd41ba1c782e0fb3d8543dbc64736f6c63430008000033",
  "immutableReferences": {},
  "source": "// SPDX-License-Identifier: MIT\npragma solidity >=0.4.22 <0.9.0;\nimport \"./mvpManager.sol\";\nimport \"@openzeppelin/contracts/token/ERC1155/ERC1155.sol\";\nimport \"@openzeppelin/contracts/access/Ownable.sol\";\n\ncontract NFTSContract is ERC1155, Ownable, MVPManager {\n  uint256 public constant SONG = 1;\n  uint public rate = 4800000000000000;\n  uint public MAX_mint;\n\n//Make sure to not mint more than MAX\n    modifier saleIsOpen{\n        require(totalMinted(SONG) <= MAX_mint, \"Sale end\");\n        _;\n    }\n    //NFT Purchased EventEmitter\n    event NFTPurchased(address _to, uint _count, uint _cost);\n//deploy with site hosted site link\n  constructor(uint _maxMint, string memory _baseURI, uint _initialCount)  ERC1155(_baseURI){\n    //usdcContract = _usdcAddress;\n    MAX_mint = _maxMint;\n    mintMyNFT(msg.sender, SONG, 2);\n    _totalMinted[SONG] += _initialCount;\n  }\n  //Mints user bought NFT\n  function mintMyNFT(address _account, uint _id, uint _quantity) public payable saleIsOpen onlyOwner {\n        //check we haven't minted max yet\n        require(totalMinted(_id) <= MAX_mint, \"Sale end: max NFTS minted\");\n        //check current minting will not go over MAX\n        require(totalMinted(_id) + _quantity <= MAX_mint, \"Max limit reached\");\n        //can only mint  two per investor\n        require(_quantity <= 2, \"Only mint two NFTS per Investor\");\n        //check investor balance\n        require(msg.value >= price(_quantity), \"Value below price\");\n        //mint nft to investor account\n        _mint(_account, _id, _quantity, \" \");\n        //update total minted countMinted\n        _totalMinted[SONG] += _quantity;\n        //emit Event\n        emit NFTPurchased(_account, _quantity,price(_quantity));\n    }\n    //calculates total cost of purchase in WEI for now\n    function price(uint _quantity) public view returns (uint256) {\n          return rate * _quantity; // 0.0048 ETH\n  }\n}\n//create mapping to hold (id => countMinted) public NFTSMinted\n//I want to keep track of NFTS that have been minted so far..compare to max set during deployment\n//A total minted smart contract that is inherited here, totalMinted() should return number of NFT (id) has been minted\n//\n",
  "sourcePath": "C:\\Users\\jjrab\\OneDrive\\Desktop\\Tokndev\\MVP\\contracts\\NFTSContract.sol",
  "compiler": {
    "name": "solc",
    "version": "0.8.0+commit.c7dfd78e.Emscripten.clang"
  },
  "schemaVersion": "3.4.3",
  "updatedAt": "2021-12-11T03:43:49.537Z",
  "devdoc": {
    "kind": "dev",
    "methods": {
      "balanceOf(address,uint256)": {
        "details": "See {IERC1155-balanceOf}. Requirements: - `account` cannot be the zero address."
      },
      "balanceOfBatch(address[],uint256[])": {
        "details": "See {IERC1155-balanceOfBatch}. Requirements: - `accounts` and `ids` must have the same length."
      },
      "isApprovedForAll(address,address)": {
        "details": "See {IERC1155-isApprovedForAll}."
      },
      "owner()": {
        "details": "Returns the address of the current owner."
      },
      "renounceOwnership()": {
        "details": "Leaves the contract without owner. It will not be possible to call `onlyOwner` functions anymore. Can only be called by the current owner. NOTE: Renouncing ownership will leave the contract without an owner, thereby removing any functionality that is only available to the owner."
      },
      "safeBatchTransferFrom(address,address,uint256[],uint256[],bytes)": {
        "details": "See {IERC1155-safeBatchTransferFrom}."
      },
      "safeTransferFrom(address,address,uint256,uint256,bytes)": {
        "details": "See {IERC1155-safeTransferFrom}."
      },
      "setApprovalForAll(address,bool)": {
        "details": "See {IERC1155-setApprovalForAll}."
      },
      "supportsInterface(bytes4)": {
        "details": "See {IERC165-supportsInterface}."
      },
      "transferOwnership(address)": {
        "details": "Transfers ownership of the contract to a new account (`newOwner`). Can only be called by the current owner."
      },
      "uri(uint256)": {
        "details": "See {IERC1155MetadataURI-uri}. This implementation returns the same URI for *all* token types. It relies on the token type ID substitution mechanism https://eips.ethereum.org/EIPS/eip-1155#metadata[defined in the EIP]. Clients calling this function must replace the `\\{id\\}` substring with the actual token type ID."
      }
    },
    "version": 1
  },
  "userdoc": {
    "kind": "user",
    "methods": {},
    "version": 1
  }
}