{
  "contractName": "NFTSContract",
  "abi": [
    {
      "inputs": [
        {
          "internalType": "uint256",
          "name": "_maxMint",
          "type": "uint256"
        },
        {
          "internalType": "string",
          "name": "_baseURI",
          "type": "string"
        }
      ],
      "stateMutability": "nonpayable",
      "type": "constructor"
    },
    {
      "anonymous": false,
      "inputs": [
        {
          "indexed": true,
          "internalType": "address",
          "name": "account",
          "type": "address"
        },
        {
          "indexed": true,
          "internalType": "address",
          "name": "operator",
          "type": "address"
        },
        {
          "indexed": false,
          "internalType": "bool",
          "name": "approved",
          "type": "bool"
        }
      ],
      "name": "ApprovalForAll",
      "type": "event"
    },
    {
      "anonymous": false,
      "inputs": [
        {
          "indexed": false,
          "internalType": "address",
          "name": "_to",
          "type": "address"
        },
        {
          "indexed": false,
          "internalType": "uint256",
          "name": "_count",
          "type": "uint256"
        },
        {
          "indexed": false,
          "internalType": "uint256",
          "name": "_cost",
          "type": "uint256"
        }
      ],
      "name": "NFTPurchased",
      "type": "event"
    },
    {
      "anonymous": false,
      "inputs": [
        {
          "indexed": true,
          "internalType": "address",
          "name": "previousOwner",
          "type": "address"
        },
        {
          "indexed": true,
          "internalType": "address",
          "name": "newOwner",
          "type": "address"
        }
      ],
      "name": "OwnershipTransferred",
      "type": "event"
    },
    {
      "anonymous": false,
      "inputs": [
        {
          "indexed": true,
          "internalType": "address",
          "name": "operator",
          "type": "address"
        },
        {
          "indexed": true,
          "internalType": "address",
          "name": "from",
          "type": "address"
        },
        {
          "indexed": true,
          "internalType": "address",
          "name": "to",
          "type": "address"
        },
        {
          "indexed": false,
          "internalType": "uint256[]",
          "name": "ids",
          "type": "uint256[]"
        },
        {
          "indexed": false,
          "internalType": "uint256[]",
          "name": "values",
          "type": "uint256[]"
        }
      ],
      "name": "TransferBatch",
      "type": "event"
    },
    {
      "anonymous": false,
      "inputs": [
        {
          "indexed": true,
          "internalType": "address",
          "name": "operator",
          "type": "address"
        },
        {
          "indexed": true,
          "internalType": "address",
          "name": "from",
          "type": "address"
        },
        {
          "indexed": true,
          "internalType": "address",
          "name": "to",
          "type": "address"
        },
        {
          "indexed": false,
          "internalType": "uint256",
          "name": "id",
          "type": "uint256"
        },
        {
          "indexed": false,
          "internalType": "uint256",
          "name": "value",
          "type": "uint256"
        }
      ],
      "name": "TransferSingle",
      "type": "event"
    },
    {
      "anonymous": false,
      "inputs": [
        {
          "indexed": false,
          "internalType": "string",
          "name": "value",
          "type": "string"
        },
        {
          "indexed": true,
          "internalType": "uint256",
          "name": "id",
          "type": "uint256"
        }
      ],
      "name": "URI",
      "type": "event"
    },
    {
      "inputs": [],
      "name": "MAX_mint",
      "outputs": [
        {
          "internalType": "uint256",
          "name": "",
          "type": "uint256"
        }
      ],
      "stateMutability": "view",
      "type": "function",
      "constant": true
    },
    {
      "inputs": [],
      "name": "SONG",
      "outputs": [
        {
          "internalType": "uint256",
          "name": "",
          "type": "uint256"
        }
      ],
      "stateMutability": "view",
      "type": "function",
      "constant": true
    },
    {
      "inputs": [
        {
          "internalType": "uint256",
          "name": "",
          "type": "uint256"
        }
      ],
      "name": "_totalMinted",
      "outputs": [
        {
          "internalType": "uint256",
          "name": "",
          "type": "uint256"
        }
      ],
      "stateMutability": "view",
      "type": "function",
      "constant": true
    },
    {
      "inputs": [
        {
          "internalType": "address",
          "name": "account",
          "type": "address"
        },
        {
          "internalType": "uint256",
          "name": "id",
          "type": "uint256"
        }
      ],
      "name": "balanceOf",
      "outputs": [
        {
          "internalType": "uint256",
          "name": "",
          "type": "uint256"
        }
      ],
      "stateMutability": "view",
      "type": "function",
      "constant": true
    },
    {
      "inputs": [
        {
          "internalType": "address[]",
          "name": "accounts",
          "type": "address[]"
        },
        {
          "internalType": "uint256[]",
          "name": "ids",
          "type": "uint256[]"
        }
      ],
      "name": "balanceOfBatch",
      "outputs": [
        {
          "internalType": "uint256[]",
          "name": "",
          "type": "uint256[]"
        }
      ],
      "stateMutability": "view",
      "type": "function",
      "constant": true
    },
    {
      "inputs": [
        {
          "internalType": "address",
          "name": "account",
          "type": "address"
        },
        {
          "internalType": "address",
          "name": "operator",
          "type": "address"
        }
      ],
      "name": "isApprovedForAll",
      "outputs": [
        {
          "internalType": "bool",
          "name": "",
          "type": "bool"
        }
      ],
      "stateMutability": "view",
      "type": "function",
      "constant": true
    },
    {
      "inputs": [],
      "name": "owner",
      "outputs": [
        {
          "internalType": "address",
          "name": "",
          "type": "address"
        }
      ],
      "stateMutability": "view",
      "type": "function",
      "constant": true
    },
    {
      "inputs": [],
      "name": "rate",
      "outputs": [
        {
          "internalType": "uint256",
          "name": "",
          "type": "uint256"
        }
      ],
      "stateMutability": "view",
      "type": "function",
      "constant": true
    },
    {
      "inputs": [],
      "name": "renounceOwnership",
      "outputs": [],
      "stateMutability": "nonpayable",
      "type": "function"
    },
    {
      "inputs": [
        {
          "internalType": "address",
          "name": "from",
          "type": "address"
        },
        {
          "internalType": "address",
          "name": "to",
          "type": "address"
        },
        {
          "internalType": "uint256[]",
          "name": "ids",
          "type": "uint256[]"
        },
        {
          "internalType": "uint256[]",
          "name": "amounts",
          "type": "uint256[]"
        },
        {
          "internalType": "bytes",
          "name": "data",
          "type": "bytes"
        }
      ],
      "name": "safeBatchTransferFrom",
      "outputs": [],
      "stateMutability": "nonpayable",
      "type": "function"
    },
    {
      "inputs": [
        {
          "internalType": "address",
          "name": "from",
          "type": "address"
        },
        {
          "internalType": "address",
          "name": "to",
          "type": "address"
        },
        {
          "internalType": "uint256",
          "name": "id",
          "type": "uint256"
        },
        {
          "internalType": "uint256",
          "name": "amount",
          "type": "uint256"
        },
        {
          "internalType": "bytes",
          "name": "data",
          "type": "bytes"
        }
      ],
      "name": "safeTransferFrom",
      "outputs": [],
      "stateMutability": "nonpayable",
      "type": "function"
    },
    {
      "inputs": [
        {
          "internalType": "address",
          "name": "operator",
          "type": "address"
        },
        {
          "internalType": "bool",
          "name": "approved",
          "type": "bool"
        }
      ],
      "name": "setApprovalForAll",
      "outputs": [],
      "stateMutability": "nonpayable",
      "type": "function"
    },
    {
      "inputs": [
        {
          "internalType": "bytes4",
          "name": "interfaceId",
          "type": "bytes4"
        }
      ],
      "name": "supportsInterface",
      "outputs": [
        {
          "internalType": "bool",
          "name": "",
          "type": "bool"
        }
      ],
      "stateMutability": "view",
      "type": "function",
      "constant": true
    },
    {
      "inputs": [
        {
          "internalType": "uint256",
          "name": "id",
          "type": "uint256"
        }
      ],
      "name": "totalMinted",
      "outputs": [
        {
          "internalType": "uint256",
          "name": "",
          "type": "uint256"
        }
      ],
      "stateMutability": "view",
      "type": "function",
      "constant": true
    },
    {
      "inputs": [
        {
          "internalType": "address",
          "name": "newOwner",
          "type": "address"
        }
      ],
      "name": "transferOwnership",
      "outputs": [],
      "stateMutability": "nonpayable",
      "type": "function"
    },
    {
      "inputs": [
        {
          "internalType": "uint256",
          "name": "",
          "type": "uint256"
        }
      ],
      "name": "uri",
      "outputs": [
        {
          "internalType": "string",
          "name": "",
          "type": "string"
        }
      ],
      "stateMutability": "view",
      "type": "function",
      "constant": true
    },
    {
      "inputs": [
        {
          "internalType": "address",
          "name": "_account",
          "type": "address"
        },
        {
          "internalType": "uint256",
          "name": "_id",
          "type": "uint256"
        },
        {
          "internalType": "uint256",
          "name": "_quantity",
          "type": "uint256"
        }
      ],
      "name": "mintMyNFT",
      "outputs": [],
      "stateMutability": "payable",
      "type": "function",
      "payable": true
    },
    {
      "inputs": [
        {
          "internalType": "uint256",
          "name": "_quantity",
          "type": "uint256"
        }
      ],
      "name": "price",
      "outputs": [
        {
          "internalType": "uint256",
          "name": "",
          "type": "uint256"
        }
      ],
      "stateMutability": "view",
      "type": "function",
      "constant": true
    }
  ],
  "bytecode": "0x608060405266110d9316ec00006005553480156200001c57600080fd5b5060405162003807380380620038078339818101604052810190620000429190620002a7565b8062000054816200008460201b60201c565b506200007562000069620000a060201b60201c565b620000a860201b60201c565b81600681905550505062000456565b80600290805190602001906200009c9291906200016e565b5050565b600033905090565b6000600360009054906101000a900473ffffffffffffffffffffffffffffffffffffffff16905081600360006101000a81548173ffffffffffffffffffffffffffffffffffffffff021916908373ffffffffffffffffffffffffffffffffffffffff1602179055508173ffffffffffffffffffffffffffffffffffffffff168173ffffffffffffffffffffffffffffffffffffffff167f8be0079c531659141344cd1fd0a4f28419497f9722a3daafe3b4186f6b6457e060405160405180910390a35050565b8280546200017c90620003a8565b90600052602060002090601f016020900481019282620001a05760008555620001ec565b82601f10620001bb57805160ff1916838001178555620001ec565b82800160010185558215620001ec579182015b82811115620001eb578251825591602001919060010190620001ce565b5b509050620001fb9190620001ff565b5090565b5b808211156200021a57600081600090555060010162000200565b5090565b6000620002356200022f8462000335565b62000301565b9050828152602081018484840111156200024e57600080fd5b6200025b84828562000372565b509392505050565b600082601f8301126200027557600080fd5b8151620002878482602086016200021e565b91505092915050565b600081519050620002a1816200043c565b92915050565b60008060408385031215620002bb57600080fd5b6000620002cb8582860162000290565b925050602083015167ffffffffffffffff811115620002e957600080fd5b620002f78582860162000263565b9150509250929050565b6000604051905081810181811067ffffffffffffffff821117156200032b576200032a6200040d565b5b8060405250919050565b600067ffffffffffffffff8211156200035357620003526200040d565b5b601f19601f8301169050602081019050919050565b6000819050919050565b60005b838110156200039257808201518184015260208101905062000375565b83811115620003a2576000848401525b50505050565b60006002820490506001821680620003c157607f821691505b60208210811415620003d857620003d7620003de565b5b50919050565b7f4e487b7100000000000000000000000000000000000000000000000000000000600052602260045260246000fd5b7f4e487b7100000000000000000000000000000000000000000000000000000000600052604160045260246000fd5b620004478162000368565b81146200045357600080fd5b50565b6133a180620004666000396000f3fe6080604052600436106101085760003560e01c80638da5cb5b11610095578063a22cb46511610064578063a22cb46514610395578063dee2bfc9146103be578063e985e9c5146103e9578063f242432a14610426578063f2fde38b1461044f57610108565b80638da5cb5b146102d457806396ce487c146102ff5780639c544f3c1461031b5780639d7f4ebf1461035857610108565b80632c4e722e116100dc5780632c4e722e146102015780632eb2c2d61461022c57806342d9f1ed146102555780634e1273f414610280578063715018a6146102bd57610108565b8062fdd58e1461010d57806301ffc9a71461014a5780630e89341c1461018757806326a49e37146101c4575b600080fd5b34801561011957600080fd5b50610134600480360381019061012f9190612197565b610478565b6040516101419190612e5f565b60405180910390f35b34801561015657600080fd5b50610171600480360381019061016c919061228e565b610541565b60405161017e9190612be2565b60405180910390f35b34801561019357600080fd5b506101ae60048036038101906101a991906122e0565b610623565b6040516101bb9190612bfd565b60405180910390f35b3480156101d057600080fd5b506101eb60048036038101906101e691906122e0565b6106b7565b6040516101f89190612e5f565b60405180910390f35b34801561020d57600080fd5b506102166106ce565b6040516102239190612e5f565b60405180910390f35b34801561023857600080fd5b50610253600480360381019061024e919061200d565b6106d4565b005b34801561026157600080fd5b5061026a610775565b6040516102779190612e5f565b60405180910390f35b34801561028c57600080fd5b506102a760048036038101906102a29190612222565b61077b565b6040516102b49190612b89565b60405180910390f35b3480156102c957600080fd5b506102d261092c565b005b3480156102e057600080fd5b506102e96109b4565b6040516102f69190612a75565b60405180910390f35b610319600480360381019061031491906121d3565b6109de565b005b34801561032757600080fd5b50610342600480360381019061033d91906122e0565b610c90565b60405161034f9190612e5f565b60405180910390f35b34801561036457600080fd5b5061037f600480360381019061037a91906122e0565b610ca8565b60405161038c9190612e5f565b60405180910390f35b3480156103a157600080fd5b506103bc60048036038101906103b7919061215b565b610cc5565b005b3480156103ca57600080fd5b506103d3610cdb565b6040516103e09190612e5f565b60405180910390f35b3480156103f557600080fd5b50610410600480360381019061040b9190611fd1565b610ce0565b60405161041d9190612be2565b60405180910390f35b34801561043257600080fd5b5061044d600480360381019061044891906120cc565b610d74565b005b34801561045b57600080fd5b5061047660048036038101906104719190611fa8565b610e15565b005b60008073ffffffffffffffffffffffffffffffffffffffff168373ffffffffffffffffffffffffffffffffffffffff1614156104e9576040517f08c379a00000000000000000000000000000000000000000000000000000000081526004016104e090612c5f565b60405180910390fd5b60008083815260200190815260200160002060008473ffffffffffffffffffffffffffffffffffffffff1673ffffffffffffffffffffffffffffffffffffffff16815260200190815260200160002054905092915050565b60007fd9b67a26000000000000000000000000000000000000000000000000000000007bffffffffffffffffffffffffffffffffffffffffffffffffffffffff1916827bffffffffffffffffffffffffffffffffffffffffffffffffffffffff1916148061060c57507f0e89341c000000000000000000000000000000000000000000000000000000007bffffffffffffffffffffffffffffffffffffffffffffffffffffffff1916827bffffffffffffffffffffffffffffffffffffffffffffffffffffffff1916145b8061061c575061061b82610f0d565b5b9050919050565b60606002805461063290613133565b80601f016020809104026020016040519081016040528092919081815260200182805461065e90613133565b80156106ab5780601f10610680576101008083540402835291602001916106ab565b820191906000526020600020905b81548152906001019060200180831161068e57829003601f168201915b50505050509050919050565b6000816005546106c79190613023565b9050919050565b60055481565b6106dc610f77565b73ffffffffffffffffffffffffffffffffffffffff168573ffffffffffffffffffffffffffffffffffffffff16148061072257506107218561071c610f77565b610ce0565b5b610761576040517f08c379a000000000000000000000000000000000000000000000000000000000815260040161075890612cff565b60405180910390fd5b61076e8585858585610f7f565b5050505050565b60065481565b606081518351146107c1576040517f08c379a00000000000000000000000000000000000000000000000000000000081526004016107b890612dff565b60405180910390fd5b6000835167ffffffffffffffff811115610804577f4e487b7100000000000000000000000000000000000000000000000000000000600052604160045260246000fd5b6040519080825280602002602001820160405280156108325781602001602082028036833780820191505090505b50905060005b8451811015610921576108cb85828151811061087d577f4e487b7100000000000000000000000000000000000000000000000000000000600052603260045260246000fd5b60200260200101518583815181106108be577f4e487b7100000000000000000000000000000000000000000000000000000000600052603260045260246000fd5b6020026020010151610478565b828281518110610904577f4e487b7100000000000000000000000000000000000000000000000000000000600052603260045260246000fd5b6020026020010181815250508061091a90613165565b9050610838565b508091505092915050565b610934610f77565b73ffffffffffffffffffffffffffffffffffffffff166109526109b4565b73ffffffffffffffffffffffffffffffffffffffff16146109a8576040517f08c379a000000000000000000000000000000000000000000000000000000000815260040161099f90612d5f565b60405180910390fd5b6109b260006112df565b565b6000600360009054906101000a900473ffffffffffffffffffffffffffffffffffffffff16905090565b6006546109eb6001610ca8565b1115610a2c576040517f08c379a0000000000000000000000000000000000000000000000000000000008152600401610a2390612d1f565b60405180910390fd5b610a34610f77565b73ffffffffffffffffffffffffffffffffffffffff16610a526109b4565b73ffffffffffffffffffffffffffffffffffffffff1614610aa8576040517f08c379a0000000000000000000000000000000000000000000000000000000008152600401610a9f90612d5f565b60405180910390fd5b600654610ab483610ca8565b1115610af5576040517f08c379a0000000000000000000000000000000000000000000000000000000008152600401610aec90612d9f565b60405180910390fd5b60065481610b0284610ca8565b610b0c9190612fcd565b1115610b4d576040517f08c379a0000000000000000000000000000000000000000000000000000000008152600401610b4490612cbf565b60405180910390fd5b6002811115610b91576040517f08c379a0000000000000000000000000000000000000000000000000000000008152600401610b8890612d7f565b60405180910390fd5b610b9a816106b7565b341015610bdc576040517f08c379a0000000000000000000000000000000000000000000000000000000008152600401610bd390612dbf565b60405180910390fd5b610c1d8383836040518060400160405280600181526020017f20000000000000000000000000000000000000000000000000000000000000008152506113a5565b8060046000600181526020019081526020016000206000828254610c419190612fcd565b925050819055507fa6d32bfcc7cd31e4d5ee7adeef7edd500cab0e64b4a494de4f832d41fd70f56d8382610c74846106b7565b604051610c8393929190612b52565b60405180910390a1505050565b60046020528060005260406000206000915090505481565b600060046000838152602001908152602001600020549050919050565b610cd7610cd0610f77565b838361153b565b5050565b600181565b6000600160008473ffffffffffffffffffffffffffffffffffffffff1673ffffffffffffffffffffffffffffffffffffffff16815260200190815260200160002060008373ffffffffffffffffffffffffffffffffffffffff1673ffffffffffffffffffffffffffffffffffffffff16815260200190815260200160002060009054906101000a900460ff16905092915050565b610d7c610f77565b73ffffffffffffffffffffffffffffffffffffffff168573ffffffffffffffffffffffffffffffffffffffff161480610dc25750610dc185610dbc610f77565b610ce0565b5b610e01576040517f08c379a0000000000000000000000000000000000000000000000000000000008152600401610df890612c9f565b60405180910390fd5b610e0e85858585856116a8565b5050505050565b610e1d610f77565b73ffffffffffffffffffffffffffffffffffffffff16610e3b6109b4565b73ffffffffffffffffffffffffffffffffffffffff1614610e91576040517f08c379a0000000000000000000000000000000000000000000000000000000008152600401610e8890612d5f565b60405180910390fd5b600073ffffffffffffffffffffffffffffffffffffffff168173ffffffffffffffffffffffffffffffffffffffff161415610f01576040517f08c379a0000000000000000000000000000000000000000000000000000000008152600401610ef890612c7f565b60405180910390fd5b610f0a816112df565b50565b60007f01ffc9a7000000000000000000000000000000000000000000000000000000007bffffffffffffffffffffffffffffffffffffffffffffffffffffffff1916827bffffffffffffffffffffffffffffffffffffffffffffffffffffffff1916149050919050565b600033905090565b8151835114610fc3576040517f08c379a0000000000000000000000000000000000000000000000000000000008152600401610fba90612e1f565b60405180910390fd5b600073ffffffffffffffffffffffffffffffffffffffff168473ffffffffffffffffffffffffffffffffffffffff161415611033576040517f08c379a000000000000000000000000000000000000000000000000000000000815260040161102a90612cdf565b60405180910390fd5b600061103d610f77565b905061104d81878787878761192a565b60005b845181101561124a576000858281518110611094577f4e487b7100000000000000000000000000000000000000000000000000000000600052603260045260246000fd5b6020026020010151905060008583815181106110d9577f4e487b7100000000000000000000000000000000000000000000000000000000600052603260045260246000fd5b60200260200101519050600080600084815260200190815260200160002060008b73ffffffffffffffffffffffffffffffffffffffff1673ffffffffffffffffffffffffffffffffffffffff1681526020019081526020016000205490508181101561117a576040517f08c379a000000000000000000000000000000000000000000000000000000000815260040161117190612d3f565b60405180910390fd5b81810360008085815260200190815260200160002060008c73ffffffffffffffffffffffffffffffffffffffff1673ffffffffffffffffffffffffffffffffffffffff168152602001908152602001600020819055508160008085815260200190815260200160002060008b73ffffffffffffffffffffffffffffffffffffffff1673ffffffffffffffffffffffffffffffffffffffff168152602001908152602001600020600082825461122f9190612fcd565b925050819055505050508061124390613165565b9050611050565b508473ffffffffffffffffffffffffffffffffffffffff168673ffffffffffffffffffffffffffffffffffffffff168273ffffffffffffffffffffffffffffffffffffffff167f4a39dc06d4c0dbc64b70af90fd698a233a518aa5d07e595d983b8c0526c8f7fb87876040516112c1929190612bab565b60405180910390a46112d7818787878787611932565b505050505050565b6000600360009054906101000a900473ffffffffffffffffffffffffffffffffffffffff16905081600360006101000a81548173ffffffffffffffffffffffffffffffffffffffff021916908373ffffffffffffffffffffffffffffffffffffffff1602179055508173ffffffffffffffffffffffffffffffffffffffff168173ffffffffffffffffffffffffffffffffffffffff167f8be0079c531659141344cd1fd0a4f28419497f9722a3daafe3b4186f6b6457e060405160405180910390a35050565b600073ffffffffffffffffffffffffffffffffffffffff168473ffffffffffffffffffffffffffffffffffffffff161415611415576040517f08c379a000000000000000000000000000000000000000000000000000000000815260040161140c90612e3f565b60405180910390fd5b600061141f610f77565b90506114408160008761143188611b02565b61143a88611b02565b8761192a565b8260008086815260200190815260200160002060008773ffffffffffffffffffffffffffffffffffffffff1673ffffffffffffffffffffffffffffffffffffffff168152602001908152602001600020600082825461149f9190612fcd565b925050819055508473ffffffffffffffffffffffffffffffffffffffff16600073ffffffffffffffffffffffffffffffffffffffff168273ffffffffffffffffffffffffffffffffffffffff167fc3d58168c5ae7397731d063d5bbf3d657854427343f4c083240f7aacaa2d0f62878760405161151d929190612e7a565b60405180910390a461153481600087878787611bc8565b5050505050565b8173ffffffffffffffffffffffffffffffffffffffff168373ffffffffffffffffffffffffffffffffffffffff1614156115aa576040517f08c379a00000000000000000000000000000000000000000000000000000000081526004016115a190612ddf565b60405180910390fd5b80600160008573ffffffffffffffffffffffffffffffffffffffff1673ffffffffffffffffffffffffffffffffffffffff16815260200190815260200160002060008473ffffffffffffffffffffffffffffffffffffffff1673ffffffffffffffffffffffffffffffffffffffff16815260200190815260200160002060006101000a81548160ff0219169083151502179055508173ffffffffffffffffffffffffffffffffffffffff168373ffffffffffffffffffffffffffffffffffffffff167f17307eab39ab6107e8899845ad3d59bd9653f200f220920489ca2b5937696c318360405161169b9190612be2565b60405180910390a3505050565b600073ffffffffffffffffffffffffffffffffffffffff168473ffffffffffffffffffffffffffffffffffffffff161415611718576040517f08c379a000000000000000000000000000000000000000000000000000000000815260040161170f90612cdf565b60405180910390fd5b6000611722610f77565b905061174281878761173388611b02565b61173c88611b02565b8761192a565b600080600086815260200190815260200160002060008873ffffffffffffffffffffffffffffffffffffffff1673ffffffffffffffffffffffffffffffffffffffff168152602001908152602001600020549050838110156117d9576040517f08c379a00000000000000000000000000000000000000000000000000000000081526004016117d090612d3f565b60405180910390fd5b83810360008087815260200190815260200160002060008973ffffffffffffffffffffffffffffffffffffffff1673ffffffffffffffffffffffffffffffffffffffff168152602001908152602001600020819055508360008087815260200190815260200160002060008873ffffffffffffffffffffffffffffffffffffffff1673ffffffffffffffffffffffffffffffffffffffff168152602001908152602001600020600082825461188e9190612fcd565b925050819055508573ffffffffffffffffffffffffffffffffffffffff168773ffffffffffffffffffffffffffffffffffffffff168373ffffffffffffffffffffffffffffffffffffffff167fc3d58168c5ae7397731d063d5bbf3d657854427343f4c083240f7aacaa2d0f62888860405161190b929190612e7a565b60405180910390a4611921828888888888611bc8565b50505050505050565b505050505050565b6119518473ffffffffffffffffffffffffffffffffffffffff16611d98565b15611afa578373ffffffffffffffffffffffffffffffffffffffff1663bc197c8187878686866040518663ffffffff1660e01b8152600401611997959493929190612a90565b602060405180830381600087803b1580156119b157600080fd5b505af19250505080156119e257506040513d601f19601f820116820180604052508101906119df91906122b7565b60015b611a71576119ee613259565b806119f95750611a36565b806040517f08c379a0000000000000000000000000000000000000000000000000000000008152600401611a2d9190612bfd565b60405180910390fd5b6040517f08c379a0000000000000000000000000000000000000000000000000000000008152600401611a6890612c1f565b60405180910390fd5b63bc197c8160e01b7bffffffffffffffffffffffffffffffffffffffffffffffffffffffff1916817bffffffffffffffffffffffffffffffffffffffffffffffffffffffff191614611af8576040517f08c379a0000000000000000000000000000000000000000000000000000000008152600401611aef90612c3f565b60405180910390fd5b505b505050505050565b60606000600167ffffffffffffffff811115611b47577f4e487b7100000000000000000000000000000000000000000000000000000000600052604160045260246000fd5b604051908082528060200260200182016040528015611b755781602001602082028036833780820191505090505b5090508281600081518110611bb3577f4e487b7100000000000000000000000000000000000000000000000000000000600052603260045260246000fd5b60200260200101818152505080915050919050565b611be78473ffffffffffffffffffffffffffffffffffffffff16611d98565b15611d90578373ffffffffffffffffffffffffffffffffffffffff1663f23a6e6187878686866040518663ffffffff1660e01b8152600401611c2d959493929190612af8565b602060405180830381600087803b158015611c4757600080fd5b505af1925050508015611c7857506040513d601f19601f82011682018060405250810190611c7591906122b7565b60015b611d0757611c84613259565b80611c8f5750611ccc565b806040517f08c379a0000000000000000000000000000000000000000000000000000000008152600401611cc39190612bfd565b60405180910390fd5b6040517f08c379a0000000000000000000000000000000000000000000000000000000008152600401611cfe90612c1f565b60405180910390fd5b63f23a6e6160e01b7bffffffffffffffffffffffffffffffffffffffffffffffffffffffff1916817bffffffffffffffffffffffffffffffffffffffffffffffffffffffff191614611d8e576040517f08c379a0000000000000000000000000000000000000000000000000000000008152600401611d8590612c3f565b60405180910390fd5b505b505050505050565b600080823b905060008111915050919050565b6000611dbe611db984612ed4565b612ea3565b90508083825260208201905082856020860282011115611ddd57600080fd5b60005b85811015611e0d5781611df38882611ec1565b845260208401935060208301925050600181019050611de0565b5050509392505050565b6000611e2a611e2584612f00565b612ea3565b90508083825260208201905082856020860282011115611e4957600080fd5b60005b85811015611e795781611e5f8882611f93565b845260208401935060208301925050600181019050611e4c565b5050509392505050565b6000611e96611e9184612f2c565b612ea3565b905082815260208101848484011115611eae57600080fd5b611eb98482856130f1565b509392505050565b600081359050611ed08161330f565b92915050565b600082601f830112611ee757600080fd5b8135611ef7848260208601611dab565b91505092915050565b600082601f830112611f1157600080fd5b8135611f21848260208601611e17565b91505092915050565b600081359050611f3981613326565b92915050565b600081359050611f4e8161333d565b92915050565b600081519050611f638161333d565b92915050565b600082601f830112611f7a57600080fd5b8135611f8a848260208601611e83565b91505092915050565b600081359050611fa281613354565b92915050565b600060208284031215611fba57600080fd5b6000611fc884828501611ec1565b91505092915050565b60008060408385031215611fe457600080fd5b6000611ff285828601611ec1565b925050602061200385828601611ec1565b9150509250929050565b600080600080600060a0868803121561202557600080fd5b600061203388828901611ec1565b955050602061204488828901611ec1565b945050604086013567ffffffffffffffff81111561206157600080fd5b61206d88828901611f00565b935050606086013567ffffffffffffffff81111561208a57600080fd5b61209688828901611f00565b925050608086013567ffffffffffffffff8111156120b357600080fd5b6120bf88828901611f69565b9150509295509295909350565b600080600080600060a086880312156120e457600080fd5b60006120f288828901611ec1565b955050602061210388828901611ec1565b945050604061211488828901611f93565b935050606061212588828901611f93565b925050608086013567ffffffffffffffff81111561214257600080fd5b61214e88828901611f69565b9150509295509295909350565b6000806040838503121561216e57600080fd5b600061217c85828601611ec1565b925050602061218d85828601611f2a565b9150509250929050565b600080604083850312156121aa57600080fd5b60006121b885828601611ec1565b92505060206121c985828601611f93565b9150509250929050565b6000806000606084860312156121e857600080fd5b60006121f686828701611ec1565b935050602061220786828701611f93565b925050604061221886828701611f93565b9150509250925092565b6000806040838503121561223557600080fd5b600083013567ffffffffffffffff81111561224f57600080fd5b61225b85828601611ed6565b925050602083013567ffffffffffffffff81111561227857600080fd5b61228485828601611f00565b9150509250929050565b6000602082840312156122a057600080fd5b60006122ae84828501611f3f565b91505092915050565b6000602082840312156122c957600080fd5b60006122d784828501611f54565b91505092915050565b6000602082840312156122f257600080fd5b600061230084828501611f93565b91505092915050565b60006123158383612a57565b60208301905092915050565b61232a8161307d565b82525050565b600061233b82612f6c565b6123458185612f9a565b935061235083612f5c565b8060005b838110156123815781516123688882612309565b975061237383612f8d565b925050600181019050612354565b5085935050505092915050565b6123978161308f565b82525050565b60006123a882612f77565b6123b28185612fab565b93506123c2818560208601613100565b6123cb8161323b565b840191505092915050565b60006123e182612f82565b6123eb8185612fbc565b93506123fb818560208601613100565b6124048161323b565b840191505092915050565b600061241c603483612fbc565b91507f455243313135353a207472616e7366657220746f206e6f6e204552433131353560008301527f526563656976657220696d706c656d656e7465720000000000000000000000006020830152604082019050919050565b6000612482602883612fbc565b91507f455243313135353a204552433131353552656365697665722072656a6563746560008301527f6420746f6b656e730000000000000000000000000000000000000000000000006020830152604082019050919050565b60006124e8602b83612fbc565b91507f455243313135353a2062616c616e636520717565727920666f7220746865207a60008301527f65726f20616464726573730000000000000000000000000000000000000000006020830152604082019050919050565b600061254e602683612fbc565b91507f4f776e61626c653a206e6577206f776e657220697320746865207a65726f206160008301527f64647265737300000000000000000000000000000000000000000000000000006020830152604082019050919050565b60006125b4602983612fbc565b91507f455243313135353a2063616c6c6572206973206e6f74206f776e6572206e6f7260008301527f20617070726f76656400000000000000000000000000000000000000000000006020830152604082019050919050565b600061261a601183612fbc565b91507f4d6178206c696d697420726561636865640000000000000000000000000000006000830152602082019050919050565b600061265a602583612fbc565b91507f455243313135353a207472616e7366657220746f20746865207a65726f20616460008301527f64726573730000000000000000000000000000000000000000000000000000006020830152604082019050919050565b60006126c0603283612fbc565b91507f455243313135353a207472616e736665722063616c6c6572206973206e6f742060008301527f6f776e6572206e6f7220617070726f76656400000000000000000000000000006020830152604082019050919050565b6000612726600883612fbc565b91507f53616c6520656e640000000000000000000000000000000000000000000000006000830152602082019050919050565b6000612766602a83612fbc565b91507f455243313135353a20696e73756666696369656e742062616c616e636520666f60008301527f72207472616e73666572000000000000000000000000000000000000000000006020830152604082019050919050565b60006127cc602083612fbc565b91507f4f776e61626c653a2063616c6c6572206973206e6f7420746865206f776e65726000830152602082019050919050565b600061280c601f83612fbc565b91507f4f6e6c79206d696e742074776f204e4654532070657220496e766573746f72006000830152602082019050919050565b600061284c601983612fbc565b91507f53616c6520656e643a206d6178204e465453206d696e746564000000000000006000830152602082019050919050565b600061288c601183612fbc565b91507f56616c75652062656c6f772070726963650000000000000000000000000000006000830152602082019050919050565b60006128cc602983612fbc565b91507f455243313135353a2073657474696e6720617070726f76616c2073746174757360008301527f20666f722073656c6600000000000000000000000000000000000000000000006020830152604082019050919050565b6000612932602983612fbc565b91507f455243313135353a206163636f756e747320616e6420696473206c656e67746860008301527f206d69736d6174636800000000000000000000000000000000000000000000006020830152604082019050919050565b6000612998602883612fbc565b91507f455243313135353a2069647320616e6420616d6f756e7473206c656e6774682060008301527f6d69736d617463680000000000000000000000000000000000000000000000006020830152604082019050919050565b60006129fe602183612fbc565b91507f455243313135353a206d696e7420746f20746865207a65726f2061646472657360008301527f73000000000000000000000000000000000000000000000000000000000000006020830152604082019050919050565b612a60816130e7565b82525050565b612a6f816130e7565b82525050565b6000602082019050612a8a6000830184612321565b92915050565b600060a082019050612aa56000830188612321565b612ab26020830187612321565b8181036040830152612ac48186612330565b90508181036060830152612ad88185612330565b90508181036080830152612aec818461239d565b90509695505050505050565b600060a082019050612b0d6000830188612321565b612b1a6020830187612321565b612b276040830186612a66565b612b346060830185612a66565b8181036080830152612b46818461239d565b90509695505050505050565b6000606082019050612b676000830186612321565b612b746020830185612a66565b612b816040830184612a66565b949350505050565b60006020820190508181036000830152612ba38184612330565b905092915050565b60006040820190508181036000830152612bc58185612330565b90508181036020830152612bd98184612330565b90509392505050565b6000602082019050612bf7600083018461238e565b92915050565b60006020820190508181036000830152612c1781846123d6565b905092915050565b60006020820190508181036000830152612c388161240f565b9050919050565b60006020820190508181036000830152612c5881612475565b9050919050565b60006020820190508181036000830152612c78816124db565b9050919050565b60006020820190508181036000830152612c9881612541565b9050919050565b60006020820190508181036000830152612cb8816125a7565b9050919050565b60006020820190508181036000830152612cd88161260d565b9050919050565b60006020820190508181036000830152612cf88161264d565b9050919050565b60006020820190508181036000830152612d18816126b3565b9050919050565b60006020820190508181036000830152612d3881612719565b9050919050565b60006020820190508181036000830152612d5881612759565b9050919050565b60006020820190508181036000830152612d78816127bf565b9050919050565b60006020820190508181036000830152612d98816127ff565b9050919050565b60006020820190508181036000830152612db88161283f565b9050919050565b60006020820190508181036000830152612dd88161287f565b9050919050565b60006020820190508181036000830152612df8816128bf565b9050919050565b60006020820190508181036000830152612e1881612925565b9050919050565b60006020820190508181036000830152612e388161298b565b9050919050565b60006020820190508181036000830152612e58816129f1565b9050919050565b6000602082019050612e746000830184612a66565b92915050565b6000604082019050612e8f6000830185612a66565b612e9c6020830184612a66565b9392505050565b6000604051905081810181811067ffffffffffffffff82111715612eca57612ec961320c565b5b8060405250919050565b600067ffffffffffffffff821115612eef57612eee61320c565b5b602082029050602081019050919050565b600067ffffffffffffffff821115612f1b57612f1a61320c565b5b602082029050602081019050919050565b600067ffffffffffffffff821115612f4757612f4661320c565b5b601f19601f8301169050602081019050919050565b6000819050602082019050919050565b600081519050919050565b600081519050919050565b600081519050919050565b6000602082019050919050565b600082825260208201905092915050565b600082825260208201905092915050565b600082825260208201905092915050565b6000612fd8826130e7565b9150612fe3836130e7565b9250827fffffffffffffffffffffffffffffffffffffffffffffffffffffffffffffffff03821115613018576130176131ae565b5b828201905092915050565b600061302e826130e7565b9150613039836130e7565b9250817fffffffffffffffffffffffffffffffffffffffffffffffffffffffffffffffff0483118215151615613072576130716131ae565b5b828202905092915050565b6000613088826130c7565b9050919050565b60008115159050919050565b60007fffffffff0000000000000000000000000000000000000000000000000000000082169050919050565b600073ffffffffffffffffffffffffffffffffffffffff82169050919050565b6000819050919050565b82818337600083830152505050565b60005b8381101561311e578082015181840152602081019050613103565b8381111561312d576000848401525b50505050565b6000600282049050600182168061314b57607f821691505b6020821081141561315f5761315e6131dd565b5b50919050565b6000613170826130e7565b91507fffffffffffffffffffffffffffffffffffffffffffffffffffffffffffffffff8214156131a3576131a26131ae565b5b600182019050919050565b7f4e487b7100000000000000000000000000000000000000000000000000000000600052601160045260246000fd5b7f4e487b7100000000000000000000000000000000000000000000000000000000600052602260045260246000fd5b7f4e487b7100000000000000000000000000000000000000000000000000000000600052604160045260246000fd5b6000601f19601f8301169050919050565b60008160e01c9050919050565b600060443d10156132695761330c565b60046000803e61327a60005161324c565b6308c379a0811461328b575061330c565b60405160043d036004823e80513d602482011167ffffffffffffffff821117156132b75750505061330c565b808201805167ffffffffffffffff8111156132d657505050505061330c565b8060208301013d85018111156132f15750505050505061330c565b6132fa8261323b565b60208401016040528296505050505050505b90565b6133188161307d565b811461332357600080fd5b50565b61332f8161308f565b811461333a57600080fd5b50565b6133468161309b565b811461335157600080fd5b50565b61335d816130e7565b811461336857600080fd5b5056fea2646970667358221220c0c2384e5e7f8e94a02d40689b08030fdc9bef64020d68b2bc83408186206f6464736f6c63430008000033",
  "immutableReferences": {},
  "source": "// SPDX-License-Identifier: MIT\npragma solidity >=0.4.22 <0.9.0;\nimport \"./mvpManager.sol\";\nimport \"@openzeppelin/contracts/token/ERC1155/ERC1155.sol\";\nimport \"@openzeppelin/contracts/access/Ownable.sol\";\n\ncontract NFTSContract is ERC1155, Ownable, MVPManager {\n  uint256 public constant SONG = 1;\n  uint public rate = 4800000000000000; //in wei $20 eth\n  uint public MAX_mint; //max 50\n  //NFT Purchased EventEmitter\n  event NFTPurchased(address _to, uint _count, uint _cost);\n\n//Make sure to not mint more than MAX\n    modifier saleIsOpen{\n        require(totalMinted(SONG) <= MAX_mint, \"Sale end\");\n        _;\n    }\n//deploy with site hosted site link\n  constructor(uint _maxMint, string memory _baseURI)  ERC1155(_baseURI){\n    //usdcContract = _usdcAddress;\n    MAX_mint = _maxMint;\n  }\n  //Mints user bought NFT\n  function mintMyNFT(address _account, uint _id, uint _quantity) public payable saleIsOpen onlyOwner {\n        //check we haven't minted max yet\n        require(totalMinted(_id) <= MAX_mint, \"Sale end: max NFTS minted\");\n        //check current minting will not go over MAX\n        require(totalMinted(_id) + _quantity <= MAX_mint, \"Max limit reached\");\n        //can only mint  two per investor\n        require(_quantity <= 2, \"Only mint two NFTS per Investor\");\n        //check investor balance\n        require(msg.value >= price(_quantity), \"Value below price\");\n        //mint nft to investor account\n        _mint(_account, _id, _quantity, \" \");\n        //update total minted countMinted\n        _totalMinted[SONG] += _quantity;\n        //emit Event\n        emit NFTPurchased(_account, _quantity,price(_quantity));\n    }\n    //calculates total cost of purchase in WEI for now\n    function price(uint _quantity) public view returns (uint256) {\n          return rate * _quantity; // 0.0048 ETH\n  }\n}\n//create mapping to hold (id => countMinted) public NFTSMinted\n//I want to keep track of NFTS that have been minted so far..compare to max set during deployment\n//A total minted smart contract that is inherited here, totalMinted() should return number of NFT (id) has been minted\n//\n",
  "sourcePath": "C:\\Users\\jjrab\\OneDrive\\Desktop\\Tokndev\\Tokn-alpha\\Alpha-Contracts\\contracts\\NFTSContract.sol",
  "compiler": {
    "name": "solc",
    "version": "0.8.0+commit.c7dfd78e.Emscripten.clang"
  },
  "schemaVersion": "3.4.3",
  "updatedAt": "2021-12-13T12:38:56.058Z",
  "networkType": "ethereum",
  "devdoc": {
    "kind": "dev",
    "methods": {
      "balanceOf(address,uint256)": {
        "details": "See {IERC1155-balanceOf}. Requirements: - `account` cannot be the zero address."
      },
      "balanceOfBatch(address[],uint256[])": {
        "details": "See {IERC1155-balanceOfBatch}. Requirements: - `accounts` and `ids` must have the same length."
      },
      "isApprovedForAll(address,address)": {
        "details": "See {IERC1155-isApprovedForAll}."
      },
      "owner()": {
        "details": "Returns the address of the current owner."
      },
      "renounceOwnership()": {
        "details": "Leaves the contract without owner. It will not be possible to call `onlyOwner` functions anymore. Can only be called by the current owner. NOTE: Renouncing ownership will leave the contract without an owner, thereby removing any functionality that is only available to the owner."
      },
      "safeBatchTransferFrom(address,address,uint256[],uint256[],bytes)": {
        "details": "See {IERC1155-safeBatchTransferFrom}."
      },
      "safeTransferFrom(address,address,uint256,uint256,bytes)": {
        "details": "See {IERC1155-safeTransferFrom}."
      },
      "setApprovalForAll(address,bool)": {
        "details": "See {IERC1155-setApprovalForAll}."
      },
      "supportsInterface(bytes4)": {
        "details": "See {IERC165-supportsInterface}."
      },
      "transferOwnership(address)": {
        "details": "Transfers ownership of the contract to a new account (`newOwner`). Can only be called by the current owner."
      },
      "uri(uint256)": {
        "details": "See {IERC1155MetadataURI-uri}. This implementation returns the same URI for *all* token types. It relies on the token type ID substitution mechanism https://eips.ethereum.org/EIPS/eip-1155#metadata[defined in the EIP]. Clients calling this function must replace the `\\{id\\}` substring with the actual token type ID."
      }
    },
    "version": 1
  },
  "userdoc": {
    "kind": "user",
    "methods": {},
    "version": 1
  }
}