{
  "contractName": "ToknFactory",
  "abi": [
    {
      "inputs": [
        {
          "internalType": "string",
          "name": "_platformURI",
          "type": "string"
        }
      ],
      "stateMutability": "nonpayable",
      "type": "constructor"
    },
    {
      "anonymous": false,
      "inputs": [
        {
          "indexed": true,
          "internalType": "address",
          "name": "account",
          "type": "address"
        },
        {
          "indexed": true,
          "internalType": "address",
          "name": "operator",
          "type": "address"
        },
        {
          "indexed": false,
          "internalType": "bool",
          "name": "approved",
          "type": "bool"
        }
      ],
      "name": "ApprovalForAll",
      "type": "event"
    },
    {
      "anonymous": false,
      "inputs": [
        {
          "indexed": false,
          "internalType": "address",
          "name": "account",
          "type": "address"
        }
      ],
      "name": "Paused",
      "type": "event"
    },
    {
      "anonymous": false,
      "inputs": [
        {
          "indexed": true,
          "internalType": "address",
          "name": "operator",
          "type": "address"
        },
        {
          "indexed": true,
          "internalType": "address",
          "name": "from",
          "type": "address"
        },
        {
          "indexed": true,
          "internalType": "address",
          "name": "to",
          "type": "address"
        },
        {
          "indexed": false,
          "internalType": "uint256[]",
          "name": "ids",
          "type": "uint256[]"
        },
        {
          "indexed": false,
          "internalType": "uint256[]",
          "name": "values",
          "type": "uint256[]"
        }
      ],
      "name": "TransferBatch",
      "type": "event"
    },
    {
      "anonymous": false,
      "inputs": [
        {
          "indexed": true,
          "internalType": "address",
          "name": "operator",
          "type": "address"
        },
        {
          "indexed": true,
          "internalType": "address",
          "name": "from",
          "type": "address"
        },
        {
          "indexed": true,
          "internalType": "address",
          "name": "to",
          "type": "address"
        },
        {
          "indexed": false,
          "internalType": "uint256",
          "name": "id",
          "type": "uint256"
        },
        {
          "indexed": false,
          "internalType": "uint256",
          "name": "value",
          "type": "uint256"
        }
      ],
      "name": "TransferSingle",
      "type": "event"
    },
    {
      "anonymous": false,
      "inputs": [
        {
          "indexed": false,
          "internalType": "string",
          "name": "value",
          "type": "string"
        },
        {
          "indexed": true,
          "internalType": "uint256",
          "name": "id",
          "type": "uint256"
        }
      ],
      "name": "URI",
      "type": "event"
    },
    {
      "anonymous": false,
      "inputs": [
        {
          "indexed": false,
          "internalType": "address",
          "name": "account",
          "type": "address"
        }
      ],
      "name": "Unpaused",
      "type": "event"
    },
    {
      "inputs": [
        {
          "internalType": "uint256",
          "name": "",
          "type": "uint256"
        },
        {
          "internalType": "uint256",
          "name": "",
          "type": "uint256"
        }
      ],
      "name": "addressTracker",
      "outputs": [
        {
          "internalType": "address",
          "name": "",
          "type": "address"
        }
      ],
      "stateMutability": "view",
      "type": "function"
    },
    {
      "inputs": [
        {
          "internalType": "address",
          "name": "",
          "type": "address"
        },
        {
          "internalType": "uint256",
          "name": "",
          "type": "uint256"
        }
      ],
      "name": "artistTokns",
      "outputs": [
        {
          "internalType": "uint256",
          "name": "",
          "type": "uint256"
        }
      ],
      "stateMutability": "view",
      "type": "function"
    },
    {
      "inputs": [
        {
          "internalType": "address",
          "name": "account",
          "type": "address"
        },
        {
          "internalType": "uint256",
          "name": "id",
          "type": "uint256"
        }
      ],
      "name": "balanceOf",
      "outputs": [
        {
          "internalType": "uint256",
          "name": "",
          "type": "uint256"
        }
      ],
      "stateMutability": "view",
      "type": "function"
    },
    {
      "inputs": [
        {
          "internalType": "address[]",
          "name": "accounts",
          "type": "address[]"
        },
        {
          "internalType": "uint256[]",
          "name": "ids",
          "type": "uint256[]"
        }
      ],
      "name": "balanceOfBatch",
      "outputs": [
        {
          "internalType": "uint256[]",
          "name": "",
          "type": "uint256[]"
        }
      ],
      "stateMutability": "view",
      "type": "function"
    },
    {
      "inputs": [],
      "name": "deployer",
      "outputs": [
        {
          "internalType": "address payable",
          "name": "",
          "type": "address"
        }
      ],
      "stateMutability": "view",
      "type": "function"
    },
    {
      "inputs": [
        {
          "internalType": "address",
          "name": "account",
          "type": "address"
        },
        {
          "internalType": "address",
          "name": "operator",
          "type": "address"
        }
      ],
      "name": "isApprovedForAll",
      "outputs": [
        {
          "internalType": "bool",
          "name": "",
          "type": "bool"
        }
      ],
      "stateMutability": "view",
      "type": "function"
    },
    {
      "inputs": [],
      "name": "paused",
      "outputs": [
        {
          "internalType": "bool",
          "name": "",
          "type": "bool"
        }
      ],
      "stateMutability": "view",
      "type": "function"
    },
    {
      "inputs": [
        {
          "internalType": "address",
          "name": "from",
          "type": "address"
        },
        {
          "internalType": "address",
          "name": "to",
          "type": "address"
        },
        {
          "internalType": "uint256[]",
          "name": "ids",
          "type": "uint256[]"
        },
        {
          "internalType": "uint256[]",
          "name": "amounts",
          "type": "uint256[]"
        },
        {
          "internalType": "bytes",
          "name": "data",
          "type": "bytes"
        }
      ],
      "name": "safeBatchTransferFrom",
      "outputs": [],
      "stateMutability": "nonpayable",
      "type": "function"
    },
    {
      "inputs": [
        {
          "internalType": "address",
          "name": "operator",
          "type": "address"
        },
        {
          "internalType": "bool",
          "name": "approved",
          "type": "bool"
        }
      ],
      "name": "setApprovalForAll",
      "outputs": [],
      "stateMutability": "nonpayable",
      "type": "function"
    },
    {
      "inputs": [
        {
          "internalType": "bytes4",
          "name": "interfaceId",
          "type": "bytes4"
        }
      ],
      "name": "supportsInterface",
      "outputs": [
        {
          "internalType": "bool",
          "name": "",
          "type": "bool"
        }
      ],
      "stateMutability": "view",
      "type": "function"
    },
    {
      "inputs": [
        {
          "internalType": "string",
          "name": "",
          "type": "string"
        }
      ],
      "name": "symbolToId",
      "outputs": [
        {
          "internalType": "uint256",
          "name": "",
          "type": "uint256"
        }
      ],
      "stateMutability": "view",
      "type": "function"
    },
    {
      "inputs": [],
      "name": "toknId",
      "outputs": [
        {
          "internalType": "uint256",
          "name": "",
          "type": "uint256"
        }
      ],
      "stateMutability": "view",
      "type": "function"
    },
    {
      "inputs": [
        {
          "internalType": "uint256",
          "name": "",
          "type": "uint256"
        }
      ],
      "name": "toknIdToArtist",
      "outputs": [
        {
          "internalType": "address",
          "name": "",
          "type": "address"
        }
      ],
      "stateMutability": "view",
      "type": "function"
    },
    {
      "inputs": [
        {
          "internalType": "uint256",
          "name": "",
          "type": "uint256"
        }
      ],
      "name": "toknIdToURI",
      "outputs": [
        {
          "internalType": "string",
          "name": "",
          "type": "string"
        }
      ],
      "stateMutability": "view",
      "type": "function"
    },
    {
      "inputs": [
        {
          "internalType": "uint256",
          "name": "",
          "type": "uint256"
        }
      ],
      "name": "toknsAvailable",
      "outputs": [
        {
          "internalType": "uint256",
          "name": "",
          "type": "uint256"
        }
      ],
      "stateMutability": "view",
      "type": "function"
    },
    {
      "inputs": [
        {
          "internalType": "uint256",
          "name": "",
          "type": "uint256"
        }
      ],
      "name": "totalSupplies",
      "outputs": [
        {
          "internalType": "uint256",
          "name": "",
          "type": "uint256"
        }
      ],
      "stateMutability": "view",
      "type": "function"
    },
    {
      "inputs": [
        {
          "internalType": "uint256",
          "name": "",
          "type": "uint256"
        }
      ],
      "name": "uri",
      "outputs": [
        {
          "internalType": "string",
          "name": "",
          "type": "string"
        }
      ],
      "stateMutability": "view",
      "type": "function"
    },
    {
      "inputs": [
        {
          "internalType": "string",
          "name": "_symbol",
          "type": "string"
        },
        {
          "internalType": "uint256",
          "name": "_amount",
          "type": "uint256"
        },
        {
          "internalType": "string",
          "name": "_uri",
          "type": "string"
        }
      ],
      "name": "createInvestorTokns",
      "outputs": [],
      "stateMutability": "nonpayable",
      "type": "function"
    },
    {
      "inputs": [
        {
          "internalType": "uint256",
          "name": "_amount",
          "type": "uint256"
        },
        {
          "internalType": "uint256",
          "name": "_toknId",
          "type": "uint256"
        }
      ],
      "name": "mintInvestorTokns",
      "outputs": [],
      "stateMutability": "nonpayable",
      "type": "function"
    },
    {
      "inputs": [
        {
          "internalType": "uint256",
          "name": "_amount",
          "type": "uint256"
        },
        {
          "internalType": "uint256",
          "name": "_toknId",
          "type": "uint256"
        }
      ],
      "name": "burnInvestorTokns",
      "outputs": [],
      "stateMutability": "nonpayable",
      "type": "function"
    },
    {
      "inputs": [
        {
          "internalType": "uint256",
          "name": "_id",
          "type": "uint256"
        }
      ],
      "name": "returnAddressesForTokn",
      "outputs": [
        {
          "internalType": "address[]",
          "name": "",
          "type": "address[]"
        }
      ],
      "stateMutability": "view",
      "type": "function"
    },
    {
      "inputs": [
        {
          "internalType": "address",
          "name": "from",
          "type": "address"
        },
        {
          "internalType": "address",
          "name": "to",
          "type": "address"
        },
        {
          "internalType": "uint256",
          "name": "id",
          "type": "uint256"
        },
        {
          "internalType": "uint256",
          "name": "amount",
          "type": "uint256"
        },
        {
          "internalType": "bytes",
          "name": "data",
          "type": "bytes"
        }
      ],
      "name": "safeTransferFrom",
      "outputs": [],
      "stateMutability": "nonpayable",
      "type": "function"
    },
    {
      "inputs": [],
      "name": "pause",
      "outputs": [],
      "stateMutability": "nonpayable",
      "type": "function"
    },
    {
      "inputs": [],
      "name": "unPause",
      "outputs": [],
      "stateMutability": "nonpayable",
      "type": "function"
    }
  ],
  "bytecode": "0x60806040523480156200001157600080fd5b50604051620041df380380620041df8339818101604052810190620000379190620001eb565b806200004981620000ad60201b60201c565b506000600360006101000a81548160ff02191690831515021790555033600360016101000a81548173ffffffffffffffffffffffffffffffffffffffff021916908373ffffffffffffffffffffffffffffffffffffffff1602179055505062000361565b8060029080519060200190620000c5929190620000c9565b5050565b828054620000d790620002cd565b90600052602060002090601f016020900481019282620000fb576000855562000147565b82601f106200011657805160ff191683800117855562000147565b8280016001018555821562000147579182015b828111156200014657825182559160200191906001019062000129565b5b5090506200015691906200015a565b5090565b5b80821115620001755760008160009055506001016200015b565b5090565b6000620001906200018a8462000264565b62000230565b905082815260208101848484011115620001a957600080fd5b620001b684828562000297565b509392505050565b600082601f830112620001d057600080fd5b8151620001e284826020860162000179565b91505092915050565b600060208284031215620001fe57600080fd5b600082015167ffffffffffffffff8111156200021957600080fd5b6200022784828501620001be565b91505092915050565b6000604051905081810181811067ffffffffffffffff821117156200025a576200025962000332565b5b8060405250919050565b600067ffffffffffffffff82111562000282576200028162000332565b5b601f19601f8301169050602081019050919050565b60005b83811015620002b75780820151818401526020810190506200029a565b83811115620002c7576000848401525b50505050565b60006002820490506001821680620002e657607f821691505b60208210811415620002fd57620002fc62000303565b5b50919050565b7f4e487b7100000000000000000000000000000000000000000000000000000000600052602260045260246000fd5b7f4e487b7100000000000000000000000000000000000000000000000000000000600052604160045260246000fd5b613e6e80620003716000396000f3fe608060405234801561001057600080fd5b50600436106101575760003560e01c806372ed8a5d116100c3578063ce290c371161007c578063ce290c3714610420578063d5f394881461043e578063e6253d401461045c578063e985e9c51461048c578063f242432a146104bc578063f7b188a5146104d857610157565b806372ed8a5d1461034e5780638456cb591461037e578063a22cb46514610388578063a35d5ef9146103a4578063b54fa474146103d4578063c4f899db1461040457610157565b80632eb2c2d6116101155780632eb2c2d61461027c57806330a071f714610298578063338012e5146102b45780634e1273f4146102d05780635c975abb14610300578063700a451b1461031e57610157565b8062fdd58e1461015c57806301ffc9a71461018c57806305e1e18d146101bc5780630e89341c146101ec5780631146c2b41461021c57806318adc5821461024c575b600080fd5b61017660048036038101906101719190612b6f565b6104e2565b60405161018391906138cc565b60405180910390f35b6101a660048036038101906101a19190612c17565b6105ab565b6040516101b391906136af565b60405180910390f35b6101d660048036038101906101d19190612b6f565b61068d565b6040516101e391906138cc565b60405180910390f35b61020660048036038101906102019190612d29565b6106be565b60405161021391906136ca565b60405180910390f35b61023660048036038101906102319190612d29565b610752565b60405161024391906138cc565b60405180910390f35b61026660048036038101906102619190612d52565b61076a565b604051610273919061353c565b60405180910390f35b610296600480360381019061029191906129e5565b6107b8565b005b6102b260048036038101906102ad9190612d52565b610859565b005b6102ce60048036038101906102c99190612d52565b610973565b005b6102ea60048036038101906102e59190612bab565b610b29565b6040516102f79190613656565b60405180910390f35b610308610cda565b60405161031591906136af565b60405180910390f35b61033860048036038101906103339190612c69565b610cf1565b60405161034591906138cc565b60405180910390f35b61036860048036038101906103639190612d29565b610d1f565b60405161037591906136ca565b60405180910390f35b610386610dbf565b005b6103a2600480360381019061039d9190612b33565b610e23565b005b6103be60048036038101906103b99190612d29565b610e39565b6040516103cb9190613634565b60405180910390f35b6103ee60048036038101906103e99190612d29565b610eda565b6040516103fb91906138cc565b60405180910390f35b61041e60048036038101906104199190612caa565b610ef2565b005b610428611068565b60405161043591906138cc565b60405180910390f35b61044661106e565b6040516104539190613557565b60405180910390f35b61047660048036038101906104719190612d29565b611094565b604051610483919061353c565b60405180910390f35b6104a660048036038101906104a191906129a9565b6110c7565b6040516104b391906136af565b60405180910390f35b6104d660048036038101906104d19190612aa4565b61115b565b005b6104e0611503565b005b60008073ffffffffffffffffffffffffffffffffffffffff168373ffffffffffffffffffffffffffffffffffffffff161415610553576040517f08c379a000000000000000000000000000000000000000000000000000000000815260040161054a9061374c565b60405180910390fd5b60008083815260200190815260200160002060008473ffffffffffffffffffffffffffffffffffffffff1673ffffffffffffffffffffffffffffffffffffffff16815260200190815260200160002054905092915050565b60007fd9b67a26000000000000000000000000000000000000000000000000000000007bffffffffffffffffffffffffffffffffffffffffffffffffffffffff1916827bffffffffffffffffffffffffffffffffffffffffffffffffffffffff1916148061067657507f0e89341c000000000000000000000000000000000000000000000000000000007bffffffffffffffffffffffffffffffffffffffffffffffffffffffff1916827bffffffffffffffffffffffffffffffffffffffffffffffffffffffff1916145b80610686575061068582611567565b5b9050919050565b600960205281600052604060002081815481106106a957600080fd5b90600052602060002001600091509150505481565b6060600280546106cd90613c00565b80601f01602080910402602001604051908101604052809291908181526020018280546106f990613c00565b80156107465780601f1061071b57610100808354040283529160200191610746565b820191906000526020600020905b81548152906001019060200180831161072957829003601f168201915b50505050509050919050565b60066020528060005260406000206000915090505481565b600b602052816000526040600020818154811061078657600080fd5b906000526020600020016000915091509054906101000a900473ffffffffffffffffffffffffffffffffffffffff1681565b6107c06115d1565b73ffffffffffffffffffffffffffffffffffffffff168573ffffffffffffffffffffffffffffffffffffffff1614806108065750610805856108006115d1565b6110c7565b5b610845576040517f08c379a000000000000000000000000000000000000000000000000000000000815260040161083c906137ec565b60405180910390fd5b61085285858585856115d9565b5050505050565b80338073ffffffffffffffffffffffffffffffffffffffff16600a600084815260200190815260200160002060009054906101000a900473ffffffffffffffffffffffffffffffffffffffff1673ffffffffffffffffffffffffffffffffffffffff16146108c657600080fd5b6108ce610cda565b1561090e576040517f08c379a0000000000000000000000000000000000000000000000000000000008152600401610905906137ac565b60405180910390fd5b610919338486611939565b8360056000858152602001908152602001600020600082825461093c9190613b04565b92505081905550836006600085815260200190815260200160002060008282546109669190613b04565b9250508190555050505050565b80338073ffffffffffffffffffffffffffffffffffffffff16600a600084815260200190815260200160002060009054906101000a900473ffffffffffffffffffffffffffffffffffffffff1673ffffffffffffffffffffffffffffffffffffffff16146109e057600080fd5b6109e8610cda565b15610a28576040517f08c379a0000000000000000000000000000000000000000000000000000000008152600401610a1f906137ac565b60405180910390fd5b610acf338486600760008881526020019081526020016000208054610a4c90613c00565b80601f0160208091040260200160405190810160405280929190818152602001828054610a7890613c00565b8015610ac55780601f10610a9a57610100808354040283529160200191610ac5565b820191906000526020600020905b815481529060010190602001808311610aa857829003601f168201915b5050505050611b56565b83600560008581526020019081526020016000206000828254610af29190613aae565b9250508190555083600660008581526020019081526020016000206000828254610b1c9190613aae565b9250508190555050505050565b60608151835114610b6f576040517f08c379a0000000000000000000000000000000000000000000000000000000008152600401610b669061386c565b60405180910390fd5b6000835167ffffffffffffffff811115610bb2577f4e487b7100000000000000000000000000000000000000000000000000000000600052604160045260246000fd5b604051908082528060200260200182016040528015610be05781602001602082028036833780820191505090505b50905060005b8451811015610ccf57610c79858281518110610c2b577f4e487b7100000000000000000000000000000000000000000000000000000000600052603260045260246000fd5b6020026020010151858381518110610c6c577f4e487b7100000000000000000000000000000000000000000000000000000000600052603260045260246000fd5b60200260200101516104e2565b828281518110610cb2577f4e487b7100000000000000000000000000000000000000000000000000000000600052603260045260246000fd5b60200260200101818152505080610cc890613c32565b9050610be6565b508091505092915050565b6000600360009054906101000a900460ff16905090565b6008818051602081018201805184825260208301602085012081835280955050505050506000915090505481565b60076020528060005260406000206000915090508054610d3e90613c00565b80601f0160208091040260200160405190810160405280929190818152602001828054610d6a90613c00565b8015610db75780601f10610d8c57610100808354040283529160200191610db7565b820191906000526020600020905b815481529060010190602001808311610d9a57829003601f168201915b505050505081565b600360019054906101000a900473ffffffffffffffffffffffffffffffffffffffff1673ffffffffffffffffffffffffffffffffffffffff163373ffffffffffffffffffffffffffffffffffffffff1614610e1957600080fd5b610e21611cec565b565b610e35610e2e6115d1565b8383611d8f565b5050565b6060600b6000838152602001908152602001600020805480602002602001604051908101604052809291908181526020018280548015610ece57602002820191906000526020600020905b8160009054906101000a900473ffffffffffffffffffffffffffffffffffffffff1673ffffffffffffffffffffffffffffffffffffffff1681526020019060010190808311610e84575b50505050509050919050565b60056020528060005260406000206000915090505481565b610efa610cda565b15610f3a576040517f08c379a0000000000000000000000000000000000000000000000000000000008152600401610f31906137ac565b60405180910390fd5b33600a6000600460008154610f4e90613c32565b919050819055815260200190815260200160002060006101000a81548173ffffffffffffffffffffffffffffffffffffffff021916908373ffffffffffffffffffffffffffffffffffffffff160217905550600454600884604051610fb39190613525565b908152602001604051809103902081905550600960003373ffffffffffffffffffffffffffffffffffffffff1673ffffffffffffffffffffffffffffffffffffffff16815260200190815260200160002060045490806001815401808255809150506001900390600052602060002001600090919091909150558060076000600454815260200190815260200160002090805190602001906110569291906126a1565b5061106382600454610973565b505050565b60045481565b600360019054906101000a900473ffffffffffffffffffffffffffffffffffffffff1681565b600a6020528060005260406000206000915054906101000a900473ffffffffffffffffffffffffffffffffffffffff1681565b6000600160008473ffffffffffffffffffffffffffffffffffffffff1673ffffffffffffffffffffffffffffffffffffffff16815260200190815260200160002060008373ffffffffffffffffffffffffffffffffffffffff1673ffffffffffffffffffffffffffffffffffffffff16815260200190815260200160002060009054906101000a900460ff16905092915050565b611163610cda565b156111a3576040517f08c379a000000000000000000000000000000000000000000000000000000000815260040161119a906137ac565b60405180910390fd5b6111ab6115d1565b73ffffffffffffffffffffffffffffffffffffffff168573ffffffffffffffffffffffffffffffffffffffff1614806111f157506111f0856111eb6115d1565b6110c7565b5b611230576040517f08c379a00000000000000000000000000000000000000000000000000000000081526004016112279061378c565b60405180910390fd5b61123d8585858585611efc565b600061124986856104e2565b14156113a55760005b600b6000858152602001908152602001600020805490508110156113a3578573ffffffffffffffffffffffffffffffffffffffff16600b600086815260200190815260200160002082815481106112d2577f4e487b7100000000000000000000000000000000000000000000000000000000600052603260045260246000fd5b9060005260206000200160009054906101000a900473ffffffffffffffffffffffffffffffffffffffff1673ffffffffffffffffffffffffffffffffffffffff16141561139257600b60008581526020019081526020016000208181548110611364577f4e487b7100000000000000000000000000000000000000000000000000000000600052603260045260246000fd5b9060005260206000200160006101000a81549073ffffffffffffffffffffffffffffffffffffffff02191690555b8061139c90613c32565b9050611252565b505b60005b600b600085815260200190815260200160002080549050811015611486578473ffffffffffffffffffffffffffffffffffffffff16600b60008681526020019081526020016000208281548110611428577f4e487b7100000000000000000000000000000000000000000000000000000000600052603260045260246000fd5b9060005260206000200160009054906101000a900473ffffffffffffffffffffffffffffffffffffffff1673ffffffffffffffffffffffffffffffffffffffff16141561147557506114fc565b8061147f90613c32565b90506113a8565b50600b6000848152602001908152602001600020849080600181540180825580915050600190039060005260206000200160009091909190916101000a81548173ffffffffffffffffffffffffffffffffffffffff021916908373ffffffffffffffffffffffffffffffffffffffff1602179055505b5050505050565b600360019054906101000a900473ffffffffffffffffffffffffffffffffffffffff1673ffffffffffffffffffffffffffffffffffffffff163373ffffffffffffffffffffffffffffffffffffffff161461155d57600080fd5b61156561217e565b565b60007f01ffc9a7000000000000000000000000000000000000000000000000000000007bffffffffffffffffffffffffffffffffffffffffffffffffffffffff1916827bffffffffffffffffffffffffffffffffffffffffffffffffffffffff1916149050919050565b600033905090565b815183511461161d576040517f08c379a00000000000000000000000000000000000000000000000000000000081526004016116149061388c565b60405180910390fd5b600073ffffffffffffffffffffffffffffffffffffffff168473ffffffffffffffffffffffffffffffffffffffff16141561168d576040517f08c379a0000000000000000000000000000000000000000000000000000000008152600401611684906137cc565b60405180910390fd5b60006116976115d1565b90506116a7818787878787612220565b60005b84518110156118a45760008582815181106116ee577f4e487b7100000000000000000000000000000000000000000000000000000000600052603260045260246000fd5b602002602001015190506000858381518110611733577f4e487b7100000000000000000000000000000000000000000000000000000000600052603260045260246000fd5b60200260200101519050600080600084815260200190815260200160002060008b73ffffffffffffffffffffffffffffffffffffffff1673ffffffffffffffffffffffffffffffffffffffff168152602001908152602001600020549050818110156117d4576040517f08c379a00000000000000000000000000000000000000000000000000000000081526004016117cb9061382c565b60405180910390fd5b81810360008085815260200190815260200160002060008c73ffffffffffffffffffffffffffffffffffffffff1673ffffffffffffffffffffffffffffffffffffffff168152602001908152602001600020819055508160008085815260200190815260200160002060008b73ffffffffffffffffffffffffffffffffffffffff1673ffffffffffffffffffffffffffffffffffffffff16815260200190815260200160002060008282546118899190613aae565b925050819055505050508061189d90613c32565b90506116aa565b508473ffffffffffffffffffffffffffffffffffffffff168673ffffffffffffffffffffffffffffffffffffffff168273ffffffffffffffffffffffffffffffffffffffff167f4a39dc06d4c0dbc64b70af90fd698a233a518aa5d07e595d983b8c0526c8f7fb878760405161191b929190613678565b60405180910390a4611931818787878787612228565b505050505050565b600073ffffffffffffffffffffffffffffffffffffffff168373ffffffffffffffffffffffffffffffffffffffff1614156119a9576040517f08c379a00000000000000000000000000000000000000000000000000000000081526004016119a09061380c565b60405180910390fd5b60006119b36115d1565b90506119e3818560006119c5876123f8565b6119ce876123f8565b60405180602001604052806000815250612220565b600080600085815260200190815260200160002060008673ffffffffffffffffffffffffffffffffffffffff1673ffffffffffffffffffffffffffffffffffffffff16815260200190815260200160002054905082811015611a7a576040517f08c379a0000000000000000000000000000000000000000000000000000000008152600401611a719061376c565b60405180910390fd5b82810360008086815260200190815260200160002060008773ffffffffffffffffffffffffffffffffffffffff1673ffffffffffffffffffffffffffffffffffffffff16815260200190815260200160002081905550600073ffffffffffffffffffffffffffffffffffffffff168573ffffffffffffffffffffffffffffffffffffffff168373ffffffffffffffffffffffffffffffffffffffff167fc3d58168c5ae7397731d063d5bbf3d657854427343f4c083240f7aacaa2d0f628787604051611b479291906138e7565b60405180910390a45050505050565b600073ffffffffffffffffffffffffffffffffffffffff168473ffffffffffffffffffffffffffffffffffffffff161415611bc6576040517f08c379a0000000000000000000000000000000000000000000000000000000008152600401611bbd906138ac565b60405180910390fd5b6000611bd06115d1565b9050611bf181600087611be2886123f8565b611beb886123f8565b87612220565b8260008086815260200190815260200160002060008773ffffffffffffffffffffffffffffffffffffffff1673ffffffffffffffffffffffffffffffffffffffff1681526020019081526020016000206000828254611c509190613aae565b925050819055508473ffffffffffffffffffffffffffffffffffffffff16600073ffffffffffffffffffffffffffffffffffffffff168273ffffffffffffffffffffffffffffffffffffffff167fc3d58168c5ae7397731d063d5bbf3d657854427343f4c083240f7aacaa2d0f628787604051611cce9291906138e7565b60405180910390a4611ce5816000878787876124be565b5050505050565b611cf4610cda565b15611d34576040517f08c379a0000000000000000000000000000000000000000000000000000000008152600401611d2b906137ac565b60405180910390fd5b6001600360006101000a81548160ff0219169083151502179055507f62e78cea01bee320cd4e420270b5ea74000d11b0c9f74754ebdbfc544b05a258611d786115d1565b604051611d85919061353c565b60405180910390a1565b8173ffffffffffffffffffffffffffffffffffffffff168373ffffffffffffffffffffffffffffffffffffffff161415611dfe576040517f08c379a0000000000000000000000000000000000000000000000000000000008152600401611df59061384c565b60405180910390fd5b80600160008573ffffffffffffffffffffffffffffffffffffffff1673ffffffffffffffffffffffffffffffffffffffff16815260200190815260200160002060008473ffffffffffffffffffffffffffffffffffffffff1673ffffffffffffffffffffffffffffffffffffffff16815260200190815260200160002060006101000a81548160ff0219169083151502179055508173ffffffffffffffffffffffffffffffffffffffff168373ffffffffffffffffffffffffffffffffffffffff167f17307eab39ab6107e8899845ad3d59bd9653f200f220920489ca2b5937696c3183604051611eef91906136af565b60405180910390a3505050565b600073ffffffffffffffffffffffffffffffffffffffff168473ffffffffffffffffffffffffffffffffffffffff161415611f6c576040517f08c379a0000000000000000000000000000000000000000000000000000000008152600401611f63906137cc565b60405180910390fd5b6000611f766115d1565b9050611f96818787611f87886123f8565b611f90886123f8565b87612220565b600080600086815260200190815260200160002060008873ffffffffffffffffffffffffffffffffffffffff1673ffffffffffffffffffffffffffffffffffffffff1681526020019081526020016000205490508381101561202d576040517f08c379a00000000000000000000000000000000000000000000000000000000081526004016120249061382c565b60405180910390fd5b83810360008087815260200190815260200160002060008973ffffffffffffffffffffffffffffffffffffffff1673ffffffffffffffffffffffffffffffffffffffff168152602001908152602001600020819055508360008087815260200190815260200160002060008873ffffffffffffffffffffffffffffffffffffffff1673ffffffffffffffffffffffffffffffffffffffff16815260200190815260200160002060008282546120e29190613aae565b925050819055508573ffffffffffffffffffffffffffffffffffffffff168773ffffffffffffffffffffffffffffffffffffffff168373ffffffffffffffffffffffffffffffffffffffff167fc3d58168c5ae7397731d063d5bbf3d657854427343f4c083240f7aacaa2d0f62888860405161215f9291906138e7565b60405180910390a46121758288888888886124be565b50505050505050565b612186610cda565b6121c5576040517f08c379a00000000000000000000000000000000000000000000000000000000081526004016121bc9061372c565b60405180910390fd5b6000600360006101000a81548160ff0219169083151502179055507f5db9ee0a495bf2e6ff9c91a7834c1ba4fdd244a5e8aa4e537bd38aeae4b073aa6122096115d1565b604051612216919061353c565b60405180910390a1565b505050505050565b6122478473ffffffffffffffffffffffffffffffffffffffff1661268e565b156123f0578373ffffffffffffffffffffffffffffffffffffffff1663bc197c8187878686866040518663ffffffff1660e01b815260040161228d959493929190613572565b602060405180830381600087803b1580156122a757600080fd5b505af19250505080156122d857506040513d601f19601f820116820180604052508101906122d59190612c40565b60015b612367576122e4613d26565b806122ef575061232c565b806040517f08c379a000000000000000000000000000000000000000000000000000000000815260040161232391906136ca565b60405180910390fd5b6040517f08c379a000000000000000000000000000000000000000000000000000000000815260040161235e906136ec565b60405180910390fd5b63bc197c8160e01b7bffffffffffffffffffffffffffffffffffffffffffffffffffffffff1916817bffffffffffffffffffffffffffffffffffffffffffffffffffffffff1916146123ee576040517f08c379a00000000000000000000000000000000000000000000000000000000081526004016123e59061370c565b60405180910390fd5b505b505050505050565b60606000600167ffffffffffffffff81111561243d577f4e487b7100000000000000000000000000000000000000000000000000000000600052604160045260246000fd5b60405190808252806020026020018201604052801561246b5781602001602082028036833780820191505090505b50905082816000815181106124a9577f4e487b7100000000000000000000000000000000000000000000000000000000600052603260045260246000fd5b60200260200101818152505080915050919050565b6124dd8473ffffffffffffffffffffffffffffffffffffffff1661268e565b15612686578373ffffffffffffffffffffffffffffffffffffffff1663f23a6e6187878686866040518663ffffffff1660e01b81526004016125239594939291906135da565b602060405180830381600087803b15801561253d57600080fd5b505af192505050801561256e57506040513d601f19601f8201168201806040525081019061256b9190612c40565b60015b6125fd5761257a613d26565b8061258557506125c2565b806040517f08c379a00000000000000000000000000000000000000000000000000000000081526004016125b991906136ca565b60405180910390fd5b6040517f08c379a00000000000000000000000000000000000000000000000000000000081526004016125f4906136ec565b60405180910390fd5b63f23a6e6160e01b7bffffffffffffffffffffffffffffffffffffffffffffffffffffffff1916817bffffffffffffffffffffffffffffffffffffffffffffffffffffffff191614612684576040517f08c379a000000000000000000000000000000000000000000000000000000000815260040161267b9061370c565b60405180910390fd5b505b505050505050565b600080823b905060008111915050919050565b8280546126ad90613c00565b90600052602060002090601f0160209004810192826126cf5760008555612716565b82601f106126e857805160ff1916838001178555612716565b82800160010185558215612716579182015b828111156127155782518255916020019190600101906126fa565b5b5090506127239190612727565b5090565b5b80821115612740576000816000905550600101612728565b5090565b600061275761275284613941565b613910565b9050808382526020820190508285602086028201111561277657600080fd5b60005b858110156127a6578161278c8882612898565b845260208401935060208301925050600181019050612779565b5050509392505050565b60006127c36127be8461396d565b613910565b905080838252602082019050828560208602820111156127e257600080fd5b60005b8581101561281257816127f88882612994565b8452602084019350602083019250506001810190506127e5565b5050509392505050565b600061282f61282a84613999565b613910565b90508281526020810184848401111561284757600080fd5b612852848285613bbe565b509392505050565b600061286d612868846139c9565b613910565b90508281526020810184848401111561288557600080fd5b612890848285613bbe565b509392505050565b6000813590506128a781613ddc565b92915050565b600082601f8301126128be57600080fd5b81356128ce848260208601612744565b91505092915050565b600082601f8301126128e857600080fd5b81356128f88482602086016127b0565b91505092915050565b60008135905061291081613df3565b92915050565b60008135905061292581613e0a565b92915050565b60008151905061293a81613e0a565b92915050565b600082601f83011261295157600080fd5b813561296184826020860161281c565b91505092915050565b600082601f83011261297b57600080fd5b813561298b84826020860161285a565b91505092915050565b6000813590506129a381613e21565b92915050565b600080604083850312156129bc57600080fd5b60006129ca85828601612898565b92505060206129db85828601612898565b9150509250929050565b600080600080600060a086880312156129fd57600080fd5b6000612a0b88828901612898565b9550506020612a1c88828901612898565b945050604086013567ffffffffffffffff811115612a3957600080fd5b612a45888289016128d7565b935050606086013567ffffffffffffffff811115612a6257600080fd5b612a6e888289016128d7565b925050608086013567ffffffffffffffff811115612a8b57600080fd5b612a9788828901612940565b9150509295509295909350565b600080600080600060a08688031215612abc57600080fd5b6000612aca88828901612898565b9550506020612adb88828901612898565b9450506040612aec88828901612994565b9350506060612afd88828901612994565b925050608086013567ffffffffffffffff811115612b1a57600080fd5b612b2688828901612940565b9150509295509295909350565b60008060408385031215612b4657600080fd5b6000612b5485828601612898565b9250506020612b6585828601612901565b9150509250929050565b60008060408385031215612b8257600080fd5b6000612b9085828601612898565b9250506020612ba185828601612994565b9150509250929050565b60008060408385031215612bbe57600080fd5b600083013567ffffffffffffffff811115612bd857600080fd5b612be4858286016128ad565b925050602083013567ffffffffffffffff811115612c0157600080fd5b612c0d858286016128d7565b9150509250929050565b600060208284031215612c2957600080fd5b6000612c3784828501612916565b91505092915050565b600060208284031215612c5257600080fd5b6000612c608482850161292b565b91505092915050565b600060208284031215612c7b57600080fd5b600082013567ffffffffffffffff811115612c9557600080fd5b612ca18482850161296a565b91505092915050565b600080600060608486031215612cbf57600080fd5b600084013567ffffffffffffffff811115612cd957600080fd5b612ce58682870161296a565b9350506020612cf686828701612994565b925050604084013567ffffffffffffffff811115612d1357600080fd5b612d1f8682870161296a565b9150509250925092565b600060208284031215612d3b57600080fd5b6000612d4984828501612994565b91505092915050565b60008060408385031215612d6557600080fd5b6000612d7385828601612994565b9250506020612d8485828601612994565b9150509250929050565b6000612d9a8383612dcd565b60208301905092915050565b6000612db28383613507565b60208301905092915050565b612dc781613b4a565b82525050565b612dd681613b38565b82525050565b612de581613b38565b82525050565b6000612df682613a19565b612e008185613a5f565b9350612e0b836139f9565b8060005b83811015612e3c578151612e238882612d8e565b9750612e2e83613a45565b925050600181019050612e0f565b5085935050505092915050565b6000612e5482613a24565b612e5e8185613a70565b9350612e6983613a09565b8060005b83811015612e9a578151612e818882612da6565b9750612e8c83613a52565b925050600181019050612e6d565b5085935050505092915050565b612eb081613b5c565b82525050565b6000612ec182613a2f565b612ecb8185613a81565b9350612edb818560208601613bcd565b612ee481613d08565b840191505092915050565b6000612efa82613a3a565b612f048185613a92565b9350612f14818560208601613bcd565b612f1d81613d08565b840191505092915050565b6000612f3382613a3a565b612f3d8185613aa3565b9350612f4d818560208601613bcd565b80840191505092915050565b6000612f66603483613a92565b91507f455243313135353a207472616e7366657220746f206e6f6e204552433131353560008301527f526563656976657220696d706c656d656e7465720000000000000000000000006020830152604082019050919050565b6000612fcc602883613a92565b91507f455243313135353a204552433131353552656365697665722072656a6563746560008301527f6420746f6b656e730000000000000000000000000000000000000000000000006020830152604082019050919050565b6000613032601483613a92565b91507f5061757361626c653a206e6f74207061757365640000000000000000000000006000830152602082019050919050565b6000613072602b83613a92565b91507f455243313135353a2062616c616e636520717565727920666f7220746865207a60008301527f65726f20616464726573730000000000000000000000000000000000000000006020830152604082019050919050565b60006130d8602483613a92565b91507f455243313135353a206275726e20616d6f756e7420657863656564732062616c60008301527f616e6365000000000000000000000000000000000000000000000000000000006020830152604082019050919050565b600061313e602983613a92565b91507f455243313135353a2063616c6c6572206973206e6f74206f776e6572206e6f7260008301527f20617070726f76656400000000000000000000000000000000000000000000006020830152604082019050919050565b60006131a4601083613a92565b91507f5061757361626c653a20706175736564000000000000000000000000000000006000830152602082019050919050565b60006131e4602583613a92565b91507f455243313135353a207472616e7366657220746f20746865207a65726f20616460008301527f64726573730000000000000000000000000000000000000000000000000000006020830152604082019050919050565b600061324a603283613a92565b91507f455243313135353a207472616e736665722063616c6c6572206973206e6f742060008301527f6f776e6572206e6f7220617070726f76656400000000000000000000000000006020830152604082019050919050565b60006132b0602383613a92565b91507f455243313135353a206275726e2066726f6d20746865207a65726f206164647260008301527f65737300000000000000000000000000000000000000000000000000000000006020830152604082019050919050565b6000613316602a83613a92565b91507f455243313135353a20696e73756666696369656e742062616c616e636520666f60008301527f72207472616e73666572000000000000000000000000000000000000000000006020830152604082019050919050565b600061337c602983613a92565b91507f455243313135353a2073657474696e6720617070726f76616c2073746174757360008301527f20666f722073656c6600000000000000000000000000000000000000000000006020830152604082019050919050565b60006133e2602983613a92565b91507f455243313135353a206163636f756e747320616e6420696473206c656e67746860008301527f206d69736d6174636800000000000000000000000000000000000000000000006020830152604082019050919050565b6000613448602883613a92565b91507f455243313135353a2069647320616e6420616d6f756e7473206c656e6774682060008301527f6d69736d617463680000000000000000000000000000000000000000000000006020830152604082019050919050565b60006134ae602183613a92565b91507f455243313135353a206d696e7420746f20746865207a65726f2061646472657360008301527f73000000000000000000000000000000000000000000000000000000000000006020830152604082019050919050565b61351081613bb4565b82525050565b61351f81613bb4565b82525050565b60006135318284612f28565b915081905092915050565b60006020820190506135516000830184612ddc565b92915050565b600060208201905061356c6000830184612dbe565b92915050565b600060a0820190506135876000830188612ddc565b6135946020830187612ddc565b81810360408301526135a68186612e49565b905081810360608301526135ba8185612e49565b905081810360808301526135ce8184612eb6565b90509695505050505050565b600060a0820190506135ef6000830188612ddc565b6135fc6020830187612ddc565b6136096040830186613516565b6136166060830185613516565b81810360808301526136288184612eb6565b90509695505050505050565b6000602082019050818103600083015261364e8184612deb565b905092915050565b600060208201905081810360008301526136708184612e49565b905092915050565b600060408201905081810360008301526136928185612e49565b905081810360208301526136a68184612e49565b90509392505050565b60006020820190506136c46000830184612ea7565b92915050565b600060208201905081810360008301526136e48184612eef565b905092915050565b6000602082019050818103600083015261370581612f59565b9050919050565b6000602082019050818103600083015261372581612fbf565b9050919050565b6000602082019050818103600083015261374581613025565b9050919050565b6000602082019050818103600083015261376581613065565b9050919050565b60006020820190508181036000830152613785816130cb565b9050919050565b600060208201905081810360008301526137a581613131565b9050919050565b600060208201905081810360008301526137c581613197565b9050919050565b600060208201905081810360008301526137e5816131d7565b9050919050565b600060208201905081810360008301526138058161323d565b9050919050565b60006020820190508181036000830152613825816132a3565b9050919050565b6000602082019050818103600083015261384581613309565b9050919050565b600060208201905081810360008301526138658161336f565b9050919050565b60006020820190508181036000830152613885816133d5565b9050919050565b600060208201905081810360008301526138a58161343b565b9050919050565b600060208201905081810360008301526138c5816134a1565b9050919050565b60006020820190506138e16000830184613516565b92915050565b60006040820190506138fc6000830185613516565b6139096020830184613516565b9392505050565b6000604051905081810181811067ffffffffffffffff8211171561393757613936613cd9565b5b8060405250919050565b600067ffffffffffffffff82111561395c5761395b613cd9565b5b602082029050602081019050919050565b600067ffffffffffffffff82111561398857613987613cd9565b5b602082029050602081019050919050565b600067ffffffffffffffff8211156139b4576139b3613cd9565b5b601f19601f8301169050602081019050919050565b600067ffffffffffffffff8211156139e4576139e3613cd9565b5b601f19601f8301169050602081019050919050565b6000819050602082019050919050565b6000819050602082019050919050565b600081519050919050565b600081519050919050565b600081519050919050565b600081519050919050565b6000602082019050919050565b6000602082019050919050565b600082825260208201905092915050565b600082825260208201905092915050565b600082825260208201905092915050565b600082825260208201905092915050565b600081905092915050565b6000613ab982613bb4565b9150613ac483613bb4565b9250827fffffffffffffffffffffffffffffffffffffffffffffffffffffffffffffffff03821115613af957613af8613c7b565b5b828201905092915050565b6000613b0f82613bb4565b9150613b1a83613bb4565b925082821015613b2d57613b2c613c7b565b5b828203905092915050565b6000613b4382613b94565b9050919050565b6000613b5582613b94565b9050919050565b60008115159050919050565b60007fffffffff0000000000000000000000000000000000000000000000000000000082169050919050565b600073ffffffffffffffffffffffffffffffffffffffff82169050919050565b6000819050919050565b82818337600083830152505050565b60005b83811015613beb578082015181840152602081019050613bd0565b83811115613bfa576000848401525b50505050565b60006002820490506001821680613c1857607f821691505b60208210811415613c2c57613c2b613caa565b5b50919050565b6000613c3d82613bb4565b91507fffffffffffffffffffffffffffffffffffffffffffffffffffffffffffffffff821415613c7057613c6f613c7b565b5b600182019050919050565b7f4e487b7100000000000000000000000000000000000000000000000000000000600052601160045260246000fd5b7f4e487b7100000000000000000000000000000000000000000000000000000000600052602260045260246000fd5b7f4e487b7100000000000000000000000000000000000000000000000000000000600052604160045260246000fd5b6000601f19601f8301169050919050565b60008160e01c9050919050565b600060443d1015613d3657613dd9565b60046000803e613d47600051613d19565b6308c379a08114613d585750613dd9565b60405160043d036004823e80513d602482011167ffffffffffffffff82111715613d8457505050613dd9565b808201805167ffffffffffffffff811115613da3575050505050613dd9565b8060208301013d8501811115613dbe57505050505050613dd9565b613dc782613d08565b60208401016040528296505050505050505b90565b613de581613b38565b8114613df057600080fd5b50565b613dfc81613b5c565b8114613e0757600080fd5b50565b613e1381613b68565b8114613e1e57600080fd5b50565b613e2a81613bb4565b8114613e3557600080fd5b5056fea2646970667358221220e7e3399cebc4ee7aee29bacb1f6e309853b5d4582d305e0caa4097b8e2b3f40964736f6c63430008000033",
  "immutableReferences": {},
  "source": "// SPDX-License-Identifier: MIT\r\n\r\n\r\npragma solidity ^0.8.0;\r\n// import \"@openzeppelin/contracts/token/ERC20/ERC20.sol\";\r\nimport \"@openzeppelin/contracts/security/Pausable.sol\";\r\nimport \"@openzeppelin/contracts/token/ERC1155/ERC1155.sol\";\r\n\r\n// interface UsdcToken {\r\n//     function balanceOf(address tokenOwner) external view returns (uint balance);\r\n//     function transfer(address to, uint tokens) external returns (bool success);\r\n//     function transferFrom(address from, address to, uint tokens) external returns (bool success);\r\n//     function approve(address spender, uint tokens) external returns (bool success);\r\n//     function allowance(address tokenOwner, address spender) external view returns (uint remaining);\r\n// }\r\n\r\ncontract ToknFactory is ERC1155, Pausable{\r\n  \r\n    address payable public deployer;\r\n    uint public toknId;\r\n\r\n    // totalSupplies for every token\r\n    mapping(uint => uint) public totalSupplies;\r\n    mapping(uint => uint) public toknsAvailable;\r\n    // maps token id to metadata uri\r\n    mapping(uint => string) public toknIdToURI;\r\n\r\n    mapping(string => uint) public symbolToId;\r\n    \r\n    //maps artist to his investor token\r\n    mapping(address => uint[]) public artistTokns;\r\n    mapping(uint => address) public toknIdToArtist;\r\n   \r\n    // mapping(address => uint[]) public nftBalances;\r\n    mapping(uint => address[]) public addressTracker;\r\n\r\n    // UsdcToken public usdc;\r\n    \r\n    constructor(string memory _platformURI) ERC1155(_platformURI){\r\n      deployer = payable(msg.sender);\r\n      // usdc = UsdcToken(0x2791Bca1f2de4661ED88A30C99A7a9449Aa84174); //Rinkeby usdc address\r\n    }\r\n    \r\n    modifier isToknOwner(uint _id, address _addr){\r\n        require (toknIdToArtist[_id] == _addr);\r\n        _;\r\n    }\r\n    \r\n    //lets artist create his investor token\r\n    function createInvestorTokns(string memory _symbol, uint _amount, string memory _uri) public whenNotPaused{\r\n        toknIdToArtist[++toknId] = msg.sender;\r\n        symbolToId[_symbol] = toknId;\r\n        artistTokns[msg.sender].push(toknId);\r\n        toknIdToURI[toknId] = _uri;\r\n        mintInvestorTokns(_amount, toknId);    \r\n    }\r\n    \r\n    //lets artists mint more of his investor tokens\r\n    function mintInvestorTokns(uint _amount, uint _toknId) public isToknOwner(_toknId, msg.sender) whenNotPaused{\r\n        _mint(msg.sender, _toknId, _amount, bytes(toknIdToURI[_toknId]));\r\n        totalSupplies[_toknId] += _amount;\r\n        toknsAvailable[_toknId] += _amount;\r\n    }\r\n    \r\n    \r\n    function burnInvestorTokns(uint _amount, uint _toknId) public isToknOwner(_toknId, msg.sender) whenNotPaused{\r\n        _burn(msg.sender, _toknId, _amount);\r\n        totalSupplies[_toknId] -= _amount;\r\n        toknsAvailable[_toknId] -= _amount;\r\n    }    \r\n    \r\n    function returnAddressesForTokn(uint _id) public view returns(address[] memory){\r\n        return addressTracker[_id];\r\n    }\r\n    \r\n    function safeTransferFrom(\r\n        address from,\r\n        address to,\r\n        uint256 id,\r\n        uint256 amount,\r\n        bytes memory data\r\n    ) public override (ERC1155) whenNotPaused {\r\n        require(\r\n            from == _msgSender() || isApprovedForAll(from, _msgSender()),\r\n            \"ERC1155: caller is not owner nor approved\"\r\n        );\r\n        _safeTransferFrom(from, to, id, amount, data);\r\n        if(balanceOf(from, id) == 0){\r\n            for(uint i = 0; i < addressTracker[id].length; ++i){\r\n                if(addressTracker[id][i] == from){\r\n                    delete addressTracker[id][i];\r\n                }\r\n            }\r\n        }\r\n        for(uint i = 0; i < addressTracker[id].length; ++i){\r\n            if(addressTracker[id][i] == to){\r\n                return;\r\n            }\r\n        }\r\n        addressTracker[id].push(to);\r\n    }\r\n\r\n    function pause() public {\r\n        require(msg.sender == deployer);\r\n        _pause();\r\n    }\r\n\r\n    function unPause() public {\r\n        require(msg.sender == deployer);\r\n        _unpause();\r\n    }\r\n}",
  "sourcePath": "C:\\Users\\sj931\\OneDrive\\Desktop\\Tokn\\Tokn-alpha\\Alpha-Contracts\\contracts\\ToknFactory.sol",
  "compiler": {
    "name": "solc",
    "version": "0.8.0+commit.c7dfd78e.Emscripten.clang"
  },
  "schemaVersion": "3.4.3",
  "updatedAt": "2022-02-25T06:31:26.250Z",
  "devdoc": {
    "kind": "dev",
    "methods": {
      "balanceOf(address,uint256)": {
        "details": "See {IERC1155-balanceOf}. Requirements: - `account` cannot be the zero address."
      },
      "balanceOfBatch(address[],uint256[])": {
        "details": "See {IERC1155-balanceOfBatch}. Requirements: - `accounts` and `ids` must have the same length."
      },
      "isApprovedForAll(address,address)": {
        "details": "See {IERC1155-isApprovedForAll}."
      },
      "paused()": {
        "details": "Returns true if the contract is paused, and false otherwise."
      },
      "safeBatchTransferFrom(address,address,uint256[],uint256[],bytes)": {
        "details": "See {IERC1155-safeBatchTransferFrom}."
      },
      "safeTransferFrom(address,address,uint256,uint256,bytes)": {
        "details": "See {IERC1155-safeTransferFrom}."
      },
      "setApprovalForAll(address,bool)": {
        "details": "See {IERC1155-setApprovalForAll}."
      },
      "supportsInterface(bytes4)": {
        "details": "See {IERC165-supportsInterface}."
      },
      "uri(uint256)": {
        "details": "See {IERC1155MetadataURI-uri}. This implementation returns the same URI for *all* token types. It relies on the token type ID substitution mechanism https://eips.ethereum.org/EIPS/eip-1155#metadata[defined in the EIP]. Clients calling this function must replace the `\\{id\\}` substring with the actual token type ID."
      }
    },
    "version": 1
  },
  "userdoc": {
    "kind": "user",
    "methods": {},
    "version": 1
  }
}