{
  "contractName": "ToknBuy",
  "abi": [
    {
      "inputs": [
        {
          "internalType": "string",
          "name": "_platformUri",
          "type": "string"
        }
      ],
      "stateMutability": "nonpayable",
      "type": "constructor"
    },
    {
      "anonymous": false,
      "inputs": [
        {
          "indexed": true,
          "internalType": "address",
          "name": "account",
          "type": "address"
        },
        {
          "indexed": true,
          "internalType": "address",
          "name": "operator",
          "type": "address"
        },
        {
          "indexed": false,
          "internalType": "bool",
          "name": "approved",
          "type": "bool"
        }
      ],
      "name": "ApprovalForAll",
      "type": "event"
    },
    {
      "anonymous": false,
      "inputs": [
        {
          "indexed": true,
          "internalType": "address",
          "name": "operator",
          "type": "address"
        },
        {
          "indexed": true,
          "internalType": "address",
          "name": "from",
          "type": "address"
        },
        {
          "indexed": true,
          "internalType": "address",
          "name": "to",
          "type": "address"
        },
        {
          "indexed": false,
          "internalType": "uint256[]",
          "name": "ids",
          "type": "uint256[]"
        },
        {
          "indexed": false,
          "internalType": "uint256[]",
          "name": "values",
          "type": "uint256[]"
        }
      ],
      "name": "TransferBatch",
      "type": "event"
    },
    {
      "anonymous": false,
      "inputs": [
        {
          "indexed": true,
          "internalType": "address",
          "name": "operator",
          "type": "address"
        },
        {
          "indexed": true,
          "internalType": "address",
          "name": "from",
          "type": "address"
        },
        {
          "indexed": true,
          "internalType": "address",
          "name": "to",
          "type": "address"
        },
        {
          "indexed": false,
          "internalType": "uint256",
          "name": "id",
          "type": "uint256"
        },
        {
          "indexed": false,
          "internalType": "uint256",
          "name": "value",
          "type": "uint256"
        }
      ],
      "name": "TransferSingle",
      "type": "event"
    },
    {
      "anonymous": false,
      "inputs": [
        {
          "indexed": false,
          "internalType": "string",
          "name": "value",
          "type": "string"
        },
        {
          "indexed": true,
          "internalType": "uint256",
          "name": "id",
          "type": "uint256"
        }
      ],
      "name": "URI",
      "type": "event"
    },
    {
      "inputs": [
        {
          "internalType": "uint256",
          "name": "",
          "type": "uint256"
        },
        {
          "internalType": "uint256",
          "name": "",
          "type": "uint256"
        }
      ],
      "name": "addressTracker",
      "outputs": [
        {
          "internalType": "address",
          "name": "",
          "type": "address"
        }
      ],
      "stateMutability": "view",
      "type": "function",
      "constant": true
    },
    {
      "inputs": [
        {
          "internalType": "address",
          "name": "",
          "type": "address"
        },
        {
          "internalType": "uint256",
          "name": "",
          "type": "uint256"
        }
      ],
      "name": "artistTokns",
      "outputs": [
        {
          "internalType": "uint256",
          "name": "",
          "type": "uint256"
        }
      ],
      "stateMutability": "view",
      "type": "function",
      "constant": true
    },
    {
      "inputs": [
        {
          "internalType": "address",
          "name": "account",
          "type": "address"
        },
        {
          "internalType": "uint256",
          "name": "id",
          "type": "uint256"
        }
      ],
      "name": "balanceOf",
      "outputs": [
        {
          "internalType": "uint256",
          "name": "",
          "type": "uint256"
        }
      ],
      "stateMutability": "view",
      "type": "function",
      "constant": true
    },
    {
      "inputs": [
        {
          "internalType": "address[]",
          "name": "accounts",
          "type": "address[]"
        },
        {
          "internalType": "uint256[]",
          "name": "ids",
          "type": "uint256[]"
        }
      ],
      "name": "balanceOfBatch",
      "outputs": [
        {
          "internalType": "uint256[]",
          "name": "",
          "type": "uint256[]"
        }
      ],
      "stateMutability": "view",
      "type": "function",
      "constant": true
    },
    {
      "inputs": [
        {
          "internalType": "uint256",
          "name": "_amount",
          "type": "uint256"
        },
        {
          "internalType": "uint256",
          "name": "_toknId",
          "type": "uint256"
        }
      ],
      "name": "burnInvestorTokns",
      "outputs": [],
      "stateMutability": "nonpayable",
      "type": "function"
    },
    {
      "inputs": [
        {
          "internalType": "string",
          "name": "_symbol",
          "type": "string"
        },
        {
          "internalType": "uint256",
          "name": "_amount",
          "type": "uint256"
        },
        {
          "internalType": "string",
          "name": "_uri",
          "type": "string"
        }
      ],
      "name": "createInvestorTokns",
      "outputs": [],
      "stateMutability": "nonpayable",
      "type": "function"
    },
    {
      "inputs": [],
      "name": "deployer",
      "outputs": [
        {
          "internalType": "address payable",
          "name": "",
          "type": "address"
        }
      ],
      "stateMutability": "view",
      "type": "function",
      "constant": true
    },
    {
      "inputs": [
        {
          "internalType": "address",
          "name": "account",
          "type": "address"
        },
        {
          "internalType": "address",
          "name": "operator",
          "type": "address"
        }
      ],
      "name": "isApprovedForAll",
      "outputs": [
        {
          "internalType": "bool",
          "name": "",
          "type": "bool"
        }
      ],
      "stateMutability": "view",
      "type": "function",
      "constant": true
    },
    {
      "inputs": [
        {
          "internalType": "uint256",
          "name": "_amount",
          "type": "uint256"
        },
        {
          "internalType": "uint256",
          "name": "_toknId",
          "type": "uint256"
        }
      ],
      "name": "mintInvestorTokns",
      "outputs": [],
      "stateMutability": "nonpayable",
      "type": "function"
    },
    {
      "inputs": [
        {
          "internalType": "uint256",
          "name": "_id",
          "type": "uint256"
        }
      ],
      "name": "returnAddressesForTokn",
      "outputs": [
        {
          "internalType": "address[]",
          "name": "",
          "type": "address[]"
        }
      ],
      "stateMutability": "view",
      "type": "function",
      "constant": true
    },
    {
      "inputs": [
        {
          "internalType": "address",
          "name": "from",
          "type": "address"
        },
        {
          "internalType": "address",
          "name": "to",
          "type": "address"
        },
        {
          "internalType": "uint256[]",
          "name": "ids",
          "type": "uint256[]"
        },
        {
          "internalType": "uint256[]",
          "name": "amounts",
          "type": "uint256[]"
        },
        {
          "internalType": "bytes",
          "name": "data",
          "type": "bytes"
        }
      ],
      "name": "safeBatchTransferFrom",
      "outputs": [],
      "stateMutability": "nonpayable",
      "type": "function"
    },
    {
      "inputs": [
        {
          "internalType": "address",
          "name": "from",
          "type": "address"
        },
        {
          "internalType": "address",
          "name": "to",
          "type": "address"
        },
        {
          "internalType": "uint256",
          "name": "id",
          "type": "uint256"
        },
        {
          "internalType": "uint256",
          "name": "amount",
          "type": "uint256"
        },
        {
          "internalType": "bytes",
          "name": "data",
          "type": "bytes"
        }
      ],
      "name": "safeTransferFrom",
      "outputs": [],
      "stateMutability": "nonpayable",
      "type": "function"
    },
    {
      "inputs": [
        {
          "internalType": "address",
          "name": "operator",
          "type": "address"
        },
        {
          "internalType": "bool",
          "name": "approved",
          "type": "bool"
        }
      ],
      "name": "setApprovalForAll",
      "outputs": [],
      "stateMutability": "nonpayable",
      "type": "function"
    },
    {
      "inputs": [
        {
          "internalType": "bytes4",
          "name": "interfaceId",
          "type": "bytes4"
        }
      ],
      "name": "supportsInterface",
      "outputs": [
        {
          "internalType": "bool",
          "name": "",
          "type": "bool"
        }
      ],
      "stateMutability": "view",
      "type": "function",
      "constant": true
    },
    {
      "inputs": [
        {
          "internalType": "string",
          "name": "",
          "type": "string"
        }
      ],
      "name": "symbolToId",
      "outputs": [
        {
          "internalType": "uint256",
          "name": "",
          "type": "uint256"
        }
      ],
      "stateMutability": "view",
      "type": "function",
      "constant": true
    },
    {
      "inputs": [],
      "name": "toknId",
      "outputs": [
        {
          "internalType": "uint256",
          "name": "",
          "type": "uint256"
        }
      ],
      "stateMutability": "view",
      "type": "function",
      "constant": true
    },
    {
      "inputs": [
        {
          "internalType": "uint256",
          "name": "",
          "type": "uint256"
        }
      ],
      "name": "toknIdToArtist",
      "outputs": [
        {
          "internalType": "address",
          "name": "",
          "type": "address"
        }
      ],
      "stateMutability": "view",
      "type": "function",
      "constant": true
    },
    {
      "inputs": [
        {
          "internalType": "uint256",
          "name": "",
          "type": "uint256"
        }
      ],
      "name": "toknIdToURI",
      "outputs": [
        {
          "internalType": "string",
          "name": "",
          "type": "string"
        }
      ],
      "stateMutability": "view",
      "type": "function",
      "constant": true
    },
    {
      "inputs": [
        {
          "internalType": "uint256",
          "name": "",
          "type": "uint256"
        }
      ],
      "name": "totalSupplies",
      "outputs": [
        {
          "internalType": "uint256",
          "name": "",
          "type": "uint256"
        }
      ],
      "stateMutability": "view",
      "type": "function",
      "constant": true
    },
    {
      "inputs": [
        {
          "internalType": "uint256",
          "name": "",
          "type": "uint256"
        }
      ],
      "name": "uri",
      "outputs": [
        {
          "internalType": "string",
          "name": "",
          "type": "string"
        }
      ],
      "stateMutability": "view",
      "type": "function",
      "constant": true
    },
    {
      "inputs": [],
      "name": "usdc",
      "outputs": [
        {
          "internalType": "contract UsdcToken",
          "name": "",
          "type": "address"
        }
      ],
      "stateMutability": "view",
      "type": "function",
      "constant": true
    },
    {
      "inputs": [
        {
          "internalType": "uint256",
          "name": "_id",
          "type": "uint256"
        },
        {
          "internalType": "uint256",
          "name": "_qty",
          "type": "uint256"
        }
      ],
      "name": "buyTokn",
      "outputs": [],
      "stateMutability": "nonpayable",
      "type": "function"
    },
    {
      "inputs": [
        {
          "internalType": "uint256",
          "name": "_newPrice",
          "type": "uint256"
        }
      ],
      "name": "setPrice",
      "outputs": [],
      "stateMutability": "nonpayable",
      "type": "function"
    }
  ],
  "bytecode": "0x60806040526001600c553480156200001657600080fd5b5060405162003fcf38038062003fcf83398181016040528101906200003c91906200022c565b80806200004f81620000ee60201b60201c565b5033600360006101000a81548173ffffffffffffffffffffffffffffffffffffffff021916908373ffffffffffffffffffffffffffffffffffffffff160217905550734dbcdf9b62e891a7cec5a2568c3f4faf9e8abe2b600b60006101000a81548173ffffffffffffffffffffffffffffffffffffffff021916908373ffffffffffffffffffffffffffffffffffffffff1602179055505050620003a2565b8060029080519060200190620001069291906200010a565b5050565b82805462000118906200030e565b90600052602060002090601f0160209004810192826200013c576000855562000188565b82601f106200015757805160ff191683800117855562000188565b8280016001018555821562000188579182015b82811115620001875782518255916020019190600101906200016a565b5b5090506200019791906200019b565b5090565b5b80821115620001b65760008160009055506001016200019c565b5090565b6000620001d1620001cb84620002a5565b62000271565b905082815260208101848484011115620001ea57600080fd5b620001f7848285620002d8565b509392505050565b600082601f8301126200021157600080fd5b815162000223848260208601620001ba565b91505092915050565b6000602082840312156200023f57600080fd5b600082015167ffffffffffffffff8111156200025a57600080fd5b6200026884828501620001ff565b91505092915050565b6000604051905081810181811067ffffffffffffffff821117156200029b576200029a62000373565b5b8060405250919050565b600067ffffffffffffffff821115620002c357620002c262000373565b5b601f19601f8301169050602081019050919050565b60005b83811015620002f8578082015181840152602081019050620002db565b8381111562000308576000848401525b50505050565b600060028204905060018216806200032757607f821691505b602082108114156200033e576200033d62000344565b5b50919050565b7f4e487b7100000000000000000000000000000000000000000000000000000000600052602260045260246000fd5b7f4e487b7100000000000000000000000000000000000000000000000000000000600052604160045260246000fd5b613c1d80620003b26000396000f3fe608060405234801561001057600080fd5b506004361061014c5760003560e01c806372ed8a5d116100c3578063c4f899db1161007c578063c4f899db146103f7578063ce290c3714610413578063d5f3948814610431578063e6253d401461044f578063e985e9c51461047f578063f242432a146104af5761014c565b806372ed8a5d1461031357806391b7f5ed14610343578063a22cb4651461035f578063a35d5ef91461037b578063b54fa474146103ab578063bb03b398146103db5761014c565b80632eb2c2d6116101155780632eb2c2d61461024157806330a071f71461025d578063338012e5146102795780633e413bee146102955780634e1273f4146102b3578063700a451b146102e35761014c565b8062fdd58e1461015157806301ffc9a71461018157806305e1e18d146101b15780630e89341c146101e157806318adc58214610211575b600080fd5b61016b600480360381019061016691906127fe565b6104cb565b60405161017891906135fd565b60405180910390f35b61019b600480360381019061019691906128cf565b610594565b6040516101a891906133e5565b60405180910390f35b6101cb60048036038101906101c691906127fe565b610676565b6040516101d891906135fd565b60405180910390f35b6101fb60048036038101906101f691906129e1565b6106a7565b604051610208919061341b565b60405180910390f35b61022b60048036038101906102269190612a33565b61073b565b6040516102389190613212565b60405180910390f35b61025b60048036038101906102569190612674565b610789565b005b61027760048036038101906102729190612a33565b61082a565b005b610293600480360381019061028e9190612a33565b6108d2565b005b61029d610a16565b6040516102aa9190613400565b60405180910390f35b6102cd60048036038101906102c8919061283a565b610a3c565b6040516102da919061338c565b60405180910390f35b6102fd60048036038101906102f89190612921565b610bed565b60405161030a91906135fd565b60405180910390f35b61032d600480360381019061032891906129e1565b610c1b565b60405161033a919061341b565b60405180910390f35b61035d600480360381019061035891906129e1565b610cbb565b005b610379600480360381019061037491906127c2565b610cc5565b005b610395600480360381019061039091906129e1565b610cdb565b6040516103a2919061336a565b60405180910390f35b6103c560048036038101906103c091906129e1565b610d7c565b6040516103d291906135fd565b60405180910390f35b6103f560048036038101906103f09190612a33565b610d94565b005b610411600480360381019061040c9190612962565b610fdb565b005b61041b611109565b60405161042891906135fd565b60405180910390f35b61043961110f565b604051610446919061322d565b60405180910390f35b610469600480360381019061046491906129e1565b611135565b6040516104769190613212565b60405180910390f35b61049960048036038101906104949190612638565b611168565b6040516104a691906133e5565b60405180910390f35b6104c960048036038101906104c49190612733565b6111fc565b005b60008073ffffffffffffffffffffffffffffffffffffffff168373ffffffffffffffffffffffffffffffffffffffff16141561053c576040517f08c379a00000000000000000000000000000000000000000000000000000000081526004016105339061347d565b60405180910390fd5b60008083815260200190815260200160002060008473ffffffffffffffffffffffffffffffffffffffff1673ffffffffffffffffffffffffffffffffffffffff16815260200190815260200160002054905092915050565b60007fd9b67a26000000000000000000000000000000000000000000000000000000007bffffffffffffffffffffffffffffffffffffffffffffffffffffffff1916827bffffffffffffffffffffffffffffffffffffffffffffffffffffffff1916148061065f57507f0e89341c000000000000000000000000000000000000000000000000000000007bffffffffffffffffffffffffffffffffffffffffffffffffffffffff1916827bffffffffffffffffffffffffffffffffffffffffffffffffffffffff1916145b8061066f575061066e82611311565b5b9050919050565b6008602052816000526040600020818154811061069257600080fd5b90600052602060002001600091509150505481565b6060600280546106b6906139af565b80601f01602080910402602001604051908101604052809291908181526020018280546106e2906139af565b801561072f5780601f106107045761010080835404028352916020019161072f565b820191906000526020600020905b81548152906001019060200180831161071257829003601f168201915b50505050509050919050565b600a602052816000526040600020818154811061075757600080fd5b906000526020600020016000915091509054906101000a900473ffffffffffffffffffffffffffffffffffffffff1681565b61079161137b565b73ffffffffffffffffffffffffffffffffffffffff168573ffffffffffffffffffffffffffffffffffffffff1614806107d757506107d6856107d161137b565b611168565b5b610816576040517f08c379a000000000000000000000000000000000000000000000000000000000815260040161080d906134fd565b60405180910390fd5b6108238585858585611383565b5050505050565b80338073ffffffffffffffffffffffffffffffffffffffff166009600084815260200190815260200160002060009054906101000a900473ffffffffffffffffffffffffffffffffffffffff1673ffffffffffffffffffffffffffffffffffffffff161461089757600080fd5b6108a23384866116e3565b836005600085815260200190815260200160002060008282546108c5919061388f565b9250508190555050505050565b80338073ffffffffffffffffffffffffffffffffffffffff166009600084815260200190815260200160002060009054906101000a900473ffffffffffffffffffffffffffffffffffffffff1673ffffffffffffffffffffffffffffffffffffffff161461093f57600080fd5b6109e6338486600660008881526020019081526020016000208054610963906139af565b80601f016020809104026020016040519081016040528092919081815260200182805461098f906139af565b80156109dc5780601f106109b1576101008083540402835291602001916109dc565b820191906000526020600020905b8154815290600101906020018083116109bf57829003601f168201915b5050505050611900565b83600560008581526020019081526020016000206000828254610a0991906137df565b9250508190555050505050565b600b60009054906101000a900473ffffffffffffffffffffffffffffffffffffffff1681565b60608151835114610a82576040517f08c379a0000000000000000000000000000000000000000000000000000000008152600401610a799061359d565b60405180910390fd5b6000835167ffffffffffffffff811115610ac5577f4e487b7100000000000000000000000000000000000000000000000000000000600052604160045260246000fd5b604051908082528060200260200182016040528015610af35781602001602082028036833780820191505090505b50905060005b8451811015610be257610b8c858281518110610b3e577f4e487b7100000000000000000000000000000000000000000000000000000000600052603260045260246000fd5b6020026020010151858381518110610b7f577f4e487b7100000000000000000000000000000000000000000000000000000000600052603260045260246000fd5b60200260200101516104cb565b828281518110610bc5577f4e487b7100000000000000000000000000000000000000000000000000000000600052603260045260246000fd5b60200260200101818152505080610bdb906139e1565b9050610af9565b508091505092915050565b6007818051602081018201805184825260208301602085012081835280955050505050506000915090505481565b60066020528060005260406000206000915090508054610c3a906139af565b80601f0160208091040260200160405190810160405280929190818152602001828054610c66906139af565b8015610cb35780601f10610c8857610100808354040283529160200191610cb3565b820191906000526020600020905b815481529060010190602001808311610c9657829003601f168201915b505050505081565b80600c8190555050565b610cd7610cd061137b565b8383611a96565b5050565b6060600a6000838152602001908152602001600020805480602002602001604051908101604052809291908181526020018280548015610d7057602002820191906000526020600020905b8160009054906101000a900473ffffffffffffffffffffffffffffffffffffffff1673ffffffffffffffffffffffffffffffffffffffff1681526020019060010190808311610d26575b50505050509050919050565b60056020528060005260406000206000915090505481565b6000600b60009054906101000a900473ffffffffffffffffffffffffffffffffffffffff1673ffffffffffffffffffffffffffffffffffffffff1663dd62ed3e33306040518363ffffffff1660e01b8152600401610df3929190613248565b60206040518083038186803b158015610e0b57600080fd5b505afa158015610e1f573d6000803e3d6000fd5b505050506040513d601f19601f82011682018060405250810190610e439190612a0a565b9050600c5482610e539190613835565b811015610e95576040517f08c379a0000000000000000000000000000000000000000000000000000000008152600401610e8c9061355d565b60405180910390fd5b610ee46009600085815260200190815260200160002060009054906101000a900473ffffffffffffffffffffffffffffffffffffffff1633858560405180602001604052806000815250611c03565b600b60009054906101000a900473ffffffffffffffffffffffffffffffffffffffff1673ffffffffffffffffffffffffffffffffffffffff166323b872dd336009600087815260200190815260200160002060009054906101000a900473ffffffffffffffffffffffffffffffffffffffff16600c5486610f659190613835565b6040518463ffffffff1660e01b8152600401610f83939291906132d9565b602060405180830381600087803b158015610f9d57600080fd5b505af1158015610fb1573d6000803e3d6000fd5b505050506040513d601f19601f82011682018060405250810190610fd591906128a6565b50505050565b3360096000600460008154610fef906139e1565b919050819055815260200190815260200160002060006101000a81548173ffffffffffffffffffffffffffffffffffffffff021916908373ffffffffffffffffffffffffffffffffffffffff16021790555060045460078460405161105491906131fb565b908152602001604051809103902081905550600860003373ffffffffffffffffffffffffffffffffffffffff1673ffffffffffffffffffffffffffffffffffffffff16815260200190815260200160002060045490806001815401808255809150506001900390600052602060002001600090919091909150558060066000600454815260200190815260200160002090805190602001906110f7929190612306565b50611104826004546108d2565b505050565b60045481565b600360009054906101000a900473ffffffffffffffffffffffffffffffffffffffff1681565b60096020528060005260406000206000915054906101000a900473ffffffffffffffffffffffffffffffffffffffff1681565b6000600160008473ffffffffffffffffffffffffffffffffffffffff1673ffffffffffffffffffffffffffffffffffffffff16815260200190815260200160002060008373ffffffffffffffffffffffffffffffffffffffff1673ffffffffffffffffffffffffffffffffffffffff16815260200190815260200160002060009054906101000a900460ff16905092915050565b61120461137b565b73ffffffffffffffffffffffffffffffffffffffff168573ffffffffffffffffffffffffffffffffffffffff16148061124a57506112498561124461137b565b611168565b5b611289576040517f08c379a0000000000000000000000000000000000000000000000000000000008152600401611280906134bd565b60405180910390fd5b6112968585858585611c03565b600a6000848152602001908152602001600020849080600181540180825580915050600190039060005260206000200160009091909190916101000a81548173ffffffffffffffffffffffffffffffffffffffff021916908373ffffffffffffffffffffffffffffffffffffffff1602179055505050505050565b60007f01ffc9a7000000000000000000000000000000000000000000000000000000007bffffffffffffffffffffffffffffffffffffffffffffffffffffffff1916827bffffffffffffffffffffffffffffffffffffffffffffffffffffffff1916149050919050565b600033905090565b81518351146113c7576040517f08c379a00000000000000000000000000000000000000000000000000000000081526004016113be906135bd565b60405180910390fd5b600073ffffffffffffffffffffffffffffffffffffffff168473ffffffffffffffffffffffffffffffffffffffff161415611437576040517f08c379a000000000000000000000000000000000000000000000000000000000815260040161142e906134dd565b60405180910390fd5b600061144161137b565b9050611451818787878787611e85565b60005b845181101561164e576000858281518110611498577f4e487b7100000000000000000000000000000000000000000000000000000000600052603260045260246000fd5b6020026020010151905060008583815181106114dd577f4e487b7100000000000000000000000000000000000000000000000000000000600052603260045260246000fd5b60200260200101519050600080600084815260200190815260200160002060008b73ffffffffffffffffffffffffffffffffffffffff1673ffffffffffffffffffffffffffffffffffffffff1681526020019081526020016000205490508181101561157e576040517f08c379a00000000000000000000000000000000000000000000000000000000081526004016115759061353d565b60405180910390fd5b81810360008085815260200190815260200160002060008c73ffffffffffffffffffffffffffffffffffffffff1673ffffffffffffffffffffffffffffffffffffffff168152602001908152602001600020819055508160008085815260200190815260200160002060008b73ffffffffffffffffffffffffffffffffffffffff1673ffffffffffffffffffffffffffffffffffffffff168152602001908152602001600020600082825461163391906137df565b9250508190555050505080611647906139e1565b9050611454565b508473ffffffffffffffffffffffffffffffffffffffff168673ffffffffffffffffffffffffffffffffffffffff168273ffffffffffffffffffffffffffffffffffffffff167f4a39dc06d4c0dbc64b70af90fd698a233a518aa5d07e595d983b8c0526c8f7fb87876040516116c59291906133ae565b60405180910390a46116db818787878787611e8d565b505050505050565b600073ffffffffffffffffffffffffffffffffffffffff168373ffffffffffffffffffffffffffffffffffffffff161415611753576040517f08c379a000000000000000000000000000000000000000000000000000000000815260040161174a9061351d565b60405180910390fd5b600061175d61137b565b905061178d8185600061176f8761205d565b6117788761205d565b60405180602001604052806000815250611e85565b600080600085815260200190815260200160002060008673ffffffffffffffffffffffffffffffffffffffff1673ffffffffffffffffffffffffffffffffffffffff16815260200190815260200160002054905082811015611824576040517f08c379a000000000000000000000000000000000000000000000000000000000815260040161181b9061349d565b60405180910390fd5b82810360008086815260200190815260200160002060008773ffffffffffffffffffffffffffffffffffffffff1673ffffffffffffffffffffffffffffffffffffffff16815260200190815260200160002081905550600073ffffffffffffffffffffffffffffffffffffffff168573ffffffffffffffffffffffffffffffffffffffff168373ffffffffffffffffffffffffffffffffffffffff167fc3d58168c5ae7397731d063d5bbf3d657854427343f4c083240f7aacaa2d0f6287876040516118f1929190613618565b60405180910390a45050505050565b600073ffffffffffffffffffffffffffffffffffffffff168473ffffffffffffffffffffffffffffffffffffffff161415611970576040517f08c379a0000000000000000000000000000000000000000000000000000000008152600401611967906135dd565b60405180910390fd5b600061197a61137b565b905061199b8160008761198c8861205d565b6119958861205d565b87611e85565b8260008086815260200190815260200160002060008773ffffffffffffffffffffffffffffffffffffffff1673ffffffffffffffffffffffffffffffffffffffff16815260200190815260200160002060008282546119fa91906137df565b925050819055508473ffffffffffffffffffffffffffffffffffffffff16600073ffffffffffffffffffffffffffffffffffffffff168273ffffffffffffffffffffffffffffffffffffffff167fc3d58168c5ae7397731d063d5bbf3d657854427343f4c083240f7aacaa2d0f628787604051611a78929190613618565b60405180910390a4611a8f81600087878787612123565b5050505050565b8173ffffffffffffffffffffffffffffffffffffffff168373ffffffffffffffffffffffffffffffffffffffff161415611b05576040517f08c379a0000000000000000000000000000000000000000000000000000000008152600401611afc9061357d565b60405180910390fd5b80600160008573ffffffffffffffffffffffffffffffffffffffff1673ffffffffffffffffffffffffffffffffffffffff16815260200190815260200160002060008473ffffffffffffffffffffffffffffffffffffffff1673ffffffffffffffffffffffffffffffffffffffff16815260200190815260200160002060006101000a81548160ff0219169083151502179055508173ffffffffffffffffffffffffffffffffffffffff168373ffffffffffffffffffffffffffffffffffffffff167f17307eab39ab6107e8899845ad3d59bd9653f200f220920489ca2b5937696c3183604051611bf691906133e5565b60405180910390a3505050565b600073ffffffffffffffffffffffffffffffffffffffff168473ffffffffffffffffffffffffffffffffffffffff161415611c73576040517f08c379a0000000000000000000000000000000000000000000000000000000008152600401611c6a906134dd565b60405180910390fd5b6000611c7d61137b565b9050611c9d818787611c8e8861205d565b611c978861205d565b87611e85565b600080600086815260200190815260200160002060008873ffffffffffffffffffffffffffffffffffffffff1673ffffffffffffffffffffffffffffffffffffffff16815260200190815260200160002054905083811015611d34576040517f08c379a0000000000000000000000000000000000000000000000000000000008152600401611d2b9061353d565b60405180910390fd5b83810360008087815260200190815260200160002060008973ffffffffffffffffffffffffffffffffffffffff1673ffffffffffffffffffffffffffffffffffffffff168152602001908152602001600020819055508360008087815260200190815260200160002060008873ffffffffffffffffffffffffffffffffffffffff1673ffffffffffffffffffffffffffffffffffffffff1681526020019081526020016000206000828254611de991906137df565b925050819055508573ffffffffffffffffffffffffffffffffffffffff168773ffffffffffffffffffffffffffffffffffffffff168373ffffffffffffffffffffffffffffffffffffffff167fc3d58168c5ae7397731d063d5bbf3d657854427343f4c083240f7aacaa2d0f628888604051611e66929190613618565b60405180910390a4611e7c828888888888612123565b50505050505050565b505050505050565b611eac8473ffffffffffffffffffffffffffffffffffffffff166122f3565b15612055578373ffffffffffffffffffffffffffffffffffffffff1663bc197c8187878686866040518663ffffffff1660e01b8152600401611ef2959493929190613271565b602060405180830381600087803b158015611f0c57600080fd5b505af1925050508015611f3d57506040513d601f19601f82011682018060405250810190611f3a91906128f8565b60015b611fcc57611f49613ad5565b80611f545750611f91565b806040517f08c379a0000000000000000000000000000000000000000000000000000000008152600401611f88919061341b565b60405180910390fd5b6040517f08c379a0000000000000000000000000000000000000000000000000000000008152600401611fc39061343d565b60405180910390fd5b63bc197c8160e01b7bffffffffffffffffffffffffffffffffffffffffffffffffffffffff1916817bffffffffffffffffffffffffffffffffffffffffffffffffffffffff191614612053576040517f08c379a000000000000000000000000000000000000000000000000000000000815260040161204a9061345d565b60405180910390fd5b505b505050505050565b60606000600167ffffffffffffffff8111156120a2577f4e487b7100000000000000000000000000000000000000000000000000000000600052604160045260246000fd5b6040519080825280602002602001820160405280156120d05781602001602082028036833780820191505090505b509050828160008151811061210e577f4e487b7100000000000000000000000000000000000000000000000000000000600052603260045260246000fd5b60200260200101818152505080915050919050565b6121428473ffffffffffffffffffffffffffffffffffffffff166122f3565b156122eb578373ffffffffffffffffffffffffffffffffffffffff1663f23a6e6187878686866040518663ffffffff1660e01b8152600401612188959493929190613310565b602060405180830381600087803b1580156121a257600080fd5b505af19250505080156121d357506040513d601f19601f820116820180604052508101906121d091906128f8565b60015b612262576121df613ad5565b806121ea5750612227565b806040517f08c379a000000000000000000000000000000000000000000000000000000000815260040161221e919061341b565b60405180910390fd5b6040517f08c379a00000000000000000000000000000000000000000000000000000000081526004016122599061343d565b60405180910390fd5b63f23a6e6160e01b7bffffffffffffffffffffffffffffffffffffffffffffffffffffffff1916817bffffffffffffffffffffffffffffffffffffffffffffffffffffffff1916146122e9576040517f08c379a00000000000000000000000000000000000000000000000000000000081526004016122e09061345d565b60405180910390fd5b505b505050505050565b600080823b905060008111915050919050565b828054612312906139af565b90600052602060002090601f016020900481019282612334576000855561237b565b82601f1061234d57805160ff191683800117855561237b565b8280016001018555821561237b579182015b8281111561237a57825182559160200191906001019061235f565b5b509050612388919061238c565b5090565b5b808211156123a557600081600090555060010161238d565b5090565b60006123bc6123b784613672565b613641565b905080838252602082019050828560208602820111156123db57600080fd5b60005b8581101561240b57816123f188826124fd565b8452602084019350602083019250506001810190506123de565b5050509392505050565b60006124286124238461369e565b613641565b9050808382526020820190508285602086028201111561244757600080fd5b60005b85811015612477578161245d888261260e565b84526020840193506020830192505060018101905061244a565b5050509392505050565b600061249461248f846136ca565b613641565b9050828152602081018484840111156124ac57600080fd5b6124b784828561396d565b509392505050565b60006124d26124cd846136fa565b613641565b9050828152602081018484840111156124ea57600080fd5b6124f584828561396d565b509392505050565b60008135905061250c81613b8b565b92915050565b600082601f83011261252357600080fd5b81356125338482602086016123a9565b91505092915050565b600082601f83011261254d57600080fd5b813561255d848260208601612415565b91505092915050565b60008135905061257581613ba2565b92915050565b60008151905061258a81613ba2565b92915050565b60008135905061259f81613bb9565b92915050565b6000815190506125b481613bb9565b92915050565b600082601f8301126125cb57600080fd5b81356125db848260208601612481565b91505092915050565b600082601f8301126125f557600080fd5b81356126058482602086016124bf565b91505092915050565b60008135905061261d81613bd0565b92915050565b60008151905061263281613bd0565b92915050565b6000806040838503121561264b57600080fd5b6000612659858286016124fd565b925050602061266a858286016124fd565b9150509250929050565b600080600080600060a0868803121561268c57600080fd5b600061269a888289016124fd565b95505060206126ab888289016124fd565b945050604086013567ffffffffffffffff8111156126c857600080fd5b6126d48882890161253c565b935050606086013567ffffffffffffffff8111156126f157600080fd5b6126fd8882890161253c565b925050608086013567ffffffffffffffff81111561271a57600080fd5b612726888289016125ba565b9150509295509295909350565b600080600080600060a0868803121561274b57600080fd5b6000612759888289016124fd565b955050602061276a888289016124fd565b945050604061277b8882890161260e565b935050606061278c8882890161260e565b925050608086013567ffffffffffffffff8111156127a957600080fd5b6127b5888289016125ba565b9150509295509295909350565b600080604083850312156127d557600080fd5b60006127e3858286016124fd565b92505060206127f485828601612566565b9150509250929050565b6000806040838503121561281157600080fd5b600061281f858286016124fd565b92505060206128308582860161260e565b9150509250929050565b6000806040838503121561284d57600080fd5b600083013567ffffffffffffffff81111561286757600080fd5b61287385828601612512565b925050602083013567ffffffffffffffff81111561289057600080fd5b61289c8582860161253c565b9150509250929050565b6000602082840312156128b857600080fd5b60006128c68482850161257b565b91505092915050565b6000602082840312156128e157600080fd5b60006128ef84828501612590565b91505092915050565b60006020828403121561290a57600080fd5b6000612918848285016125a5565b91505092915050565b60006020828403121561293357600080fd5b600082013567ffffffffffffffff81111561294d57600080fd5b612959848285016125e4565b91505092915050565b60008060006060848603121561297757600080fd5b600084013567ffffffffffffffff81111561299157600080fd5b61299d868287016125e4565b93505060206129ae8682870161260e565b925050604084013567ffffffffffffffff8111156129cb57600080fd5b6129d7868287016125e4565b9150509250925092565b6000602082840312156129f357600080fd5b6000612a018482850161260e565b91505092915050565b600060208284031215612a1c57600080fd5b6000612a2a84828501612623565b91505092915050565b60008060408385031215612a4657600080fd5b6000612a548582860161260e565b9250506020612a658582860161260e565b9150509250929050565b6000612a7b8383612aae565b60208301905092915050565b6000612a9383836131dd565b60208301905092915050565b612aa8816138d5565b82525050565b612ab7816138c3565b82525050565b612ac6816138c3565b82525050565b6000612ad78261374a565b612ae18185613790565b9350612aec8361372a565b8060005b83811015612b1d578151612b048882612a6f565b9750612b0f83613776565b925050600181019050612af0565b5085935050505092915050565b6000612b3582613755565b612b3f81856137a1565b9350612b4a8361373a565b8060005b83811015612b7b578151612b628882612a87565b9750612b6d83613783565b925050600181019050612b4e565b5085935050505092915050565b612b91816138e7565b82525050565b6000612ba282613760565b612bac81856137b2565b9350612bbc81856020860161397c565b612bc581613ab7565b840191505092915050565b612bd981613949565b82525050565b6000612bea8261376b565b612bf481856137c3565b9350612c0481856020860161397c565b612c0d81613ab7565b840191505092915050565b6000612c238261376b565b612c2d81856137d4565b9350612c3d81856020860161397c565b80840191505092915050565b6000612c566034836137c3565b91507f455243313135353a207472616e7366657220746f206e6f6e204552433131353560008301527f526563656976657220696d706c656d656e7465720000000000000000000000006020830152604082019050919050565b6000612cbc6028836137c3565b91507f455243313135353a204552433131353552656365697665722072656a6563746560008301527f6420746f6b656e730000000000000000000000000000000000000000000000006020830152604082019050919050565b6000612d22602b836137c3565b91507f455243313135353a2062616c616e636520717565727920666f7220746865207a60008301527f65726f20616464726573730000000000000000000000000000000000000000006020830152604082019050919050565b6000612d886024836137c3565b91507f455243313135353a206275726e20616d6f756e7420657863656564732062616c60008301527f616e6365000000000000000000000000000000000000000000000000000000006020830152604082019050919050565b6000612dee6029836137c3565b91507f455243313135353a2063616c6c6572206973206e6f74206f776e6572206e6f7260008301527f20617070726f76656400000000000000000000000000000000000000000000006020830152604082019050919050565b6000612e546025836137c3565b91507f455243313135353a207472616e7366657220746f20746865207a65726f20616460008301527f64726573730000000000000000000000000000000000000000000000000000006020830152604082019050919050565b6000612eba6032836137c3565b91507f455243313135353a207472616e736665722063616c6c6572206973206e6f742060008301527f6f776e6572206e6f7220617070726f76656400000000000000000000000000006020830152604082019050919050565b6000612f206023836137c3565b91507f455243313135353a206275726e2066726f6d20746865207a65726f206164647260008301527f65737300000000000000000000000000000000000000000000000000000000006020830152604082019050919050565b6000612f86602a836137c3565b91507f455243313135353a20696e73756666696369656e742062616c616e636520666f60008301527f72207472616e73666572000000000000000000000000000000000000000000006020830152604082019050919050565b6000612fec602c836137c3565b91507f416c6c6f77616e6365206e6f742073756666696369656e7420666f722074686560008301527f207472616e73616374696f6e00000000000000000000000000000000000000006020830152604082019050919050565b60006130526029836137c3565b91507f455243313135353a2073657474696e6720617070726f76616c2073746174757360008301527f20666f722073656c6600000000000000000000000000000000000000000000006020830152604082019050919050565b60006130b86029836137c3565b91507f455243313135353a206163636f756e747320616e6420696473206c656e67746860008301527f206d69736d6174636800000000000000000000000000000000000000000000006020830152604082019050919050565b600061311e6028836137c3565b91507f455243313135353a2069647320616e6420616d6f756e7473206c656e6774682060008301527f6d69736d617463680000000000000000000000000000000000000000000000006020830152604082019050919050565b60006131846021836137c3565b91507f455243313135353a206d696e7420746f20746865207a65726f2061646472657360008301527f73000000000000000000000000000000000000000000000000000000000000006020830152604082019050919050565b6131e68161393f565b82525050565b6131f58161393f565b82525050565b60006132078284612c18565b915081905092915050565b60006020820190506132276000830184612abd565b92915050565b60006020820190506132426000830184612a9f565b92915050565b600060408201905061325d6000830185612abd565b61326a6020830184612abd565b9392505050565b600060a0820190506132866000830188612abd565b6132936020830187612abd565b81810360408301526132a58186612b2a565b905081810360608301526132b98185612b2a565b905081810360808301526132cd8184612b97565b90509695505050505050565b60006060820190506132ee6000830186612abd565b6132fb6020830185612abd565b61330860408301846131ec565b949350505050565b600060a0820190506133256000830188612abd565b6133326020830187612abd565b61333f60408301866131ec565b61334c60608301856131ec565b818103608083015261335e8184612b97565b90509695505050505050565b600060208201905081810360008301526133848184612acc565b905092915050565b600060208201905081810360008301526133a68184612b2a565b905092915050565b600060408201905081810360008301526133c88185612b2a565b905081810360208301526133dc8184612b2a565b90509392505050565b60006020820190506133fa6000830184612b88565b92915050565b60006020820190506134156000830184612bd0565b92915050565b600060208201905081810360008301526134358184612bdf565b905092915050565b6000602082019050818103600083015261345681612c49565b9050919050565b6000602082019050818103600083015261347681612caf565b9050919050565b6000602082019050818103600083015261349681612d15565b9050919050565b600060208201905081810360008301526134b681612d7b565b9050919050565b600060208201905081810360008301526134d681612de1565b9050919050565b600060208201905081810360008301526134f681612e47565b9050919050565b6000602082019050818103600083015261351681612ead565b9050919050565b6000602082019050818103600083015261353681612f13565b9050919050565b6000602082019050818103600083015261355681612f79565b9050919050565b6000602082019050818103600083015261357681612fdf565b9050919050565b6000602082019050818103600083015261359681613045565b9050919050565b600060208201905081810360008301526135b6816130ab565b9050919050565b600060208201905081810360008301526135d681613111565b9050919050565b600060208201905081810360008301526135f681613177565b9050919050565b600060208201905061361260008301846131ec565b92915050565b600060408201905061362d60008301856131ec565b61363a60208301846131ec565b9392505050565b6000604051905081810181811067ffffffffffffffff8211171561366857613667613a88565b5b8060405250919050565b600067ffffffffffffffff82111561368d5761368c613a88565b5b602082029050602081019050919050565b600067ffffffffffffffff8211156136b9576136b8613a88565b5b602082029050602081019050919050565b600067ffffffffffffffff8211156136e5576136e4613a88565b5b601f19601f8301169050602081019050919050565b600067ffffffffffffffff82111561371557613714613a88565b5b601f19601f8301169050602081019050919050565b6000819050602082019050919050565b6000819050602082019050919050565b600081519050919050565b600081519050919050565b600081519050919050565b600081519050919050565b6000602082019050919050565b6000602082019050919050565b600082825260208201905092915050565b600082825260208201905092915050565b600082825260208201905092915050565b600082825260208201905092915050565b600081905092915050565b60006137ea8261393f565b91506137f58361393f565b9250827fffffffffffffffffffffffffffffffffffffffffffffffffffffffffffffffff0382111561382a57613829613a2a565b5b828201905092915050565b60006138408261393f565b915061384b8361393f565b9250817fffffffffffffffffffffffffffffffffffffffffffffffffffffffffffffffff048311821515161561388457613883613a2a565b5b828202905092915050565b600061389a8261393f565b91506138a58361393f565b9250828210156138b8576138b7613a2a565b5b828203905092915050565b60006138ce8261391f565b9050919050565b60006138e08261391f565b9050919050565b60008115159050919050565b60007fffffffff0000000000000000000000000000000000000000000000000000000082169050919050565b600073ffffffffffffffffffffffffffffffffffffffff82169050919050565b6000819050919050565b60006139548261395b565b9050919050565b60006139668261391f565b9050919050565b82818337600083830152505050565b60005b8381101561399a57808201518184015260208101905061397f565b838111156139a9576000848401525b50505050565b600060028204905060018216806139c757607f821691505b602082108114156139db576139da613a59565b5b50919050565b60006139ec8261393f565b91507fffffffffffffffffffffffffffffffffffffffffffffffffffffffffffffffff821415613a1f57613a1e613a2a565b5b600182019050919050565b7f4e487b7100000000000000000000000000000000000000000000000000000000600052601160045260246000fd5b7f4e487b7100000000000000000000000000000000000000000000000000000000600052602260045260246000fd5b7f4e487b7100000000000000000000000000000000000000000000000000000000600052604160045260246000fd5b6000601f19601f8301169050919050565b60008160e01c9050919050565b600060443d1015613ae557613b88565b60046000803e613af6600051613ac8565b6308c379a08114613b075750613b88565b60405160043d036004823e80513d602482011167ffffffffffffffff82111715613b3357505050613b88565b808201805167ffffffffffffffff811115613b52575050505050613b88565b8060208301013d8501811115613b6d57505050505050613b88565b613b7682613ab7565b60208401016040528296505050505050505b90565b613b94816138c3565b8114613b9f57600080fd5b50565b613bab816138e7565b8114613bb657600080fd5b50565b613bc2816138f3565b8114613bcd57600080fd5b50565b613bd98161393f565b8114613be457600080fd5b5056fea2646970667358221220eea66d5da477135a5ed6465c08db5d8166c3fbff2cc281664849ccef1bd8e09764736f6c63430008000033",
  "immutableReferences": {},
  "source": "//SPDX-License-Identifier: MIT\r\n\r\npragma solidity ^0.8.0;\r\n\r\nimport \"./toknFactory.sol\";\r\n\r\ncontract ToknBuy is ToknFactory {\r\n\r\n    uint price = 1;\r\n\r\n    constructor(string memory _platformUri) ToknFactory(_platformUri) {\r\n       \r\n    }\r\n\r\n    function buyTokn(uint _id, uint _qty) public {\r\n        uint allowance = usdc.allowance(msg.sender, address(this));\r\n        require(allowance >= _qty * price, \"Allowance not sufficient for the transaction\");\r\n        _safeTransferFrom(toknIdToArtist[_id], msg.sender, _id, _qty, \"\");\r\n        usdc.transferFrom(msg.sender, toknIdToArtist[_id], _qty * price);\r\n    }\r\n\r\n    function setPrice(uint _newPrice) public {\r\n        price = _newPrice;\r\n    }\r\n}",
  "sourcePath": "C:\\Users\\sj931\\OneDrive\\desktop\\tokn-alpha\\Alpha-Contracts\\contracts\\ToknBuy.sol",
  "compiler": {
    "name": "solc",
    "version": "0.8.0+commit.c7dfd78e.Emscripten.clang"
  },
  "schemaVersion": "3.4.3",
  "updatedAt": "2021-12-20T18:02:51.399Z",
  "networkType": "ethereum",
  "devdoc": {
    "kind": "dev",
    "methods": {
      "balanceOf(address,uint256)": {
        "details": "See {IERC1155-balanceOf}. Requirements: - `account` cannot be the zero address."
      },
      "balanceOfBatch(address[],uint256[])": {
        "details": "See {IERC1155-balanceOfBatch}. Requirements: - `accounts` and `ids` must have the same length."
      },
      "isApprovedForAll(address,address)": {
        "details": "See {IERC1155-isApprovedForAll}."
      },
      "safeBatchTransferFrom(address,address,uint256[],uint256[],bytes)": {
        "details": "See {IERC1155-safeBatchTransferFrom}."
      },
      "safeTransferFrom(address,address,uint256,uint256,bytes)": {
        "details": "See {IERC1155-safeTransferFrom}."
      },
      "setApprovalForAll(address,bool)": {
        "details": "See {IERC1155-setApprovalForAll}."
      },
      "supportsInterface(bytes4)": {
        "details": "See {IERC165-supportsInterface}."
      },
      "uri(uint256)": {
        "details": "See {IERC1155MetadataURI-uri}. This implementation returns the same URI for *all* token types. It relies on the token type ID substitution mechanism https://eips.ethereum.org/EIPS/eip-1155#metadata[defined in the EIP]. Clients calling this function must replace the `\\{id\\}` substring with the actual token type ID."
      }
    },
    "version": 1
  },
  "userdoc": {
    "kind": "user",
    "methods": {},
    "version": 1
  }
}