{
  "contractName": "ToknFactory",
  "abi": [
    {
      "inputs": [
        {
          "internalType": "string",
          "name": "_platformURI",
          "type": "string"
        }
      ],
      "stateMutability": "nonpayable",
      "type": "constructor"
    },
    {
      "anonymous": false,
      "inputs": [
        {
          "indexed": true,
          "internalType": "address",
          "name": "account",
          "type": "address"
        },
        {
          "indexed": true,
          "internalType": "address",
          "name": "operator",
          "type": "address"
        },
        {
          "indexed": false,
          "internalType": "bool",
          "name": "approved",
          "type": "bool"
        }
      ],
      "name": "ApprovalForAll",
      "type": "event"
    },
    {
      "anonymous": false,
      "inputs": [
        {
          "indexed": true,
          "internalType": "address",
          "name": "operator",
          "type": "address"
        },
        {
          "indexed": true,
          "internalType": "address",
          "name": "from",
          "type": "address"
        },
        {
          "indexed": true,
          "internalType": "address",
          "name": "to",
          "type": "address"
        },
        {
          "indexed": false,
          "internalType": "uint256[]",
          "name": "ids",
          "type": "uint256[]"
        },
        {
          "indexed": false,
          "internalType": "uint256[]",
          "name": "values",
          "type": "uint256[]"
        }
      ],
      "name": "TransferBatch",
      "type": "event"
    },
    {
      "anonymous": false,
      "inputs": [
        {
          "indexed": true,
          "internalType": "address",
          "name": "operator",
          "type": "address"
        },
        {
          "indexed": true,
          "internalType": "address",
          "name": "from",
          "type": "address"
        },
        {
          "indexed": true,
          "internalType": "address",
          "name": "to",
          "type": "address"
        },
        {
          "indexed": false,
          "internalType": "uint256",
          "name": "id",
          "type": "uint256"
        },
        {
          "indexed": false,
          "internalType": "uint256",
          "name": "value",
          "type": "uint256"
        }
      ],
      "name": "TransferSingle",
      "type": "event"
    },
    {
      "anonymous": false,
      "inputs": [
        {
          "indexed": false,
          "internalType": "string",
          "name": "value",
          "type": "string"
        },
        {
          "indexed": true,
          "internalType": "uint256",
          "name": "id",
          "type": "uint256"
        }
      ],
      "name": "URI",
      "type": "event"
    },
    {
      "inputs": [
        {
          "internalType": "uint256",
          "name": "",
          "type": "uint256"
        },
        {
          "internalType": "uint256",
          "name": "",
          "type": "uint256"
        }
      ],
      "name": "addressTracker",
      "outputs": [
        {
          "internalType": "address",
          "name": "",
          "type": "address"
        }
      ],
      "stateMutability": "view",
      "type": "function",
      "constant": true
    },
    {
      "inputs": [
        {
          "internalType": "address",
          "name": "",
          "type": "address"
        },
        {
          "internalType": "uint256",
          "name": "",
          "type": "uint256"
        }
      ],
      "name": "artistTokns",
      "outputs": [
        {
          "internalType": "uint256",
          "name": "",
          "type": "uint256"
        }
      ],
      "stateMutability": "view",
      "type": "function",
      "constant": true
    },
    {
      "inputs": [
        {
          "internalType": "address",
          "name": "account",
          "type": "address"
        },
        {
          "internalType": "uint256",
          "name": "id",
          "type": "uint256"
        }
      ],
      "name": "balanceOf",
      "outputs": [
        {
          "internalType": "uint256",
          "name": "",
          "type": "uint256"
        }
      ],
      "stateMutability": "view",
      "type": "function",
      "constant": true
    },
    {
      "inputs": [
        {
          "internalType": "address[]",
          "name": "accounts",
          "type": "address[]"
        },
        {
          "internalType": "uint256[]",
          "name": "ids",
          "type": "uint256[]"
        }
      ],
      "name": "balanceOfBatch",
      "outputs": [
        {
          "internalType": "uint256[]",
          "name": "",
          "type": "uint256[]"
        }
      ],
      "stateMutability": "view",
      "type": "function",
      "constant": true
    },
    {
      "inputs": [],
      "name": "deployer",
      "outputs": [
        {
          "internalType": "address payable",
          "name": "",
          "type": "address"
        }
      ],
      "stateMutability": "view",
      "type": "function",
      "constant": true
    },
    {
      "inputs": [
        {
          "internalType": "address",
          "name": "account",
          "type": "address"
        },
        {
          "internalType": "address",
          "name": "operator",
          "type": "address"
        }
      ],
      "name": "isApprovedForAll",
      "outputs": [
        {
          "internalType": "bool",
          "name": "",
          "type": "bool"
        }
      ],
      "stateMutability": "view",
      "type": "function",
      "constant": true
    },
    {
      "inputs": [
        {
          "internalType": "address",
          "name": "from",
          "type": "address"
        },
        {
          "internalType": "address",
          "name": "to",
          "type": "address"
        },
        {
          "internalType": "uint256[]",
          "name": "ids",
          "type": "uint256[]"
        },
        {
          "internalType": "uint256[]",
          "name": "amounts",
          "type": "uint256[]"
        },
        {
          "internalType": "bytes",
          "name": "data",
          "type": "bytes"
        }
      ],
      "name": "safeBatchTransferFrom",
      "outputs": [],
      "stateMutability": "nonpayable",
      "type": "function"
    },
    {
      "inputs": [
        {
          "internalType": "address",
          "name": "operator",
          "type": "address"
        },
        {
          "internalType": "bool",
          "name": "approved",
          "type": "bool"
        }
      ],
      "name": "setApprovalForAll",
      "outputs": [],
      "stateMutability": "nonpayable",
      "type": "function"
    },
    {
      "inputs": [
        {
          "internalType": "bytes4",
          "name": "interfaceId",
          "type": "bytes4"
        }
      ],
      "name": "supportsInterface",
      "outputs": [
        {
          "internalType": "bool",
          "name": "",
          "type": "bool"
        }
      ],
      "stateMutability": "view",
      "type": "function",
      "constant": true
    },
    {
      "inputs": [
        {
          "internalType": "string",
          "name": "",
          "type": "string"
        }
      ],
      "name": "symbolToId",
      "outputs": [
        {
          "internalType": "uint256",
          "name": "",
          "type": "uint256"
        }
      ],
      "stateMutability": "view",
      "type": "function",
      "constant": true
    },
    {
      "inputs": [],
      "name": "toknId",
      "outputs": [
        {
          "internalType": "uint256",
          "name": "",
          "type": "uint256"
        }
      ],
      "stateMutability": "view",
      "type": "function",
      "constant": true
    },
    {
      "inputs": [
        {
          "internalType": "uint256",
          "name": "",
          "type": "uint256"
        }
      ],
      "name": "toknIdToArtist",
      "outputs": [
        {
          "internalType": "address",
          "name": "",
          "type": "address"
        }
      ],
      "stateMutability": "view",
      "type": "function",
      "constant": true
    },
    {
      "inputs": [
        {
          "internalType": "uint256",
          "name": "",
          "type": "uint256"
        }
      ],
      "name": "toknIdToURI",
      "outputs": [
        {
          "internalType": "string",
          "name": "",
          "type": "string"
        }
      ],
      "stateMutability": "view",
      "type": "function",
      "constant": true
    },
    {
      "inputs": [
        {
          "internalType": "uint256",
          "name": "",
          "type": "uint256"
        }
      ],
      "name": "toknsAvailable",
      "outputs": [
        {
          "internalType": "uint256",
          "name": "",
          "type": "uint256"
        }
      ],
      "stateMutability": "view",
      "type": "function",
      "constant": true
    },
    {
      "inputs": [
        {
          "internalType": "uint256",
          "name": "",
          "type": "uint256"
        }
      ],
      "name": "totalSupplies",
      "outputs": [
        {
          "internalType": "uint256",
          "name": "",
          "type": "uint256"
        }
      ],
      "stateMutability": "view",
      "type": "function",
      "constant": true
    },
    {
      "inputs": [
        {
          "internalType": "uint256",
          "name": "",
          "type": "uint256"
        }
      ],
      "name": "uri",
      "outputs": [
        {
          "internalType": "string",
          "name": "",
          "type": "string"
        }
      ],
      "stateMutability": "view",
      "type": "function",
      "constant": true
    },
    {
      "inputs": [],
      "name": "usdc",
      "outputs": [
        {
          "internalType": "contract UsdcToken",
          "name": "",
          "type": "address"
        }
      ],
      "stateMutability": "view",
      "type": "function",
      "constant": true
    },
    {
      "inputs": [
        {
          "internalType": "string",
          "name": "_symbol",
          "type": "string"
        },
        {
          "internalType": "uint256",
          "name": "_amount",
          "type": "uint256"
        },
        {
          "internalType": "string",
          "name": "_uri",
          "type": "string"
        }
      ],
      "name": "createInvestorTokns",
      "outputs": [],
      "stateMutability": "nonpayable",
      "type": "function"
    },
    {
      "inputs": [
        {
          "internalType": "uint256",
          "name": "_amount",
          "type": "uint256"
        },
        {
          "internalType": "uint256",
          "name": "_toknId",
          "type": "uint256"
        }
      ],
      "name": "mintInvestorTokns",
      "outputs": [],
      "stateMutability": "nonpayable",
      "type": "function"
    },
    {
      "inputs": [
        {
          "internalType": "uint256",
          "name": "_amount",
          "type": "uint256"
        },
        {
          "internalType": "uint256",
          "name": "_toknId",
          "type": "uint256"
        }
      ],
      "name": "burnInvestorTokns",
      "outputs": [],
      "stateMutability": "nonpayable",
      "type": "function"
    },
    {
      "inputs": [
        {
          "internalType": "uint256",
          "name": "_id",
          "type": "uint256"
        }
      ],
      "name": "returnAddressesForTokn",
      "outputs": [
        {
          "internalType": "address[]",
          "name": "",
          "type": "address[]"
        }
      ],
      "stateMutability": "view",
      "type": "function",
      "constant": true
    },
    {
      "inputs": [
        {
          "internalType": "address",
          "name": "from",
          "type": "address"
        },
        {
          "internalType": "address",
          "name": "to",
          "type": "address"
        },
        {
          "internalType": "uint256",
          "name": "id",
          "type": "uint256"
        },
        {
          "internalType": "uint256",
          "name": "amount",
          "type": "uint256"
        },
        {
          "internalType": "bytes",
          "name": "data",
          "type": "bytes"
        }
      ],
      "name": "safeTransferFrom",
      "outputs": [],
      "stateMutability": "nonpayable",
      "type": "function"
    }
  ],
  "bytecode": "0x60806040523480156200001157600080fd5b5060405162003c1438038062003c14833981810160405281019062000037919062000225565b806200004981620000e760201b60201c565b5033600360006101000a81548173ffffffffffffffffffffffffffffffffffffffff021916908373ffffffffffffffffffffffffffffffffffffffff160217905550734dbcdf9b62e891a7cec5a2568c3f4faf9e8abe2b600c60006101000a81548173ffffffffffffffffffffffffffffffffffffffff021916908373ffffffffffffffffffffffffffffffffffffffff160217905550506200039b565b8060029080519060200190620000ff92919062000103565b5050565b828054620001119062000307565b90600052602060002090601f01602090048101928262000135576000855562000181565b82601f106200015057805160ff191683800117855562000181565b8280016001018555821562000181579182015b828111156200018057825182559160200191906001019062000163565b5b50905062000190919062000194565b5090565b5b80821115620001af57600081600090555060010162000195565b5090565b6000620001ca620001c4846200029e565b6200026a565b905082815260208101848484011115620001e357600080fd5b620001f0848285620002d1565b509392505050565b600082601f8301126200020a57600080fd5b81516200021c848260208601620001b3565b91505092915050565b6000602082840312156200023857600080fd5b600082015167ffffffffffffffff8111156200025357600080fd5b6200026184828501620001f8565b91505092915050565b6000604051905081810181811067ffffffffffffffff821117156200029457620002936200036c565b5b8060405250919050565b600067ffffffffffffffff821115620002bc57620002bb6200036c565b5b601f19601f8301169050602081019050919050565b60005b83811015620002f1578082015181840152602081019050620002d4565b8381111562000301576000848401525b50505050565b600060028204905060018216806200032057607f821691505b602082108114156200033757620003366200033d565b5b50919050565b7f4e487b7100000000000000000000000000000000000000000000000000000000600052602260045260246000fd5b7f4e487b7100000000000000000000000000000000000000000000000000000000600052604160045260246000fd5b61386980620003ab6000396000f3fe608060405234801561001057600080fd5b50600436106101415760003560e01c8063700a451b116100b8578063c4f899db1161007c578063c4f899db146103e4578063ce290c3714610400578063d5f394881461041e578063e6253d401461043c578063e985e9c51461046c578063f242432a1461049c57610141565b8063700a451b1461030857806372ed8a5d14610338578063a22cb46514610368578063a35d5ef914610384578063b54fa474146103b457610141565b806318adc5821161010a57806318adc582146102365780632eb2c2d61461026657806330a071f714610282578063338012e51461029e5780633e413bee146102ba5780634e1273f4146102d857610141565b8062fdd58e1461014657806301ffc9a71461017657806305e1e18d146101a65780630e89341c146101d65780631146c2b414610206575b600080fd5b610160600480360381019061015b91906125dc565b6104b8565b60405161016d91906132a3565b60405180910390f35b610190600480360381019061018b9190612684565b610581565b60405161019d91906130ab565b60405180910390f35b6101c060048036038101906101bb91906125dc565b610663565b6040516101cd91906132a3565b60405180910390f35b6101f060048036038101906101eb9190612796565b610694565b6040516101fd91906130e1565b60405180910390f35b610220600480360381019061021b9190612796565b610728565b60405161022d91906132a3565b60405180910390f35b610250600480360381019061024b91906127bf565b610740565b60405161025d9190612f38565b60405180910390f35b610280600480360381019061027b9190612452565b61078e565b005b61029c600480360381019061029791906127bf565b61082f565b005b6102b860048036038101906102b391906127bf565b610901565b005b6102c2610a6f565b6040516102cf91906130c6565b60405180910390f35b6102f260048036038101906102ed9190612618565b610a95565b6040516102ff9190613052565b60405180910390f35b610322600480360381019061031d91906126d6565b610c46565b60405161032f91906132a3565b60405180910390f35b610352600480360381019061034d9190612796565b610c74565b60405161035f91906130e1565b60405180910390f35b610382600480360381019061037d91906125a0565b610d14565b005b61039e60048036038101906103999190612796565b610d2a565b6040516103ab9190613030565b60405180910390f35b6103ce60048036038101906103c99190612796565b610dcb565b6040516103db91906132a3565b60405180910390f35b6103fe60048036038101906103f99190612717565b610de3565b005b610408610f11565b60405161041591906132a3565b60405180910390f35b610426610f17565b6040516104339190612f53565b60405180910390f35b61045660048036038101906104519190612796565b610f3d565b6040516104639190612f38565b60405180910390f35b61048660048036038101906104819190612416565b610f70565b60405161049391906130ab565b60405180910390f35b6104b660048036038101906104b19190612511565b611004565b005b60008073ffffffffffffffffffffffffffffffffffffffff168373ffffffffffffffffffffffffffffffffffffffff161415610529576040517f08c379a000000000000000000000000000000000000000000000000000000000815260040161052090613143565b60405180910390fd5b60008083815260200190815260200160002060008473ffffffffffffffffffffffffffffffffffffffff1673ffffffffffffffffffffffffffffffffffffffff16815260200190815260200160002054905092915050565b60007fd9b67a26000000000000000000000000000000000000000000000000000000007bffffffffffffffffffffffffffffffffffffffffffffffffffffffff1916827bffffffffffffffffffffffffffffffffffffffffffffffffffffffff1916148061064c57507f0e89341c000000000000000000000000000000000000000000000000000000007bffffffffffffffffffffffffffffffffffffffffffffffffffffffff1916827bffffffffffffffffffffffffffffffffffffffffffffffffffffffff1916145b8061065c575061065b82611119565b5b9050919050565b6009602052816000526040600020818154811061067f57600080fd5b90600052602060002001600091509150505481565b6060600280546106a3906135fb565b80601f01602080910402602001604051908101604052809291908181526020018280546106cf906135fb565b801561071c5780601f106106f15761010080835404028352916020019161071c565b820191906000526020600020905b8154815290600101906020018083116106ff57829003601f168201915b50505050509050919050565b60066020528060005260406000206000915090505481565b600b602052816000526040600020818154811061075c57600080fd5b906000526020600020016000915091509054906101000a900473ffffffffffffffffffffffffffffffffffffffff1681565b610796611183565b73ffffffffffffffffffffffffffffffffffffffff168573ffffffffffffffffffffffffffffffffffffffff1614806107dc57506107db856107d6611183565b610f70565b5b61081b576040517f08c379a0000000000000000000000000000000000000000000000000000000008152600401610812906131c3565b60405180910390fd5b610828858585858561118b565b5050505050565b80338073ffffffffffffffffffffffffffffffffffffffff16600a600084815260200190815260200160002060009054906101000a900473ffffffffffffffffffffffffffffffffffffffff1673ffffffffffffffffffffffffffffffffffffffff161461089c57600080fd5b6108a73384866114eb565b836005600085815260200190815260200160002060008282546108ca91906134db565b92505081905550836006600085815260200190815260200160002060008282546108f491906134db565b9250508190555050505050565b80338073ffffffffffffffffffffffffffffffffffffffff16600a600084815260200190815260200160002060009054906101000a900473ffffffffffffffffffffffffffffffffffffffff1673ffffffffffffffffffffffffffffffffffffffff161461096e57600080fd5b610a15338486600760008881526020019081526020016000208054610992906135fb565b80601f01602080910402602001604051908101604052809291908181526020018280546109be906135fb565b8015610a0b5780601f106109e057610100808354040283529160200191610a0b565b820191906000526020600020905b8154815290600101906020018083116109ee57829003601f168201915b5050505050611708565b83600560008581526020019081526020016000206000828254610a389190613485565b9250508190555083600660008581526020019081526020016000206000828254610a629190613485565b9250508190555050505050565b600c60009054906101000a900473ffffffffffffffffffffffffffffffffffffffff1681565b60608151835114610adb576040517f08c379a0000000000000000000000000000000000000000000000000000000008152600401610ad290613243565b60405180910390fd5b6000835167ffffffffffffffff811115610b1e577f4e487b7100000000000000000000000000000000000000000000000000000000600052604160045260246000fd5b604051908082528060200260200182016040528015610b4c5781602001602082028036833780820191505090505b50905060005b8451811015610c3b57610be5858281518110610b97577f4e487b7100000000000000000000000000000000000000000000000000000000600052603260045260246000fd5b6020026020010151858381518110610bd8577f4e487b7100000000000000000000000000000000000000000000000000000000600052603260045260246000fd5b60200260200101516104b8565b828281518110610c1e577f4e487b7100000000000000000000000000000000000000000000000000000000600052603260045260246000fd5b60200260200101818152505080610c349061362d565b9050610b52565b508091505092915050565b6008818051602081018201805184825260208301602085012081835280955050505050506000915090505481565b60076020528060005260406000206000915090508054610c93906135fb565b80601f0160208091040260200160405190810160405280929190818152602001828054610cbf906135fb565b8015610d0c5780601f10610ce157610100808354040283529160200191610d0c565b820191906000526020600020905b815481529060010190602001808311610cef57829003601f168201915b505050505081565b610d26610d1f611183565b838361189e565b5050565b6060600b6000838152602001908152602001600020805480602002602001604051908101604052809291908181526020018280548015610dbf57602002820191906000526020600020905b8160009054906101000a900473ffffffffffffffffffffffffffffffffffffffff1673ffffffffffffffffffffffffffffffffffffffff1681526020019060010190808311610d75575b50505050509050919050565b60056020528060005260406000206000915090505481565b33600a6000600460008154610df79061362d565b919050819055815260200190815260200160002060006101000a81548173ffffffffffffffffffffffffffffffffffffffff021916908373ffffffffffffffffffffffffffffffffffffffff160217905550600454600884604051610e5c9190612f21565b908152602001604051809103902081905550600960003373ffffffffffffffffffffffffffffffffffffffff1673ffffffffffffffffffffffffffffffffffffffff1681526020019081526020016000206004549080600181540180825580915050600190039060005260206000200160009091909190915055806007600060045481526020019081526020016000209080519060200190610eff92919061210e565b50610f0c82600454610901565b505050565b60045481565b600360009054906101000a900473ffffffffffffffffffffffffffffffffffffffff1681565b600a6020528060005260406000206000915054906101000a900473ffffffffffffffffffffffffffffffffffffffff1681565b6000600160008473ffffffffffffffffffffffffffffffffffffffff1673ffffffffffffffffffffffffffffffffffffffff16815260200190815260200160002060008373ffffffffffffffffffffffffffffffffffffffff1673ffffffffffffffffffffffffffffffffffffffff16815260200190815260200160002060009054906101000a900460ff16905092915050565b61100c611183565b73ffffffffffffffffffffffffffffffffffffffff168573ffffffffffffffffffffffffffffffffffffffff16148061105257506110518561104c611183565b610f70565b5b611091576040517f08c379a000000000000000000000000000000000000000000000000000000000815260040161108890613183565b60405180910390fd5b61109e8585858585611a0b565b600b6000848152602001908152602001600020849080600181540180825580915050600190039060005260206000200160009091909190916101000a81548173ffffffffffffffffffffffffffffffffffffffff021916908373ffffffffffffffffffffffffffffffffffffffff1602179055505050505050565b60007f01ffc9a7000000000000000000000000000000000000000000000000000000007bffffffffffffffffffffffffffffffffffffffffffffffffffffffff1916827bffffffffffffffffffffffffffffffffffffffffffffffffffffffff1916149050919050565b600033905090565b81518351146111cf576040517f08c379a00000000000000000000000000000000000000000000000000000000081526004016111c690613263565b60405180910390fd5b600073ffffffffffffffffffffffffffffffffffffffff168473ffffffffffffffffffffffffffffffffffffffff16141561123f576040517f08c379a0000000000000000000000000000000000000000000000000000000008152600401611236906131a3565b60405180910390fd5b6000611249611183565b9050611259818787878787611c8d565b60005b84518110156114565760008582815181106112a0577f4e487b7100000000000000000000000000000000000000000000000000000000600052603260045260246000fd5b6020026020010151905060008583815181106112e5577f4e487b7100000000000000000000000000000000000000000000000000000000600052603260045260246000fd5b60200260200101519050600080600084815260200190815260200160002060008b73ffffffffffffffffffffffffffffffffffffffff1673ffffffffffffffffffffffffffffffffffffffff16815260200190815260200160002054905081811015611386576040517f08c379a000000000000000000000000000000000000000000000000000000000815260040161137d90613203565b60405180910390fd5b81810360008085815260200190815260200160002060008c73ffffffffffffffffffffffffffffffffffffffff1673ffffffffffffffffffffffffffffffffffffffff168152602001908152602001600020819055508160008085815260200190815260200160002060008b73ffffffffffffffffffffffffffffffffffffffff1673ffffffffffffffffffffffffffffffffffffffff168152602001908152602001600020600082825461143b9190613485565b925050819055505050508061144f9061362d565b905061125c565b508473ffffffffffffffffffffffffffffffffffffffff168673ffffffffffffffffffffffffffffffffffffffff168273ffffffffffffffffffffffffffffffffffffffff167f4a39dc06d4c0dbc64b70af90fd698a233a518aa5d07e595d983b8c0526c8f7fb87876040516114cd929190613074565b60405180910390a46114e3818787878787611c95565b505050505050565b600073ffffffffffffffffffffffffffffffffffffffff168373ffffffffffffffffffffffffffffffffffffffff16141561155b576040517f08c379a0000000000000000000000000000000000000000000000000000000008152600401611552906131e3565b60405180910390fd5b6000611565611183565b90506115958185600061157787611e65565b61158087611e65565b60405180602001604052806000815250611c8d565b600080600085815260200190815260200160002060008673ffffffffffffffffffffffffffffffffffffffff1673ffffffffffffffffffffffffffffffffffffffff1681526020019081526020016000205490508281101561162c576040517f08c379a000000000000000000000000000000000000000000000000000000000815260040161162390613163565b60405180910390fd5b82810360008086815260200190815260200160002060008773ffffffffffffffffffffffffffffffffffffffff1673ffffffffffffffffffffffffffffffffffffffff16815260200190815260200160002081905550600073ffffffffffffffffffffffffffffffffffffffff168573ffffffffffffffffffffffffffffffffffffffff168373ffffffffffffffffffffffffffffffffffffffff167fc3d58168c5ae7397731d063d5bbf3d657854427343f4c083240f7aacaa2d0f6287876040516116f99291906132be565b60405180910390a45050505050565b600073ffffffffffffffffffffffffffffffffffffffff168473ffffffffffffffffffffffffffffffffffffffff161415611778576040517f08c379a000000000000000000000000000000000000000000000000000000000815260040161176f90613283565b60405180910390fd5b6000611782611183565b90506117a38160008761179488611e65565b61179d88611e65565b87611c8d565b8260008086815260200190815260200160002060008773ffffffffffffffffffffffffffffffffffffffff1673ffffffffffffffffffffffffffffffffffffffff16815260200190815260200160002060008282546118029190613485565b925050819055508473ffffffffffffffffffffffffffffffffffffffff16600073ffffffffffffffffffffffffffffffffffffffff168273ffffffffffffffffffffffffffffffffffffffff167fc3d58168c5ae7397731d063d5bbf3d657854427343f4c083240f7aacaa2d0f6287876040516118809291906132be565b60405180910390a461189781600087878787611f2b565b5050505050565b8173ffffffffffffffffffffffffffffffffffffffff168373ffffffffffffffffffffffffffffffffffffffff16141561190d576040517f08c379a000000000000000000000000000000000000000000000000000000000815260040161190490613223565b60405180910390fd5b80600160008573ffffffffffffffffffffffffffffffffffffffff1673ffffffffffffffffffffffffffffffffffffffff16815260200190815260200160002060008473ffffffffffffffffffffffffffffffffffffffff1673ffffffffffffffffffffffffffffffffffffffff16815260200190815260200160002060006101000a81548160ff0219169083151502179055508173ffffffffffffffffffffffffffffffffffffffff168373ffffffffffffffffffffffffffffffffffffffff167f17307eab39ab6107e8899845ad3d59bd9653f200f220920489ca2b5937696c31836040516119fe91906130ab565b60405180910390a3505050565b600073ffffffffffffffffffffffffffffffffffffffff168473ffffffffffffffffffffffffffffffffffffffff161415611a7b576040517f08c379a0000000000000000000000000000000000000000000000000000000008152600401611a72906131a3565b60405180910390fd5b6000611a85611183565b9050611aa5818787611a9688611e65565b611a9f88611e65565b87611c8d565b600080600086815260200190815260200160002060008873ffffffffffffffffffffffffffffffffffffffff1673ffffffffffffffffffffffffffffffffffffffff16815260200190815260200160002054905083811015611b3c576040517f08c379a0000000000000000000000000000000000000000000000000000000008152600401611b3390613203565b60405180910390fd5b83810360008087815260200190815260200160002060008973ffffffffffffffffffffffffffffffffffffffff1673ffffffffffffffffffffffffffffffffffffffff168152602001908152602001600020819055508360008087815260200190815260200160002060008873ffffffffffffffffffffffffffffffffffffffff1673ffffffffffffffffffffffffffffffffffffffff1681526020019081526020016000206000828254611bf19190613485565b925050819055508573ffffffffffffffffffffffffffffffffffffffff168773ffffffffffffffffffffffffffffffffffffffff168373ffffffffffffffffffffffffffffffffffffffff167fc3d58168c5ae7397731d063d5bbf3d657854427343f4c083240f7aacaa2d0f628888604051611c6e9291906132be565b60405180910390a4611c84828888888888611f2b565b50505050505050565b505050505050565b611cb48473ffffffffffffffffffffffffffffffffffffffff166120fb565b15611e5d578373ffffffffffffffffffffffffffffffffffffffff1663bc197c8187878686866040518663ffffffff1660e01b8152600401611cfa959493929190612f6e565b602060405180830381600087803b158015611d1457600080fd5b505af1925050508015611d4557506040513d601f19601f82011682018060405250810190611d4291906126ad565b60015b611dd457611d51613721565b80611d5c5750611d99565b806040517f08c379a0000000000000000000000000000000000000000000000000000000008152600401611d9091906130e1565b60405180910390fd5b6040517f08c379a0000000000000000000000000000000000000000000000000000000008152600401611dcb90613103565b60405180910390fd5b63bc197c8160e01b7bffffffffffffffffffffffffffffffffffffffffffffffffffffffff1916817bffffffffffffffffffffffffffffffffffffffffffffffffffffffff191614611e5b576040517f08c379a0000000000000000000000000000000000000000000000000000000008152600401611e5290613123565b60405180910390fd5b505b505050505050565b60606000600167ffffffffffffffff811115611eaa577f4e487b7100000000000000000000000000000000000000000000000000000000600052604160045260246000fd5b604051908082528060200260200182016040528015611ed85781602001602082028036833780820191505090505b5090508281600081518110611f16577f4e487b7100000000000000000000000000000000000000000000000000000000600052603260045260246000fd5b60200260200101818152505080915050919050565b611f4a8473ffffffffffffffffffffffffffffffffffffffff166120fb565b156120f3578373ffffffffffffffffffffffffffffffffffffffff1663f23a6e6187878686866040518663ffffffff1660e01b8152600401611f90959493929190612fd6565b602060405180830381600087803b158015611faa57600080fd5b505af1925050508015611fdb57506040513d601f19601f82011682018060405250810190611fd891906126ad565b60015b61206a57611fe7613721565b80611ff2575061202f565b806040517f08c379a000000000000000000000000000000000000000000000000000000000815260040161202691906130e1565b60405180910390fd5b6040517f08c379a000000000000000000000000000000000000000000000000000000000815260040161206190613103565b60405180910390fd5b63f23a6e6160e01b7bffffffffffffffffffffffffffffffffffffffffffffffffffffffff1916817bffffffffffffffffffffffffffffffffffffffffffffffffffffffff1916146120f1576040517f08c379a00000000000000000000000000000000000000000000000000000000081526004016120e890613123565b60405180910390fd5b505b505050505050565b600080823b905060008111915050919050565b82805461211a906135fb565b90600052602060002090601f01602090048101928261213c5760008555612183565b82601f1061215557805160ff1916838001178555612183565b82800160010185558215612183579182015b82811115612182578251825591602001919060010190612167565b5b5090506121909190612194565b5090565b5b808211156121ad576000816000905550600101612195565b5090565b60006121c46121bf84613318565b6132e7565b905080838252602082019050828560208602820111156121e357600080fd5b60005b8581101561221357816121f98882612305565b8452602084019350602083019250506001810190506121e6565b5050509392505050565b600061223061222b84613344565b6132e7565b9050808382526020820190508285602086028201111561224f57600080fd5b60005b8581101561227f57816122658882612401565b845260208401935060208301925050600181019050612252565b5050509392505050565b600061229c61229784613370565b6132e7565b9050828152602081018484840111156122b457600080fd5b6122bf8482856135b9565b509392505050565b60006122da6122d5846133a0565b6132e7565b9050828152602081018484840111156122f257600080fd5b6122fd8482856135b9565b509392505050565b600081359050612314816137d7565b92915050565b600082601f83011261232b57600080fd5b813561233b8482602086016121b1565b91505092915050565b600082601f83011261235557600080fd5b813561236584826020860161221d565b91505092915050565b60008135905061237d816137ee565b92915050565b60008135905061239281613805565b92915050565b6000815190506123a781613805565b92915050565b600082601f8301126123be57600080fd5b81356123ce848260208601612289565b91505092915050565b600082601f8301126123e857600080fd5b81356123f88482602086016122c7565b91505092915050565b6000813590506124108161381c565b92915050565b6000806040838503121561242957600080fd5b600061243785828601612305565b925050602061244885828601612305565b9150509250929050565b600080600080600060a0868803121561246a57600080fd5b600061247888828901612305565b955050602061248988828901612305565b945050604086013567ffffffffffffffff8111156124a657600080fd5b6124b288828901612344565b935050606086013567ffffffffffffffff8111156124cf57600080fd5b6124db88828901612344565b925050608086013567ffffffffffffffff8111156124f857600080fd5b612504888289016123ad565b9150509295509295909350565b600080600080600060a0868803121561252957600080fd5b600061253788828901612305565b955050602061254888828901612305565b945050604061255988828901612401565b935050606061256a88828901612401565b925050608086013567ffffffffffffffff81111561258757600080fd5b612593888289016123ad565b9150509295509295909350565b600080604083850312156125b357600080fd5b60006125c185828601612305565b92505060206125d28582860161236e565b9150509250929050565b600080604083850312156125ef57600080fd5b60006125fd85828601612305565b925050602061260e85828601612401565b9150509250929050565b6000806040838503121561262b57600080fd5b600083013567ffffffffffffffff81111561264557600080fd5b6126518582860161231a565b925050602083013567ffffffffffffffff81111561266e57600080fd5b61267a85828601612344565b9150509250929050565b60006020828403121561269657600080fd5b60006126a484828501612383565b91505092915050565b6000602082840312156126bf57600080fd5b60006126cd84828501612398565b91505092915050565b6000602082840312156126e857600080fd5b600082013567ffffffffffffffff81111561270257600080fd5b61270e848285016123d7565b91505092915050565b60008060006060848603121561272c57600080fd5b600084013567ffffffffffffffff81111561274657600080fd5b612752868287016123d7565b935050602061276386828701612401565b925050604084013567ffffffffffffffff81111561278057600080fd5b61278c868287016123d7565b9150509250925092565b6000602082840312156127a857600080fd5b60006127b684828501612401565b91505092915050565b600080604083850312156127d257600080fd5b60006127e085828601612401565b92505060206127f185828601612401565b9150509250929050565b6000612807838361283a565b60208301905092915050565b600061281f8383612f03565b60208301905092915050565b61283481613521565b82525050565b6128438161350f565b82525050565b6128528161350f565b82525050565b6000612863826133f0565b61286d8185613436565b9350612878836133d0565b8060005b838110156128a957815161289088826127fb565b975061289b8361341c565b92505060018101905061287c565b5085935050505092915050565b60006128c1826133fb565b6128cb8185613447565b93506128d6836133e0565b8060005b838110156129075781516128ee8882612813565b97506128f983613429565b9250506001810190506128da565b5085935050505092915050565b61291d81613533565b82525050565b600061292e82613406565b6129388185613458565b93506129488185602086016135c8565b61295181613703565b840191505092915050565b61296581613595565b82525050565b600061297682613411565b6129808185613469565b93506129908185602086016135c8565b61299981613703565b840191505092915050565b60006129af82613411565b6129b9818561347a565b93506129c98185602086016135c8565b80840191505092915050565b60006129e2603483613469565b91507f455243313135353a207472616e7366657220746f206e6f6e204552433131353560008301527f526563656976657220696d706c656d656e7465720000000000000000000000006020830152604082019050919050565b6000612a48602883613469565b91507f455243313135353a204552433131353552656365697665722072656a6563746560008301527f6420746f6b656e730000000000000000000000000000000000000000000000006020830152604082019050919050565b6000612aae602b83613469565b91507f455243313135353a2062616c616e636520717565727920666f7220746865207a60008301527f65726f20616464726573730000000000000000000000000000000000000000006020830152604082019050919050565b6000612b14602483613469565b91507f455243313135353a206275726e20616d6f756e7420657863656564732062616c60008301527f616e6365000000000000000000000000000000000000000000000000000000006020830152604082019050919050565b6000612b7a602983613469565b91507f455243313135353a2063616c6c6572206973206e6f74206f776e6572206e6f7260008301527f20617070726f76656400000000000000000000000000000000000000000000006020830152604082019050919050565b6000612be0602583613469565b91507f455243313135353a207472616e7366657220746f20746865207a65726f20616460008301527f64726573730000000000000000000000000000000000000000000000000000006020830152604082019050919050565b6000612c46603283613469565b91507f455243313135353a207472616e736665722063616c6c6572206973206e6f742060008301527f6f776e6572206e6f7220617070726f76656400000000000000000000000000006020830152604082019050919050565b6000612cac602383613469565b91507f455243313135353a206275726e2066726f6d20746865207a65726f206164647260008301527f65737300000000000000000000000000000000000000000000000000000000006020830152604082019050919050565b6000612d12602a83613469565b91507f455243313135353a20696e73756666696369656e742062616c616e636520666f60008301527f72207472616e73666572000000000000000000000000000000000000000000006020830152604082019050919050565b6000612d78602983613469565b91507f455243313135353a2073657474696e6720617070726f76616c2073746174757360008301527f20666f722073656c6600000000000000000000000000000000000000000000006020830152604082019050919050565b6000612dde602983613469565b91507f455243313135353a206163636f756e747320616e6420696473206c656e67746860008301527f206d69736d6174636800000000000000000000000000000000000000000000006020830152604082019050919050565b6000612e44602883613469565b91507f455243313135353a2069647320616e6420616d6f756e7473206c656e6774682060008301527f6d69736d617463680000000000000000000000000000000000000000000000006020830152604082019050919050565b6000612eaa602183613469565b91507f455243313135353a206d696e7420746f20746865207a65726f2061646472657360008301527f73000000000000000000000000000000000000000000000000000000000000006020830152604082019050919050565b612f0c8161358b565b82525050565b612f1b8161358b565b82525050565b6000612f2d82846129a4565b915081905092915050565b6000602082019050612f4d6000830184612849565b92915050565b6000602082019050612f68600083018461282b565b92915050565b600060a082019050612f836000830188612849565b612f906020830187612849565b8181036040830152612fa281866128b6565b90508181036060830152612fb681856128b6565b90508181036080830152612fca8184612923565b90509695505050505050565b600060a082019050612feb6000830188612849565b612ff86020830187612849565b6130056040830186612f12565b6130126060830185612f12565b81810360808301526130248184612923565b90509695505050505050565b6000602082019050818103600083015261304a8184612858565b905092915050565b6000602082019050818103600083015261306c81846128b6565b905092915050565b6000604082019050818103600083015261308e81856128b6565b905081810360208301526130a281846128b6565b90509392505050565b60006020820190506130c06000830184612914565b92915050565b60006020820190506130db600083018461295c565b92915050565b600060208201905081810360008301526130fb818461296b565b905092915050565b6000602082019050818103600083015261311c816129d5565b9050919050565b6000602082019050818103600083015261313c81612a3b565b9050919050565b6000602082019050818103600083015261315c81612aa1565b9050919050565b6000602082019050818103600083015261317c81612b07565b9050919050565b6000602082019050818103600083015261319c81612b6d565b9050919050565b600060208201905081810360008301526131bc81612bd3565b9050919050565b600060208201905081810360008301526131dc81612c39565b9050919050565b600060208201905081810360008301526131fc81612c9f565b9050919050565b6000602082019050818103600083015261321c81612d05565b9050919050565b6000602082019050818103600083015261323c81612d6b565b9050919050565b6000602082019050818103600083015261325c81612dd1565b9050919050565b6000602082019050818103600083015261327c81612e37565b9050919050565b6000602082019050818103600083015261329c81612e9d565b9050919050565b60006020820190506132b86000830184612f12565b92915050565b60006040820190506132d36000830185612f12565b6132e06020830184612f12565b9392505050565b6000604051905081810181811067ffffffffffffffff8211171561330e5761330d6136d4565b5b8060405250919050565b600067ffffffffffffffff821115613333576133326136d4565b5b602082029050602081019050919050565b600067ffffffffffffffff82111561335f5761335e6136d4565b5b602082029050602081019050919050565b600067ffffffffffffffff82111561338b5761338a6136d4565b5b601f19601f8301169050602081019050919050565b600067ffffffffffffffff8211156133bb576133ba6136d4565b5b601f19601f8301169050602081019050919050565b6000819050602082019050919050565b6000819050602082019050919050565b600081519050919050565b600081519050919050565b600081519050919050565b600081519050919050565b6000602082019050919050565b6000602082019050919050565b600082825260208201905092915050565b600082825260208201905092915050565b600082825260208201905092915050565b600082825260208201905092915050565b600081905092915050565b60006134908261358b565b915061349b8361358b565b9250827fffffffffffffffffffffffffffffffffffffffffffffffffffffffffffffffff038211156134d0576134cf613676565b5b828201905092915050565b60006134e68261358b565b91506134f18361358b565b92508282101561350457613503613676565b5b828203905092915050565b600061351a8261356b565b9050919050565b600061352c8261356b565b9050919050565b60008115159050919050565b60007fffffffff0000000000000000000000000000000000000000000000000000000082169050919050565b600073ffffffffffffffffffffffffffffffffffffffff82169050919050565b6000819050919050565b60006135a0826135a7565b9050919050565b60006135b28261356b565b9050919050565b82818337600083830152505050565b60005b838110156135e65780820151818401526020810190506135cb565b838111156135f5576000848401525b50505050565b6000600282049050600182168061361357607f821691505b60208210811415613627576136266136a5565b5b50919050565b60006136388261358b565b91507fffffffffffffffffffffffffffffffffffffffffffffffffffffffffffffffff82141561366b5761366a613676565b5b600182019050919050565b7f4e487b7100000000000000000000000000000000000000000000000000000000600052601160045260246000fd5b7f4e487b7100000000000000000000000000000000000000000000000000000000600052602260045260246000fd5b7f4e487b7100000000000000000000000000000000000000000000000000000000600052604160045260246000fd5b6000601f19601f8301169050919050565b60008160e01c9050919050565b600060443d1015613731576137d4565b60046000803e613742600051613714565b6308c379a0811461375357506137d4565b60405160043d036004823e80513d602482011167ffffffffffffffff8211171561377f575050506137d4565b808201805167ffffffffffffffff81111561379e5750505050506137d4565b8060208301013d85018111156137b9575050505050506137d4565b6137c282613703565b60208401016040528296505050505050505b90565b6137e08161350f565b81146137eb57600080fd5b50565b6137f781613533565b811461380257600080fd5b50565b61380e8161353f565b811461381957600080fd5b50565b6138258161358b565b811461383057600080fd5b5056fea2646970667358221220c2503e8257388b552e8e0fbb0d1f3093d23a83c50c0a1677d8dfa5ec4fdff65464736f6c63430008000033",
  "immutableReferences": {},
  "source": "// SPDX-License-Identifier: MIT\r\n\r\npragma solidity ^0.8.0;\r\nimport \"@openzeppelin/contracts/token/ERC1155/ERC1155.sol\";\r\n\r\ninterface UsdcToken {\r\n    function balanceOf(address tokenOwner) external view returns (uint balance);\r\n    function transfer(address to, uint tokens) external returns (bool success);\r\n    function transferFrom(address from, address to, uint tokens) external returns (bool success);\r\n    function approve(address spender, uint tokens) external returns (bool success);\r\n    function allowance(address tokenOwner, address spender) external view returns (uint remaining);\r\n}\r\n\r\ncontract ToknFactory is ERC1155{\r\n  \r\n    address payable public deployer;\r\n    uint public toknId;\r\n\r\n    // totalSupplies for every token\r\n    mapping(uint => uint) public totalSupplies;\r\n    mapping(uint => uint) public toknsAvailable;\r\n    // maps token id to metadata uri\r\n    mapping(uint => string) public toknIdToURI;\r\n\r\n    mapping(string => uint) public symbolToId;\r\n    \r\n    //maps artist to his investor token\r\n    mapping(address => uint[]) public artistTokns;\r\n    mapping(uint => address) public toknIdToArtist;\r\n   \r\n    // mapping(address => uint[]) public nftBalances;\r\n    mapping(uint => address[]) public addressTracker;\r\n\r\n    UsdcToken public usdc;\r\n    \r\n    constructor(string memory _platformURI) ERC1155(_platformURI){\r\n      deployer = payable(msg.sender);\r\n      usdc = UsdcToken(0x4DBCdF9B62e891a7cec5A2568C3F4FAF9E8Abe2b); //Rinkeby usdc address\r\n    }\r\n    \r\n    modifier isToknOwner(uint _id, address _addr){\r\n        require (toknIdToArtist[_id] == _addr);\r\n        _;\r\n    }\r\n    \r\n    //lets artist create his investor token\r\n    function createInvestorTokns(string memory _symbol, uint _amount, string memory _uri) public {\r\n        toknIdToArtist[++toknId] = msg.sender;\r\n        symbolToId[_symbol] = toknId;\r\n        artistTokns[msg.sender].push(toknId);\r\n        toknIdToURI[toknId] = _uri;\r\n        mintInvestorTokns(_amount, toknId);    \r\n    }\r\n    \r\n    //lets artists mint more of his investor tokens\r\n    function mintInvestorTokns(uint _amount, uint _toknId) public isToknOwner(_toknId, msg.sender){\r\n        _mint(msg.sender, _toknId, _amount, bytes(toknIdToURI[_toknId]));\r\n        totalSupplies[_toknId] += _amount;\r\n        toknsAvailable[_toknId] += _amount;\r\n    }\r\n    \r\n    function burnInvestorTokns(uint _amount, uint _toknId) public isToknOwner(_toknId, msg.sender){\r\n        _burn(msg.sender, _toknId, _amount);\r\n        totalSupplies[_toknId] -= _amount;\r\n        toknsAvailable[_toknId] -= _amount;\r\n    }    \r\n    \r\n    function returnAddressesForTokn(uint _id) public view returns(address[] memory){\r\n        return addressTracker[_id];\r\n    }\r\n    \r\n    function safeTransferFrom(\r\n        address from,\r\n        address to,\r\n        uint256 id,\r\n        uint256 amount,\r\n        bytes memory data\r\n    ) public override (ERC1155) {\r\n        require(\r\n            from == _msgSender() || isApprovedForAll(from, _msgSender()),\r\n            \"ERC1155: caller is not owner nor approved\"\r\n        );\r\n        _safeTransferFrom(from, to, id, amount, data);\r\n        addressTracker[id].push(to);\r\n    }\r\n\r\n}",
  "sourcePath": "C:\\Users\\sj931\\OneDrive\\Desktop\\Tokn\\alpha\\Tokn-alpha\\Alpha-Contracts\\contracts\\ToknFactory.sol",
  "compiler": {
    "name": "solc",
    "version": "0.8.0+commit.c7dfd78e.Emscripten.clang"
  },
  "schemaVersion": "3.4.3",
  "updatedAt": "2022-01-04T17:32:26.849Z",
  "networkType": "ethereum",
  "devdoc": {
    "kind": "dev",
    "methods": {
      "balanceOf(address,uint256)": {
        "details": "See {IERC1155-balanceOf}. Requirements: - `account` cannot be the zero address."
      },
      "balanceOfBatch(address[],uint256[])": {
        "details": "See {IERC1155-balanceOfBatch}. Requirements: - `accounts` and `ids` must have the same length."
      },
      "isApprovedForAll(address,address)": {
        "details": "See {IERC1155-isApprovedForAll}."
      },
      "safeBatchTransferFrom(address,address,uint256[],uint256[],bytes)": {
        "details": "See {IERC1155-safeBatchTransferFrom}."
      },
      "safeTransferFrom(address,address,uint256,uint256,bytes)": {
        "details": "See {IERC1155-safeTransferFrom}."
      },
      "setApprovalForAll(address,bool)": {
        "details": "See {IERC1155-setApprovalForAll}."
      },
      "supportsInterface(bytes4)": {
        "details": "See {IERC165-supportsInterface}."
      },
      "uri(uint256)": {
        "details": "See {IERC1155MetadataURI-uri}. This implementation returns the same URI for *all* token types. It relies on the token type ID substitution mechanism https://eips.ethereum.org/EIPS/eip-1155#metadata[defined in the EIP]. Clients calling this function must replace the `\\{id\\}` substring with the actual token type ID."
      }
    },
    "version": 1
  },
  "userdoc": {
    "kind": "user",
    "methods": {},
    "version": 1
  }
}