{
  "contractName": "ToknFactory",
  "abi": [
    {
      "inputs": [
        {
          "internalType": "string",
          "name": "_platformURI",
          "type": "string"
        }
      ],
      "stateMutability": "nonpayable",
      "type": "constructor"
    },
    {
      "anonymous": false,
      "inputs": [
        {
          "indexed": true,
          "internalType": "address",
          "name": "account",
          "type": "address"
        },
        {
          "indexed": true,
          "internalType": "address",
          "name": "operator",
          "type": "address"
        },
        {
          "indexed": false,
          "internalType": "bool",
          "name": "approved",
          "type": "bool"
        }
      ],
      "name": "ApprovalForAll",
      "type": "event"
    },
    {
      "anonymous": false,
      "inputs": [
        {
          "indexed": true,
          "internalType": "address",
          "name": "operator",
          "type": "address"
        },
        {
          "indexed": true,
          "internalType": "address",
          "name": "from",
          "type": "address"
        },
        {
          "indexed": true,
          "internalType": "address",
          "name": "to",
          "type": "address"
        },
        {
          "indexed": false,
          "internalType": "uint256[]",
          "name": "ids",
          "type": "uint256[]"
        },
        {
          "indexed": false,
          "internalType": "uint256[]",
          "name": "values",
          "type": "uint256[]"
        }
      ],
      "name": "TransferBatch",
      "type": "event"
    },
    {
      "anonymous": false,
      "inputs": [
        {
          "indexed": true,
          "internalType": "address",
          "name": "operator",
          "type": "address"
        },
        {
          "indexed": true,
          "internalType": "address",
          "name": "from",
          "type": "address"
        },
        {
          "indexed": true,
          "internalType": "address",
          "name": "to",
          "type": "address"
        },
        {
          "indexed": false,
          "internalType": "uint256",
          "name": "id",
          "type": "uint256"
        },
        {
          "indexed": false,
          "internalType": "uint256",
          "name": "value",
          "type": "uint256"
        }
      ],
      "name": "TransferSingle",
      "type": "event"
    },
    {
      "anonymous": false,
      "inputs": [
        {
          "indexed": false,
          "internalType": "string",
          "name": "value",
          "type": "string"
        },
        {
          "indexed": true,
          "internalType": "uint256",
          "name": "id",
          "type": "uint256"
        }
      ],
      "name": "URI",
      "type": "event"
    },
    {
      "inputs": [
        {
          "internalType": "uint256",
          "name": "",
          "type": "uint256"
        },
        {
          "internalType": "uint256",
          "name": "",
          "type": "uint256"
        }
      ],
      "name": "addressTracker",
      "outputs": [
        {
          "internalType": "address",
          "name": "",
          "type": "address"
        }
      ],
      "stateMutability": "view",
      "type": "function"
    },
    {
      "inputs": [
        {
          "internalType": "address",
          "name": "",
          "type": "address"
        },
        {
          "internalType": "uint256",
          "name": "",
          "type": "uint256"
        }
      ],
      "name": "artistTokns",
      "outputs": [
        {
          "internalType": "uint256",
          "name": "",
          "type": "uint256"
        }
      ],
      "stateMutability": "view",
      "type": "function"
    },
    {
      "inputs": [
        {
          "internalType": "address",
          "name": "account",
          "type": "address"
        },
        {
          "internalType": "uint256",
          "name": "id",
          "type": "uint256"
        }
      ],
      "name": "balanceOf",
      "outputs": [
        {
          "internalType": "uint256",
          "name": "",
          "type": "uint256"
        }
      ],
      "stateMutability": "view",
      "type": "function"
    },
    {
      "inputs": [
        {
          "internalType": "address[]",
          "name": "accounts",
          "type": "address[]"
        },
        {
          "internalType": "uint256[]",
          "name": "ids",
          "type": "uint256[]"
        }
      ],
      "name": "balanceOfBatch",
      "outputs": [
        {
          "internalType": "uint256[]",
          "name": "",
          "type": "uint256[]"
        }
      ],
      "stateMutability": "view",
      "type": "function"
    },
    {
      "inputs": [],
      "name": "deployer",
      "outputs": [
        {
          "internalType": "address payable",
          "name": "",
          "type": "address"
        }
      ],
      "stateMutability": "view",
      "type": "function"
    },
    {
      "inputs": [
        {
          "internalType": "address",
          "name": "account",
          "type": "address"
        },
        {
          "internalType": "address",
          "name": "operator",
          "type": "address"
        }
      ],
      "name": "isApprovedForAll",
      "outputs": [
        {
          "internalType": "bool",
          "name": "",
          "type": "bool"
        }
      ],
      "stateMutability": "view",
      "type": "function"
    },
    {
      "inputs": [
        {
          "internalType": "address",
          "name": "from",
          "type": "address"
        },
        {
          "internalType": "address",
          "name": "to",
          "type": "address"
        },
        {
          "internalType": "uint256[]",
          "name": "ids",
          "type": "uint256[]"
        },
        {
          "internalType": "uint256[]",
          "name": "amounts",
          "type": "uint256[]"
        },
        {
          "internalType": "bytes",
          "name": "data",
          "type": "bytes"
        }
      ],
      "name": "safeBatchTransferFrom",
      "outputs": [],
      "stateMutability": "nonpayable",
      "type": "function"
    },
    {
      "inputs": [
        {
          "internalType": "address",
          "name": "operator",
          "type": "address"
        },
        {
          "internalType": "bool",
          "name": "approved",
          "type": "bool"
        }
      ],
      "name": "setApprovalForAll",
      "outputs": [],
      "stateMutability": "nonpayable",
      "type": "function"
    },
    {
      "inputs": [
        {
          "internalType": "bytes4",
          "name": "interfaceId",
          "type": "bytes4"
        }
      ],
      "name": "supportsInterface",
      "outputs": [
        {
          "internalType": "bool",
          "name": "",
          "type": "bool"
        }
      ],
      "stateMutability": "view",
      "type": "function"
    },
    {
      "inputs": [
        {
          "internalType": "string",
          "name": "",
          "type": "string"
        }
      ],
      "name": "symbolToId",
      "outputs": [
        {
          "internalType": "uint256",
          "name": "",
          "type": "uint256"
        }
      ],
      "stateMutability": "view",
      "type": "function"
    },
    {
      "inputs": [],
      "name": "toknId",
      "outputs": [
        {
          "internalType": "uint256",
          "name": "",
          "type": "uint256"
        }
      ],
      "stateMutability": "view",
      "type": "function"
    },
    {
      "inputs": [
        {
          "internalType": "uint256",
          "name": "",
          "type": "uint256"
        }
      ],
      "name": "toknIdToArtist",
      "outputs": [
        {
          "internalType": "address",
          "name": "",
          "type": "address"
        }
      ],
      "stateMutability": "view",
      "type": "function"
    },
    {
      "inputs": [
        {
          "internalType": "uint256",
          "name": "",
          "type": "uint256"
        }
      ],
      "name": "toknIdToURI",
      "outputs": [
        {
          "internalType": "string",
          "name": "",
          "type": "string"
        }
      ],
      "stateMutability": "view",
      "type": "function"
    },
    {
      "inputs": [
        {
          "internalType": "uint256",
          "name": "",
          "type": "uint256"
        }
      ],
      "name": "totalSupplies",
      "outputs": [
        {
          "internalType": "uint256",
          "name": "",
          "type": "uint256"
        }
      ],
      "stateMutability": "view",
      "type": "function"
    },
    {
      "inputs": [
        {
          "internalType": "uint256",
          "name": "",
          "type": "uint256"
        }
      ],
      "name": "uri",
      "outputs": [
        {
          "internalType": "string",
          "name": "",
          "type": "string"
        }
      ],
      "stateMutability": "view",
      "type": "function"
    },
    {
      "inputs": [],
      "name": "usdc",
      "outputs": [
        {
          "internalType": "contract UsdcToken",
          "name": "",
          "type": "address"
        }
      ],
      "stateMutability": "view",
      "type": "function"
    },
    {
      "inputs": [
        {
          "internalType": "string",
          "name": "_symbol",
          "type": "string"
        },
        {
          "internalType": "uint256",
          "name": "_amount",
          "type": "uint256"
        },
        {
          "internalType": "string",
          "name": "_uri",
          "type": "string"
        }
      ],
      "name": "createInvestorTokns",
      "outputs": [],
      "stateMutability": "nonpayable",
      "type": "function"
    },
    {
      "inputs": [
        {
          "internalType": "uint256",
          "name": "_amount",
          "type": "uint256"
        },
        {
          "internalType": "uint256",
          "name": "_toknId",
          "type": "uint256"
        }
      ],
      "name": "mintInvestorTokns",
      "outputs": [],
      "stateMutability": "nonpayable",
      "type": "function"
    },
    {
      "inputs": [
        {
          "internalType": "uint256",
          "name": "_amount",
          "type": "uint256"
        },
        {
          "internalType": "uint256",
          "name": "_toknId",
          "type": "uint256"
        }
      ],
      "name": "burnInvestorTokns",
      "outputs": [],
      "stateMutability": "nonpayable",
      "type": "function"
    },
    {
      "inputs": [
        {
          "internalType": "uint256",
          "name": "_id",
          "type": "uint256"
        }
      ],
      "name": "returnAddressesForTokn",
      "outputs": [
        {
          "internalType": "address[]",
          "name": "",
          "type": "address[]"
        }
      ],
      "stateMutability": "view",
      "type": "function"
    },
    {
      "inputs": [
        {
          "internalType": "address",
          "name": "from",
          "type": "address"
        },
        {
          "internalType": "address",
          "name": "to",
          "type": "address"
        },
        {
          "internalType": "uint256",
          "name": "id",
          "type": "uint256"
        },
        {
          "internalType": "uint256",
          "name": "amount",
          "type": "uint256"
        },
        {
          "internalType": "bytes",
          "name": "data",
          "type": "bytes"
        }
      ],
      "name": "safeTransferFrom",
      "outputs": [],
      "stateMutability": "nonpayable",
      "type": "function"
    }
  ],
  "bytecode": "0x60806040523480156200001157600080fd5b5060405162003b6d38038062003b6d833981810160405281019062000037919062000225565b806200004981620000e760201b60201c565b5033600360006101000a81548173ffffffffffffffffffffffffffffffffffffffff021916908373ffffffffffffffffffffffffffffffffffffffff160217905550734dbcdf9b62e891a7cec5a2568c3f4faf9e8abe2b600b60006101000a81548173ffffffffffffffffffffffffffffffffffffffff021916908373ffffffffffffffffffffffffffffffffffffffff160217905550506200039b565b8060029080519060200190620000ff92919062000103565b5050565b828054620001119062000307565b90600052602060002090601f01602090048101928262000135576000855562000181565b82601f106200015057805160ff191683800117855562000181565b8280016001018555821562000181579182015b828111156200018057825182559160200191906001019062000163565b5b50905062000190919062000194565b5090565b5b80821115620001af57600081600090555060010162000195565b5090565b6000620001ca620001c4846200029e565b6200026a565b905082815260208101848484011115620001e357600080fd5b620001f0848285620002d1565b509392505050565b600082601f8301126200020a57600080fd5b81516200021c848260208601620001b3565b91505092915050565b6000602082840312156200023857600080fd5b600082015167ffffffffffffffff8111156200025357600080fd5b6200026184828501620001f8565b91505092915050565b6000604051905081810181811067ffffffffffffffff821117156200029457620002936200036c565b5b8060405250919050565b600067ffffffffffffffff821115620002bc57620002bb6200036c565b5b601f19601f8301169050602081019050919050565b60005b83811015620002f1578082015181840152602081019050620002d4565b8381111562000301576000848401525b50505050565b600060028204905060018216806200032057607f821691505b602082108114156200033757620003366200033d565b5b50919050565b7f4e487b7100000000000000000000000000000000000000000000000000000000600052602260045260246000fd5b7f4e487b7100000000000000000000000000000000000000000000000000000000600052604160045260246000fd5b6137c280620003ab6000396000f3fe608060405234801561001057600080fd5b50600436106101365760003560e01c8063700a451b116100b8578063c4f899db1161007c578063c4f899db146103a9578063ce290c37146103c5578063d5f39488146103e3578063e6253d4014610401578063e985e9c514610431578063f242432a1461046157610136565b8063700a451b146102cd57806372ed8a5d146102fd578063a22cb4651461032d578063a35d5ef914610349578063b54fa4741461037957610136565b80632eb2c2d6116100ff5780632eb2c2d61461022b57806330a071f714610247578063338012e5146102635780633e413bee1461027f5780634e1273f41461029d57610136565b8062fdd58e1461013b57806301ffc9a71461016b57806305e1e18d1461019b5780630e89341c146101cb57806318adc582146101fb575b600080fd5b61015560048036038101906101509190612535565b61047d565b60405161016291906131fc565b60405180910390f35b610185600480360381019061018091906125dd565b610546565b6040516101929190613004565b60405180910390f35b6101b560048036038101906101b09190612535565b610628565b6040516101c291906131fc565b60405180910390f35b6101e560048036038101906101e091906126ef565b610659565b6040516101f2919061303a565b60405180910390f35b61021560048036038101906102109190612718565b6106ed565b6040516102229190612e91565b60405180910390f35b610245600480360381019061024091906123ab565b61073b565b005b610261600480360381019061025c9190612718565b6107dc565b005b61027d60048036038101906102789190612718565b610884565b005b6102876109c8565b604051610294919061301f565b60405180910390f35b6102b760048036038101906102b29190612571565b6109ee565b6040516102c49190612fab565b60405180910390f35b6102e760048036038101906102e2919061262f565b610b9f565b6040516102f491906131fc565b60405180910390f35b610317600480360381019061031291906126ef565b610bcd565b604051610324919061303a565b60405180910390f35b610347600480360381019061034291906124f9565b610c6d565b005b610363600480360381019061035e91906126ef565b610c83565b6040516103709190612f89565b60405180910390f35b610393600480360381019061038e91906126ef565b610d24565b6040516103a091906131fc565b60405180910390f35b6103c360048036038101906103be9190612670565b610d3c565b005b6103cd610e6a565b6040516103da91906131fc565b60405180910390f35b6103eb610e70565b6040516103f89190612eac565b60405180910390f35b61041b600480360381019061041691906126ef565b610e96565b6040516104289190612e91565b60405180910390f35b61044b6004803603810190610446919061236f565b610ec9565b6040516104589190613004565b60405180910390f35b61047b6004803603810190610476919061246a565b610f5d565b005b60008073ffffffffffffffffffffffffffffffffffffffff168373ffffffffffffffffffffffffffffffffffffffff1614156104ee576040517f08c379a00000000000000000000000000000000000000000000000000000000081526004016104e59061309c565b60405180910390fd5b60008083815260200190815260200160002060008473ffffffffffffffffffffffffffffffffffffffff1673ffffffffffffffffffffffffffffffffffffffff16815260200190815260200160002054905092915050565b60007fd9b67a26000000000000000000000000000000000000000000000000000000007bffffffffffffffffffffffffffffffffffffffffffffffffffffffff1916827bffffffffffffffffffffffffffffffffffffffffffffffffffffffff1916148061061157507f0e89341c000000000000000000000000000000000000000000000000000000007bffffffffffffffffffffffffffffffffffffffffffffffffffffffff1916827bffffffffffffffffffffffffffffffffffffffffffffffffffffffff1916145b80610621575061062082611072565b5b9050919050565b6008602052816000526040600020818154811061064457600080fd5b90600052602060002001600091509150505481565b60606002805461066890613554565b80601f016020809104026020016040519081016040528092919081815260200182805461069490613554565b80156106e15780601f106106b6576101008083540402835291602001916106e1565b820191906000526020600020905b8154815290600101906020018083116106c457829003601f168201915b50505050509050919050565b600a602052816000526040600020818154811061070957600080fd5b906000526020600020016000915091509054906101000a900473ffffffffffffffffffffffffffffffffffffffff1681565b6107436110dc565b73ffffffffffffffffffffffffffffffffffffffff168573ffffffffffffffffffffffffffffffffffffffff1614806107895750610788856107836110dc565b610ec9565b5b6107c8576040517f08c379a00000000000000000000000000000000000000000000000000000000081526004016107bf9061311c565b60405180910390fd5b6107d585858585856110e4565b5050505050565b80338073ffffffffffffffffffffffffffffffffffffffff166009600084815260200190815260200160002060009054906101000a900473ffffffffffffffffffffffffffffffffffffffff1673ffffffffffffffffffffffffffffffffffffffff161461084957600080fd5b610854338486611444565b836005600085815260200190815260200160002060008282546108779190613434565b9250508190555050505050565b80338073ffffffffffffffffffffffffffffffffffffffff166009600084815260200190815260200160002060009054906101000a900473ffffffffffffffffffffffffffffffffffffffff1673ffffffffffffffffffffffffffffffffffffffff16146108f157600080fd5b61099833848660066000888152602001908152602001600020805461091590613554565b80601f016020809104026020016040519081016040528092919081815260200182805461094190613554565b801561098e5780601f106109635761010080835404028352916020019161098e565b820191906000526020600020905b81548152906001019060200180831161097157829003601f168201915b5050505050611661565b836005600085815260200190815260200160002060008282546109bb91906133de565b9250508190555050505050565b600b60009054906101000a900473ffffffffffffffffffffffffffffffffffffffff1681565b60608151835114610a34576040517f08c379a0000000000000000000000000000000000000000000000000000000008152600401610a2b9061319c565b60405180910390fd5b6000835167ffffffffffffffff811115610a77577f4e487b7100000000000000000000000000000000000000000000000000000000600052604160045260246000fd5b604051908082528060200260200182016040528015610aa55781602001602082028036833780820191505090505b50905060005b8451811015610b9457610b3e858281518110610af0577f4e487b7100000000000000000000000000000000000000000000000000000000600052603260045260246000fd5b6020026020010151858381518110610b31577f4e487b7100000000000000000000000000000000000000000000000000000000600052603260045260246000fd5b602002602001015161047d565b828281518110610b77577f4e487b7100000000000000000000000000000000000000000000000000000000600052603260045260246000fd5b60200260200101818152505080610b8d90613586565b9050610aab565b508091505092915050565b6007818051602081018201805184825260208301602085012081835280955050505050506000915090505481565b60066020528060005260406000206000915090508054610bec90613554565b80601f0160208091040260200160405190810160405280929190818152602001828054610c1890613554565b8015610c655780601f10610c3a57610100808354040283529160200191610c65565b820191906000526020600020905b815481529060010190602001808311610c4857829003601f168201915b505050505081565b610c7f610c786110dc565b83836117f7565b5050565b6060600a6000838152602001908152602001600020805480602002602001604051908101604052809291908181526020018280548015610d1857602002820191906000526020600020905b8160009054906101000a900473ffffffffffffffffffffffffffffffffffffffff1673ffffffffffffffffffffffffffffffffffffffff1681526020019060010190808311610cce575b50505050509050919050565b60056020528060005260406000206000915090505481565b3360096000600460008154610d5090613586565b919050819055815260200190815260200160002060006101000a81548173ffffffffffffffffffffffffffffffffffffffff021916908373ffffffffffffffffffffffffffffffffffffffff160217905550600454600784604051610db59190612e7a565b908152602001604051809103902081905550600860003373ffffffffffffffffffffffffffffffffffffffff1673ffffffffffffffffffffffffffffffffffffffff1681526020019081526020016000206004549080600181540180825580915050600190039060005260206000200160009091909190915055806006600060045481526020019081526020016000209080519060200190610e58929190612067565b50610e6582600454610884565b505050565b60045481565b600360009054906101000a900473ffffffffffffffffffffffffffffffffffffffff1681565b60096020528060005260406000206000915054906101000a900473ffffffffffffffffffffffffffffffffffffffff1681565b6000600160008473ffffffffffffffffffffffffffffffffffffffff1673ffffffffffffffffffffffffffffffffffffffff16815260200190815260200160002060008373ffffffffffffffffffffffffffffffffffffffff1673ffffffffffffffffffffffffffffffffffffffff16815260200190815260200160002060009054906101000a900460ff16905092915050565b610f656110dc565b73ffffffffffffffffffffffffffffffffffffffff168573ffffffffffffffffffffffffffffffffffffffff161480610fab5750610faa85610fa56110dc565b610ec9565b5b610fea576040517f08c379a0000000000000000000000000000000000000000000000000000000008152600401610fe1906130dc565b60405180910390fd5b610ff78585858585611964565b600a6000848152602001908152602001600020849080600181540180825580915050600190039060005260206000200160009091909190916101000a81548173ffffffffffffffffffffffffffffffffffffffff021916908373ffffffffffffffffffffffffffffffffffffffff1602179055505050505050565b60007f01ffc9a7000000000000000000000000000000000000000000000000000000007bffffffffffffffffffffffffffffffffffffffffffffffffffffffff1916827bffffffffffffffffffffffffffffffffffffffffffffffffffffffff1916149050919050565b600033905090565b8151835114611128576040517f08c379a000000000000000000000000000000000000000000000000000000000815260040161111f906131bc565b60405180910390fd5b600073ffffffffffffffffffffffffffffffffffffffff168473ffffffffffffffffffffffffffffffffffffffff161415611198576040517f08c379a000000000000000000000000000000000000000000000000000000000815260040161118f906130fc565b60405180910390fd5b60006111a26110dc565b90506111b2818787878787611be6565b60005b84518110156113af5760008582815181106111f9577f4e487b7100000000000000000000000000000000000000000000000000000000600052603260045260246000fd5b60200260200101519050600085838151811061123e577f4e487b7100000000000000000000000000000000000000000000000000000000600052603260045260246000fd5b60200260200101519050600080600084815260200190815260200160002060008b73ffffffffffffffffffffffffffffffffffffffff1673ffffffffffffffffffffffffffffffffffffffff168152602001908152602001600020549050818110156112df576040517f08c379a00000000000000000000000000000000000000000000000000000000081526004016112d69061315c565b60405180910390fd5b81810360008085815260200190815260200160002060008c73ffffffffffffffffffffffffffffffffffffffff1673ffffffffffffffffffffffffffffffffffffffff168152602001908152602001600020819055508160008085815260200190815260200160002060008b73ffffffffffffffffffffffffffffffffffffffff1673ffffffffffffffffffffffffffffffffffffffff168152602001908152602001600020600082825461139491906133de565b92505081905550505050806113a890613586565b90506111b5565b508473ffffffffffffffffffffffffffffffffffffffff168673ffffffffffffffffffffffffffffffffffffffff168273ffffffffffffffffffffffffffffffffffffffff167f4a39dc06d4c0dbc64b70af90fd698a233a518aa5d07e595d983b8c0526c8f7fb8787604051611426929190612fcd565b60405180910390a461143c818787878787611bee565b505050505050565b600073ffffffffffffffffffffffffffffffffffffffff168373ffffffffffffffffffffffffffffffffffffffff1614156114b4576040517f08c379a00000000000000000000000000000000000000000000000000000000081526004016114ab9061313c565b60405180910390fd5b60006114be6110dc565b90506114ee818560006114d087611dbe565b6114d987611dbe565b60405180602001604052806000815250611be6565b600080600085815260200190815260200160002060008673ffffffffffffffffffffffffffffffffffffffff1673ffffffffffffffffffffffffffffffffffffffff16815260200190815260200160002054905082811015611585576040517f08c379a000000000000000000000000000000000000000000000000000000000815260040161157c906130bc565b60405180910390fd5b82810360008086815260200190815260200160002060008773ffffffffffffffffffffffffffffffffffffffff1673ffffffffffffffffffffffffffffffffffffffff16815260200190815260200160002081905550600073ffffffffffffffffffffffffffffffffffffffff168573ffffffffffffffffffffffffffffffffffffffff168373ffffffffffffffffffffffffffffffffffffffff167fc3d58168c5ae7397731d063d5bbf3d657854427343f4c083240f7aacaa2d0f628787604051611652929190613217565b60405180910390a45050505050565b600073ffffffffffffffffffffffffffffffffffffffff168473ffffffffffffffffffffffffffffffffffffffff1614156116d1576040517f08c379a00000000000000000000000000000000000000000000000000000000081526004016116c8906131dc565b60405180910390fd5b60006116db6110dc565b90506116fc816000876116ed88611dbe565b6116f688611dbe565b87611be6565b8260008086815260200190815260200160002060008773ffffffffffffffffffffffffffffffffffffffff1673ffffffffffffffffffffffffffffffffffffffff168152602001908152602001600020600082825461175b91906133de565b925050819055508473ffffffffffffffffffffffffffffffffffffffff16600073ffffffffffffffffffffffffffffffffffffffff168273ffffffffffffffffffffffffffffffffffffffff167fc3d58168c5ae7397731d063d5bbf3d657854427343f4c083240f7aacaa2d0f6287876040516117d9929190613217565b60405180910390a46117f081600087878787611e84565b5050505050565b8173ffffffffffffffffffffffffffffffffffffffff168373ffffffffffffffffffffffffffffffffffffffff161415611866576040517f08c379a000000000000000000000000000000000000000000000000000000000815260040161185d9061317c565b60405180910390fd5b80600160008573ffffffffffffffffffffffffffffffffffffffff1673ffffffffffffffffffffffffffffffffffffffff16815260200190815260200160002060008473ffffffffffffffffffffffffffffffffffffffff1673ffffffffffffffffffffffffffffffffffffffff16815260200190815260200160002060006101000a81548160ff0219169083151502179055508173ffffffffffffffffffffffffffffffffffffffff168373ffffffffffffffffffffffffffffffffffffffff167f17307eab39ab6107e8899845ad3d59bd9653f200f220920489ca2b5937696c31836040516119579190613004565b60405180910390a3505050565b600073ffffffffffffffffffffffffffffffffffffffff168473ffffffffffffffffffffffffffffffffffffffff1614156119d4576040517f08c379a00000000000000000000000000000000000000000000000000000000081526004016119cb906130fc565b60405180910390fd5b60006119de6110dc565b90506119fe8187876119ef88611dbe565b6119f888611dbe565b87611be6565b600080600086815260200190815260200160002060008873ffffffffffffffffffffffffffffffffffffffff1673ffffffffffffffffffffffffffffffffffffffff16815260200190815260200160002054905083811015611a95576040517f08c379a0000000000000000000000000000000000000000000000000000000008152600401611a8c9061315c565b60405180910390fd5b83810360008087815260200190815260200160002060008973ffffffffffffffffffffffffffffffffffffffff1673ffffffffffffffffffffffffffffffffffffffff168152602001908152602001600020819055508360008087815260200190815260200160002060008873ffffffffffffffffffffffffffffffffffffffff1673ffffffffffffffffffffffffffffffffffffffff1681526020019081526020016000206000828254611b4a91906133de565b925050819055508573ffffffffffffffffffffffffffffffffffffffff168773ffffffffffffffffffffffffffffffffffffffff168373ffffffffffffffffffffffffffffffffffffffff167fc3d58168c5ae7397731d063d5bbf3d657854427343f4c083240f7aacaa2d0f628888604051611bc7929190613217565b60405180910390a4611bdd828888888888611e84565b50505050505050565b505050505050565b611c0d8473ffffffffffffffffffffffffffffffffffffffff16612054565b15611db6578373ffffffffffffffffffffffffffffffffffffffff1663bc197c8187878686866040518663ffffffff1660e01b8152600401611c53959493929190612ec7565b602060405180830381600087803b158015611c6d57600080fd5b505af1925050508015611c9e57506040513d601f19601f82011682018060405250810190611c9b9190612606565b60015b611d2d57611caa61367a565b80611cb55750611cf2565b806040517f08c379a0000000000000000000000000000000000000000000000000000000008152600401611ce9919061303a565b60405180910390fd5b6040517f08c379a0000000000000000000000000000000000000000000000000000000008152600401611d249061305c565b60405180910390fd5b63bc197c8160e01b7bffffffffffffffffffffffffffffffffffffffffffffffffffffffff1916817bffffffffffffffffffffffffffffffffffffffffffffffffffffffff191614611db4576040517f08c379a0000000000000000000000000000000000000000000000000000000008152600401611dab9061307c565b60405180910390fd5b505b505050505050565b60606000600167ffffffffffffffff811115611e03577f4e487b7100000000000000000000000000000000000000000000000000000000600052604160045260246000fd5b604051908082528060200260200182016040528015611e315781602001602082028036833780820191505090505b5090508281600081518110611e6f577f4e487b7100000000000000000000000000000000000000000000000000000000600052603260045260246000fd5b60200260200101818152505080915050919050565b611ea38473ffffffffffffffffffffffffffffffffffffffff16612054565b1561204c578373ffffffffffffffffffffffffffffffffffffffff1663f23a6e6187878686866040518663ffffffff1660e01b8152600401611ee9959493929190612f2f565b602060405180830381600087803b158015611f0357600080fd5b505af1925050508015611f3457506040513d601f19601f82011682018060405250810190611f319190612606565b60015b611fc357611f4061367a565b80611f4b5750611f88565b806040517f08c379a0000000000000000000000000000000000000000000000000000000008152600401611f7f919061303a565b60405180910390fd5b6040517f08c379a0000000000000000000000000000000000000000000000000000000008152600401611fba9061305c565b60405180910390fd5b63f23a6e6160e01b7bffffffffffffffffffffffffffffffffffffffffffffffffffffffff1916817bffffffffffffffffffffffffffffffffffffffffffffffffffffffff19161461204a576040517f08c379a00000000000000000000000000000000000000000000000000000000081526004016120419061307c565b60405180910390fd5b505b505050505050565b600080823b905060008111915050919050565b82805461207390613554565b90600052602060002090601f01602090048101928261209557600085556120dc565b82601f106120ae57805160ff19168380011785556120dc565b828001600101855582156120dc579182015b828111156120db5782518255916020019190600101906120c0565b5b5090506120e991906120ed565b5090565b5b808211156121065760008160009055506001016120ee565b5090565b600061211d61211884613271565b613240565b9050808382526020820190508285602086028201111561213c57600080fd5b60005b8581101561216c5781612152888261225e565b84526020840193506020830192505060018101905061213f565b5050509392505050565b60006121896121848461329d565b613240565b905080838252602082019050828560208602820111156121a857600080fd5b60005b858110156121d857816121be888261235a565b8452602084019350602083019250506001810190506121ab565b5050509392505050565b60006121f56121f0846132c9565b613240565b90508281526020810184848401111561220d57600080fd5b612218848285613512565b509392505050565b600061223361222e846132f9565b613240565b90508281526020810184848401111561224b57600080fd5b612256848285613512565b509392505050565b60008135905061226d81613730565b92915050565b600082601f83011261228457600080fd5b813561229484826020860161210a565b91505092915050565b600082601f8301126122ae57600080fd5b81356122be848260208601612176565b91505092915050565b6000813590506122d681613747565b92915050565b6000813590506122eb8161375e565b92915050565b6000815190506123008161375e565b92915050565b600082601f83011261231757600080fd5b81356123278482602086016121e2565b91505092915050565b600082601f83011261234157600080fd5b8135612351848260208601612220565b91505092915050565b60008135905061236981613775565b92915050565b6000806040838503121561238257600080fd5b60006123908582860161225e565b92505060206123a18582860161225e565b9150509250929050565b600080600080600060a086880312156123c357600080fd5b60006123d18882890161225e565b95505060206123e28882890161225e565b945050604086013567ffffffffffffffff8111156123ff57600080fd5b61240b8882890161229d565b935050606086013567ffffffffffffffff81111561242857600080fd5b6124348882890161229d565b925050608086013567ffffffffffffffff81111561245157600080fd5b61245d88828901612306565b9150509295509295909350565b600080600080600060a0868803121561248257600080fd5b60006124908882890161225e565b95505060206124a18882890161225e565b94505060406124b28882890161235a565b93505060606124c38882890161235a565b925050608086013567ffffffffffffffff8111156124e057600080fd5b6124ec88828901612306565b9150509295509295909350565b6000806040838503121561250c57600080fd5b600061251a8582860161225e565b925050602061252b858286016122c7565b9150509250929050565b6000806040838503121561254857600080fd5b60006125568582860161225e565b92505060206125678582860161235a565b9150509250929050565b6000806040838503121561258457600080fd5b600083013567ffffffffffffffff81111561259e57600080fd5b6125aa85828601612273565b925050602083013567ffffffffffffffff8111156125c757600080fd5b6125d38582860161229d565b9150509250929050565b6000602082840312156125ef57600080fd5b60006125fd848285016122dc565b91505092915050565b60006020828403121561261857600080fd5b6000612626848285016122f1565b91505092915050565b60006020828403121561264157600080fd5b600082013567ffffffffffffffff81111561265b57600080fd5b61266784828501612330565b91505092915050565b60008060006060848603121561268557600080fd5b600084013567ffffffffffffffff81111561269f57600080fd5b6126ab86828701612330565b93505060206126bc8682870161235a565b925050604084013567ffffffffffffffff8111156126d957600080fd5b6126e586828701612330565b9150509250925092565b60006020828403121561270157600080fd5b600061270f8482850161235a565b91505092915050565b6000806040838503121561272b57600080fd5b60006127398582860161235a565b925050602061274a8582860161235a565b9150509250929050565b60006127608383612793565b60208301905092915050565b60006127788383612e5c565b60208301905092915050565b61278d8161347a565b82525050565b61279c81613468565b82525050565b6127ab81613468565b82525050565b60006127bc82613349565b6127c6818561338f565b93506127d183613329565b8060005b838110156128025781516127e98882612754565b97506127f483613375565b9250506001810190506127d5565b5085935050505092915050565b600061281a82613354565b61282481856133a0565b935061282f83613339565b8060005b83811015612860578151612847888261276c565b975061285283613382565b925050600181019050612833565b5085935050505092915050565b6128768161348c565b82525050565b60006128878261335f565b61289181856133b1565b93506128a1818560208601613521565b6128aa8161365c565b840191505092915050565b6128be816134ee565b82525050565b60006128cf8261336a565b6128d981856133c2565b93506128e9818560208601613521565b6128f28161365c565b840191505092915050565b60006129088261336a565b61291281856133d3565b9350612922818560208601613521565b80840191505092915050565b600061293b6034836133c2565b91507f455243313135353a207472616e7366657220746f206e6f6e204552433131353560008301527f526563656976657220696d706c656d656e7465720000000000000000000000006020830152604082019050919050565b60006129a16028836133c2565b91507f455243313135353a204552433131353552656365697665722072656a6563746560008301527f6420746f6b656e730000000000000000000000000000000000000000000000006020830152604082019050919050565b6000612a07602b836133c2565b91507f455243313135353a2062616c616e636520717565727920666f7220746865207a60008301527f65726f20616464726573730000000000000000000000000000000000000000006020830152604082019050919050565b6000612a6d6024836133c2565b91507f455243313135353a206275726e20616d6f756e7420657863656564732062616c60008301527f616e6365000000000000000000000000000000000000000000000000000000006020830152604082019050919050565b6000612ad36029836133c2565b91507f455243313135353a2063616c6c6572206973206e6f74206f776e6572206e6f7260008301527f20617070726f76656400000000000000000000000000000000000000000000006020830152604082019050919050565b6000612b396025836133c2565b91507f455243313135353a207472616e7366657220746f20746865207a65726f20616460008301527f64726573730000000000000000000000000000000000000000000000000000006020830152604082019050919050565b6000612b9f6032836133c2565b91507f455243313135353a207472616e736665722063616c6c6572206973206e6f742060008301527f6f776e6572206e6f7220617070726f76656400000000000000000000000000006020830152604082019050919050565b6000612c056023836133c2565b91507f455243313135353a206275726e2066726f6d20746865207a65726f206164647260008301527f65737300000000000000000000000000000000000000000000000000000000006020830152604082019050919050565b6000612c6b602a836133c2565b91507f455243313135353a20696e73756666696369656e742062616c616e636520666f60008301527f72207472616e73666572000000000000000000000000000000000000000000006020830152604082019050919050565b6000612cd16029836133c2565b91507f455243313135353a2073657474696e6720617070726f76616c2073746174757360008301527f20666f722073656c6600000000000000000000000000000000000000000000006020830152604082019050919050565b6000612d376029836133c2565b91507f455243313135353a206163636f756e747320616e6420696473206c656e67746860008301527f206d69736d6174636800000000000000000000000000000000000000000000006020830152604082019050919050565b6000612d9d6028836133c2565b91507f455243313135353a2069647320616e6420616d6f756e7473206c656e6774682060008301527f6d69736d617463680000000000000000000000000000000000000000000000006020830152604082019050919050565b6000612e036021836133c2565b91507f455243313135353a206d696e7420746f20746865207a65726f2061646472657360008301527f73000000000000000000000000000000000000000000000000000000000000006020830152604082019050919050565b612e65816134e4565b82525050565b612e74816134e4565b82525050565b6000612e8682846128fd565b915081905092915050565b6000602082019050612ea660008301846127a2565b92915050565b6000602082019050612ec16000830184612784565b92915050565b600060a082019050612edc60008301886127a2565b612ee960208301876127a2565b8181036040830152612efb818661280f565b90508181036060830152612f0f818561280f565b90508181036080830152612f23818461287c565b90509695505050505050565b600060a082019050612f4460008301886127a2565b612f5160208301876127a2565b612f5e6040830186612e6b565b612f6b6060830185612e6b565b8181036080830152612f7d818461287c565b90509695505050505050565b60006020820190508181036000830152612fa381846127b1565b905092915050565b60006020820190508181036000830152612fc5818461280f565b905092915050565b60006040820190508181036000830152612fe7818561280f565b90508181036020830152612ffb818461280f565b90509392505050565b6000602082019050613019600083018461286d565b92915050565b600060208201905061303460008301846128b5565b92915050565b6000602082019050818103600083015261305481846128c4565b905092915050565b600060208201905081810360008301526130758161292e565b9050919050565b6000602082019050818103600083015261309581612994565b9050919050565b600060208201905081810360008301526130b5816129fa565b9050919050565b600060208201905081810360008301526130d581612a60565b9050919050565b600060208201905081810360008301526130f581612ac6565b9050919050565b6000602082019050818103600083015261311581612b2c565b9050919050565b6000602082019050818103600083015261313581612b92565b9050919050565b6000602082019050818103600083015261315581612bf8565b9050919050565b6000602082019050818103600083015261317581612c5e565b9050919050565b6000602082019050818103600083015261319581612cc4565b9050919050565b600060208201905081810360008301526131b581612d2a565b9050919050565b600060208201905081810360008301526131d581612d90565b9050919050565b600060208201905081810360008301526131f581612df6565b9050919050565b60006020820190506132116000830184612e6b565b92915050565b600060408201905061322c6000830185612e6b565b6132396020830184612e6b565b9392505050565b6000604051905081810181811067ffffffffffffffff821117156132675761326661362d565b5b8060405250919050565b600067ffffffffffffffff82111561328c5761328b61362d565b5b602082029050602081019050919050565b600067ffffffffffffffff8211156132b8576132b761362d565b5b602082029050602081019050919050565b600067ffffffffffffffff8211156132e4576132e361362d565b5b601f19601f8301169050602081019050919050565b600067ffffffffffffffff8211156133145761331361362d565b5b601f19601f8301169050602081019050919050565b6000819050602082019050919050565b6000819050602082019050919050565b600081519050919050565b600081519050919050565b600081519050919050565b600081519050919050565b6000602082019050919050565b6000602082019050919050565b600082825260208201905092915050565b600082825260208201905092915050565b600082825260208201905092915050565b600082825260208201905092915050565b600081905092915050565b60006133e9826134e4565b91506133f4836134e4565b9250827fffffffffffffffffffffffffffffffffffffffffffffffffffffffffffffffff03821115613429576134286135cf565b5b828201905092915050565b600061343f826134e4565b915061344a836134e4565b92508282101561345d5761345c6135cf565b5b828203905092915050565b6000613473826134c4565b9050919050565b6000613485826134c4565b9050919050565b60008115159050919050565b60007fffffffff0000000000000000000000000000000000000000000000000000000082169050919050565b600073ffffffffffffffffffffffffffffffffffffffff82169050919050565b6000819050919050565b60006134f982613500565b9050919050565b600061350b826134c4565b9050919050565b82818337600083830152505050565b60005b8381101561353f578082015181840152602081019050613524565b8381111561354e576000848401525b50505050565b6000600282049050600182168061356c57607f821691505b602082108114156135805761357f6135fe565b5b50919050565b6000613591826134e4565b91507fffffffffffffffffffffffffffffffffffffffffffffffffffffffffffffffff8214156135c4576135c36135cf565b5b600182019050919050565b7f4e487b7100000000000000000000000000000000000000000000000000000000600052601160045260246000fd5b7f4e487b7100000000000000000000000000000000000000000000000000000000600052602260045260246000fd5b7f4e487b7100000000000000000000000000000000000000000000000000000000600052604160045260246000fd5b6000601f19601f8301169050919050565b60008160e01c9050919050565b600060443d101561368a5761372d565b60046000803e61369b60005161366d565b6308c379a081146136ac575061372d565b60405160043d036004823e80513d602482011167ffffffffffffffff821117156136d85750505061372d565b808201805167ffffffffffffffff8111156136f757505050505061372d565b8060208301013d85018111156137125750505050505061372d565b61371b8261365c565b60208401016040528296505050505050505b90565b61373981613468565b811461374457600080fd5b50565b6137508161348c565b811461375b57600080fd5b50565b61376781613498565b811461377257600080fd5b50565b61377e816134e4565b811461378957600080fd5b5056fea26469706673582212201fc248e76128ea1120fe23c988b2007917a291aafce5021f3ca155182a77bd8c64736f6c63430008000033",
  "immutableReferences": {},
  "source": "// SPDX-License-Identifier: MIT\r\n\r\npragma solidity ^0.8.0;\r\nimport \"@openzeppelin/contracts/token/ERC1155/ERC1155.sol\";\r\n\r\ninterface UsdcToken {\r\n    function balanceOf(address tokenOwner) external view returns (uint balance);\r\n    function transfer(address to, uint tokens) external returns (bool success);\r\n    function transferFrom(address from, address to, uint tokens) external returns (bool success);\r\n    function approve(address spender, uint tokens) external returns (bool success);\r\n    function allowance(address tokenOwner, address spender) external view returns (uint remaining);\r\n}\r\n\r\ncontract ToknFactory is ERC1155{\r\n  \r\n    address payable public deployer;\r\n    uint public toknId;\r\n\r\n    // totalSupplies for every token\r\n    mapping(uint => uint) public totalSupplies;\r\n\r\n    // maps token id to metadata uri\r\n    mapping(uint => string) public toknIdToURI;\r\n\r\n    mapping(string => uint) public symbolToId;\r\n    \r\n    //maps artist to his investor token\r\n    mapping(address => uint[]) public artistTokns;\r\n    mapping(uint => address) public toknIdToArtist;\r\n   \r\n    // mapping(address => uint[]) public nftBalances;\r\n    mapping(uint => address[]) public addressTracker;\r\n\r\n    UsdcToken public usdc;\r\n    \r\n    constructor(string memory _platformURI) ERC1155(_platformURI){\r\n      deployer = payable(msg.sender);\r\n      usdc = UsdcToken(0x4DBCdF9B62e891a7cec5A2568C3F4FAF9E8Abe2b); //Rinkeby usdc address\r\n    }\r\n    \r\n    modifier isToknOwner(uint _id, address _addr){\r\n        require (toknIdToArtist[_id] == _addr);\r\n        _;\r\n    }\r\n    \r\n    //lets artist create his investor token\r\n    function createInvestorTokns(string memory _symbol, uint _amount, string memory _uri) public {\r\n        toknIdToArtist[++toknId] = msg.sender;\r\n        symbolToId[_symbol] = toknId;\r\n        artistTokns[msg.sender].push(toknId);\r\n        toknIdToURI[toknId] = _uri;\r\n        mintInvestorTokns(_amount, toknId);    \r\n    }\r\n    \r\n    //lets artists mint more of his investor tokens\r\n    function mintInvestorTokns(uint _amount, uint _toknId) public isToknOwner(_toknId, msg.sender){\r\n        _mint(msg.sender, _toknId, _amount, bytes(toknIdToURI[_toknId]));\r\n        totalSupplies[_toknId] += _amount;\r\n    }\r\n    \r\n    function burnInvestorTokns(uint _amount, uint _toknId) public isToknOwner(_toknId, msg.sender){\r\n        _burn(msg.sender, _toknId, _amount);\r\n        totalSupplies[_toknId] -= _amount;\r\n    }    \r\n    \r\n    function returnAddressesForTokn(uint _id) public view returns(address[] memory){\r\n        return addressTracker[_id];\r\n    }\r\n    \r\n    function safeTransferFrom(\r\n        address from,\r\n        address to,\r\n        uint256 id,\r\n        uint256 amount,\r\n        bytes memory data\r\n    ) public override (ERC1155) {\r\n        require(\r\n            from == _msgSender() || isApprovedForAll(from, _msgSender()),\r\n            \"ERC1155: caller is not owner nor approved\"\r\n        );\r\n        _safeTransferFrom(from, to, id, amount, data);\r\n        addressTracker[id].push(to);\r\n    }\r\n\r\n}",
  "sourcePath": "C:\\Users\\sj931\\OneDrive\\desktop\\tokn-alpha\\Alpha-Contracts\\contracts\\toknFactory.sol",
  "compiler": {
    "name": "solc",
    "version": "0.8.0+commit.c7dfd78e.Emscripten.clang"
  },
  "schemaVersion": "3.4.3",
  "updatedAt": "2021-12-20T18:02:00.566Z",
  "devdoc": {
    "kind": "dev",
    "methods": {
      "balanceOf(address,uint256)": {
        "details": "See {IERC1155-balanceOf}. Requirements: - `account` cannot be the zero address."
      },
      "balanceOfBatch(address[],uint256[])": {
        "details": "See {IERC1155-balanceOfBatch}. Requirements: - `accounts` and `ids` must have the same length."
      },
      "isApprovedForAll(address,address)": {
        "details": "See {IERC1155-isApprovedForAll}."
      },
      "safeBatchTransferFrom(address,address,uint256[],uint256[],bytes)": {
        "details": "See {IERC1155-safeBatchTransferFrom}."
      },
      "safeTransferFrom(address,address,uint256,uint256,bytes)": {
        "details": "See {IERC1155-safeTransferFrom}."
      },
      "setApprovalForAll(address,bool)": {
        "details": "See {IERC1155-setApprovalForAll}."
      },
      "supportsInterface(bytes4)": {
        "details": "See {IERC165-supportsInterface}."
      },
      "uri(uint256)": {
        "details": "See {IERC1155MetadataURI-uri}. This implementation returns the same URI for *all* token types. It relies on the token type ID substitution mechanism https://eips.ethereum.org/EIPS/eip-1155#metadata[defined in the EIP]. Clients calling this function must replace the `\\{id\\}` substring with the actual token type ID."
      }
    },
    "version": 1
  },
  "userdoc": {
    "kind": "user",
    "methods": {},
    "version": 1
  }
}