{
  "contractName": "ToknITO",
  "abi": [
    {
      "inputs": [
        {
          "internalType": "contract ToknFactory",
          "name": "_toknFactory",
          "type": "address"
        },
        {
          "internalType": "contract UsdcToken",
          "name": "_usdc",
          "type": "address"
        }
      ],
      "stateMutability": "nonpayable",
      "type": "constructor"
    },
    {
      "inputs": [
        {
          "internalType": "uint256",
          "name": "",
          "type": "uint256"
        }
      ],
      "name": "artistList",
      "outputs": [
        {
          "internalType": "address",
          "name": "",
          "type": "address"
        }
      ],
      "stateMutability": "view",
      "type": "function",
      "constant": true
    },
    {
      "inputs": [
        {
          "internalType": "address",
          "name": "",
          "type": "address"
        }
      ],
      "name": "artistTracker",
      "outputs": [
        {
          "internalType": "uint256",
          "name": "",
          "type": "uint256"
        }
      ],
      "stateMutability": "view",
      "type": "function",
      "constant": true
    },
    {
      "inputs": [
        {
          "internalType": "uint256",
          "name": "",
          "type": "uint256"
        },
        {
          "internalType": "address",
          "name": "",
          "type": "address"
        }
      ],
      "name": "bookedTokns",
      "outputs": [
        {
          "internalType": "uint256",
          "name": "",
          "type": "uint256"
        }
      ],
      "stateMutability": "view",
      "type": "function",
      "constant": true
    },
    {
      "inputs": [
        {
          "internalType": "address",
          "name": "",
          "type": "address"
        }
      ],
      "name": "hasPaid",
      "outputs": [
        {
          "internalType": "uint256",
          "name": "",
          "type": "uint256"
        }
      ],
      "stateMutability": "view",
      "type": "function",
      "constant": true
    },
    {
      "inputs": [],
      "name": "toknFactory",
      "outputs": [
        {
          "internalType": "contract ToknFactory",
          "name": "",
          "type": "address"
        }
      ],
      "stateMutability": "view",
      "type": "function",
      "constant": true
    },
    {
      "inputs": [
        {
          "internalType": "uint256",
          "name": "",
          "type": "uint256"
        }
      ],
      "name": "toknITOs",
      "outputs": [
        {
          "internalType": "uint256",
          "name": "toknsAvailable",
          "type": "uint256"
        },
        {
          "internalType": "uint256",
          "name": "price",
          "type": "uint256"
        },
        {
          "internalType": "enum ToknITO.State",
          "name": "itoState",
          "type": "uint8"
        }
      ],
      "stateMutability": "view",
      "type": "function",
      "constant": true
    },
    {
      "inputs": [],
      "name": "treasury",
      "outputs": [
        {
          "internalType": "address payable",
          "name": "",
          "type": "address"
        }
      ],
      "stateMutability": "view",
      "type": "function",
      "constant": true
    },
    {
      "inputs": [],
      "name": "treasuryPercentage",
      "outputs": [
        {
          "internalType": "uint256",
          "name": "",
          "type": "uint256"
        }
      ],
      "stateMutability": "view",
      "type": "function",
      "constant": true
    },
    {
      "inputs": [],
      "name": "usdc",
      "outputs": [
        {
          "internalType": "contract UsdcToken",
          "name": "",
          "type": "address"
        }
      ],
      "stateMutability": "view",
      "type": "function",
      "constant": true
    },
    {
      "inputs": [
        {
          "internalType": "uint256",
          "name": "",
          "type": "uint256"
        }
      ],
      "name": "userList",
      "outputs": [
        {
          "internalType": "address",
          "name": "",
          "type": "address"
        }
      ],
      "stateMutability": "view",
      "type": "function",
      "constant": true
    },
    {
      "inputs": [
        {
          "internalType": "address",
          "name": "",
          "type": "address"
        }
      ],
      "name": "userTracker",
      "outputs": [
        {
          "internalType": "uint256",
          "name": "",
          "type": "uint256"
        }
      ],
      "stateMutability": "view",
      "type": "function",
      "constant": true
    },
    {
      "inputs": [
        {
          "internalType": "address",
          "name": "_user",
          "type": "address"
        },
        {
          "internalType": "uint256",
          "name": "_amount",
          "type": "uint256"
        }
      ],
      "name": "setUserHasPaid",
      "outputs": [],
      "stateMutability": "nonpayable",
      "type": "function"
    },
    {
      "inputs": [
        {
          "internalType": "address[]",
          "name": "_users",
          "type": "address[]"
        },
        {
          "internalType": "uint256[]",
          "name": "_amounts",
          "type": "uint256[]"
        }
      ],
      "name": "setUsersHavePaid",
      "outputs": [],
      "stateMutability": "nonpayable",
      "type": "function"
    },
    {
      "inputs": [
        {
          "internalType": "uint256",
          "name": "_pc",
          "type": "uint256"
        }
      ],
      "name": "setTreasuryPercentage",
      "outputs": [],
      "stateMutability": "nonpayable",
      "type": "function"
    },
    {
      "inputs": [
        {
          "internalType": "address",
          "name": "_treasury",
          "type": "address"
        }
      ],
      "name": "setTreasury",
      "outputs": [],
      "stateMutability": "nonpayable",
      "type": "function"
    },
    {
      "inputs": [],
      "name": "getUsersCount",
      "outputs": [
        {
          "internalType": "uint256",
          "name": "",
          "type": "uint256"
        }
      ],
      "stateMutability": "view",
      "type": "function",
      "constant": true
    },
    {
      "inputs": [
        {
          "internalType": "uint256",
          "name": "_id",
          "type": "uint256"
        },
        {
          "internalType": "uint256",
          "name": "_price",
          "type": "uint256"
        }
      ],
      "name": "setToknPrice",
      "outputs": [],
      "stateMutability": "nonpayable",
      "type": "function"
    },
    {
      "inputs": [
        {
          "internalType": "uint256",
          "name": "_id",
          "type": "uint256"
        }
      ],
      "name": "startITO",
      "outputs": [],
      "stateMutability": "nonpayable",
      "type": "function"
    },
    {
      "inputs": [
        {
          "internalType": "uint256",
          "name": "_id",
          "type": "uint256"
        }
      ],
      "name": "stopITO",
      "outputs": [],
      "stateMutability": "nonpayable",
      "type": "function"
    },
    {
      "inputs": [
        {
          "internalType": "uint256",
          "name": "_id",
          "type": "uint256"
        }
      ],
      "name": "getCurrentState",
      "outputs": [
        {
          "internalType": "enum ToknITO.State",
          "name": "",
          "type": "uint8"
        }
      ],
      "stateMutability": "view",
      "type": "function",
      "constant": true
    },
    {
      "inputs": [
        {
          "internalType": "uint256",
          "name": "_id",
          "type": "uint256"
        }
      ],
      "name": "getITO",
      "outputs": [
        {
          "components": [
            {
              "internalType": "uint256",
              "name": "toknsAvailable",
              "type": "uint256"
            },
            {
              "internalType": "uint256",
              "name": "price",
              "type": "uint256"
            },
            {
              "internalType": "address[]",
              "name": "investors",
              "type": "address[]"
            },
            {
              "internalType": "enum ToknITO.State",
              "name": "itoState",
              "type": "uint8"
            }
          ],
          "internalType": "struct ToknITO.ITOConfig",
          "name": "",
          "type": "tuple"
        }
      ],
      "stateMutability": "view",
      "type": "function",
      "constant": true
    },
    {
      "inputs": [
        {
          "internalType": "uint256",
          "name": "_id",
          "type": "uint256"
        },
        {
          "internalType": "uint256",
          "name": "_qty",
          "type": "uint256"
        }
      ],
      "name": "investFixedPrice",
      "outputs": [],
      "stateMutability": "nonpayable",
      "type": "function"
    },
    {
      "inputs": [
        {
          "internalType": "uint256",
          "name": "_id",
          "type": "uint256"
        }
      ],
      "name": "redeemBookedTokens",
      "outputs": [],
      "stateMutability": "nonpayable",
      "type": "function"
    },
    {
      "inputs": [
        {
          "internalType": "address",
          "name": "_user",
          "type": "address"
        },
        {
          "internalType": "uint256",
          "name": "_id",
          "type": "uint256"
        },
        {
          "internalType": "uint256",
          "name": "_amount",
          "type": "uint256"
        }
      ],
      "name": "bookTokensForUser",
      "outputs": [],
      "stateMutability": "nonpayable",
      "type": "function"
    },
    {
      "inputs": [
        {
          "internalType": "uint256",
          "name": "_id",
          "type": "uint256"
        }
      ],
      "name": "allocateFixedPrice",
      "outputs": [],
      "stateMutability": "nonpayable",
      "type": "function"
    },
    {
      "inputs": [
        {
          "internalType": "address",
          "name": "_investor",
          "type": "address"
        },
        {
          "internalType": "uint256",
          "name": "_id",
          "type": "uint256"
        }
      ],
      "name": "getBookedToknsFor",
      "outputs": [
        {
          "internalType": "uint256",
          "name": "",
          "type": "uint256"
        }
      ],
      "stateMutability": "view",
      "type": "function",
      "constant": true
    }
  ],
  "bytecode": "0x608060405260056003553480156200001657600080fd5b50604051620032a1380380620032a183398181016040528101906200003c919062000134565b816000806101000a81548173ffffffffffffffffffffffffffffffffffffffff021916908373ffffffffffffffffffffffffffffffffffffffff16021790555080600160006101000a81548173ffffffffffffffffffffffffffffffffffffffff021916908373ffffffffffffffffffffffffffffffffffffffff16021790555033600260006101000a81548173ffffffffffffffffffffffffffffffffffffffff021916908373ffffffffffffffffffffffffffffffffffffffff160217905550505062000205565b6000815190506200011781620001d1565b92915050565b6000815190506200012e81620001eb565b92915050565b600080604083850312156200014857600080fd5b6000620001588582860162000106565b92505060206200016b858286016200011d565b9150509250929050565b60006200018282620001b1565b9050919050565b6000620001968262000175565b9050919050565b6000620001aa8262000175565b9050919050565b600073ffffffffffffffffffffffffffffffffffffffff82169050919050565b620001dc8162000189565b8114620001e857600080fd5b50565b620001f6816200019d565b81146200020257600080fd5b50565b61308c80620002156000396000f3fe608060405234801561001057600080fd5b506004361061018e5760003560e01c8063926e9802116100de578063b40573f611610097578063b7e9bb6f11610071578063b7e9bb6f146104bb578063e9fb274c146104d7578063f0f44260146104f3578063fbf47a9a1461050f5761018e565b8063b40573f614610453578063b77777131461046f578063b79519101461048b5761018e565b8063926e98021461035757806399f8c889146103875780639e4baa3d146103b95780639f4216e8146103d5578063a4a1e26314610405578063a8e361b2146104235761018e565b80634d7041711161014b57806361d027b31161012557806361d027b3146102cd578063671d6006146102eb57806375f09088146103095780637ab56083146103395761018e565b80634d704171146102515780635697b4d5146102815780635748c1301461029d5761018e565b8063113a169c1461019357806311c2e55d146101af57806312d4ed4f146101cb5780632f9a1f51146101fb578063398eebf0146102175780633e413bee14610233575b600080fd5b6101ad60048036038101906101a8919061272a565b61053f565b005b6101c960048036038101906101c4919061269c565b610659565b005b6101e560048036038101906101e091906126ee565b6106f3565b6040516101f29190612b99565b60405180910390f35b61021560048036038101906102109190612607565b610718565b005b610231600480360381019061022c919061269c565b6108cf565b005b61023b610f26565b6040516102489190612ae1565b60405180910390f35b61026b6004803603810190610266919061257c565b610f4c565b6040516102789190612b99565b60405180910390f35b61029b6004803603810190610296919061272a565b610fa7565b005b6102b760048036038101906102b2919061269c565b611251565b6040516102c49190612afc565b60405180910390f35b6102d561127e565b6040516102e291906129ca565b60405180910390f35b6102f36112a4565b6040516103009190612ac6565b60405180910390f35b610323600480360381019061031e9190612501565b6112c8565b6040516103309190612b99565b60405180910390f35b6103416112e0565b60405161034e9190612b99565b60405180910390f35b610371600480360381019061036c9190612501565b6112e6565b60405161037e9190612b99565b60405180910390f35b6103a1600480360381019061039c919061269c565b6112fe565b6040516103b093929190612bb4565b60405180910390f35b6103d360048036038101906103ce91906125b8565b611335565b005b6103ef60048036038101906103ea919061269c565b6114a3565b6040516103fc91906129af565b60405180910390f35b61040d6114e2565b60405161041a9190612b99565b60405180910390f35b61043d6004803603810190610438919061269c565b6114ef565b60405161044a91906129af565b60405180910390f35b61046d6004803603810190610468919061269c565b61152e565b005b6104896004803603810190610484919061257c565b61175d565b005b6104a560048036038101906104a0919061269c565b6118b0565b6040516104b29190612b77565b60405180910390f35b6104d560048036038101906104d0919061269c565b611a06565b005b6104f160048036038101906104ec919061269c565b611d0b565b005b61050d60048036038101906105089190612501565b611ef2565b005b61052960048036038101906105249190612501565b611fc6565b6040516105369190612b99565b60405180910390f35b3373ffffffffffffffffffffffffffffffffffffffff1660008054906101000a900473ffffffffffffffffffffffffffffffffffffffff1673ffffffffffffffffffffffffffffffffffffffff1663e6253d40846040518263ffffffff1660e01b81526004016105af9190612b99565b60206040518083038186803b1580156105c757600080fd5b505afa1580156105db573d6000803e3d6000fd5b505050506040513d601f19601f820116820180604052508101906105ff919061252a565b73ffffffffffffffffffffffffffffffffffffffff16148015610623575060008114155b61062c57600080fd5b620f42408161063b9190612d56565b60056000848152602001908152602001600020600101819055505050565b600260009054906101000a900473ffffffffffffffffffffffffffffffffffffffff1673ffffffffffffffffffffffffffffffffffffffff163373ffffffffffffffffffffffffffffffffffffffff16146106e9576040517f08c379a00000000000000000000000000000000000000000000000000000000081526004016106e090612b37565b60405180910390fd5b8060038190555050565b6004602052816000526040600020602052806000526040600020600091509150505481565b60008054906101000a900473ffffffffffffffffffffffffffffffffffffffff1673ffffffffffffffffffffffffffffffffffffffff1663d5f394886040518163ffffffff1660e01b815260040160206040518083038186803b15801561077e57600080fd5b505afa158015610792573d6000803e3d6000fd5b505050506040513d601f19601f820116820180604052508101906107b69190612553565b73ffffffffffffffffffffffffffffffffffffffff163373ffffffffffffffffffffffffffffffffffffffff1614610823576040517f08c379a000000000000000000000000000000000000000000000000000000000815260040161081a90612b57565b60405180910390fd5b60005b82518110156108ca576108b983828151811061086b577f4e487b7100000000000000000000000000000000000000000000000000000000600052603260045260246000fd5b60200260200101518383815181106108ac577f4e487b7100000000000000000000000000000000000000000000000000000000600052603260045260246000fd5b602002602001015161175d565b806108c390612ee1565b9050610826565b505050565b3373ffffffffffffffffffffffffffffffffffffffff1660008054906101000a900473ffffffffffffffffffffffffffffffffffffffff1673ffffffffffffffffffffffffffffffffffffffff1663e6253d40836040518263ffffffff1660e01b815260040161093f9190612b99565b60206040518083038186803b15801561095757600080fd5b505afa15801561096b573d6000803e3d6000fd5b505050506040513d601f19601f8201168201806040525081019061098f919061252a565b73ffffffffffffffffffffffffffffffffffffffff16146109af57600080fd5b6003808111156109e8577f4e487b7100000000000000000000000000000000000000000000000000000000600052602160045260246000fd5b6005600083815260200190815260200160002060030160009054906101000a900460ff166003811115610a44577f4e487b7100000000000000000000000000000000000000000000000000000000600052602160045260246000fd5b14610a4e57600080fd5b600060056000838152602001908152602001600020600201805480602002602001604051908101604052809291908181526020018280548015610ae657602002820191906000526020600020905b8160009054906101000a900473ffffffffffffffffffffffffffffffffffffffff1673ffffffffffffffffffffffffffffffffffffffff1681526020019060010190808311610a9c575b5050505050905060005b8151811015610f215760008054906101000a900473ffffffffffffffffffffffffffffffffffffffff1673ffffffffffffffffffffffffffffffffffffffff1663f242432a33848481518110610b6f577f4e487b7100000000000000000000000000000000000000000000000000000000600052603260045260246000fd5b602002602001015186600460008981526020019081526020016000206000888881518110610bc6577f4e487b7100000000000000000000000000000000000000000000000000000000600052603260045260246000fd5b602002602001015173ffffffffffffffffffffffffffffffffffffffff1673ffffffffffffffffffffffffffffffffffffffff168152602001908152602001600020546040518563ffffffff1660e01b8152600401610c289493929190612a45565b600060405180830381600087803b158015610c4257600080fd5b505af1158015610c56573d6000803e3d6000fd5b505050506000600460008581526020019081526020016000206000848481518110610caa577f4e487b7100000000000000000000000000000000000000000000000000000000600052603260045260246000fd5b602002602001015173ffffffffffffffffffffffffffffffffffffffff1673ffffffffffffffffffffffffffffffffffffffff168152602001908152602001600020546005600086815260200190815260200160002060010154610d0e9190612d56565b90506000606460035483610d229190612d56565b610d2c9190612d25565b905060008183610d3c9190612db0565b9050600160009054906101000a900473ffffffffffffffffffffffffffffffffffffffff1673ffffffffffffffffffffffffffffffffffffffff1663a9059cbb600260009054906101000a900473ffffffffffffffffffffffffffffffffffffffff16846040518363ffffffff1660e01b8152600401610dbd9291906129e5565b602060405180830381600087803b158015610dd757600080fd5b505af1158015610deb573d6000803e3d6000fd5b505050506040513d601f19601f82011682018060405250810190610e0f9190612673565b50600160009054906101000a900473ffffffffffffffffffffffffffffffffffffffff1673ffffffffffffffffffffffffffffffffffffffff1663a9059cbb33836040518363ffffffff1660e01b8152600401610e6d929190612a9d565b602060405180830381600087803b158015610e8757600080fd5b505af1158015610e9b573d6000803e3d6000fd5b505050506040513d601f19601f82011682018060405250810190610ebf9190612673565b50610f0b86868681518110610efd577f4e487b7100000000000000000000000000000000000000000000000000000000600052603260045260246000fd5b602002602001015185611fde565b5050508080610f1990612ee1565b915050610af0565b505050565b600160009054906101000a900473ffffffffffffffffffffffffffffffffffffffff1681565b60006004600083815260200190815260200160002060008473ffffffffffffffffffffffffffffffffffffffff1673ffffffffffffffffffffffffffffffffffffffff16815260200190815260200160002054905092915050565b60056000838152602001908152602001600020600001548111158015611060575060016003811115611002577f4e487b7100000000000000000000000000000000000000000000000000000000600052602160045260246000fd5b6005600084815260200190815260200160002060030160009054906101000a900460ff16600381111561105e577f4e487b7100000000000000000000000000000000000000000000000000000000600052602160045260246000fd5b145b61106957600080fd5b600060056000848152602001908152602001600020600101548261108d9190612d56565b9050600160009054906101000a900473ffffffffffffffffffffffffffffffffffffffff1673ffffffffffffffffffffffffffffffffffffffff166323b872dd3330846040518463ffffffff1660e01b81526004016110ee93929190612a0e565b602060405180830381600087803b15801561110857600080fd5b505af115801561111c573d6000803e3d6000fd5b505050506040513d601f19601f820116820180604052508101906111409190612673565b50816005600085815260200190815260200160002060000160008282546111679190612db0565b9250508190555060056000848152602001908152602001600020600201339080600181540180825580915050600190039060005260206000200160009091909190916101000a81548173ffffffffffffffffffffffffffffffffffffffff021916908373ffffffffffffffffffffffffffffffffffffffff160217905550816004600085815260200190815260200160002060003373ffffffffffffffffffffffffffffffffffffffff1673ffffffffffffffffffffffffffffffffffffffff16815260200190815260200160002060008282546112459190612ccf565b92505081905550505050565b60006005600083815260200190815260200160002060030160009054906101000a900460ff169050919050565b600260009054906101000a900473ffffffffffffffffffffffffffffffffffffffff1681565b60008054906101000a900473ffffffffffffffffffffffffffffffffffffffff1681565b60066020528060005260406000206000915090505481565b60035481565b60076020528060005260406000206000915090505481565b60056020528060005260406000206000915090508060000154908060010154908060030160009054906101000a900460ff16905083565b60008054906101000a900473ffffffffffffffffffffffffffffffffffffffff1673ffffffffffffffffffffffffffffffffffffffff1663d5f394886040518163ffffffff1660e01b815260040160206040518083038186803b15801561139b57600080fd5b505afa1580156113af573d6000803e3d6000fd5b505050506040513d601f19601f820116820180604052508101906113d39190612553565b73ffffffffffffffffffffffffffffffffffffffff163373ffffffffffffffffffffffffffffffffffffffff161461140a57600080fd5b600060056000848152602001908152602001600020600101549050600081836114339190612d25565b9050806004600086815260200190815260200160002060008773ffffffffffffffffffffffffffffffffffffffff1673ffffffffffffffffffffffffffffffffffffffff16815260200190815260200160002060008282546114959190612ccf565b925050819055505050505050565b600a81815481106114b357600080fd5b906000526020600020016000915054906101000a900473ffffffffffffffffffffffffffffffffffffffff1681565b6000600a80549050905090565b600981815481106114ff57600080fd5b906000526020600020016000915054906101000a900473ffffffffffffffffffffffffffffffffffffffff1681565b3373ffffffffffffffffffffffffffffffffffffffff1660008054906101000a900473ffffffffffffffffffffffffffffffffffffffff1673ffffffffffffffffffffffffffffffffffffffff1663e6253d40836040518263ffffffff1660e01b815260040161159e9190612b99565b60206040518083038186803b1580156115b657600080fd5b505afa1580156115ca573d6000803e3d6000fd5b505050506040513d601f19601f820116820180604052508101906115ee919061252a565b73ffffffffffffffffffffffffffffffffffffffff1614801561162857506000600560008381526020019081526020016000206001015414155b61163157600080fd5b60016005600083815260200190815260200160002060030160006101000a81548160ff02191690836003811115611691577f4e487b7100000000000000000000000000000000000000000000000000000000600052602160045260246000fd5b021790555060008054906101000a900473ffffffffffffffffffffffffffffffffffffffff1673ffffffffffffffffffffffffffffffffffffffff1662fdd58e33836040518363ffffffff1660e01b81526004016116f0929190612a9d565b60206040518083038186803b15801561170857600080fd5b505afa15801561171c573d6000803e3d6000fd5b505050506040513d601f19601f8201168201806040525081019061174091906126c5565b600560008381526020019081526020016000206000018190555050565b60008054906101000a900473ffffffffffffffffffffffffffffffffffffffff1673ffffffffffffffffffffffffffffffffffffffff1663d5f394886040518163ffffffff1660e01b815260040160206040518083038186803b1580156117c357600080fd5b505afa1580156117d7573d6000803e3d6000fd5b505050506040513d601f19601f820116820180604052508101906117fb9190612553565b73ffffffffffffffffffffffffffffffffffffffff163373ffffffffffffffffffffffffffffffffffffffff1614611868576040517f08c379a000000000000000000000000000000000000000000000000000000000815260040161185f90612b57565b60405180910390fd5b80600860008473ffffffffffffffffffffffffffffffffffffffff1673ffffffffffffffffffffffffffffffffffffffff168152602001908152602001600020819055505050565b6118b86122f7565b6005600083815260200190815260200160002060405180608001604052908160008201548152602001600182015481526020016002820180548060200260200160405190810160405280929190818152602001828054801561196f57602002820191906000526020600020905b8160009054906101000a900473ffffffffffffffffffffffffffffffffffffffff1673ffffffffffffffffffffffffffffffffffffffff1681526020019060010190808311611925575b505050505081526020016003820160009054906101000a900460ff1660038111156119c3577f4e487b7100000000000000000000000000000000000000000000000000000000600052602160045260246000fd5b60038111156119fb577f4e487b7100000000000000000000000000000000000000000000000000000000600052602160045260246000fd5b815250509050919050565b60016003811115611a40577f4e487b7100000000000000000000000000000000000000000000000000000000600052602160045260246000fd5b6005600083815260200190815260200160002060030160009054906101000a900460ff166003811115611a9c577f4e487b7100000000000000000000000000000000000000000000000000000000600052602160045260246000fd5b14611aa657600080fd5b6000600860003373ffffffffffffffffffffffffffffffffffffffff1673ffffffffffffffffffffffffffffffffffffffff168152602001908152602001600020541415611b29576040517f08c379a0000000000000000000000000000000000000000000000000000000008152600401611b2090612b17565b60405180910390fd5b600060056000838152602001908152602001600020600101549050600081600860003373ffffffffffffffffffffffffffffffffffffffff1673ffffffffffffffffffffffffffffffffffffffff16815260200190815260200160002054611b919190612d25565b90506005600084815260200190815260200160002060000154811115611bb657600080fd5b80600560008581526020019081526020016000206000016000828254611bdc9190612db0565b9250508190555060056000848152602001908152602001600020600201339080600181540180825580915050600190039060005260206000200160009091909190916101000a81548173ffffffffffffffffffffffffffffffffffffffff021916908373ffffffffffffffffffffffffffffffffffffffff160217905550806004600085815260200190815260200160002060003373ffffffffffffffffffffffffffffffffffffffff1673ffffffffffffffffffffffffffffffffffffffff1681526020019081526020016000206000828254611cba9190612ccf565b925050819055506000600860003373ffffffffffffffffffffffffffffffffffffffff1673ffffffffffffffffffffffffffffffffffffffff16815260200190815260200160002081905550505050565b3373ffffffffffffffffffffffffffffffffffffffff1660008054906101000a900473ffffffffffffffffffffffffffffffffffffffff1673ffffffffffffffffffffffffffffffffffffffff1663e6253d40836040518263ffffffff1660e01b8152600401611d7b9190612b99565b60206040518083038186803b158015611d9357600080fd5b505afa158015611da7573d6000803e3d6000fd5b505050506040513d601f19601f82011682018060405250810190611dcb919061252a565b73ffffffffffffffffffffffffffffffffffffffff16148015611e81575060016003811115611e23577f4e487b7100000000000000000000000000000000000000000000000000000000600052602160045260246000fd5b6005600083815260200190815260200160002060030160009054906101000a900460ff166003811115611e7f577f4e487b7100000000000000000000000000000000000000000000000000000000600052602160045260246000fd5b145b611e8a57600080fd5b60036005600083815260200190815260200160002060030160006101000a81548160ff02191690836003811115611eea577f4e487b7100000000000000000000000000000000000000000000000000000000600052602160045260246000fd5b021790555050565b600260009054906101000a900473ffffffffffffffffffffffffffffffffffffffff1673ffffffffffffffffffffffffffffffffffffffff163373ffffffffffffffffffffffffffffffffffffffff1614611f82576040517f08c379a0000000000000000000000000000000000000000000000000000000008152600401611f7990612b37565b60405180910390fd5b80600260006101000a81548173ffffffffffffffffffffffffffffffffffffffff021916908373ffffffffffffffffffffffffffffffffffffffff16021790555050565b60086020528060005260406000206000915090505481565b60008060009054906101000a900473ffffffffffffffffffffffffffffffffffffffff1673ffffffffffffffffffffffffffffffffffffffff1663e6253d40856040518263ffffffff1660e01b815260040161203a9190612b99565b60206040518083038186803b15801561205257600080fd5b505afa158015612066573d6000803e3d6000fd5b505050506040513d601f19601f8201168201806040525081019061208a919061252a565b90503373ffffffffffffffffffffffffffffffffffffffff168173ffffffffffffffffffffffffffffffffffffffff1614806120cb57506120ca336122de565b5b6120d457600080fd5b6000600660008373ffffffffffffffffffffffffffffffffffffffff1673ffffffffffffffffffffffffffffffffffffffff168152602001908152602001600020541415612180576009819080600181540180825580915050600190039060005260206000200160009091909190916101000a81548173ffffffffffffffffffffffffffffffffffffffff021916908373ffffffffffffffffffffffffffffffffffffffff1602179055505b81600660008373ffffffffffffffffffffffffffffffffffffffff1673ffffffffffffffffffffffffffffffffffffffff16815260200190815260200160002060008282546121cf9190612ccf565b925050819055506000600760008573ffffffffffffffffffffffffffffffffffffffff1673ffffffffffffffffffffffffffffffffffffffff16815260200190815260200160002054141561228257600a839080600181540180825580915050600190039060005260206000200160009091909190916101000a81548173ffffffffffffffffffffffffffffffffffffffff021916908373ffffffffffffffffffffffffffffffffffffffff1602179055505b81600760008573ffffffffffffffffffffffffffffffffffffffff1673ffffffffffffffffffffffffffffffffffffffff16815260200190815260200160002060008282546122d19190612ccf565b9250508190555050505050565b600080823b905060008163ffffffff1611915050919050565b604051806080016040528060008152602001600081526020016060815260200160006003811115612351577f4e487b7100000000000000000000000000000000000000000000000000000000600052602160045260246000fd5b81525090565b600061236a61236584612c1c565b612beb565b9050808382526020820190508285602086028201111561238957600080fd5b60005b858110156123b9578161239f888261242f565b84526020840193506020830192505060018101905061238c565b5050509392505050565b60006123d66123d184612c48565b612beb565b905080838252602082019050828560208602820111156123f557600080fd5b60005b85811015612425578161240b88826124d7565b8452602084019350602083019250506001810190506123f8565b5050509392505050565b60008135905061243e81612ffa565b92915050565b60008151905061245381612ffa565b92915050565b60008151905061246881613011565b92915050565b600082601f83011261247f57600080fd5b813561248f848260208601612357565b91505092915050565b600082601f8301126124a957600080fd5b81356124b98482602086016123c3565b91505092915050565b6000815190506124d181613028565b92915050565b6000813590506124e68161303f565b92915050565b6000815190506124fb8161303f565b92915050565b60006020828403121561251357600080fd5b60006125218482850161242f565b91505092915050565b60006020828403121561253c57600080fd5b600061254a84828501612444565b91505092915050565b60006020828403121561256557600080fd5b600061257384828501612459565b91505092915050565b6000806040838503121561258f57600080fd5b600061259d8582860161242f565b92505060206125ae858286016124d7565b9150509250929050565b6000806000606084860312156125cd57600080fd5b60006125db8682870161242f565b93505060206125ec868287016124d7565b92505060406125fd868287016124d7565b9150509250925092565b6000806040838503121561261a57600080fd5b600083013567ffffffffffffffff81111561263457600080fd5b6126408582860161246e565b925050602083013567ffffffffffffffff81111561265d57600080fd5b61266985828601612498565b9150509250929050565b60006020828403121561268557600080fd5b6000612693848285016124c2565b91505092915050565b6000602082840312156126ae57600080fd5b60006126bc848285016124d7565b91505092915050565b6000602082840312156126d757600080fd5b60006126e5848285016124ec565b91505092915050565b6000806040838503121561270157600080fd5b600061270f858286016124d7565b92505060206127208582860161242f565b9150509250929050565b6000806040838503121561273d57600080fd5b600061274b858286016124d7565b925050602061275c858286016124d7565b9150509250929050565b6000612772838361279c565b60208301905092915050565b61278781612e51565b82525050565b61279681612df6565b82525050565b6127a581612de4565b82525050565b6127b481612de4565b82525050565b60006127c582612c84565b6127cf8185612c9c565b93506127da83612c74565b8060005b8381101561280b5781516127f28882612766565b97506127fd83612c8f565b9250506001810190506127de565b5085935050505092915050565b61282181612e63565b82525050565b61283081612e87565b82525050565b61283f81612eab565b82525050565b61284e81612eab565b82525050565b6000612861601283612cbe565b91507f5573657220686173206e6f7420706169642e00000000000000000000000000006000830152602082019050919050565b60006128a1601583612cbe565b91507f43616c6c6572206e6f7420617574686f72697a656400000000000000000000006000830152602082019050919050565b60006128e1600083612cad565b9150600082019050919050565b60006128fb601383612cbe565b91507f55736572206e6f7420617574686f72697a6564000000000000000000000000006000830152602082019050919050565b60006080830160008301516129466000860182612991565b5060208301516129596020860182612991565b506040830151848203604086015261297182826127ba565b91505060608301516129866060860182612836565b508091505092915050565b61299a81612e47565b82525050565b6129a981612e47565b82525050565b60006020820190506129c460008301846127ab565b92915050565b60006020820190506129df600083018461278d565b92915050565b60006040820190506129fa600083018561277e565b612a0760208301846129a0565b9392505050565b6000606082019050612a2360008301866127ab565b612a3060208301856127ab565b612a3d60408301846129a0565b949350505050565b600060a082019050612a5a60008301876127ab565b612a6760208301866127ab565b612a7460408301856129a0565b612a8160608301846129a0565b8181036080830152612a92816128d4565b905095945050505050565b6000604082019050612ab260008301856127ab565b612abf60208301846129a0565b9392505050565b6000602082019050612adb6000830184612818565b92915050565b6000602082019050612af66000830184612827565b92915050565b6000602082019050612b116000830184612845565b92915050565b60006020820190508181036000830152612b3081612854565b9050919050565b60006020820190508181036000830152612b5081612894565b9050919050565b60006020820190508181036000830152612b70816128ee565b9050919050565b60006020820190508181036000830152612b91818461292e565b905092915050565b6000602082019050612bae60008301846129a0565b92915050565b6000606082019050612bc960008301866129a0565b612bd660208301856129a0565b612be36040830184612845565b949350505050565b6000604051905081810181811067ffffffffffffffff82111715612c1257612c11612fb7565b5b8060405250919050565b600067ffffffffffffffff821115612c3757612c36612fb7565b5b602082029050602081019050919050565b600067ffffffffffffffff821115612c6357612c62612fb7565b5b602082029050602081019050919050565b6000819050602082019050919050565b600081519050919050565b6000602082019050919050565b600082825260208201905092915050565b600082825260208201905092915050565b600082825260208201905092915050565b6000612cda82612e47565b9150612ce583612e47565b9250827fffffffffffffffffffffffffffffffffffffffffffffffffffffffffffffffff03821115612d1a57612d19612f2a565b5b828201905092915050565b6000612d3082612e47565b9150612d3b83612e47565b925082612d4b57612d4a612f59565b5b828204905092915050565b6000612d6182612e47565b9150612d6c83612e47565b9250817fffffffffffffffffffffffffffffffffffffffffffffffffffffffffffffffff0483118215151615612da557612da4612f2a565b5b828202905092915050565b6000612dbb82612e47565b9150612dc683612e47565b925082821015612dd957612dd8612f2a565b5b828203905092915050565b6000612def82612e27565b9050919050565b6000612e0182612e27565b9050919050565b60008115159050919050565b6000819050612e2282612fe6565b919050565b600073ffffffffffffffffffffffffffffffffffffffff82169050919050565b6000819050919050565b6000612e5c82612ebd565b9050919050565b6000612e6e82612e75565b9050919050565b6000612e8082612e27565b9050919050565b6000612e9282612e99565b9050919050565b6000612ea482612e27565b9050919050565b6000612eb682612e14565b9050919050565b6000612ec882612ecf565b9050919050565b6000612eda82612e27565b9050919050565b6000612eec82612e47565b91507fffffffffffffffffffffffffffffffffffffffffffffffffffffffffffffffff821415612f1f57612f1e612f2a565b5b600182019050919050565b7f4e487b7100000000000000000000000000000000000000000000000000000000600052601160045260246000fd5b7f4e487b7100000000000000000000000000000000000000000000000000000000600052601260045260246000fd5b7f4e487b7100000000000000000000000000000000000000000000000000000000600052602160045260246000fd5b7f4e487b7100000000000000000000000000000000000000000000000000000000600052604160045260246000fd5b60048110612ff757612ff6612f88565b5b50565b61300381612de4565b811461300e57600080fd5b50565b61301a81612df6565b811461302557600080fd5b50565b61303181612e08565b811461303c57600080fd5b50565b61304881612e47565b811461305357600080fd5b5056fea2646970667358221220212a0fc804b4df373b1ff257753c1dd434278bdef92fefe74385564607d4ed6164736f6c63430008000033",
  "immutableReferences": {},
  "source": "// SPDX-License-Identifier: MIT\r\n\r\npragma solidity^0.8.0;\r\n\r\nimport \"./ToknFactory.sol\";\r\n\r\n\r\n\r\ncontract ToknITO{\r\n    \r\n    ToknFactory public toknFactory;\r\n    UsdcToken public usdc;\r\n    address payable public treasury;\r\n\r\n    uint public treasuryPercentage = 5;\r\n\r\n    enum State {Started, Running, Cancelled, Ended}\r\n    \r\n    struct ITOConfig{\r\n        uint toknsAvailable;\r\n        uint price;\r\n        address[] investors;\r\n        State itoState;\r\n    }\r\n\r\n    mapping(uint => mapping(address => uint)) public bookedTokns;\r\n    mapping(uint => ITOConfig) public toknITOs;\r\n    mapping(address => uint) public artistTracker;\r\n    mapping(address => uint) public userTracker;\r\n    mapping(address => uint) public hasPaid;\r\n    \r\n    address[] public artistList;\r\n    address[] public userList;\r\n\r\n\r\n    \r\n    constructor(ToknFactory _toknFactory, UsdcToken _usdc){\r\n        toknFactory = _toknFactory;\r\n        usdc = _usdc;\r\n        treasury = payable(msg.sender);\r\n    }\r\n    \r\n    function setUserHasPaid(address _user, uint _amount) public {\r\n        require(msg.sender== toknFactory.deployer(), \"User not authorized\");\r\n        hasPaid[_user] = _amount;\r\n    }\r\n\r\n    function setUsersHavePaid(address[] memory _users, uint[] memory _amounts) public {\r\n        require(msg.sender== toknFactory.deployer(), \"User not authorized\");\r\n        for(uint i = 0; i<_users.length; ++i){\r\n            setUserHasPaid(_users[i], _amounts[i]);\r\n        }\r\n    }\r\n    function setTreasuryPercentage(uint _pc) public {\r\n        require(msg.sender == treasury, \"Caller not authorized\");\r\n        treasuryPercentage = _pc;\r\n    }\r\n\r\n    function setTreasury(address _treasury) public {\r\n        require(msg.sender == treasury, \"Caller not authorized\");\r\n        treasury = payable(_treasury);\r\n    }\r\n\r\n    function getUsersCount() public view returns(uint){\r\n        return userList.length;    \r\n    }\r\n    \r\n    function isContract(address _addr) private view returns (bool){\r\n      uint32 size;\r\n      assembly {\r\n        size := extcodesize(_addr)\r\n      }\r\n      return (size > 0);\r\n    }\r\n    \r\n    function airdropTracker(uint _id, address _receiver, uint _price) internal {\r\n        // if(_id == 1){\r\n        //     require(msg.sender == toknFactory.deployer());\r\n        // } else{\r\n            address artist = toknFactory.toknIdToArtist(_id);\r\n            require(artist == msg.sender || isContract(msg.sender));\r\n            if(artistTracker[artist] == 0) {\r\n                artistList.push(artist); \r\n            }\r\n            artistTracker[artist] += _price;\r\n        // }\r\n        if(userTracker[_receiver] == 0) {\r\n            userList.push(_receiver);\r\n        }\r\n        userTracker[_receiver] += _price;\r\n    }\r\n    \r\n\r\n    function setToknPrice(uint _id, uint _price) public {\r\n        \r\n        require(toknFactory.toknIdToArtist(_id) == msg.sender && _price != 0);\r\n        toknITOs[_id].price = _price*10**6;\r\n    }\r\n    \r\n   \r\n    \r\n    function startITO(uint _id) public {\r\n        \r\n        require(toknFactory.toknIdToArtist(_id) == msg.sender && toknITOs[_id].price != 0);\r\n        toknITOs[_id].itoState = State.Running;\r\n        toknITOs[_id].toknsAvailable = toknFactory.balanceOf(msg.sender, _id);\r\n    }\r\n    \r\n    function stopITO(uint _id) public {\r\n        \r\n        require(toknFactory.toknIdToArtist(_id) == msg.sender && toknITOs[_id].itoState== State.Running);\r\n        toknITOs[_id].itoState = State.Ended;\r\n    }    \r\n    \r\n    function getCurrentState(uint _id) public view returns(State) {\r\n        \r\n        return toknITOs[_id].itoState;\r\n    }\r\n\r\n    function getITO(uint _id) public view returns(ITOConfig memory) {\r\n        return toknITOs[_id];\r\n    }\r\n    \r\n    function investFixedPrice(uint _id, uint _qty) public{\r\n        \r\n        require(_qty <= toknITOs[_id].toknsAvailable && toknITOs[_id].itoState == State.Running);\r\n        uint usdcAmount = _qty * toknITOs[_id].price;\r\n        usdc.transferFrom(msg.sender, address(this), usdcAmount);\r\n        toknITOs[_id].toknsAvailable -= _qty;\r\n        toknITOs[_id].investors.push(payable(msg.sender));\r\n        bookedTokns[_id][msg.sender] += _qty;\r\n    }\r\n\r\n    function redeemBookedTokens(uint _id) public {\r\n        require(toknITOs[_id].itoState == State.Running);\r\n        require(hasPaid[msg.sender] != 0, \"User has not paid.\");\r\n        uint toknPrice = toknITOs[_id].price;\r\n        uint _qty = hasPaid[msg.sender]/toknPrice;\r\n        require(_qty <= toknITOs[_id].toknsAvailable );\r\n        toknITOs[_id].toknsAvailable -= _qty;\r\n        toknITOs[_id].investors.push(payable(msg.sender));\r\n        bookedTokns[_id][msg.sender] += _qty;\r\n        hasPaid[msg.sender] = 0;\r\n    }\r\n\r\n    function bookTokensForUser(address _user, uint _id, uint _amount) public {\r\n        require(msg.sender == toknFactory.deployer());\r\n        uint toknPrice = toknITOs[_id].price;\r\n        uint tokens = _amount/toknPrice;\r\n        bookedTokns[_id][_user] += tokens;\r\n    }\r\n    \r\n    function allocateFixedPrice(uint _id) public{\r\n        // stopITO(_id);\r\n        \r\n        require(toknFactory.toknIdToArtist(_id) == msg.sender);\r\n        require(toknITOs[_id].itoState == State.Ended);\r\n        address[] memory toknInvestors = toknITOs[_id].investors;\r\n        for(uint i = 0; i < toknInvestors.length; i++) {\r\n            toknFactory.safeTransferFrom(msg.sender, toknInvestors[i], _id, bookedTokns[_id][toknInvestors[i]], \"\");\r\n            uint amount = toknITOs[_id].price * bookedTokns[_id][toknInvestors[i]];\r\n        uint treasury_amount = amount*treasuryPercentage/uint(100);\r\n        uint artistAmount = amount - treasury_amount;\r\n        usdc.transfer(treasury, treasury_amount);\r\n          usdc.transfer(msg.sender, artistAmount);\r\n            airdropTracker(_id, toknInvestors[i], amount);\r\n        }\r\n    }\r\n    \r\n   function getBookedToknsFor(address _investor, uint _id) public view returns (uint) {\r\n       return bookedTokns[_id][_investor];\r\n   }\r\n    \r\n}",
  "sourcePath": "C:\\Users\\sj931\\OneDrive\\Desktop\\Tokn\\alpha\\Tokn-alpha\\Alpha-Contracts\\contracts\\ToknITO.sol",
  "compiler": {
    "name": "solc",
    "version": "0.8.0+commit.c7dfd78e.Emscripten.clang"
  },
  "schemaVersion": "3.4.3",
  "updatedAt": "2022-01-19T13:40:58.648Z",
  "networkType": "ethereum",
  "devdoc": {
    "kind": "dev",
    "methods": {},
    "version": 1
  },
  "userdoc": {
    "kind": "user",
    "methods": {},
    "version": 1
  }
}