{
  "contractName": "ToknITO",
  "abi": [
    {
      "inputs": [
        {
          "internalType": "contract ToknFactory",
          "name": "_toknFactory",
          "type": "address"
        },
        {
          "internalType": "contract UsdcToken",
          "name": "_usdc",
          "type": "address"
        }
      ],
      "stateMutability": "nonpayable",
      "type": "constructor"
    },
    {
      "inputs": [
        {
          "internalType": "uint256",
          "name": "",
          "type": "uint256"
        }
      ],
      "name": "artistList",
      "outputs": [
        {
          "internalType": "address",
          "name": "",
          "type": "address"
        }
      ],
      "stateMutability": "view",
      "type": "function",
      "constant": true
    },
    {
      "inputs": [
        {
          "internalType": "address",
          "name": "",
          "type": "address"
        }
      ],
      "name": "artistTracker",
      "outputs": [
        {
          "internalType": "uint256",
          "name": "",
          "type": "uint256"
        }
      ],
      "stateMutability": "view",
      "type": "function",
      "constant": true
    },
    {
      "inputs": [
        {
          "internalType": "uint256",
          "name": "",
          "type": "uint256"
        },
        {
          "internalType": "address",
          "name": "",
          "type": "address"
        }
      ],
      "name": "bookedTokns",
      "outputs": [
        {
          "internalType": "uint256",
          "name": "",
          "type": "uint256"
        }
      ],
      "stateMutability": "view",
      "type": "function",
      "constant": true
    },
    {
      "inputs": [],
      "name": "toknFactory",
      "outputs": [
        {
          "internalType": "contract ToknFactory",
          "name": "",
          "type": "address"
        }
      ],
      "stateMutability": "view",
      "type": "function",
      "constant": true
    },
    {
      "inputs": [
        {
          "internalType": "uint256",
          "name": "",
          "type": "uint256"
        }
      ],
      "name": "toknITOs",
      "outputs": [
        {
          "internalType": "uint256",
          "name": "toknsAvailable",
          "type": "uint256"
        },
        {
          "internalType": "uint256",
          "name": "price",
          "type": "uint256"
        },
        {
          "internalType": "enum ToknITO.State",
          "name": "itoState",
          "type": "uint8"
        }
      ],
      "stateMutability": "view",
      "type": "function",
      "constant": true
    },
    {
      "inputs": [],
      "name": "treasury",
      "outputs": [
        {
          "internalType": "address payable",
          "name": "",
          "type": "address"
        }
      ],
      "stateMutability": "view",
      "type": "function",
      "constant": true
    },
    {
      "inputs": [],
      "name": "treasuryPercentage",
      "outputs": [
        {
          "internalType": "uint256",
          "name": "",
          "type": "uint256"
        }
      ],
      "stateMutability": "view",
      "type": "function",
      "constant": true
    },
    {
      "inputs": [],
      "name": "usdc",
      "outputs": [
        {
          "internalType": "contract UsdcToken",
          "name": "",
          "type": "address"
        }
      ],
      "stateMutability": "view",
      "type": "function",
      "constant": true
    },
    {
      "inputs": [
        {
          "internalType": "uint256",
          "name": "",
          "type": "uint256"
        }
      ],
      "name": "userList",
      "outputs": [
        {
          "internalType": "address",
          "name": "",
          "type": "address"
        }
      ],
      "stateMutability": "view",
      "type": "function",
      "constant": true
    },
    {
      "inputs": [
        {
          "internalType": "address",
          "name": "",
          "type": "address"
        }
      ],
      "name": "userTracker",
      "outputs": [
        {
          "internalType": "uint256",
          "name": "",
          "type": "uint256"
        }
      ],
      "stateMutability": "view",
      "type": "function",
      "constant": true
    },
    {
      "inputs": [
        {
          "internalType": "uint256",
          "name": "_pc",
          "type": "uint256"
        }
      ],
      "name": "setTreasuryPercentage",
      "outputs": [],
      "stateMutability": "nonpayable",
      "type": "function"
    },
    {
      "inputs": [
        {
          "internalType": "address",
          "name": "_treasury",
          "type": "address"
        }
      ],
      "name": "setTreasury",
      "outputs": [],
      "stateMutability": "nonpayable",
      "type": "function"
    },
    {
      "inputs": [],
      "name": "getUsersCount",
      "outputs": [
        {
          "internalType": "uint256",
          "name": "",
          "type": "uint256"
        }
      ],
      "stateMutability": "view",
      "type": "function",
      "constant": true
    },
    {
      "inputs": [
        {
          "internalType": "uint256",
          "name": "_id",
          "type": "uint256"
        },
        {
          "internalType": "uint256",
          "name": "_price",
          "type": "uint256"
        }
      ],
      "name": "setToknPrice",
      "outputs": [],
      "stateMutability": "nonpayable",
      "type": "function"
    },
    {
      "inputs": [
        {
          "internalType": "uint256",
          "name": "_id",
          "type": "uint256"
        }
      ],
      "name": "startITO",
      "outputs": [],
      "stateMutability": "nonpayable",
      "type": "function"
    },
    {
      "inputs": [
        {
          "internalType": "uint256",
          "name": "_id",
          "type": "uint256"
        }
      ],
      "name": "stopITO",
      "outputs": [],
      "stateMutability": "nonpayable",
      "type": "function"
    },
    {
      "inputs": [
        {
          "internalType": "uint256",
          "name": "_id",
          "type": "uint256"
        }
      ],
      "name": "getCurrentState",
      "outputs": [
        {
          "internalType": "enum ToknITO.State",
          "name": "",
          "type": "uint8"
        }
      ],
      "stateMutability": "view",
      "type": "function",
      "constant": true
    },
    {
      "inputs": [
        {
          "internalType": "uint256",
          "name": "_id",
          "type": "uint256"
        }
      ],
      "name": "getITO",
      "outputs": [
        {
          "components": [
            {
              "internalType": "uint256",
              "name": "toknsAvailable",
              "type": "uint256"
            },
            {
              "internalType": "uint256",
              "name": "price",
              "type": "uint256"
            },
            {
              "internalType": "address[]",
              "name": "investors",
              "type": "address[]"
            },
            {
              "internalType": "enum ToknITO.State",
              "name": "itoState",
              "type": "uint8"
            }
          ],
          "internalType": "struct ToknITO.ITOConfig",
          "name": "",
          "type": "tuple"
        }
      ],
      "stateMutability": "view",
      "type": "function",
      "constant": true
    },
    {
      "inputs": [
        {
          "internalType": "uint256",
          "name": "_id",
          "type": "uint256"
        },
        {
          "internalType": "uint256",
          "name": "_qty",
          "type": "uint256"
        }
      ],
      "name": "investFixedPrice",
      "outputs": [],
      "stateMutability": "nonpayable",
      "type": "function"
    },
    {
      "inputs": [
        {
          "internalType": "uint256",
          "name": "_id",
          "type": "uint256"
        }
      ],
      "name": "allocateFixedPrice",
      "outputs": [],
      "stateMutability": "nonpayable",
      "type": "function"
    },
    {
      "inputs": [
        {
          "internalType": "address",
          "name": "_investor",
          "type": "address"
        },
        {
          "internalType": "uint256",
          "name": "_id",
          "type": "uint256"
        }
      ],
      "name": "getBookedToknsFor",
      "outputs": [
        {
          "internalType": "uint256",
          "name": "",
          "type": "uint256"
        }
      ],
      "stateMutability": "view",
      "type": "function",
      "constant": true
    }
  ],
  "bytecode": "0x608060405260056003553480156200001657600080fd5b506040516200266a3803806200266a83398181016040528101906200003c919062000134565b816000806101000a81548173ffffffffffffffffffffffffffffffffffffffff021916908373ffffffffffffffffffffffffffffffffffffffff16021790555080600160006101000a81548173ffffffffffffffffffffffffffffffffffffffff021916908373ffffffffffffffffffffffffffffffffffffffff16021790555033600260006101000a81548173ffffffffffffffffffffffffffffffffffffffff021916908373ffffffffffffffffffffffffffffffffffffffff160217905550505062000205565b6000815190506200011781620001d1565b92915050565b6000815190506200012e81620001eb565b92915050565b600080604083850312156200014857600080fd5b6000620001588582860162000106565b92505060206200016b858286016200011d565b9150509250929050565b60006200018282620001b1565b9050919050565b6000620001968262000175565b9050919050565b6000620001aa8262000175565b9050919050565b600073ffffffffffffffffffffffffffffffffffffffff82169050919050565b620001dc8162000189565b8114620001e857600080fd5b50565b620001f6816200019d565b81146200020257600080fd5b50565b61245580620002156000396000f3fe608060405234801561001057600080fd5b50600436106101375760003560e01c806375f09088116100b8578063a4a1e2631161007c578063a4a1e26314610376578063a8e361b214610394578063b40573f6146103c4578063b7951910146103e0578063e9fb274c14610410578063f0f442601461042c57610137565b806375f09088146102965780637ab56083146102c6578063926e9802146102e457806399f8c889146103145780639f4216e81461034657610137565b80634d704171116100ff5780634d704171146101de5780635697b4d51461020e5780635748c1301461022a57806361d027b31461025a578063671d60061461027857610137565b8063113a169c1461013c57806311c2e55d1461015857806312d4ed4f14610174578063398eebf0146101a45780633e413bee146101c0575b600080fd5b61015660048036038101906101519190611c82565b610448565b005b610172600480360381019061016d9190611bf4565b610562565b005b61018e60048036038101906101899190611c46565b6105fc565b60405161019b9190612031565b60405180910390f35b6101be60048036038101906101b99190611bf4565b610621565b005b6101c8610c81565b6040516101d59190611fb9565b60405180910390f35b6101f860048036038101906101f39190611b8f565b610ca7565b6040516102059190612031565b60405180910390f35b61022860048036038101906102239190611c82565b610d02565b005b610244600480360381019061023f9190611bf4565b610fac565b6040516102519190611fd4565b60405180910390f35b610262610fd9565b60405161026f9190611ea2565b60405180910390f35b610280610fff565b60405161028d9190611f9e565b60405180910390f35b6102b060048036038101906102ab9190611b3d565b611023565b6040516102bd9190612031565b60405180910390f35b6102ce61103b565b6040516102db9190612031565b60405180910390f35b6102fe60048036038101906102f99190611b3d565b611041565b60405161030b9190612031565b60405180910390f35b61032e60048036038101906103299190611bf4565b611059565b60405161033d9392919061204c565b60405180910390f35b610360600480360381019061035b9190611bf4565b611090565b60405161036d9190611e87565b60405180910390f35b61037e6110cf565b60405161038b9190612031565b60405180910390f35b6103ae60048036038101906103a99190611bf4565b6110dc565b6040516103bb9190611e87565b60405180910390f35b6103de60048036038101906103d99190611bf4565b61111b565b005b6103fa60048036038101906103f59190611bf4565b61134a565b604051610407919061200f565b60405180910390f35b61042a60048036038101906104259190611bf4565b6114a0565b005b61044660048036038101906104419190611b3d565b611687565b005b3373ffffffffffffffffffffffffffffffffffffffff1660008054906101000a900473ffffffffffffffffffffffffffffffffffffffff1673ffffffffffffffffffffffffffffffffffffffff1663e6253d40846040518263ffffffff1660e01b81526004016104b89190612031565b60206040518083038186803b1580156104d057600080fd5b505afa1580156104e4573d6000803e3d6000fd5b505050506040513d601f19601f820116820180604052508101906105089190611b66565b73ffffffffffffffffffffffffffffffffffffffff1614801561052c575060008114155b61053557600080fd5b620f4240816105449190612165565b60056000848152602001908152602001600020600101819055505050565b600260009054906101000a900473ffffffffffffffffffffffffffffffffffffffff1673ffffffffffffffffffffffffffffffffffffffff163373ffffffffffffffffffffffffffffffffffffffff16146105f2576040517f08c379a00000000000000000000000000000000000000000000000000000000081526004016105e990611fef565b60405180910390fd5b8060038190555050565b6004602052816000526040600020602052806000526040600020600091509150505481565b61062a816114a0565b3373ffffffffffffffffffffffffffffffffffffffff1660008054906101000a900473ffffffffffffffffffffffffffffffffffffffff1673ffffffffffffffffffffffffffffffffffffffff1663e6253d40836040518263ffffffff1660e01b815260040161069a9190612031565b60206040518083038186803b1580156106b257600080fd5b505afa1580156106c6573d6000803e3d6000fd5b505050506040513d601f19601f820116820180604052508101906106ea9190611b66565b73ffffffffffffffffffffffffffffffffffffffff161461070a57600080fd5b600380811115610743577f4e487b7100000000000000000000000000000000000000000000000000000000600052602160045260246000fd5b6005600083815260200190815260200160002060030160009054906101000a900460ff16600381111561079f577f4e487b7100000000000000000000000000000000000000000000000000000000600052602160045260246000fd5b146107a957600080fd5b60006005600083815260200190815260200160002060020180548060200260200160405190810160405280929190818152602001828054801561084157602002820191906000526020600020905b8160009054906101000a900473ffffffffffffffffffffffffffffffffffffffff1673ffffffffffffffffffffffffffffffffffffffff16815260200190600101908083116107f7575b5050505050905060005b8151811015610c7c5760008054906101000a900473ffffffffffffffffffffffffffffffffffffffff1673ffffffffffffffffffffffffffffffffffffffff1663f242432a338484815181106108ca577f4e487b7100000000000000000000000000000000000000000000000000000000600052603260045260246000fd5b602002602001015186600460008981526020019081526020016000206000888881518110610921577f4e487b7100000000000000000000000000000000000000000000000000000000600052603260045260246000fd5b602002602001015173ffffffffffffffffffffffffffffffffffffffff1673ffffffffffffffffffffffffffffffffffffffff168152602001908152602001600020546040518563ffffffff1660e01b81526004016109839493929190611f1d565b600060405180830381600087803b15801561099d57600080fd5b505af11580156109b1573d6000803e3d6000fd5b505050506000600460008581526020019081526020016000206000848481518110610a05577f4e487b7100000000000000000000000000000000000000000000000000000000600052603260045260246000fd5b602002602001015173ffffffffffffffffffffffffffffffffffffffff1673ffffffffffffffffffffffffffffffffffffffff168152602001908152602001600020546005600086815260200190815260200160002060010154610a699190612165565b90506000606460035483610a7d9190612165565b610a879190612134565b905060008183610a9791906121bf565b9050600160009054906101000a900473ffffffffffffffffffffffffffffffffffffffff1673ffffffffffffffffffffffffffffffffffffffff1663a9059cbb600260009054906101000a900473ffffffffffffffffffffffffffffffffffffffff16846040518363ffffffff1660e01b8152600401610b18929190611ebd565b602060405180830381600087803b158015610b3257600080fd5b505af1158015610b46573d6000803e3d6000fd5b505050506040513d601f19601f82011682018060405250810190610b6a9190611bcb565b50600160009054906101000a900473ffffffffffffffffffffffffffffffffffffffff1673ffffffffffffffffffffffffffffffffffffffff1663a9059cbb33836040518363ffffffff1660e01b8152600401610bc8929190611f75565b602060405180830381600087803b158015610be257600080fd5b505af1158015610bf6573d6000803e3d6000fd5b505050506040513d601f19601f82011682018060405250810190610c1a9190611bcb565b50610c6686868681518110610c58577f4e487b7100000000000000000000000000000000000000000000000000000000600052603260045260246000fd5b60200260200101518561175b565b5050508080610c74906122f0565b91505061084b565b505050565b600160009054906101000a900473ffffffffffffffffffffffffffffffffffffffff1681565b60006004600083815260200190815260200160002060008473ffffffffffffffffffffffffffffffffffffffff1673ffffffffffffffffffffffffffffffffffffffff16815260200190815260200160002054905092915050565b60056000838152602001908152602001600020600001548111158015610dbb575060016003811115610d5d577f4e487b7100000000000000000000000000000000000000000000000000000000600052602160045260246000fd5b6005600084815260200190815260200160002060030160009054906101000a900460ff166003811115610db9577f4e487b7100000000000000000000000000000000000000000000000000000000600052602160045260246000fd5b145b610dc457600080fd5b6000600560008481526020019081526020016000206001015482610de89190612165565b9050600160009054906101000a900473ffffffffffffffffffffffffffffffffffffffff1673ffffffffffffffffffffffffffffffffffffffff166323b872dd3330846040518463ffffffff1660e01b8152600401610e4993929190611ee6565b602060405180830381600087803b158015610e6357600080fd5b505af1158015610e77573d6000803e3d6000fd5b505050506040513d601f19601f82011682018060405250810190610e9b9190611bcb565b5081600560008581526020019081526020016000206000016000828254610ec291906121bf565b9250508190555060056000848152602001908152602001600020600201339080600181540180825580915050600190039060005260206000200160009091909190916101000a81548173ffffffffffffffffffffffffffffffffffffffff021916908373ffffffffffffffffffffffffffffffffffffffff160217905550816004600085815260200190815260200160002060003373ffffffffffffffffffffffffffffffffffffffff1673ffffffffffffffffffffffffffffffffffffffff1681526020019081526020016000206000828254610fa091906120de565b92505081905550505050565b60006005600083815260200190815260200160002060030160009054906101000a900460ff169050919050565b600260009054906101000a900473ffffffffffffffffffffffffffffffffffffffff1681565b60008054906101000a900473ffffffffffffffffffffffffffffffffffffffff1681565b60066020528060005260406000206000915090505481565b60035481565b60076020528060005260406000206000915090505481565b60056020528060005260406000206000915090508060000154908060010154908060030160009054906101000a900460ff16905083565b600981815481106110a057600080fd5b906000526020600020016000915054906101000a900473ffffffffffffffffffffffffffffffffffffffff1681565b6000600980549050905090565b600881815481106110ec57600080fd5b906000526020600020016000915054906101000a900473ffffffffffffffffffffffffffffffffffffffff1681565b3373ffffffffffffffffffffffffffffffffffffffff1660008054906101000a900473ffffffffffffffffffffffffffffffffffffffff1673ffffffffffffffffffffffffffffffffffffffff1663e6253d40836040518263ffffffff1660e01b815260040161118b9190612031565b60206040518083038186803b1580156111a357600080fd5b505afa1580156111b7573d6000803e3d6000fd5b505050506040513d601f19601f820116820180604052508101906111db9190611b66565b73ffffffffffffffffffffffffffffffffffffffff1614801561121557506000600560008381526020019081526020016000206001015414155b61121e57600080fd5b60016005600083815260200190815260200160002060030160006101000a81548160ff0219169083600381111561127e577f4e487b7100000000000000000000000000000000000000000000000000000000600052602160045260246000fd5b021790555060008054906101000a900473ffffffffffffffffffffffffffffffffffffffff1673ffffffffffffffffffffffffffffffffffffffff1662fdd58e33836040518363ffffffff1660e01b81526004016112dd929190611f75565b60206040518083038186803b1580156112f557600080fd5b505afa158015611309573d6000803e3d6000fd5b505050506040513d601f19601f8201168201806040525081019061132d9190611c1d565b600560008381526020019081526020016000206000018190555050565b611352611a74565b6005600083815260200190815260200160002060405180608001604052908160008201548152602001600182015481526020016002820180548060200260200160405190810160405280929190818152602001828054801561140957602002820191906000526020600020905b8160009054906101000a900473ffffffffffffffffffffffffffffffffffffffff1673ffffffffffffffffffffffffffffffffffffffff16815260200190600101908083116113bf575b505050505081526020016003820160009054906101000a900460ff16600381111561145d577f4e487b7100000000000000000000000000000000000000000000000000000000600052602160045260246000fd5b6003811115611495577f4e487b7100000000000000000000000000000000000000000000000000000000600052602160045260246000fd5b815250509050919050565b3373ffffffffffffffffffffffffffffffffffffffff1660008054906101000a900473ffffffffffffffffffffffffffffffffffffffff1673ffffffffffffffffffffffffffffffffffffffff1663e6253d40836040518263ffffffff1660e01b81526004016115109190612031565b60206040518083038186803b15801561152857600080fd5b505afa15801561153c573d6000803e3d6000fd5b505050506040513d601f19601f820116820180604052508101906115609190611b66565b73ffffffffffffffffffffffffffffffffffffffff161480156116165750600160038111156115b8577f4e487b7100000000000000000000000000000000000000000000000000000000600052602160045260246000fd5b6005600083815260200190815260200160002060030160009054906101000a900460ff166003811115611614577f4e487b7100000000000000000000000000000000000000000000000000000000600052602160045260246000fd5b145b61161f57600080fd5b60036005600083815260200190815260200160002060030160006101000a81548160ff0219169083600381111561167f577f4e487b7100000000000000000000000000000000000000000000000000000000600052602160045260246000fd5b021790555050565b600260009054906101000a900473ffffffffffffffffffffffffffffffffffffffff1673ffffffffffffffffffffffffffffffffffffffff163373ffffffffffffffffffffffffffffffffffffffff1614611717576040517f08c379a000000000000000000000000000000000000000000000000000000000815260040161170e90611fef565b60405180910390fd5b80600260006101000a81548173ffffffffffffffffffffffffffffffffffffffff021916908373ffffffffffffffffffffffffffffffffffffffff16021790555050565b60008060009054906101000a900473ffffffffffffffffffffffffffffffffffffffff1673ffffffffffffffffffffffffffffffffffffffff1663e6253d40856040518263ffffffff1660e01b81526004016117b79190612031565b60206040518083038186803b1580156117cf57600080fd5b505afa1580156117e3573d6000803e3d6000fd5b505050506040513d601f19601f820116820180604052508101906118079190611b66565b90503373ffffffffffffffffffffffffffffffffffffffff168173ffffffffffffffffffffffffffffffffffffffff161480611848575061184733611a5b565b5b61185157600080fd5b6000600660008373ffffffffffffffffffffffffffffffffffffffff1673ffffffffffffffffffffffffffffffffffffffff1681526020019081526020016000205414156118fd576008819080600181540180825580915050600190039060005260206000200160009091909190916101000a81548173ffffffffffffffffffffffffffffffffffffffff021916908373ffffffffffffffffffffffffffffffffffffffff1602179055505b81600660008373ffffffffffffffffffffffffffffffffffffffff1673ffffffffffffffffffffffffffffffffffffffff168152602001908152602001600020600082825461194c91906120de565b925050819055506000600760008573ffffffffffffffffffffffffffffffffffffffff1673ffffffffffffffffffffffffffffffffffffffff1681526020019081526020016000205414156119ff576009839080600181540180825580915050600190039060005260206000200160009091909190916101000a81548173ffffffffffffffffffffffffffffffffffffffff021916908373ffffffffffffffffffffffffffffffffffffffff1602179055505b81600760008573ffffffffffffffffffffffffffffffffffffffff1673ffffffffffffffffffffffffffffffffffffffff1681526020019081526020016000206000828254611a4e91906120de565b9250508190555050505050565b600080823b905060008163ffffffff1611915050919050565b604051806080016040528060008152602001600081526020016060815260200160006003811115611ace577f4e487b7100000000000000000000000000000000000000000000000000000000600052602160045260246000fd5b81525090565b600081359050611ae3816123da565b92915050565b600081519050611af8816123da565b92915050565b600081519050611b0d816123f1565b92915050565b600081359050611b2281612408565b92915050565b600081519050611b3781612408565b92915050565b600060208284031215611b4f57600080fd5b6000611b5d84828501611ad4565b91505092915050565b600060208284031215611b7857600080fd5b6000611b8684828501611ae9565b91505092915050565b60008060408385031215611ba257600080fd5b6000611bb085828601611ad4565b9250506020611bc185828601611b13565b9150509250929050565b600060208284031215611bdd57600080fd5b6000611beb84828501611afe565b91505092915050565b600060208284031215611c0657600080fd5b6000611c1484828501611b13565b91505092915050565b600060208284031215611c2f57600080fd5b6000611c3d84828501611b28565b91505092915050565b60008060408385031215611c5957600080fd5b6000611c6785828601611b13565b9250506020611c7885828601611ad4565b9150509250929050565b60008060408385031215611c9557600080fd5b6000611ca385828601611b13565b9250506020611cb485828601611b13565b9150509250929050565b6000611cca8383611cf4565b60208301905092915050565b611cdf81612260565b82525050565b611cee81612205565b82525050565b611cfd816121f3565b82525050565b611d0c816121f3565b82525050565b6000611d1d82612093565b611d2781856120ab565b9350611d3283612083565b8060005b83811015611d63578151611d4a8882611cbe565b9750611d558361209e565b925050600181019050611d36565b5085935050505092915050565b611d7981612272565b82525050565b611d8881612296565b82525050565b611d97816122ba565b82525050565b611da6816122ba565b82525050565b6000611db96015836120cd565b91507f43616c6c6572206e6f7420617574686f72697a656400000000000000000000006000830152602082019050919050565b6000611df96000836120bc565b9150600082019050919050565b6000608083016000830151611e1e6000860182611e69565b506020830151611e316020860182611e69565b5060408301518482036040860152611e498282611d12565b9150506060830151611e5e6060860182611d8e565b508091505092915050565b611e7281612256565b82525050565b611e8181612256565b82525050565b6000602082019050611e9c6000830184611d03565b92915050565b6000602082019050611eb76000830184611ce5565b92915050565b6000604082019050611ed26000830185611cd6565b611edf6020830184611e78565b9392505050565b6000606082019050611efb6000830186611d03565b611f086020830185611d03565b611f156040830184611e78565b949350505050565b600060a082019050611f326000830187611d03565b611f3f6020830186611d03565b611f4c6040830185611e78565b611f596060830184611e78565b8181036080830152611f6a81611dec565b905095945050505050565b6000604082019050611f8a6000830185611d03565b611f976020830184611e78565b9392505050565b6000602082019050611fb36000830184611d70565b92915050565b6000602082019050611fce6000830184611d7f565b92915050565b6000602082019050611fe96000830184611d9d565b92915050565b6000602082019050818103600083015261200881611dac565b9050919050565b600060208201905081810360008301526120298184611e06565b905092915050565b60006020820190506120466000830184611e78565b92915050565b60006060820190506120616000830186611e78565b61206e6020830185611e78565b61207b6040830184611d9d565b949350505050565b6000819050602082019050919050565b600081519050919050565b6000602082019050919050565b600082825260208201905092915050565b600082825260208201905092915050565b600082825260208201905092915050565b60006120e982612256565b91506120f483612256565b9250827fffffffffffffffffffffffffffffffffffffffffffffffffffffffffffffffff0382111561212957612128612339565b5b828201905092915050565b600061213f82612256565b915061214a83612256565b92508261215a57612159612368565b5b828204905092915050565b600061217082612256565b915061217b83612256565b9250817fffffffffffffffffffffffffffffffffffffffffffffffffffffffffffffffff04831182151516156121b4576121b3612339565b5b828202905092915050565b60006121ca82612256565b91506121d583612256565b9250828210156121e8576121e7612339565b5b828203905092915050565b60006121fe82612236565b9050919050565b600061221082612236565b9050919050565b60008115159050919050565b6000819050612231826123c6565b919050565b600073ffffffffffffffffffffffffffffffffffffffff82169050919050565b6000819050919050565b600061226b826122cc565b9050919050565b600061227d82612284565b9050919050565b600061228f82612236565b9050919050565b60006122a1826122a8565b9050919050565b60006122b382612236565b9050919050565b60006122c582612223565b9050919050565b60006122d7826122de565b9050919050565b60006122e982612236565b9050919050565b60006122fb82612256565b91507fffffffffffffffffffffffffffffffffffffffffffffffffffffffffffffffff82141561232e5761232d612339565b5b600182019050919050565b7f4e487b7100000000000000000000000000000000000000000000000000000000600052601160045260246000fd5b7f4e487b7100000000000000000000000000000000000000000000000000000000600052601260045260246000fd5b7f4e487b7100000000000000000000000000000000000000000000000000000000600052602160045260246000fd5b600481106123d7576123d6612397565b5b50565b6123e3816121f3565b81146123ee57600080fd5b50565b6123fa81612217565b811461240557600080fd5b50565b61241181612256565b811461241c57600080fd5b5056fea26469706673582212205b882d86eb86a751f0bfbd18f76b2737025e89160bf0683fcf8e7e9a4a07a19964736f6c63430008000033",
  "immutableReferences": {},
  "source": "// SPDX-License-Identifier: MIT\r\n\r\npragma solidity^0.8.0;\r\n\r\nimport \"./ToknFactory.sol\";\r\n\r\n\r\n\r\ncontract ToknITO{\r\n    \r\n    ToknFactory public toknFactory;\r\n    UsdcToken public usdc;\r\n    address payable public treasury;\r\n\r\n    uint public treasuryPercentage = 5;\r\n\r\n    enum State {Started, Running, Cancelled, Ended}\r\n    \r\n    struct ITOConfig{\r\n        uint toknsAvailable;\r\n        uint price;\r\n        address[] investors;\r\n        State itoState;\r\n    }\r\n\r\n    mapping(uint => mapping(address => uint)) public bookedTokns;\r\n    mapping(uint => ITOConfig) public toknITOs;\r\n    mapping(address => uint) public artistTracker;\r\n    mapping(address => uint) public userTracker;\r\n    \r\n    address[] public artistList;\r\n    address[] public userList;\r\n\r\n\r\n    \r\n    constructor(ToknFactory _toknFactory, UsdcToken _usdc){\r\n        toknFactory = _toknFactory;\r\n        usdc = _usdc;\r\n        treasury = payable(msg.sender);\r\n    }\r\n    \r\n    function setTreasuryPercentage(uint _pc) public {\r\n        require(msg.sender == treasury, \"Caller not authorized\");\r\n        treasuryPercentage = _pc;\r\n    }\r\n\r\n    function setTreasury(address _treasury) public {\r\n        require(msg.sender == treasury, \"Caller not authorized\");\r\n        treasury = payable(_treasury);\r\n    }\r\n\r\n    function getUsersCount() public view returns(uint){\r\n        return userList.length;    \r\n    }\r\n    \r\n    function isContract(address _addr) private view returns (bool){\r\n      uint32 size;\r\n      assembly {\r\n        size := extcodesize(_addr)\r\n      }\r\n      return (size > 0);\r\n    }\r\n    \r\n    function airdropTracker(uint _id, address _receiver, uint _price) internal {\r\n        // if(_id == 1){\r\n        //     require(msg.sender == toknFactory.deployer());\r\n        // } else{\r\n            address artist = toknFactory.toknIdToArtist(_id);\r\n            require(artist == msg.sender || isContract(msg.sender));\r\n            if(artistTracker[artist] == 0) {\r\n                artistList.push(artist); \r\n            }\r\n            artistTracker[artist] += _price;\r\n        // }\r\n        if(userTracker[_receiver] == 0) {\r\n            userList.push(_receiver);\r\n        }\r\n        userTracker[_receiver] += _price;\r\n    }\r\n    \r\n\r\n    function setToknPrice(uint _id, uint _price) public {\r\n        \r\n        require(toknFactory.toknIdToArtist(_id) == msg.sender && _price != 0);\r\n        toknITOs[_id].price = _price*10**6;\r\n    }\r\n    \r\n   \r\n    \r\n    function startITO(uint _id) public {\r\n        \r\n        require(toknFactory.toknIdToArtist(_id) == msg.sender && toknITOs[_id].price != 0);\r\n        toknITOs[_id].itoState = State.Running;\r\n        toknITOs[_id].toknsAvailable = toknFactory.balanceOf(msg.sender, _id);\r\n    }\r\n    \r\n    function stopITO(uint _id) public {\r\n        \r\n        require(toknFactory.toknIdToArtist(_id) == msg.sender && toknITOs[_id].itoState== State.Running);\r\n        toknITOs[_id].itoState = State.Ended;\r\n    }    \r\n    \r\n    function getCurrentState(uint _id) public view returns(State) {\r\n        \r\n        return toknITOs[_id].itoState;\r\n    }\r\n\r\n    function getITO(uint _id) public view returns(ITOConfig memory) {\r\n        return toknITOs[_id];\r\n    }\r\n    \r\n    function investFixedPrice(uint _id, uint _qty) public{\r\n        \r\n        require(_qty <= toknITOs[_id].toknsAvailable && toknITOs[_id].itoState == State.Running);\r\n        uint usdcAmount = _qty * toknITOs[_id].price;\r\n        usdc.transferFrom(msg.sender, address(this), usdcAmount);\r\n        toknITOs[_id].toknsAvailable -= _qty;\r\n        toknITOs[_id].investors.push(payable(msg.sender));\r\n        bookedTokns[_id][msg.sender] += _qty;\r\n    }\r\n    \r\n    function allocateFixedPrice(uint _id) public{\r\n        stopITO(_id);\r\n        \r\n        require(toknFactory.toknIdToArtist(_id) == msg.sender);\r\n        require(toknITOs[_id].itoState == State.Ended);\r\n        address[] memory toknInvestors = toknITOs[_id].investors;\r\n        for(uint i = 0; i < toknInvestors.length; i++) {\r\n            toknFactory.safeTransferFrom(msg.sender, toknInvestors[i], _id, bookedTokns[_id][toknInvestors[i]], \"\");\r\n            uint amount = toknITOs[_id].price * bookedTokns[_id][toknInvestors[i]];\r\n        uint treasury_amount = amount*treasuryPercentage/uint(100);\r\n        uint artistAmount = amount - treasury_amount;\r\n        usdc.transfer(treasury, treasury_amount);\r\n          usdc.transfer(msg.sender, artistAmount);\r\n            airdropTracker(_id, toknInvestors[i], amount);\r\n        }\r\n    }\r\n    \r\n   function getBookedToknsFor(address _investor, uint _id) public view returns (uint) {\r\n       return bookedTokns[_id][_investor];\r\n   }\r\n    \r\n}",
  "sourcePath": "C:\\Users\\sj931\\OneDrive\\Desktop\\Tokn\\alpha\\Tokn-alpha\\Alpha-Contracts\\contracts\\ToknITO.sol",
  "compiler": {
    "name": "solc",
    "version": "0.8.0+commit.c7dfd78e.Emscripten.clang"
  },
  "schemaVersion": "3.4.3",
  "updatedAt": "2022-01-04T17:32:26.890Z",
  "networkType": "ethereum",
  "devdoc": {
    "kind": "dev",
    "methods": {},
    "version": 1
  },
  "userdoc": {
    "kind": "user",
    "methods": {},
    "version": 1
  }
}