{
  "contractName": "ToknITO",
  "abi": [
    {
      "inputs": [
        {
          "internalType": "contract ToknFactory",
          "name": "_toknFactory",
          "type": "address"
        },
        {
          "internalType": "contract UsdcToken",
          "name": "_usdc",
          "type": "address"
        }
      ],
      "stateMutability": "nonpayable",
      "type": "constructor"
    },
    {
      "inputs": [
        {
          "internalType": "uint256",
          "name": "",
          "type": "uint256"
        }
      ],
      "name": "artistList",
      "outputs": [
        {
          "internalType": "address",
          "name": "",
          "type": "address"
        }
      ],
      "stateMutability": "view",
      "type": "function",
      "constant": true
    },
    {
      "inputs": [
        {
          "internalType": "address",
          "name": "",
          "type": "address"
        }
      ],
      "name": "artistTracker",
      "outputs": [
        {
          "internalType": "uint256",
          "name": "",
          "type": "uint256"
        }
      ],
      "stateMutability": "view",
      "type": "function",
      "constant": true
    },
    {
      "inputs": [
        {
          "internalType": "uint256",
          "name": "",
          "type": "uint256"
        },
        {
          "internalType": "address",
          "name": "",
          "type": "address"
        }
      ],
      "name": "bookedTokns",
      "outputs": [
        {
          "internalType": "uint256",
          "name": "",
          "type": "uint256"
        }
      ],
      "stateMutability": "view",
      "type": "function",
      "constant": true
    },
    {
      "inputs": [],
      "name": "toknFactory",
      "outputs": [
        {
          "internalType": "contract ToknFactory",
          "name": "",
          "type": "address"
        }
      ],
      "stateMutability": "view",
      "type": "function",
      "constant": true
    },
    {
      "inputs": [
        {
          "internalType": "uint256",
          "name": "",
          "type": "uint256"
        }
      ],
      "name": "toknITOs",
      "outputs": [
        {
          "internalType": "uint256",
          "name": "toknsAvailable",
          "type": "uint256"
        },
        {
          "internalType": "uint256",
          "name": "price",
          "type": "uint256"
        },
        {
          "internalType": "enum ToknITO.State",
          "name": "itoState",
          "type": "uint8"
        }
      ],
      "stateMutability": "view",
      "type": "function",
      "constant": true
    },
    {
      "inputs": [],
      "name": "treasury",
      "outputs": [
        {
          "internalType": "address payable",
          "name": "",
          "type": "address"
        }
      ],
      "stateMutability": "view",
      "type": "function",
      "constant": true
    },
    {
      "inputs": [],
      "name": "treasuryPercentage",
      "outputs": [
        {
          "internalType": "uint256",
          "name": "",
          "type": "uint256"
        }
      ],
      "stateMutability": "view",
      "type": "function",
      "constant": true
    },
    {
      "inputs": [],
      "name": "usdc",
      "outputs": [
        {
          "internalType": "contract UsdcToken",
          "name": "",
          "type": "address"
        }
      ],
      "stateMutability": "view",
      "type": "function",
      "constant": true
    },
    {
      "inputs": [
        {
          "internalType": "uint256",
          "name": "",
          "type": "uint256"
        }
      ],
      "name": "userList",
      "outputs": [
        {
          "internalType": "address",
          "name": "",
          "type": "address"
        }
      ],
      "stateMutability": "view",
      "type": "function",
      "constant": true
    },
    {
      "inputs": [
        {
          "internalType": "address",
          "name": "",
          "type": "address"
        }
      ],
      "name": "userTracker",
      "outputs": [
        {
          "internalType": "uint256",
          "name": "",
          "type": "uint256"
        }
      ],
      "stateMutability": "view",
      "type": "function",
      "constant": true
    },
    {
      "inputs": [
        {
          "internalType": "uint256",
          "name": "_pc",
          "type": "uint256"
        }
      ],
      "name": "setTreasuryPercentage",
      "outputs": [],
      "stateMutability": "nonpayable",
      "type": "function"
    },
    {
      "inputs": [
        {
          "internalType": "address",
          "name": "_treasury",
          "type": "address"
        }
      ],
      "name": "setTreasury",
      "outputs": [],
      "stateMutability": "nonpayable",
      "type": "function"
    },
    {
      "inputs": [],
      "name": "getUsersCount",
      "outputs": [
        {
          "internalType": "uint256",
          "name": "",
          "type": "uint256"
        }
      ],
      "stateMutability": "view",
      "type": "function",
      "constant": true
    },
    {
      "inputs": [
        {
          "internalType": "uint256",
          "name": "_id",
          "type": "uint256"
        },
        {
          "internalType": "uint256",
          "name": "_price",
          "type": "uint256"
        }
      ],
      "name": "setToknPrice",
      "outputs": [],
      "stateMutability": "nonpayable",
      "type": "function"
    },
    {
      "inputs": [
        {
          "internalType": "uint256",
          "name": "_id",
          "type": "uint256"
        }
      ],
      "name": "startITO",
      "outputs": [],
      "stateMutability": "nonpayable",
      "type": "function"
    },
    {
      "inputs": [
        {
          "internalType": "uint256",
          "name": "_id",
          "type": "uint256"
        }
      ],
      "name": "stopITO",
      "outputs": [],
      "stateMutability": "nonpayable",
      "type": "function"
    },
    {
      "inputs": [
        {
          "internalType": "uint256",
          "name": "_id",
          "type": "uint256"
        }
      ],
      "name": "getCurrentState",
      "outputs": [
        {
          "internalType": "enum ToknITO.State",
          "name": "",
          "type": "uint8"
        }
      ],
      "stateMutability": "view",
      "type": "function",
      "constant": true
    },
    {
      "inputs": [
        {
          "internalType": "uint256",
          "name": "_id",
          "type": "uint256"
        }
      ],
      "name": "getITO",
      "outputs": [
        {
          "components": [
            {
              "internalType": "uint256",
              "name": "toknsAvailable",
              "type": "uint256"
            },
            {
              "internalType": "uint256",
              "name": "price",
              "type": "uint256"
            },
            {
              "internalType": "address[]",
              "name": "investors",
              "type": "address[]"
            },
            {
              "internalType": "enum ToknITO.State",
              "name": "itoState",
              "type": "uint8"
            }
          ],
          "internalType": "struct ToknITO.ITOConfig",
          "name": "",
          "type": "tuple"
        }
      ],
      "stateMutability": "view",
      "type": "function",
      "constant": true
    },
    {
      "inputs": [
        {
          "internalType": "uint256",
          "name": "_id",
          "type": "uint256"
        },
        {
          "internalType": "uint256",
          "name": "_qty",
          "type": "uint256"
        }
      ],
      "name": "investFixedPrice",
      "outputs": [],
      "stateMutability": "nonpayable",
      "type": "function"
    },
    {
      "inputs": [
        {
          "internalType": "address",
          "name": "_user",
          "type": "address"
        },
        {
          "internalType": "uint256",
          "name": "_id",
          "type": "uint256"
        },
        {
          "internalType": "uint256",
          "name": "_amount",
          "type": "uint256"
        }
      ],
      "name": "bookTokensForUser",
      "outputs": [],
      "stateMutability": "nonpayable",
      "type": "function"
    },
    {
      "inputs": [
        {
          "internalType": "address[]",
          "name": "_users",
          "type": "address[]"
        },
        {
          "internalType": "uint256",
          "name": "_id",
          "type": "uint256"
        },
        {
          "internalType": "uint256[]",
          "name": "_amounts",
          "type": "uint256[]"
        }
      ],
      "name": "bookTokensForUsers",
      "outputs": [],
      "stateMutability": "nonpayable",
      "type": "function"
    },
    {
      "inputs": [
        {
          "internalType": "uint256",
          "name": "_id",
          "type": "uint256"
        }
      ],
      "name": "allocateFixedPrice",
      "outputs": [],
      "stateMutability": "nonpayable",
      "type": "function"
    },
    {
      "inputs": [
        {
          "internalType": "address",
          "name": "_investor",
          "type": "address"
        },
        {
          "internalType": "uint256",
          "name": "_id",
          "type": "uint256"
        }
      ],
      "name": "getBookedToknsFor",
      "outputs": [
        {
          "internalType": "uint256",
          "name": "",
          "type": "uint256"
        }
      ],
      "stateMutability": "view",
      "type": "function",
      "constant": true
    }
  ],
  "bytecode": "0x608060405260056003553480156200001657600080fd5b5060405162002e5438038062002e5483398181016040528101906200003c919062000134565b816000806101000a81548173ffffffffffffffffffffffffffffffffffffffff021916908373ffffffffffffffffffffffffffffffffffffffff16021790555080600160006101000a81548173ffffffffffffffffffffffffffffffffffffffff021916908373ffffffffffffffffffffffffffffffffffffffff16021790555033600260006101000a81548173ffffffffffffffffffffffffffffffffffffffff021916908373ffffffffffffffffffffffffffffffffffffffff160217905550505062000205565b6000815190506200011781620001d1565b92915050565b6000815190506200012e81620001eb565b92915050565b600080604083850312156200014857600080fd5b6000620001588582860162000106565b92505060206200016b858286016200011d565b9150509250929050565b60006200018282620001b1565b9050919050565b6000620001968262000175565b9050919050565b6000620001aa8262000175565b9050919050565b600073ffffffffffffffffffffffffffffffffffffffff82169050919050565b620001dc8162000189565b8114620001e857600080fd5b50565b620001f6816200019d565b81146200020257600080fd5b50565b612c3f80620002156000396000f3fe608060405234801561001057600080fd5b506004361061014d5760003560e01c80637ab56083116100c3578063a8e361b21161007c578063a8e361b2146103c6578063b40573f6146103f6578063b795191014610412578063e9fb274c14610442578063f0f442601461045e578063f24748d91461047a5761014d565b80637ab56083146102dc578063926e9802146102fa57806399f8c8891461032a5780639e4baa3d1461035c5780639f4216e814610378578063a4a1e263146103a85761014d565b80634d704171116101155780634d704171146101f45780635697b4d5146102245780635748c1301461024057806361d027b314610270578063671d60061461028e57806375f09088146102ac5761014d565b8063113a169c1461015257806311c2e55d1461016e57806312d4ed4f1461018a578063398eebf0146101ba5780633e413bee146101d6575b600080fd5b61016c60048036038101906101679190612455565b610496565b005b610188600480360381019061018391906123c7565b6105b0565b005b6101a4600480360381019061019f9190612419565b61064a565b6040516101b19190612804565b60405180910390f35b6101d460048036038101906101cf91906123c7565b61066f565b005b6101de610cb5565b6040516101eb919061278c565b60405180910390f35b61020e6004803603810190610209919061228a565b610cdb565b60405161021b9190612804565b60405180910390f35b61023e60048036038101906102399190612455565b610d36565b005b61025a600480360381019061025591906123c7565b61100a565b60405161026791906127a7565b60405180910390f35b610278611037565b6040516102859190612675565b60405180910390f35b61029661105d565b6040516102a39190612771565b60405180910390f35b6102c660048036038101906102c1919061220f565b611081565b6040516102d39190612804565b60405180910390f35b6102e4611099565b6040516102f19190612804565b60405180910390f35b610314600480360381019061030f919061220f565b61109f565b6040516103219190612804565b60405180910390f35b610344600480360381019061033f91906123c7565b6110b7565b6040516103539392919061281f565b60405180910390f35b610376600480360381019061037191906122c6565b6110ee565b005b610392600480360381019061038d91906123c7565b611355565b60405161039f919061265a565b60405180910390f35b6103b0611394565b6040516103bd9190612804565b60405180910390f35b6103e060048036038101906103db91906123c7565b6113a1565b6040516103ed919061265a565b60405180910390f35b610410600480360381019061040b91906123c7565b6113e0565b005b61042c600480360381019061042791906123c7565b61160f565b60405161043991906127e2565b60405180910390f35b61045c600480360381019061045791906123c7565b611765565b005b6104786004803603810190610473919061220f565b61194c565b005b610494600480360381019061048f9190612315565b611a20565b005b3373ffffffffffffffffffffffffffffffffffffffff1660008054906101000a900473ffffffffffffffffffffffffffffffffffffffff1673ffffffffffffffffffffffffffffffffffffffff1663e6253d40846040518263ffffffff1660e01b81526004016105069190612804565b60206040518083038186803b15801561051e57600080fd5b505afa158015610532573d6000803e3d6000fd5b505050506040513d601f19601f820116820180604052508101906105569190612238565b73ffffffffffffffffffffffffffffffffffffffff1614801561057a575060008114155b61058357600080fd5b620f4240816105929190612938565b60056000848152602001908152602001600020600101819055505050565b600260009054906101000a900473ffffffffffffffffffffffffffffffffffffffff1673ffffffffffffffffffffffffffffffffffffffff163373ffffffffffffffffffffffffffffffffffffffff1614610640576040517f08c379a0000000000000000000000000000000000000000000000000000000008152600401610637906127c2565b60405180910390fd5b8060038190555050565b6004602052816000526040600020602052806000526040600020600091509150505481565b3373ffffffffffffffffffffffffffffffffffffffff1660008054906101000a900473ffffffffffffffffffffffffffffffffffffffff1673ffffffffffffffffffffffffffffffffffffffff1663e6253d40836040518263ffffffff1660e01b81526004016106df9190612804565b60206040518083038186803b1580156106f757600080fd5b505afa15801561070b573d6000803e3d6000fd5b505050506040513d601f19601f8201168201806040525081019061072f9190612238565b73ffffffffffffffffffffffffffffffffffffffff161461074f57600080fd5b600380811115610788577f4e487b7100000000000000000000000000000000000000000000000000000000600052602160045260246000fd5b6005600083815260200190815260200160002060030160009054906101000a900460ff1660038111156107e4577f4e487b7100000000000000000000000000000000000000000000000000000000600052602160045260246000fd5b146107ee57600080fd5b60006005600083815260200190815260200160002060020180548060200260200160405190810160405280929190818152602001828054801561088657602002820191906000526020600020905b8160009054906101000a900473ffffffffffffffffffffffffffffffffffffffff1673ffffffffffffffffffffffffffffffffffffffff168152602001906001019080831161083c575b5050505050905060005b8151811015610cb05760008054906101000a900473ffffffffffffffffffffffffffffffffffffffff1673ffffffffffffffffffffffffffffffffffffffff1663f242432a3384848151811061090f577f4e487b7100000000000000000000000000000000000000000000000000000000600052603260045260246000fd5b602002602001015186600460008981526020019081526020016000206000888881518110610966577f4e487b7100000000000000000000000000000000000000000000000000000000600052603260045260246000fd5b602002602001015173ffffffffffffffffffffffffffffffffffffffff1673ffffffffffffffffffffffffffffffffffffffff168152602001908152602001600020546040518563ffffffff1660e01b81526004016109c894939291906126f0565b600060405180830381600087803b1580156109e257600080fd5b505af11580156109f6573d6000803e3d6000fd5b505050506000600460008581526020019081526020016000206000848481518110610a4a577f4e487b7100000000000000000000000000000000000000000000000000000000600052603260045260246000fd5b602002602001015173ffffffffffffffffffffffffffffffffffffffff1673ffffffffffffffffffffffffffffffffffffffff168152602001908152602001600020546005600086815260200190815260200160002060010154610aae9190612938565b90506000606460035483610ac29190612938565b610acc9190612907565b9050600160009054906101000a900473ffffffffffffffffffffffffffffffffffffffff1673ffffffffffffffffffffffffffffffffffffffff1663a9059cbb600260009054906101000a900473ffffffffffffffffffffffffffffffffffffffff16836040518363ffffffff1660e01b8152600401610b4d929190612690565b602060405180830381600087803b158015610b6757600080fd5b505af1158015610b7b573d6000803e3d6000fd5b505050506040513d601f19601f82011682018060405250810190610b9f919061239e565b50600160009054906101000a900473ffffffffffffffffffffffffffffffffffffffff1673ffffffffffffffffffffffffffffffffffffffff1663a9059cbb33846040518363ffffffff1660e01b8152600401610bfd929190612748565b602060405180830381600087803b158015610c1757600080fd5b505af1158015610c2b573d6000803e3d6000fd5b505050506040513d601f19601f82011682018060405250810190610c4f919061239e565b50610c9b85858581518110610c8d577f4e487b7100000000000000000000000000000000000000000000000000000000600052603260045260246000fd5b602002602001015184611d84565b50508080610ca890612ac3565b915050610890565b505050565b600160009054906101000a900473ffffffffffffffffffffffffffffffffffffffff1681565b60006004600083815260200190815260200160002060008473ffffffffffffffffffffffffffffffffffffffff1673ffffffffffffffffffffffffffffffffffffffff16815260200190815260200160002054905092915050565b60056000838152602001908152602001600020600001548111158015610def575060016003811115610d91577f4e487b7100000000000000000000000000000000000000000000000000000000600052602160045260246000fd5b6005600084815260200190815260200160002060030160009054906101000a900460ff166003811115610ded577f4e487b7100000000000000000000000000000000000000000000000000000000600052602160045260246000fd5b145b610df857600080fd5b6000600560008481526020019081526020016000206001015482610e1c9190612938565b90506000606460035483610e309190612938565b610e3a9190612907565b9050600160009054906101000a900473ffffffffffffffffffffffffffffffffffffffff1673ffffffffffffffffffffffffffffffffffffffff166323b872dd33308486610e8891906128b1565b6040518463ffffffff1660e01b8152600401610ea6939291906126b9565b602060405180830381600087803b158015610ec057600080fd5b505af1158015610ed4573d6000803e3d6000fd5b505050506040513d601f19601f82011682018060405250810190610ef8919061239e565b5082600560008681526020019081526020016000206000016000828254610f1f9190612992565b9250508190555060056000858152602001908152602001600020600201339080600181540180825580915050600190039060005260206000200160009091909190916101000a81548173ffffffffffffffffffffffffffffffffffffffff021916908373ffffffffffffffffffffffffffffffffffffffff160217905550826004600086815260200190815260200160002060003373ffffffffffffffffffffffffffffffffffffffff1673ffffffffffffffffffffffffffffffffffffffff1681526020019081526020016000206000828254610ffd91906128b1565b9250508190555050505050565b60006005600083815260200190815260200160002060030160009054906101000a900460ff169050919050565b600260009054906101000a900473ffffffffffffffffffffffffffffffffffffffff1681565b60008054906101000a900473ffffffffffffffffffffffffffffffffffffffff1681565b60066020528060005260406000206000915090505481565b60035481565b60076020528060005260406000206000915090505481565b60056020528060005260406000206000915090508060000154908060010154908060030160009054906101000a900460ff16905083565b60008054906101000a900473ffffffffffffffffffffffffffffffffffffffff1673ffffffffffffffffffffffffffffffffffffffff1663d5f394886040518163ffffffff1660e01b815260040160206040518083038186803b15801561115457600080fd5b505afa158015611168573d6000803e3d6000fd5b505050506040513d601f19601f8201168201806040525081019061118c9190612261565b73ffffffffffffffffffffffffffffffffffffffff163373ffffffffffffffffffffffffffffffffffffffff16146111c357600080fd5b600060056000848152602001908152602001600020600101549050600060035460646111ef91906128b1565b6064846111fc9190612938565b6112069190612907565b9050600082620f42408361121a9190612938565b6112249190612907565b9050806004600087815260200190815260200160002060008873ffffffffffffffffffffffffffffffffffffffff1673ffffffffffffffffffffffffffffffffffffffff168152602001908152602001600020600082825461128691906128b1565b92505081905550600160009054906101000a900473ffffffffffffffffffffffffffffffffffffffff1673ffffffffffffffffffffffffffffffffffffffff166323b872dd3330620f4240886112dc9190612938565b6040518463ffffffff1660e01b81526004016112fa939291906126b9565b602060405180830381600087803b15801561131457600080fd5b505af1158015611328573d6000803e3d6000fd5b505050506040513d601f19601f8201168201806040525081019061134c919061239e565b50505050505050565b6009818154811061136557600080fd5b906000526020600020016000915054906101000a900473ffffffffffffffffffffffffffffffffffffffff1681565b6000600980549050905090565b600881815481106113b157600080fd5b906000526020600020016000915054906101000a900473ffffffffffffffffffffffffffffffffffffffff1681565b3373ffffffffffffffffffffffffffffffffffffffff1660008054906101000a900473ffffffffffffffffffffffffffffffffffffffff1673ffffffffffffffffffffffffffffffffffffffff1663e6253d40836040518263ffffffff1660e01b81526004016114509190612804565b60206040518083038186803b15801561146857600080fd5b505afa15801561147c573d6000803e3d6000fd5b505050506040513d601f19601f820116820180604052508101906114a09190612238565b73ffffffffffffffffffffffffffffffffffffffff161480156114da57506000600560008381526020019081526020016000206001015414155b6114e357600080fd5b60016005600083815260200190815260200160002060030160006101000a81548160ff02191690836003811115611543577f4e487b7100000000000000000000000000000000000000000000000000000000600052602160045260246000fd5b021790555060008054906101000a900473ffffffffffffffffffffffffffffffffffffffff1673ffffffffffffffffffffffffffffffffffffffff1662fdd58e33836040518363ffffffff1660e01b81526004016115a2929190612748565b60206040518083038186803b1580156115ba57600080fd5b505afa1580156115ce573d6000803e3d6000fd5b505050506040513d601f19601f820116820180604052508101906115f291906123f0565b600560008381526020019081526020016000206000018190555050565b61161761209d565b600560008381526020019081526020016000206040518060800160405290816000820154815260200160018201548152602001600282018054806020026020016040519081016040528092919081815260200182805480156116ce57602002820191906000526020600020905b8160009054906101000a900473ffffffffffffffffffffffffffffffffffffffff1673ffffffffffffffffffffffffffffffffffffffff1681526020019060010190808311611684575b505050505081526020016003820160009054906101000a900460ff166003811115611722577f4e487b7100000000000000000000000000000000000000000000000000000000600052602160045260246000fd5b600381111561175a577f4e487b7100000000000000000000000000000000000000000000000000000000600052602160045260246000fd5b815250509050919050565b3373ffffffffffffffffffffffffffffffffffffffff1660008054906101000a900473ffffffffffffffffffffffffffffffffffffffff1673ffffffffffffffffffffffffffffffffffffffff1663e6253d40836040518263ffffffff1660e01b81526004016117d59190612804565b60206040518083038186803b1580156117ed57600080fd5b505afa158015611801573d6000803e3d6000fd5b505050506040513d601f19601f820116820180604052508101906118259190612238565b73ffffffffffffffffffffffffffffffffffffffff161480156118db57506001600381111561187d577f4e487b7100000000000000000000000000000000000000000000000000000000600052602160045260246000fd5b6005600083815260200190815260200160002060030160009054906101000a900460ff1660038111156118d9577f4e487b7100000000000000000000000000000000000000000000000000000000600052602160045260246000fd5b145b6118e457600080fd5b60036005600083815260200190815260200160002060030160006101000a81548160ff02191690836003811115611944577f4e487b7100000000000000000000000000000000000000000000000000000000600052602160045260246000fd5b021790555050565b600260009054906101000a900473ffffffffffffffffffffffffffffffffffffffff1673ffffffffffffffffffffffffffffffffffffffff163373ffffffffffffffffffffffffffffffffffffffff16146119dc576040517f08c379a00000000000000000000000000000000000000000000000000000000081526004016119d3906127c2565b60405180910390fd5b80600260006101000a81548173ffffffffffffffffffffffffffffffffffffffff021916908373ffffffffffffffffffffffffffffffffffffffff16021790555050565b60008054906101000a900473ffffffffffffffffffffffffffffffffffffffff1673ffffffffffffffffffffffffffffffffffffffff1663d5f394886040518163ffffffff1660e01b815260040160206040518083038186803b158015611a8657600080fd5b505afa158015611a9a573d6000803e3d6000fd5b505050506040513d601f19601f82011682018060405250810190611abe9190612261565b73ffffffffffffffffffffffffffffffffffffffff163373ffffffffffffffffffffffffffffffffffffffff1614611af557600080fd5b6000806005600086815260200190815260200160002060010154905060005b87879050811015611cc857620f4240858583818110611b5c577f4e487b7100000000000000000000000000000000000000000000000000000000600052603260045260246000fd5b90506020020135611b6d9190612938565b83611b7891906128b1565b925060006003546064611b8b91906128b1565b6064878785818110611bc6577f4e487b7100000000000000000000000000000000000000000000000000000000600052603260045260246000fd5b90506020020135611bd79190612938565b611be19190612907565b9050600083620f424083611bf59190612938565b611bff9190612907565b905080600460008a815260200190815260200160002060008c8c87818110611c50577f4e487b7100000000000000000000000000000000000000000000000000000000600052603260045260246000fd5b9050602002016020810190611c65919061220f565b73ffffffffffffffffffffffffffffffffffffffff1673ffffffffffffffffffffffffffffffffffffffff1681526020019081526020016000206000828254611cae91906128b1565b92505081905550505080611cc190612ac3565b9050611b14565b50600160009054906101000a900473ffffffffffffffffffffffffffffffffffffffff1673ffffffffffffffffffffffffffffffffffffffff166323b872dd3330856040518463ffffffff1660e01b8152600401611d28939291906126b9565b602060405180830381600087803b158015611d4257600080fd5b505af1158015611d56573d6000803e3d6000fd5b505050506040513d601f19601f82011682018060405250810190611d7a919061239e565b5050505050505050565b60008060009054906101000a900473ffffffffffffffffffffffffffffffffffffffff1673ffffffffffffffffffffffffffffffffffffffff1663e6253d40856040518263ffffffff1660e01b8152600401611de09190612804565b60206040518083038186803b158015611df857600080fd5b505afa158015611e0c573d6000803e3d6000fd5b505050506040513d601f19601f82011682018060405250810190611e309190612238565b90503373ffffffffffffffffffffffffffffffffffffffff168173ffffffffffffffffffffffffffffffffffffffff161480611e715750611e7033612084565b5b611e7a57600080fd5b6000600660008373ffffffffffffffffffffffffffffffffffffffff1673ffffffffffffffffffffffffffffffffffffffff168152602001908152602001600020541415611f26576008819080600181540180825580915050600190039060005260206000200160009091909190916101000a81548173ffffffffffffffffffffffffffffffffffffffff021916908373ffffffffffffffffffffffffffffffffffffffff1602179055505b81600660008373ffffffffffffffffffffffffffffffffffffffff1673ffffffffffffffffffffffffffffffffffffffff1681526020019081526020016000206000828254611f7591906128b1565b925050819055506000600760008573ffffffffffffffffffffffffffffffffffffffff1673ffffffffffffffffffffffffffffffffffffffff168152602001908152602001600020541415612028576009839080600181540180825580915050600190039060005260206000200160009091909190916101000a81548173ffffffffffffffffffffffffffffffffffffffff021916908373ffffffffffffffffffffffffffffffffffffffff1602179055505b81600760008573ffffffffffffffffffffffffffffffffffffffff1673ffffffffffffffffffffffffffffffffffffffff168152602001908152602001600020600082825461207791906128b1565b9250508190555050505050565b600080823b905060008163ffffffff1611915050919050565b6040518060800160405280600081526020016000815260200160608152602001600060038111156120f7577f4e487b7100000000000000000000000000000000000000000000000000000000600052602160045260246000fd5b81525090565b60008135905061210c81612bad565b92915050565b60008151905061212181612bad565b92915050565b60008151905061213681612bc4565b92915050565b60008083601f84011261214e57600080fd5b8235905067ffffffffffffffff81111561216757600080fd5b60208301915083602082028301111561217f57600080fd5b9250929050565b60008083601f84011261219857600080fd5b8235905067ffffffffffffffff8111156121b157600080fd5b6020830191508360208202830111156121c957600080fd5b9250929050565b6000815190506121df81612bdb565b92915050565b6000813590506121f481612bf2565b92915050565b60008151905061220981612bf2565b92915050565b60006020828403121561222157600080fd5b600061222f848285016120fd565b91505092915050565b60006020828403121561224a57600080fd5b600061225884828501612112565b91505092915050565b60006020828403121561227357600080fd5b600061228184828501612127565b91505092915050565b6000806040838503121561229d57600080fd5b60006122ab858286016120fd565b92505060206122bc858286016121e5565b9150509250929050565b6000806000606084860312156122db57600080fd5b60006122e9868287016120fd565b93505060206122fa868287016121e5565b925050604061230b868287016121e5565b9150509250925092565b60008060008060006060868803121561232d57600080fd5b600086013567ffffffffffffffff81111561234757600080fd5b6123538882890161213c565b95509550506020612366888289016121e5565b935050604086013567ffffffffffffffff81111561238357600080fd5b61238f88828901612186565b92509250509295509295909350565b6000602082840312156123b057600080fd5b60006123be848285016121d0565b91505092915050565b6000602082840312156123d957600080fd5b60006123e7848285016121e5565b91505092915050565b60006020828403121561240257600080fd5b6000612410848285016121fa565b91505092915050565b6000806040838503121561242c57600080fd5b600061243a858286016121e5565b925050602061244b858286016120fd565b9150509250929050565b6000806040838503121561246857600080fd5b6000612476858286016121e5565b9250506020612487858286016121e5565b9150509250929050565b600061249d83836124c7565b60208301905092915050565b6124b281612a33565b82525050565b6124c1816129d8565b82525050565b6124d0816129c6565b82525050565b6124df816129c6565b82525050565b60006124f082612866565b6124fa818561287e565b935061250583612856565b8060005b8381101561253657815161251d8882612491565b975061252883612871565b925050600181019050612509565b5085935050505092915050565b61254c81612a45565b82525050565b61255b81612a69565b82525050565b61256a81612a8d565b82525050565b61257981612a8d565b82525050565b600061258c6015836128a0565b91507f43616c6c6572206e6f7420617574686f72697a656400000000000000000000006000830152602082019050919050565b60006125cc60008361288f565b9150600082019050919050565b60006080830160008301516125f1600086018261263c565b506020830151612604602086018261263c565b506040830151848203604086015261261c82826124e5565b91505060608301516126316060860182612561565b508091505092915050565b61264581612a29565b82525050565b61265481612a29565b82525050565b600060208201905061266f60008301846124d6565b92915050565b600060208201905061268a60008301846124b8565b92915050565b60006040820190506126a560008301856124a9565b6126b2602083018461264b565b9392505050565b60006060820190506126ce60008301866124d6565b6126db60208301856124d6565b6126e8604083018461264b565b949350505050565b600060a08201905061270560008301876124d6565b61271260208301866124d6565b61271f604083018561264b565b61272c606083018461264b565b818103608083015261273d816125bf565b905095945050505050565b600060408201905061275d60008301856124d6565b61276a602083018461264b565b9392505050565b60006020820190506127866000830184612543565b92915050565b60006020820190506127a16000830184612552565b92915050565b60006020820190506127bc6000830184612570565b92915050565b600060208201905081810360008301526127db8161257f565b9050919050565b600060208201905081810360008301526127fc81846125d9565b905092915050565b6000602082019050612819600083018461264b565b92915050565b6000606082019050612834600083018661264b565b612841602083018561264b565b61284e6040830184612570565b949350505050565b6000819050602082019050919050565b600081519050919050565b6000602082019050919050565b600082825260208201905092915050565b600082825260208201905092915050565b600082825260208201905092915050565b60006128bc82612a29565b91506128c783612a29565b9250827fffffffffffffffffffffffffffffffffffffffffffffffffffffffffffffffff038211156128fc576128fb612b0c565b5b828201905092915050565b600061291282612a29565b915061291d83612a29565b92508261292d5761292c612b3b565b5b828204905092915050565b600061294382612a29565b915061294e83612a29565b9250817fffffffffffffffffffffffffffffffffffffffffffffffffffffffffffffffff048311821515161561298757612986612b0c565b5b828202905092915050565b600061299d82612a29565b91506129a883612a29565b9250828210156129bb576129ba612b0c565b5b828203905092915050565b60006129d182612a09565b9050919050565b60006129e382612a09565b9050919050565b60008115159050919050565b6000819050612a0482612b99565b919050565b600073ffffffffffffffffffffffffffffffffffffffff82169050919050565b6000819050919050565b6000612a3e82612a9f565b9050919050565b6000612a5082612a57565b9050919050565b6000612a6282612a09565b9050919050565b6000612a7482612a7b565b9050919050565b6000612a8682612a09565b9050919050565b6000612a98826129f6565b9050919050565b6000612aaa82612ab1565b9050919050565b6000612abc82612a09565b9050919050565b6000612ace82612a29565b91507fffffffffffffffffffffffffffffffffffffffffffffffffffffffffffffffff821415612b0157612b00612b0c565b5b600182019050919050565b7f4e487b7100000000000000000000000000000000000000000000000000000000600052601160045260246000fd5b7f4e487b7100000000000000000000000000000000000000000000000000000000600052601260045260246000fd5b7f4e487b7100000000000000000000000000000000000000000000000000000000600052602160045260246000fd5b60048110612baa57612ba9612b6a565b5b50565b612bb6816129c6565b8114612bc157600080fd5b50565b612bcd816129d8565b8114612bd857600080fd5b50565b612be4816129ea565b8114612bef57600080fd5b50565b612bfb81612a29565b8114612c0657600080fd5b5056fea2646970667358221220b2b379cb3e1c9045a9bc38cb2ac884cfbd7cf49a798a6e2d59fd563193d4c4ea64736f6c63430008000033",
  "immutableReferences": {},
  "source": "// SPDX-License-Identifier: MIT\r\n\r\npragma solidity^0.8.0;\r\n\r\nimport \"./ToknFactory.sol\";\r\n\r\n\r\n\r\ncontract ToknITO{\r\n    \r\n    ToknFactory public toknFactory;\r\n    UsdcToken public usdc;\r\n    address payable public treasury;\r\n\r\n    uint public treasuryPercentage = 5;\r\n\r\n    enum State {Started, Running, Cancelled, Ended}\r\n    \r\n    struct ITOConfig{\r\n        uint toknsAvailable;\r\n        uint price;\r\n        address[] investors;\r\n        State itoState;\r\n    }\r\n\r\n    mapping(uint => mapping(address => uint)) public bookedTokns;\r\n    mapping(uint => ITOConfig) public toknITOs;\r\n    mapping(address => uint) public artistTracker;\r\n    mapping(address => uint) public userTracker;\r\n    // mapping(address => uint) public hasPaid;\r\n    \r\n    address[] public artistList;\r\n    address[] public userList;\r\n\r\n\r\n    \r\n    constructor(ToknFactory _toknFactory, UsdcToken _usdc){\r\n        toknFactory = _toknFactory;\r\n        usdc = _usdc;\r\n        treasury = payable(msg.sender);\r\n    }\r\n    \r\n    // function setUserHasPaid(address _user, uint _amount) public {\r\n    //     require(msg.sender== toknFactory.deployer(), \"User not authorized\");\r\n    //     hasPaid[_user] = _amount;\r\n    // }\r\n\r\n    // function setUsersHavePaid(address[] memory _users, uint[] memory _amounts) public {\r\n    //     require(msg.sender== toknFactory.deployer(), \"User not authorized\");\r\n    //     for(uint i = 0; i<_users.length; ++i){\r\n    //         setUserHasPaid(_users[i], _amounts[i]);\r\n    //     }\r\n    // }\r\n    function setTreasuryPercentage(uint _pc) public {\r\n        require(msg.sender == treasury, \"Caller not authorized\");\r\n        treasuryPercentage = _pc;\r\n    }\r\n\r\n    function setTreasury(address _treasury) public {\r\n        require(msg.sender == treasury, \"Caller not authorized\");\r\n        treasury = payable(_treasury);\r\n    }\r\n\r\n    function getUsersCount() public view returns(uint){\r\n        return userList.length;    \r\n    }\r\n    \r\n    function isContract(address _addr) private view returns (bool){\r\n      uint32 size;\r\n      assembly {\r\n        size := extcodesize(_addr)\r\n      }\r\n      return (size > 0);\r\n    }\r\n    \r\n    function airdropTracker(uint _id, address _receiver, uint _price) internal {\r\n        // if(_id == 1){\r\n        //     require(msg.sender == toknFactory.deployer());\r\n        // } else{\r\n            address artist = toknFactory.toknIdToArtist(_id);\r\n            require(artist == msg.sender || isContract(msg.sender));\r\n            if(artistTracker[artist] == 0) {\r\n                artistList.push(artist); \r\n            }\r\n            artistTracker[artist] += _price;\r\n        // }\r\n        if(userTracker[_receiver] == 0) {\r\n            userList.push(_receiver);\r\n        }\r\n        userTracker[_receiver] += _price;\r\n    }\r\n    \r\n\r\n    function setToknPrice(uint _id, uint _price) public {\r\n        \r\n        require(toknFactory.toknIdToArtist(_id) == msg.sender && _price != 0);\r\n        toknITOs[_id].price = _price*10**6;\r\n    }\r\n    \r\n   \r\n    \r\n    function startITO(uint _id) public {\r\n        \r\n        require(toknFactory.toknIdToArtist(_id) == msg.sender && toknITOs[_id].price != 0);\r\n        toknITOs[_id].itoState = State.Running;\r\n        toknITOs[_id].toknsAvailable = toknFactory.balanceOf(msg.sender, _id);\r\n    }\r\n    \r\n    function stopITO(uint _id) public {\r\n        \r\n        require(toknFactory.toknIdToArtist(_id) == msg.sender && toknITOs[_id].itoState== State.Running);\r\n        toknITOs[_id].itoState = State.Ended;\r\n    }    \r\n    \r\n    function getCurrentState(uint _id) public view returns(State) {\r\n        \r\n        return toknITOs[_id].itoState;\r\n    }\r\n\r\n    function getITO(uint _id) public view returns(ITOConfig memory) {\r\n        return toknITOs[_id];\r\n    }\r\n    \r\n    function investFixedPrice(uint _id, uint _qty) public{\r\n        \r\n        require(_qty <= toknITOs[_id].toknsAvailable && toknITOs[_id].itoState == State.Running);\r\n        uint usdcAmount = _qty * toknITOs[_id].price;\r\n        uint platform_fee = usdcAmount*treasuryPercentage/uint(100);\r\n        usdc.transferFrom(msg.sender, address(this), usdcAmount+platform_fee);\r\n        toknITOs[_id].toknsAvailable -= _qty;\r\n        toknITOs[_id].investors.push(payable(msg.sender));\r\n        bookedTokns[_id][msg.sender] += _qty;\r\n    }\r\n\r\n    // function redeemBookedTokens(uint _id) public {\r\n    //     require(toknITOs[_id].itoState == State.Running);\r\n    //     require(hasPaid[msg.sender] != 0, \"User has not paid.\");\r\n    //     uint toknPrice = toknITOs[_id].price;\r\n    //     uint _qty = hasPaid[msg.sender]/toknPrice;\r\n    //     require(_qty <= toknITOs[_id].toknsAvailable );\r\n    //     toknITOs[_id].toknsAvailable -= _qty;\r\n    //     toknITOs[_id].investors.push(payable(msg.sender));\r\n    //     bookedTokns[_id][msg.sender] += _qty;\r\n    //     hasPaid[msg.sender] = 0;\r\n    // }\r\n\r\n    function bookTokensForUser(address _user, uint _id, uint _amount) public {\r\n        require(msg.sender == toknFactory.deployer());\r\n        uint toknPrice = toknITOs[_id].price;\r\n        uint cost = _amount*100/uint(100 + treasuryPercentage);\r\n        uint tokens = cost*10**6/toknPrice;\r\n        bookedTokns[_id][_user] += tokens;\r\n        usdc.transferFrom(msg.sender, address(this), _amount*10**6);\r\n    }\r\n\r\n    function bookTokensForUsers(address[] calldata _users, uint _id, uint[] calldata _amounts) public {\r\n        require(msg.sender == toknFactory.deployer());\r\n        uint amount = 0;\r\n        uint toknPrice = toknITOs[_id].price;\r\n        for(uint i = 0; i < _users.length; ++i){\r\n            amount += _amounts[i]*10**6;\r\n            uint cost = _amounts[i]*100/uint(100 + treasuryPercentage);\r\n            uint tokens = cost*10**6/toknPrice;\r\n            bookedTokns[_id][_users[i]] += tokens;\r\n        }\r\n        usdc.transferFrom(msg.sender, address(this), amount);\r\n\r\n    }\r\n    \r\n    function allocateFixedPrice(uint _id) public{\r\n        // stopITO(_id);\r\n        \r\n        require(toknFactory.toknIdToArtist(_id) == msg.sender);\r\n        require(toknITOs[_id].itoState == State.Ended);\r\n        address[] memory toknInvestors = toknITOs[_id].investors;\r\n        for(uint i = 0; i < toknInvestors.length; i++) {\r\n            toknFactory.safeTransferFrom(msg.sender, toknInvestors[i], _id, bookedTokns[_id][toknInvestors[i]], \"\");\r\n            uint amount = toknITOs[_id].price * bookedTokns[_id][toknInvestors[i]];\r\n            uint treasury_amount = amount*treasuryPercentage/uint(100);\r\n            // uint artistAmount = amount - treasury_amount;\r\n            usdc.transfer(treasury, treasury_amount);\r\n            usdc.transfer(msg.sender, amount);\r\n            airdropTracker(_id, toknInvestors[i], amount);\r\n        }\r\n    }\r\n    \r\n   function getBookedToknsFor(address _investor, uint _id) public view returns (uint) {\r\n       return bookedTokns[_id][_investor];\r\n   }\r\n    \r\n}",
  "sourcePath": "C:\\Users\\sj931\\OneDrive\\Desktop\\Tokn\\alpha\\Tokn-alpha\\Alpha-Contracts\\contracts\\ToknITO.sol",
  "compiler": {
    "name": "solc",
    "version": "0.8.0+commit.c7dfd78e.Emscripten.clang"
  },
  "schemaVersion": "3.4.3",
  "updatedAt": "2022-01-23T16:23:48.111Z",
  "networkType": "ethereum",
  "devdoc": {
    "kind": "dev",
    "methods": {},
    "version": 1
  },
  "userdoc": {
    "kind": "user",
    "methods": {},
    "version": 1
  }
}